{
  "_format": "hh3-artifact-1",
  "contractName": "AranDAOMarket",
  "sourceName": "contracts/market/Market.sol",
  "abi": [
    {
      "inputs": [
        {
          "internalType": "address",
          "name": "_marketTokenAddress",
          "type": "address"
        }
      ],
      "stateMutability": "nonpayable",
      "type": "constructor"
    },
    {
      "inputs": [
        {
          "internalType": "uint256",
          "name": "requiredBalance",
          "type": "uint256"
        },
        {
          "internalType": "uint256",
          "name": "availableBalance",
          "type": "uint256"
        }
      ],
      "name": "MarketBuyerInsufficientBalance",
      "type": "error"
    },
    {
      "inputs": [
        {
          "internalType": "uint256",
          "name": "productId",
          "type": "uint256"
        }
      ],
      "name": "MarketProductInactive",
      "type": "error"
    },
    {
      "inputs": [
        {
          "internalType": "address",
          "name": "sellerAddress",
          "type": "address"
        }
      ],
      "name": "MarketSellerDnmNotLocked",
      "type": "error"
    },
    {
      "inputs": [
        {
          "internalType": "uint256",
          "name": "requiredBalance",
          "type": "uint256"
        },
        {
          "internalType": "uint256",
          "name": "availableBalance",
          "type": "uint256"
        }
      ],
      "name": "MarketSellerInsufficientBalance",
      "type": "error"
    },
    {
      "inputs": [
        {
          "internalType": "address",
          "name": "owner",
          "type": "address"
        }
      ],
      "name": "OwnableInvalidOwner",
      "type": "error"
    },
    {
      "inputs": [
        {
          "internalType": "address",
          "name": "account",
          "type": "address"
        }
      ],
      "name": "OwnableUnauthorizedAccount",
      "type": "error"
    },
    {
      "anonymous": false,
      "inputs": [
        {
          "indexed": true,
          "internalType": "address",
          "name": "previousOwner",
          "type": "address"
        },
        {
          "indexed": true,
          "internalType": "address",
          "name": "newOwner",
          "type": "address"
        }
      ],
      "name": "OwnershipTransferred",
      "type": "event"
    },
    {
      "anonymous": false,
      "inputs": [
        {
          "indexed": true,
          "internalType": "address",
          "name": "sellerAddress",
          "type": "address"
        },
        {
          "indexed": true,
          "internalType": "uint256",
          "name": "tokenId",
          "type": "uint256"
        },
        {
          "indexed": false,
          "internalType": "uint256",
          "name": "bv",
          "type": "uint256"
        },
        {
          "indexed": false,
          "internalType": "uint256",
          "name": "sv",
          "type": "uint256"
        }
      ],
      "name": "ProductCreated",
      "type": "event"
    },
    {
      "anonymous": false,
      "inputs": [
        {
          "indexed": true,
          "internalType": "address",
          "name": "sellerAddress",
          "type": "address"
        }
      ],
      "name": "SellerLockedDnm",
      "type": "event"
    },
    {
      "anonymous": false,
      "inputs": [
        {
          "indexed": false,
          "internalType": "address",
          "name": "sellerAddress",
          "type": "address"
        }
      ],
      "name": "SellerWithdrawnDnm",
      "type": "event"
    },
    {
      "inputs": [
        {
          "internalType": "uint256",
          "name": "bv",
          "type": "uint256"
        },
        {
          "internalType": "uint256",
          "name": "sv",
          "type": "uint256"
        },
        {
          "internalType": "uint256",
          "name": "quantity",
          "type": "uint256"
        },
        {
          "internalType": "string",
          "name": "ipfsCid",
          "type": "string"
        }
      ],
      "name": "createProduct",
      "outputs": [],
      "stateMutability": "nonpayable",
      "type": "function"
    },
    {
      "inputs": [],
      "name": "dnmAddress",
      "outputs": [
        {
          "internalType": "address",
          "name": "",
          "type": "address"
        }
      ],
      "stateMutability": "view",
      "type": "function"
    },
    {
      "inputs": [],
      "name": "gatewayAddress",
      "outputs": [
        {
          "internalType": "address",
          "name": "",
          "type": "address"
        }
      ],
      "stateMutability": "view",
      "type": "function"
    },
    {
      "inputs": [],
      "name": "marketTokenAddress",
      "outputs": [
        {
          "internalType": "address",
          "name": "",
          "type": "address"
        }
      ],
      "stateMutability": "view",
      "type": "function"
    },
    {
      "inputs": [],
      "name": "owner",
      "outputs": [
        {
          "internalType": "address",
          "name": "",
          "type": "address"
        }
      ],
      "stateMutability": "view",
      "type": "function"
    },
    {
      "inputs": [
        {
          "internalType": "uint256",
          "name": "",
          "type": "uint256"
        }
      ],
      "name": "products",
      "outputs": [
        {
          "internalType": "address",
          "name": "sellerAddress",
          "type": "address"
        },
        {
          "internalType": "uint256",
          "name": "bv",
          "type": "uint256"
        },
        {
          "internalType": "uint256",
          "name": "sv",
          "type": "uint256"
        },
        {
          "internalType": "bool",
          "name": "active",
          "type": "bool"
        }
      ],
      "stateMutability": "view",
      "type": "function"
    },
    {
      "inputs": [
        {
          "components": [
            {
              "internalType": "uint256",
              "name": "productId",
              "type": "uint256"
            },
            {
              "internalType": "uint256",
              "name": "quantity",
              "type": "uint256"
            }
          ],
          "internalType": "struct MarketLib.PurchaseProduct[]",
          "name": "purchaseProducts",
          "type": "tuple[]"
        },
        {
          "internalType": "address",
          "name": "parentAddress",
          "type": "address"
        },
        {
          "internalType": "uint8",
          "name": "position",
          "type": "uint8"
        }
      ],
      "name": "purchaseProduct",
      "outputs": [],
      "stateMutability": "nonpayable",
      "type": "function"
    },
    {
      "inputs": [],
      "name": "purchaseTokenAddress",
      "outputs": [
        {
          "internalType": "address",
          "name": "",
          "type": "address"
        }
      ],
      "stateMutability": "view",
      "type": "function"
    },
    {
      "inputs": [],
      "name": "renounceOwnership",
      "outputs": [],
      "stateMutability": "nonpayable",
      "type": "function"
    },
    {
      "inputs": [
        {
          "internalType": "address",
          "name": "",
          "type": "address"
        }
      ],
      "name": "sellerLockedDnm",
      "outputs": [
        {
          "internalType": "bool",
          "name": "",
          "type": "bool"
        }
      ],
      "stateMutability": "view",
      "type": "function"
    },
    {
      "inputs": [
        {
          "internalType": "address",
          "name": "_marketTokenAddress",
          "type": "address"
        },
        {
          "internalType": "address",
          "name": "_purchaseTokenAddress",
          "type": "address"
        },
        {
          "internalType": "address",
          "name": "_dnmAddress",
          "type": "address"
        },
        {
          "internalType": "address",
          "name": "_gatewayAddress",
          "type": "address"
        }
      ],
      "name": "setMarketTokenAddress",
      "outputs": [],
      "stateMutability": "nonpayable",
      "type": "function"
    },
    {
      "inputs": [
        {
          "internalType": "uint256",
          "name": "tokenId",
          "type": "uint256"
        },
        {
          "internalType": "bool",
          "name": "status",
          "type": "bool"
        }
      ],
      "name": "setProductStatus",
      "outputs": [],
      "stateMutability": "nonpayable",
      "type": "function"
    },
    {
      "inputs": [
        {
          "internalType": "address",
          "name": "newOwner",
          "type": "address"
        }
      ],
      "name": "transferOwnership",
      "outputs": [],
      "stateMutability": "nonpayable",
      "type": "function"
    },
    {
      "inputs": [],
      "name": "withdrawSellerDnm",
      "outputs": [],
      "stateMutability": "nonpayable",
      "type": "function"
    }
  ],
  "bytecode": "0x608060405234801561000f575f5ffd5b5060405161148638038061148683398101604081905261002e916100d1565b338061005357604051631e4fbdf760e01b81525f600482015260240160405180910390fd5b61005c81610082565b50600180546001600160a01b0319166001600160a01b03929092169190911790556100fe565b5f80546001600160a01b038381166001600160a01b0319831681178455604051919092169283917f8be0079c531659141344cd1fd0a4f28419497f9722a3daafe3b4186f6b6457e09190a35050565b5f602082840312156100e1575f5ffd5b81516001600160a01b03811681146100f7575f5ffd5b9392505050565b61137b8061010b5f395ff3fe608060405234801561000f575f5ffd5b50600436106100e5575f3560e01c806394f74d6111610088578063bde3386211610063578063bde3386214610226578063d69a6ef414610239578063ebb896251461024c578063f2fde38b1461025f575f5ffd5b806394f74d61146101ed578063a5441bc014610200578063a70e0b3014610213575f5ffd5b80637acc0b20116100c35780637acc0b20146101325780637fa04b3a1461019f5780638b851b95146101ca5780638da5cb5b146101dd575f5ffd5b806309ca92c8146100e9578063131fbdc814610120578063715018a61461012a575b5f5ffd5b61010b6100f7366004610e5b565b60066020525f908152604090205460ff1681565b60405190151581526020015b60405180910390f35b610128610272565b005b6101286103a1565b610173610140366004610e74565b60056020525f908152604090208054600182015460028301546003909301546001600160a01b0390921692909160ff1684565b604080516001600160a01b03909516855260208501939093529183015215156060820152608001610117565b6001546101b2906001600160a01b031681565b6040516001600160a01b039091168152602001610117565b6004546101b2906001600160a01b031681565b5f546001600160a01b03166101b2565b6101286101fb366004610f09565b6103b4565b6003546101b2906001600160a01b031681565b610128610221366004610ffb565b610935565b6002546101b2906001600160a01b031681565b610128610247366004611059565b61098d565b61012861025a366004611087565b610a61565b61012861026d366004610e5b565b610baa565b335f9081526006602052604090205460ff166102d55760405162461bcd60e51b815260206004820152601860248201527f53656c6c657220444e4d206973206e6f74206c6f636b6564000000000000000060448201526064015b60405180910390fd5b6003546040516323b872dd60e01b81526001600160a01b039091169081906323b872dd906103139030903390678ac7230489e8000090600401611137565b6020604051808303815f875af115801561032f573d5f5f3e3d5ffd5b505050506040513d601f19601f82011682018060405250810190610353919061115b565b50335f81815260066020908152604091829020805460ff1916905590519182527f01f9c720123f30841c359b575631385fb6d024292b0437dfe904bc54cad8a1f8910160405180910390a150565b6103a9610be7565b6103b25f610c13565b565b60015483516001600160a01b03909116905f9067ffffffffffffffff8111156103df576103df610e8b565b60405190808252806020026020018201604052801561043a57816020015b61042760405180606001604052805f6001600160a01b031681526020015f81526020015f81525090565b8152602001906001900390816103fd5790505b5090505f5b85518110156108c8575f86828151811061045b5761045b61117d565b60200260200101515f015190505f87838151811061047b5761047b61117d565b6020908102919091018101518101515f84815260058352604090819020815160808101835281546001600160a01b03168082526001830154958201959095526002820154928101929092526003015460ff1615156060820152909250906105185760405162461bcd60e51b8152602060048201526011602482015270141c9bd91d58dd081b9bdd08199bdd5b99607a1b60448201526064016102cc565b806060015161053d57604051634b895ff160e01b8152600481018490526024016102cc565b80516001600160a01b03165f9081526006602052604090205460ff166105845780516040516375d660fd60e01b81526001600160a01b0390911660048201526024016102cc565b6002546040516370a0823160e01b81523360048201526001600160a01b03909116905f9082906370a0823190602401602060405180830381865afa1580156105ce573d5f5f3e3d5ffd5b505050506040513d601f19601f820116820180604052508101906105f29190611191565b90505f8461060885602001518660400151610c62565b61061291906111bc565b90508082101561063f5760405163195c0d6f60e01b815260048101829052602481018390526044016102cc565b8351604051627eeac760e11b81526001600160a01b039182166004820152602481018890525f918b169062fdd58e90604401602060405180830381865afa15801561068c573d5f5f3e3d5ffd5b505050506040513d601f19601f820116820180604052508101906106b09190611191565b9050858110156106dc57604051628c624b60e01b815260048101879052602481018290526044016102cc565b5f6106ef86602001518760400151610c8e565b9050846001600160a01b03166323b872dd33885f01518a8561071191906111bc565b6040518463ffffffff1660e01b815260040161072f93929190611137565b6020604051808303815f875af115801561074b573d5f5f3e3d5ffd5b505050506040513d601f19601f8201168201806040525081019061076f919061115b565b506004546001600160a01b03808716916323b872dd913391166107928b866111bc565b61079c90886111d3565b6040518463ffffffff1660e01b81526004016107ba93929190611137565b6020604051808303815f875af11580156107d6573d5f5f3e3d5ffd5b505050506040513d601f19601f820116820180604052508101906107fa919061115b565b508551604080516020810182525f81529051637921219560e11b81526001600160a01b038e169263f242432a9261083a9233918e918e9190600401611214565b5f604051808303815f87803b158015610851575f5ffd5b505af1158015610863573d5f5f3e3d5ffd5b505050506040518060600160405280875f01516001600160a01b031681526020018760400151815260200187602001518152508a8a815181106108a8576108a861117d565b60200260200101819052505050505050505050808060010191505061043f565b50600480546040516329e7c12760e01b81526001600160a01b039091169182916329e7c127916109009133918a918a91899101611258565b5f604051808303815f87803b158015610917575f5ffd5b505af1158015610929573d5f5f3e3d5ffd5b50505050505050505050565b61093d610be7565b600180546001600160a01b039586166001600160a01b0319918216179091556002805494861694821694909417909355600380549285169284169290921790915560048054919093169116179055565b5f82815260056020526040902080546001600160a01b03166109e55760405162461bcd60e51b8152602060048201526011602482015270141c9bd91d58dd081b9bdd08199bdd5b99607a1b60448201526064016102cc565b80546001600160a01b03163314610a4c5760405162461bcd60e51b815260206004820152602560248201527f4f6e6c792073656c6c65722063616e20746f67676c652070726f647563742073604482015264746174757360d81b60648201526084016102cc565b600301805460ff191691151591909117905550565b335f9081526006602052604090205460ff16610a8057610a8033610ca4565b6001546040516334ff261960e21b81526001600160a01b03909116905f90829063d3fc986490610ab8903390889088906004016112e4565b6020604051808303815f875af1158015610ad4573d5f5f3e3d5ffd5b505050506040513d601f19601f82011682018060405250810190610af89190611191565b604080516080810182523380825260208083018b81528385018b81526001606086018181525f89815260058652889020965187546001600160a01b0319166001600160a01b03909116178755925190860155516002850155516003909301805460ff19169315159390931790925582518a81529182018990529293508392917ff6e4d5991d43b8f0508a8ded04e4b8f555c903a7bcba3ccb4d8486480c1ba947910160405180910390a3505050505050565b610bb2610be7565b6001600160a01b038116610bdb57604051631e4fbdf760e01b81525f60048201526024016102cc565b610be481610c13565b50565b5f546001600160a01b031633146103b25760405163118cdaa760e01b81523360048201526024016102cc565b5f80546001600160a01b038381166001600160a01b0319831681178455604051919092169283917f8be0079c531659141344cd1fd0a4f28419497f9722a3daafe3b4186f6b6457e09190a35050565b5f816064610c718560656111bc565b610c7b9190611313565b610c859190611332565b90505b92915050565b5f610c9a606484611313565b610c8590836111d3565b6003546040516370a0823160e01b81526001600160a01b038381166004830152909116905f9082906370a0823190602401602060405180830381865afa158015610cf0573d5f5f3e3d5ffd5b505050506040513d601f19601f82011682018060405250810190610d149190611191565b9050678ac7230489e80000811015610d7a5760405162461bcd60e51b815260206004820152602360248201527f53656c6c657220686173206c657373207468616e20313020444e4d2062616c616044820152626e636560e81b60648201526084016102cc565b6040516323b872dd60e01b81526001600160a01b038316906323b872dd90610db29086903090678ac7230489e8000090600401611137565b6020604051808303815f875af1158015610dce573d5f5f3e3d5ffd5b505050506040513d601f19601f82011682018060405250810190610df2919061115b565b506001600160a01b0383165f81815260066020526040808220805460ff19166001179055517faadac26ca36b2ba8e963a4a8efa3f5569b3c551c3e54b53b0e3bd52867cd97129190a2505050565b80356001600160a01b0381168114610e56575f5ffd5b919050565b5f60208284031215610e6b575f5ffd5b610c8582610e40565b5f60208284031215610e84575f5ffd5b5035919050565b634e487b7160e01b5f52604160045260245ffd5b6040805190810167ffffffffffffffff81118282101715610ec257610ec2610e8b565b60405290565b604051601f8201601f1916810167ffffffffffffffff81118282101715610ef157610ef1610e8b565b604052919050565b803560ff81168114610e56575f5ffd5b5f5f5f60608486031215610f1b575f5ffd5b833567ffffffffffffffff811115610f31575f5ffd5b8401601f81018613610f41575f5ffd5b803567ffffffffffffffff811115610f5b57610f5b610e8b565b610f6a60208260051b01610ec8565b8082825260208201915060208360061b850101925088831115610f8b575f5ffd5b6020840193505b82841015610fd2576040848a031215610fa9575f5ffd5b610fb1610e9f565b84358152602080860135818301529083526040909401939190910190610f92565b9550610fe49250505060208501610e40565b9150610ff260408501610ef9565b90509250925092565b5f5f5f5f6080858703121561100e575f5ffd5b61101785610e40565b935061102560208601610e40565b925061103360408601610e40565b915061104160608601610e40565b905092959194509250565b8015158114610be4575f5ffd5b5f5f6040838503121561106a575f5ffd5b82359150602083013561107c8161104c565b809150509250929050565b5f5f5f5f6080858703121561109a575f5ffd5b843593506020850135925060408501359150606085013567ffffffffffffffff8111156110c5575f5ffd5b8501601f810187136110d5575f5ffd5b803567ffffffffffffffff8111156110ef576110ef610e8b565b611102601f8201601f1916602001610ec8565b818152886020838501011115611116575f5ffd5b816020840160208301375f6020838301015280935050505092959194509250565b6001600160a01b039384168152919092166020820152604081019190915260600190565b5f6020828403121561116b575f5ffd5b81516111768161104c565b9392505050565b634e487b7160e01b5f52603260045260245ffd5b5f602082840312156111a1575f5ffd5b5051919050565b634e487b7160e01b5f52601160045260245ffd5b8082028115828204841417610c8857610c886111a8565b81810381811115610c8857610c886111a8565b5f81518084528060208401602086015e5f602082860101526020601f19601f83011685010191505092915050565b6001600160a01b03868116825285166020820152604081018490526060810183905260a0608082018190525f9061124d908301846111e6565b979650505050505050565b6001600160a01b038581168252841660208083019190915260ff8416604083015260806060830181905283519083018190525f9184019060a0840190835b818110156112d657835180516001600160a01b03168452602080820151818601526040918201519185019190915290930192606090920191600101611296565b509098975050505050505050565b60018060a01b0384168152826020820152606060408201525f61130a60608301846111e6565b95945050505050565b5f8261132d57634e487b7160e01b5f52601260045260245ffd5b500490565b80820180821115610c8857610c886111a856fea2646970667358221220b2583f2cd88a8a418ac3c091b13910b27ac9c8a0b8b4880241d7bf37b9c3959b64736f6c634300081c0033",
  "linkReferences": {},
  "deployedLinkReferences": {},
  "immutableReferences": {},
  "inputSourceName": "project/contracts/market/Market.sol",
  "buildInfoId": "solc-0_8_28-9036c6e8ac7786d62fcf6dd3af6b969f0a202e95"
}