{
  "_format": "hh3-artifact-1",
  "contractName": "AranDaoProCore",
  "sourceName": "contracts/core/Core.sol",
  "abi": [
    {
      "inputs": [
        {
          "internalType": "address",
          "name": "_initAdmin",
          "type": "address"
        },
        {
          "internalType": "address",
          "name": "_dnmAddress",
          "type": "address"
        },
        {
          "internalType": "address",
          "name": "_paymentTokenAddress",
          "type": "address"
        },
        {
          "internalType": "address",
          "name": "_vaultAddress",
          "type": "address"
        }
      ],
      "stateMutability": "nonpayable",
      "type": "constructor"
    },
    {
      "inputs": [],
      "name": "AddressAlreadyRegistered",
      "type": "error"
    },
    {
      "inputs": [],
      "name": "FirstUserMustBeRoot",
      "type": "error"
    },
    {
      "inputs": [],
      "name": "InsufficientBVForNewUser",
      "type": "error"
    },
    {
      "inputs": [],
      "name": "InvalidParentAddress",
      "type": "error"
    },
    {
      "inputs": [],
      "name": "InvalidParentId",
      "type": "error"
    },
    {
      "inputs": [],
      "name": "InvalidPosition",
      "type": "error"
    },
    {
      "inputs": [
        {
          "internalType": "uint256",
          "name": "orderId",
          "type": "uint256"
        }
      ],
      "name": "OrderNotExisted",
      "type": "error"
    },
    {
      "inputs": [
        {
          "internalType": "uint8",
          "name": "position",
          "type": "uint8"
        },
        {
          "internalType": "uint256",
          "name": "parentBv",
          "type": "uint256"
        }
      ],
      "name": "ParentInsufficientBVForPosition",
      "type": "error"
    },
    {
      "inputs": [],
      "name": "PositionAlreadyTaken",
      "type": "error"
    },
    {
      "inputs": [],
      "name": "ReentrancyGuardReentrantCall",
      "type": "error"
    },
    {
      "inputs": [],
      "name": "SellerNotRegistered",
      "type": "error"
    },
    {
      "inputs": [
        {
          "internalType": "address",
          "name": "_address",
          "type": "address"
        }
      ],
      "name": "UnauthorizedAddress",
      "type": "error"
    },
    {
      "inputs": [
        {
          "internalType": "address",
          "name": "contractAddress",
          "type": "address"
        }
      ],
      "name": "UnauthorizedContract",
      "type": "error"
    },
    {
      "inputs": [],
      "name": "UserAlreadyRegistered",
      "type": "error"
    },
    {
      "inputs": [],
      "name": "UserHasAlreadyWithdrawnFastValueShare",
      "type": "error"
    },
    {
      "inputs": [],
      "name": "UserHasNoFastValueShares",
      "type": "error"
    },
    {
      "inputs": [],
      "name": "UserNotRegistered",
      "type": "error"
    },
    {
      "anonymous": false,
      "inputs": [
        {
          "indexed": false,
          "internalType": "uint256",
          "name": "userId",
          "type": "uint256"
        },
        {
          "indexed": false,
          "internalType": "address",
          "name": "oldAddress",
          "type": "address"
        },
        {
          "indexed": false,
          "internalType": "address",
          "name": "newAddress",
          "type": "address"
        }
      ],
      "name": "AddressChangeRequested",
      "type": "event"
    },
    {
      "anonymous": false,
      "inputs": [
        {
          "indexed": true,
          "internalType": "uint256",
          "name": "userId",
          "type": "uint256"
        },
        {
          "indexed": true,
          "internalType": "address",
          "name": "oldAddress",
          "type": "address"
        },
        {
          "indexed": true,
          "internalType": "address",
          "name": "newAddress",
          "type": "address"
        }
      ],
      "name": "AddressChanged",
      "type": "event"
    },
    {
      "anonymous": false,
      "inputs": [
        {
          "indexed": true,
          "internalType": "uint256",
          "name": "userId",
          "type": "uint256"
        },
        {
          "indexed": false,
          "internalType": "uint256",
          "name": "amount",
          "type": "uint256"
        }
      ],
      "name": "CommissionWithdrawn",
      "type": "event"
    },
    {
      "anonymous": false,
      "inputs": [
        {
          "indexed": true,
          "internalType": "uint256",
          "name": "userId",
          "type": "uint256"
        },
        {
          "indexed": true,
          "internalType": "uint256",
          "name": "day",
          "type": "uint256"
        },
        {
          "indexed": false,
          "internalType": "uint256",
          "name": "totalCommission",
          "type": "uint256"
        },
        {
          "indexed": false,
          "internalType": "uint8",
          "name": "pairProcessed",
          "type": "uint8"
        },
        {
          "indexed": false,
          "internalType": "uint256",
          "name": "steps",
          "type": "uint256"
        }
      ],
      "name": "DailyCommissionCalculated",
      "type": "event"
    },
    {
      "anonymous": false,
      "inputs": [
        {
          "indexed": false,
          "internalType": "uint256",
          "name": "steps",
          "type": "uint256"
        }
      ],
      "name": "MaxStepSet",
      "type": "event"
    },
    {
      "anonymous": false,
      "inputs": [
        {
          "indexed": false,
          "internalType": "uint256",
          "name": "userId",
          "type": "uint256"
        },
        {
          "indexed": false,
          "internalType": "uint256",
          "name": "month",
          "type": "uint256"
        },
        {
          "indexed": false,
          "internalType": "uint256",
          "name": "share",
          "type": "uint256"
        }
      ],
      "name": "MontlyFastValueWithdrawn",
      "type": "event"
    },
    {
      "anonymous": false,
      "inputs": [
        {
          "indexed": true,
          "internalType": "uint256",
          "name": "userId",
          "type": "uint256"
        },
        {
          "indexed": true,
          "internalType": "uint256",
          "name": "week",
          "type": "uint256"
        },
        {
          "indexed": false,
          "internalType": "uint256",
          "name": "share",
          "type": "uint256"
        }
      ],
      "name": "NetworkerDnmShareCalculated",
      "type": "event"
    },
    {
      "anonymous": false,
      "inputs": [
        {
          "indexed": true,
          "internalType": "uint256",
          "name": "userId",
          "type": "uint256"
        },
        {
          "indexed": true,
          "internalType": "uint256",
          "name": "daysPeriod",
          "type": "uint256"
        },
        {
          "indexed": false,
          "internalType": "uint256",
          "name": "share",
          "type": "uint256"
        }
      ],
      "name": "NetworkerMonthlyDnmShareWithdrawn",
      "type": "event"
    },
    {
      "anonymous": false,
      "inputs": [
        {
          "indexed": true,
          "internalType": "uint256",
          "name": "orderId",
          "type": "uint256"
        },
        {
          "indexed": true,
          "internalType": "uint256",
          "name": "buyerId",
          "type": "uint256"
        },
        {
          "indexed": false,
          "internalType": "uint256",
          "name": "amount",
          "type": "uint256"
        }
      ],
      "name": "OrderCreated",
      "type": "event"
    },
    {
      "anonymous": false,
      "inputs": [
        {
          "indexed": true,
          "internalType": "uint256",
          "name": "userId",
          "type": "uint256"
        },
        {
          "indexed": false,
          "internalType": "uint256",
          "name": "processed",
          "type": "uint256"
        },
        {
          "indexed": false,
          "internalType": "uint256",
          "name": "lastCalculatedOrder",
          "type": "uint256"
        }
      ],
      "name": "OrdersCalculated",
      "type": "event"
    },
    {
      "anonymous": false,
      "inputs": [
        {
          "indexed": true,
          "internalType": "uint256",
          "name": "sellerId",
          "type": "uint256"
        },
        {
          "indexed": true,
          "internalType": "uint256",
          "name": "week",
          "type": "uint256"
        },
        {
          "indexed": false,
          "internalType": "uint256",
          "name": "share",
          "type": "uint256"
        }
      ],
      "name": "SellerDnmShareCalculated",
      "type": "event"
    },
    {
      "anonymous": false,
      "inputs": [
        {
          "indexed": true,
          "internalType": "uint256",
          "name": "sellerId",
          "type": "uint256"
        },
        {
          "indexed": true,
          "internalType": "address",
          "name": "sellerAddr",
          "type": "address"
        }
      ],
      "name": "SellerRegistered",
      "type": "event"
    },
    {
      "anonymous": false,
      "inputs": [
        {
          "indexed": false,
          "internalType": "uint256",
          "name": "userId",
          "type": "uint256"
        },
        {
          "indexed": false,
          "internalType": "uint8",
          "name": "share",
          "type": "uint8"
        }
      ],
      "name": "UserAddedToFastValue",
      "type": "event"
    },
    {
      "anonymous": false,
      "inputs": [
        {
          "indexed": true,
          "internalType": "uint256",
          "name": "userId",
          "type": "uint256"
        },
        {
          "indexed": true,
          "internalType": "uint256",
          "name": "day",
          "type": "uint256"
        }
      ],
      "name": "UserDailyFlushedOut",
      "type": "event"
    },
    {
      "anonymous": false,
      "inputs": [
        {
          "indexed": true,
          "internalType": "uint256",
          "name": "userId",
          "type": "uint256"
        },
        {
          "indexed": true,
          "internalType": "uint256",
          "name": "week",
          "type": "uint256"
        },
        {
          "indexed": false,
          "internalType": "uint256",
          "name": "share",
          "type": "uint256"
        }
      ],
      "name": "UserDnmShareCalculated",
      "type": "event"
    },
    {
      "anonymous": false,
      "inputs": [
        {
          "indexed": true,
          "internalType": "uint256",
          "name": "userId",
          "type": "uint256"
        },
        {
          "indexed": true,
          "internalType": "uint256",
          "name": "parentId",
          "type": "uint256"
        },
        {
          "indexed": false,
          "internalType": "uint8",
          "name": "position",
          "type": "uint8"
        },
        {
          "indexed": true,
          "internalType": "address",
          "name": "userAddr",
          "type": "address"
        }
      ],
      "name": "UserMigrated",
      "type": "event"
    },
    {
      "anonymous": false,
      "inputs": [
        {
          "indexed": true,
          "internalType": "uint256",
          "name": "userId",
          "type": "uint256"
        },
        {
          "indexed": true,
          "internalType": "uint256",
          "name": "parentId",
          "type": "uint256"
        },
        {
          "indexed": false,
          "internalType": "uint8",
          "name": "position",
          "type": "uint8"
        },
        {
          "indexed": true,
          "internalType": "address",
          "name": "userAddr",
          "type": "address"
        }
      ],
      "name": "UserRegistered",
      "type": "event"
    },
    {
      "anonymous": false,
      "inputs": [
        {
          "indexed": true,
          "internalType": "uint256",
          "name": "userId",
          "type": "uint256"
        },
        {
          "indexed": true,
          "internalType": "uint256",
          "name": "week",
          "type": "uint256"
        }
      ],
      "name": "UserWeeklyFlushedOut",
      "type": "event"
    },
    {
      "anonymous": false,
      "inputs": [
        {
          "indexed": true,
          "internalType": "uint256",
          "name": "userId",
          "type": "uint256"
        },
        {
          "indexed": true,
          "internalType": "uint256",
          "name": "week",
          "type": "uint256"
        },
        {
          "indexed": false,
          "internalType": "uint256",
          "name": "totalCommission",
          "type": "uint256"
        },
        {
          "indexed": false,
          "internalType": "uint8",
          "name": "pairProcessed",
          "type": "uint8"
        },
        {
          "indexed": false,
          "internalType": "uint256",
          "name": "steps",
          "type": "uint256"
        }
      ],
      "name": "WeeklyCommissionCalculated",
      "type": "event"
    },
    {
      "anonymous": false,
      "inputs": [
        {
          "indexed": false,
          "internalType": "uint256",
          "name": "weekNumber",
          "type": "uint256"
        },
        {
          "indexed": false,
          "internalType": "uint256",
          "name": "amount",
          "type": "uint256"
        }
      ],
      "name": "weeklyDnmMinted",
      "type": "event"
    },
    {
      "inputs": [
        {
          "internalType": "address",
          "name": "_addr",
          "type": "address"
        }
      ],
      "name": "addManager",
      "outputs": [],
      "stateMutability": "nonpayable",
      "type": "function"
    },
    {
      "inputs": [
        {
          "internalType": "address",
          "name": "_addr",
          "type": "address"
        }
      ],
      "name": "addWhiteListedContract",
      "outputs": [],
      "stateMutability": "nonpayable",
      "type": "function"
    },
    {
      "inputs": [
        {
          "internalType": "address",
          "name": "sender",
          "type": "address"
        },
        {
          "internalType": "uint256",
          "name": "userId",
          "type": "uint256"
        }
      ],
      "name": "approveChangeAddress",
      "outputs": [],
      "stateMutability": "nonpayable",
      "type": "function"
    },
    {
      "inputs": [],
      "name": "calculateNetworkerWeeklyDnm",
      "outputs": [],
      "stateMutability": "nonpayable",
      "type": "function"
    },
    {
      "inputs": [
        {
          "internalType": "uint256",
          "name": "callerId",
          "type": "uint256"
        },
        {
          "internalType": "uint256[]",
          "name": "orderIds",
          "type": "uint256[]"
        }
      ],
      "name": "calculateOrders",
      "outputs": [],
      "stateMutability": "nonpayable",
      "type": "function"
    },
    {
      "inputs": [],
      "name": "calculateSellerWeeklyDnm",
      "outputs": [],
      "stateMutability": "nonpayable",
      "type": "function"
    },
    {
      "inputs": [],
      "name": "calculateUserWeeklyDnm",
      "outputs": [],
      "stateMutability": "nonpayable",
      "type": "function"
    },
    {
      "inputs": [
        {
          "internalType": "uint256",
          "name": "",
          "type": "uint256"
        }
      ],
      "name": "changeAddressRequests",
      "outputs": [
        {
          "internalType": "address",
          "name": "",
          "type": "address"
        }
      ],
      "stateMutability": "view",
      "type": "function"
    },
    {
      "inputs": [
        {
          "internalType": "address",
          "name": "buyerAddress",
          "type": "address"
        },
        {
          "internalType": "address",
          "name": "parentAddress",
          "type": "address"
        },
        {
          "internalType": "uint8",
          "name": "position",
          "type": "uint8"
        },
        {
          "components": [
            {
              "internalType": "address",
              "name": "sellerAddress",
              "type": "address"
            },
            {
              "internalType": "uint256",
              "name": "sv",
              "type": "uint256"
            },
            {
              "internalType": "uint256",
              "name": "bv",
              "type": "uint256"
            }
          ],
          "internalType": "struct AranDaoProCore.Amount[]",
          "name": "amounts",
          "type": "tuple[]"
        }
      ],
      "name": "createOrder",
      "outputs": [],
      "stateMutability": "nonpayable",
      "type": "function"
    },
    {
      "inputs": [],
      "name": "dnmAddress",
      "outputs": [
        {
          "internalType": "address",
          "name": "",
          "type": "address"
        }
      ],
      "stateMutability": "view",
      "type": "function"
    },
    {
      "inputs": [],
      "name": "dnmMintWeekNumber",
      "outputs": [
        {
          "internalType": "uint256",
          "name": "",
          "type": "uint256"
        }
      ],
      "stateMutability": "view",
      "type": "function"
    },
    {
      "inputs": [
        {
          "internalType": "uint256",
          "name": "orderId",
          "type": "uint256"
        }
      ],
      "name": "getOrderById",
      "outputs": [
        {
          "components": [
            {
              "internalType": "uint256",
              "name": "buyerId",
              "type": "uint256"
            },
            {
              "internalType": "uint256",
              "name": "sellerId",
              "type": "uint256"
            },
            {
              "internalType": "uint256",
              "name": "sv",
              "type": "uint256"
            },
            {
              "internalType": "uint256",
              "name": "bv",
              "type": "uint256"
            },
            {
              "internalType": "bool",
              "name": "existed",
              "type": "bool"
            },
            {
              "internalType": "uint256",
              "name": "createdAt",
              "type": "uint256"
            }
          ],
          "internalType": "struct OrderLib.Order",
          "name": "",
          "type": "tuple"
        }
      ],
      "stateMutability": "view",
      "type": "function"
    },
    {
      "inputs": [
        {
          "internalType": "uint256",
          "name": "sellerId",
          "type": "uint256"
        }
      ],
      "name": "getSellerById",
      "outputs": [
        {
          "components": [
            {
              "internalType": "uint256",
              "name": "bv",
              "type": "uint256"
            },
            {
              "internalType": "uint256",
              "name": "lastDnmWithdrawWeekNumber",
              "type": "uint256"
            },
            {
              "internalType": "uint256",
              "name": "createdAt",
              "type": "uint256"
            },
            {
              "internalType": "bool",
              "name": "active",
              "type": "bool"
            }
          ],
          "internalType": "struct SellerLib.Seller",
          "name": "",
          "type": "tuple"
        }
      ],
      "stateMutability": "view",
      "type": "function"
    },
    {
      "inputs": [
        {
          "internalType": "address",
          "name": "sellerAddress",
          "type": "address"
        }
      ],
      "name": "getSellerIdByAddress",
      "outputs": [
        {
          "internalType": "uint256",
          "name": "",
          "type": "uint256"
        }
      ],
      "stateMutability": "view",
      "type": "function"
    },
    {
      "inputs": [
        {
          "internalType": "uint256",
          "name": "userId",
          "type": "uint256"
        }
      ],
      "name": "getUserById",
      "outputs": [
        {
          "components": [
            {
              "internalType": "uint256",
              "name": "parentId",
              "type": "uint256"
            },
            {
              "internalType": "address",
              "name": "userAddress",
              "type": "address"
            },
            {
              "internalType": "uint8",
              "name": "position",
              "type": "uint8"
            },
            {
              "internalType": "bytes32[]",
              "name": "path",
              "type": "bytes32[]"
            },
            {
              "internalType": "uint256",
              "name": "lastCalculatedOrder",
              "type": "uint256"
            },
            {
              "internalType": "uint256[4]",
              "name": "childrenBv",
              "type": "uint256[4]"
            },
            {
              "internalType": "uint256[4]",
              "name": "childrenAggregateBv",
              "type": "uint256[4]"
            },
            {
              "internalType": "uint256[2]",
              "name": "normalNodesBv",
              "type": "uint256[2]"
            },
            {
              "internalType": "uint256",
              "name": "bv",
              "type": "uint256"
            },
            {
              "internalType": "uint256",
              "name": "eligibleDnmWithdrawWeekNo",
              "type": "uint256"
            },
            {
              "internalType": "uint256",
              "name": "totalSteps",
              "type": "uint256"
            },
            {
              "internalType": "uint256",
              "name": "bvOnBridgeTime",
              "type": "uint256"
            },
            {
              "internalType": "uint256",
              "name": "fvEntranceMonth",
              "type": "uint256"
            },
            {
              "internalType": "uint8",
              "name": "fvEntranceShare",
              "type": "uint8"
            },
            {
              "internalType": "uint256",
              "name": "networkerDnmShare",
              "type": "uint256"
            },
            {
              "internalType": "uint256",
              "name": "withdrawNetworkerDnmShareMonth",
              "type": "uint256"
            },
            {
              "internalType": "bool",
              "name": "migrated",
              "type": "bool"
            },
            {
              "internalType": "uint256",
              "name": "withdrawableCommission",
              "type": "uint256"
            },
            {
              "internalType": "uint256",
              "name": "lastDnmWithdrawNetworkerWeekNumber",
              "type": "uint256"
            },
            {
              "internalType": "uint256",
              "name": "lastDnmWithdrawUserWeekNumber",
              "type": "uint256"
            },
            {
              "internalType": "uint256",
              "name": "createdAt",
              "type": "uint256"
            },
            {
              "internalType": "bool",
              "name": "active",
              "type": "bool"
            }
          ],
          "internalType": "struct UserLib.User",
          "name": "",
          "type": "tuple"
        }
      ],
      "stateMutability": "view",
      "type": "function"
    },
    {
      "inputs": [
        {
          "internalType": "address",
          "name": "userAddress",
          "type": "address"
        }
      ],
      "name": "getUserIdByAddress",
      "outputs": [
        {
          "internalType": "uint256",
          "name": "",
          "type": "uint256"
        }
      ],
      "stateMutability": "view",
      "type": "function"
    },
    {
      "inputs": [
        {
          "internalType": "address",
          "name": "_addr",
          "type": "address"
        }
      ],
      "name": "isManager",
      "outputs": [
        {
          "internalType": "bool",
          "name": "",
          "type": "bool"
        }
      ],
      "stateMutability": "view",
      "type": "function"
    },
    {
      "inputs": [
        {
          "internalType": "address",
          "name": "_addr",
          "type": "address"
        }
      ],
      "name": "isOrderCreatorContract",
      "outputs": [
        {
          "internalType": "bool",
          "name": "",
          "type": "bool"
        }
      ],
      "stateMutability": "view",
      "type": "function"
    },
    {
      "inputs": [],
      "name": "lastWeekDnmMintAmount",
      "outputs": [
        {
          "internalType": "uint256",
          "name": "",
          "type": "uint256"
        }
      ],
      "stateMutability": "view",
      "type": "function"
    },
    {
      "inputs": [
        {
          "internalType": "address",
          "name": "userAddr",
          "type": "address"
        },
        {
          "internalType": "uint256",
          "name": "parentId",
          "type": "uint256"
        },
        {
          "internalType": "uint8",
          "name": "position",
          "type": "uint8"
        },
        {
          "internalType": "uint256",
          "name": "bv",
          "type": "uint256"
        },
        {
          "internalType": "uint256",
          "name": "withdrawableCommission",
          "type": "uint256"
        },
        {
          "internalType": "uint256[4]",
          "name": "childrenSafeBv",
          "type": "uint256[4]"
        },
        {
          "internalType": "uint256[4]",
          "name": "childrenAggregateBv",
          "type": "uint256[4]"
        }
      ],
      "name": "migrateUser",
      "outputs": [],
      "stateMutability": "nonpayable",
      "type": "function"
    },
    {
      "inputs": [],
      "name": "mintWeeklyDnm",
      "outputs": [],
      "stateMutability": "nonpayable",
      "type": "function"
    },
    {
      "inputs": [
        {
          "internalType": "uint256",
          "name": "",
          "type": "uint256"
        }
      ],
      "name": "monthlyFv",
      "outputs": [
        {
          "internalType": "uint256",
          "name": "",
          "type": "uint256"
        }
      ],
      "stateMutability": "view",
      "type": "function"
    },
    {
      "inputs": [
        {
          "internalType": "uint256",
          "name": "",
          "type": "uint256"
        }
      ],
      "name": "monthlyTotalShares",
      "outputs": [
        {
          "internalType": "uint256",
          "name": "",
          "type": "uint256"
        }
      ],
      "stateMutability": "view",
      "type": "function"
    },
    {
      "inputs": [
        {
          "internalType": "uint256",
          "name": "",
          "type": "uint256"
        },
        {
          "internalType": "uint256",
          "name": "",
          "type": "uint256"
        }
      ],
      "name": "monthlyUserShareWithdraws",
      "outputs": [
        {
          "internalType": "bool",
          "name": "",
          "type": "bool"
        }
      ],
      "stateMutability": "view",
      "type": "function"
    },
    {
      "inputs": [
        {
          "internalType": "uint256",
          "name": "",
          "type": "uint256"
        },
        {
          "internalType": "uint256",
          "name": "",
          "type": "uint256"
        }
      ],
      "name": "monthlyUserShares",
      "outputs": [
        {
          "internalType": "uint8",
          "name": "",
          "type": "uint8"
        }
      ],
      "stateMutability": "view",
      "type": "function"
    },
    {
      "inputs": [],
      "name": "monthlyWithdrawNetworkerDnm",
      "outputs": [],
      "stateMutability": "nonpayable",
      "type": "function"
    },
    {
      "inputs": [],
      "name": "paymentTokenAddress",
      "outputs": [
        {
          "internalType": "address",
          "name": "",
          "type": "address"
        }
      ],
      "stateMutability": "view",
      "type": "function"
    },
    {
      "inputs": [
        {
          "internalType": "uint256",
          "name": "",
          "type": "uint256"
        },
        {
          "internalType": "uint8",
          "name": "",
          "type": "uint8"
        }
      ],
      "name": "positionTaken",
      "outputs": [
        {
          "internalType": "bool",
          "name": "",
          "type": "bool"
        }
      ],
      "stateMutability": "view",
      "type": "function"
    },
    {
      "inputs": [
        {
          "internalType": "address",
          "name": "newAddress",
          "type": "address"
        }
      ],
      "name": "requestChangeAddress",
      "outputs": [],
      "stateMutability": "nonpayable",
      "type": "function"
    },
    {
      "inputs": [
        {
          "internalType": "address",
          "name": "_addr",
          "type": "address"
        }
      ],
      "name": "revokeManager",
      "outputs": [],
      "stateMutability": "nonpayable",
      "type": "function"
    },
    {
      "inputs": [
        {
          "internalType": "address",
          "name": "_addr",
          "type": "address"
        }
      ],
      "name": "revokeWhiteListedContract",
      "outputs": [],
      "stateMutability": "nonpayable",
      "type": "function"
    },
    {
      "inputs": [
        {
          "internalType": "uint256",
          "name": "",
          "type": "uint256"
        },
        {
          "internalType": "uint256",
          "name": "",
          "type": "uint256"
        }
      ],
      "name": "sellerWeeklyBv",
      "outputs": [
        {
          "internalType": "uint256",
          "name": "",
          "type": "uint256"
        }
      ],
      "stateMutability": "view",
      "type": "function"
    },
    {
      "inputs": [
        {
          "internalType": "uint256",
          "name": "steps",
          "type": "uint256"
        }
      ],
      "name": "setMaxSteps",
      "outputs": [],
      "stateMutability": "nonpayable",
      "type": "function"
    },
    {
      "inputs": [],
      "name": "totalCommissionEarned",
      "outputs": [
        {
          "internalType": "uint256",
          "name": "",
          "type": "uint256"
        }
      ],
      "stateMutability": "view",
      "type": "function"
    },
    {
      "inputs": [],
      "name": "totalDnmEarned",
      "outputs": [
        {
          "internalType": "uint256",
          "name": "",
          "type": "uint256"
        }
      ],
      "stateMutability": "view",
      "type": "function"
    },
    {
      "inputs": [
        {
          "internalType": "uint256",
          "name": "",
          "type": "uint256"
        }
      ],
      "name": "totalWeeklyBv",
      "outputs": [
        {
          "internalType": "uint256",
          "name": "",
          "type": "uint256"
        }
      ],
      "stateMutability": "view",
      "type": "function"
    },
    {
      "inputs": [
        {
          "internalType": "uint256",
          "name": "",
          "type": "uint256"
        },
        {
          "internalType": "uint256",
          "name": "",
          "type": "uint256"
        },
        {
          "internalType": "uint256",
          "name": "",
          "type": "uint256"
        }
      ],
      "name": "userDailySteps",
      "outputs": [
        {
          "internalType": "uint8",
          "name": "",
          "type": "uint8"
        }
      ],
      "stateMutability": "view",
      "type": "function"
    },
    {
      "inputs": [
        {
          "internalType": "uint256",
          "name": "",
          "type": "uint256"
        },
        {
          "internalType": "uint256",
          "name": "",
          "type": "uint256"
        }
      ],
      "name": "userWeeklyBv",
      "outputs": [
        {
          "internalType": "uint256",
          "name": "",
          "type": "uint256"
        }
      ],
      "stateMutability": "view",
      "type": "function"
    },
    {
      "inputs": [],
      "name": "vaultAddress",
      "outputs": [
        {
          "internalType": "address",
          "name": "",
          "type": "address"
        }
      ],
      "stateMutability": "view",
      "type": "function"
    },
    {
      "inputs": [
        {
          "internalType": "uint256",
          "name": "amount",
          "type": "uint256"
        }
      ],
      "name": "withdrawCommission",
      "outputs": [],
      "stateMutability": "nonpayable",
      "type": "function"
    },
    {
      "inputs": [],
      "name": "withdrawFastValueShare",
      "outputs": [],
      "stateMutability": "nonpayable",
      "type": "function"
    }
  ],
  "bytecode": "0x60806040526001805560016008556001600d555f600e555f600f555f6010555f6011556005601b55681b1ae4d6e2ef500000601c55680340aad21b3b700000601d5568056bc75e2d63100000601e55348015610059575f5ffd5b50604051614d37380380614d37833981016040819052610078916100fb565b60015f818155601380546001600160a01b03199081166001600160a01b03968716179091556012805482169686169690961790955560148054909516928416929092179093559216825260216020526040909120805460ff1916909117905542601f5561014c565b80516001600160a01b03811681146100f6575f5ffd5b919050565b5f5f5f5f6080858703121561010e575f5ffd5b610117856100e0565b9350610125602086016100e0565b9250610133604086016100e0565b9150610141606086016100e0565b905092959194509250565b614bde806101595f395ff3fe608060405234801561000f575f5ffd5b506004361061024a575f3560e01c80637f1835b611610140578063ac6331f7116100bf578063cb703d3e11610084578063cb703d3e14610636578063dd598b1414610660578063e1c5b0101461068d578063e9d477f514610695578063f3ae2415146106a8578063fff5d21f146106d3575f5ffd5b8063ac6331f7146105be578063afb18fe7146105dd578063c065513c146105f0578063c73cdd231461061a578063c8d0092b14610623575f5ffd5b8063990cc5c711610105578063990cc5c71461053f5780639d0ec38014610552578063a5441bc01461059a578063a909ac73146105ad578063ab24cc05146105b6575f5ffd5b80637f1835b6146104ff57806381bbcb2814610508578063828dd4f41461051b5780638915d35c146105245780638f4b79841461052c575f5ffd5b8063430bf08a116101cc5780636c0e3ed9116101915780636c0e3ed9146104465780636ed6da9e14610465578063732daf19146104855780637430594b146104985780637913b88f146104c0575f5ffd5b8063430bf08a146103cf5780634e96cb6f146103e257806350f5967d146103f5578063528ac2ab146103fd5780635fe0187a14610427575f5ffd5b80632d06177a116102125780632d06177a146102d657806335d04f96146102e9578063377e32e614610326578063385399f91461033957806342b50a7a1461036f575f5ffd5b80630dcf8fd01461024e57806312e07b1d1461025857806317face841461026b5780631f684db11461027e57806329e7c127146102c3575b5f5ffd5b6102566106db565b005b61025661026636600461440e565b610858565b610256610279366004614436565b610a3d565b6102a661028c366004614436565b60056020525f90815260409020546001600160a01b031681565b6040516001600160a01b0390911681526020015b60405180910390f35b6102566102d136600461445d565b610b9e565b6102566102e43660046144fc565b610eac565b6103166102f7366004614515565b600460209081525f928352604080842090915290825290205460ff1681565b60405190151581526020016102ba565b6102566103343660046144fc565b610f0a565b6103616103473660046144fc565b6001600160a01b03165f9081526002602052604090205490565b6040519081526020016102ba565b61038261037d366004614436565b610f65565b6040516102ba91905f60c0820190508251825260208301516020830152604083015160408301526060830151606083015260808301511515608083015260a083015160a083015292915050565b6014546102a6906001600160a01b031681565b6102566103f0366004614436565b610ff1565b610256611038565b61036161040b36600461453f565b600760209081525f928352604080842090915290825290205481565b610361610435366004614436565b60156020525f908152604090205481565b610361610454366004614436565b60196020525f908152604090205481565b610478610473366004614436565b6111e7565b6040516102ba91906145e3565b6102566104933660046144fc565b6113db565b6103616104a63660046144fc565b6001600160a01b03165f9081526009602052604090205490565b6104ed6104ce36600461453f565b601660209081525f928352604080842090915290825290205460ff1681565b60405160ff90911681526020016102ba565b61036160115481565b6102566105163660046147e7565b611438565b610361600e5481565b610256611533565b61025661053a3660046144fc565b6116e2565b61025661054d366004614857565b61173c565b610565610560366004614436565b611c0a565b6040516102ba919081518152602080830151908201526040808301519082015260609182015115159181019190915260800190565b6012546102a6906001600160a01b031681565b610361600f5481565b610256611c76565b6103616105cc366004614436565b60186020525f908152604090205481565b6013546102a6906001600160a01b031681565b6103166105fe3660046144fc565b6001600160a01b03165f90815260208052604090205460ff1690565b61036160105481565b6102566106313660046144fc565b611fdd565b61036161064436600461453f565b600a60209081525f928352604080842090915290825290205481565b61031661066e36600461453f565b601760209081525f928352604080842090915290825290205460ff1681565b6102566120e4565b6104ed6106a336600461490f565b612255565b6103166106b63660046144fc565b6001600160a01b03165f9081526021602052604090205460ff1690565b610256612296565b6106e361231b565b335f908152600260205260408120545f818152600360205260408120601a81015492935091605a906107159042612343565b61071f9190614960565b61072a906001614973565b9050816015015481116107aa5760405162461bcd60e51b815260206004820152603c60248201527f557365722068617320616c72656164792077697468647261776e20444e4d207360448201527f6861726520666f7220746869732033206d6f6e746820706572696f640000000060648201526084015b60405180910390fd5b5f6064836014015460196107be9190614986565b6107c89190614960565b905080836014015f8282546107dd919061499d565b909155505060158301829055601180548291905f906107fd90849061499d565b9091555061080d90503382612364565b5081847fef98e95e3efc95d2635d24041a2d25128d1422329f139116ccea62c5d4fa0a0a8360405161084191815260200190565b60405180910390a35050505061085660015f55565b565b5f818152600360209081526040808320546001600160a01b03861684526002909252909120548082146108f35760405162461bcd60e51b815260206004820152603c60248201527f4f6e6c792064697265637420706172656e74206f66207468652075736572206360448201527f616e20617070726f7665206368616e67696e6720616464726573732e0000000060648201526084016107a1565b5f838152600560205260409020546001600160a01b0316806109755760405162461bcd60e51b815260206004820152603560248201527f50726f76696465642075736572206964206861736e277420726571756573746560448201527432103337b91030b2323932b9b99031b430b733b29760591b60648201526084016107a1565b6001600160a01b0381165f90815260026020526040902054156109ab576040516316a163b960e11b815260040160405180910390fd5b5f84815260036020908152604080832060010180546001600160a01b038681166001600160a01b031980841682179094559116808652600285528386208690558186528386208a905589865260059094528285208054909216909155905191929091839188917fefc52903db788e17531d774f10b7ba8aa84168d1dd422986f7927b2217d9f2269190a4505050505050565b610a4561231b565b335f9081526002602052604081205490610a5e826123e2565b90508060170154831115610ab45760405162461bcd60e51b815260206004820152601f60248201527f496e73756666696369656e7420636f6d6d697373696f6e2062616c616e63650060448201526064016107a1565b82816017015f828254610ac7919061499d565b925050819055508260105f828254610adf919061499d565b909155505f9050610af03385612427565b905080610b555760405162461bcd60e51b815260206004820152602d60248201527f4572726f72207768696c65207472616e73666572696e67207061796d656e742060448201526c3a37b5b2b7103a37903ab9b2b960991b60648201526084016107a1565b827f5f322427e8a895ac6ddc1e6b9f9bf225267557c14e0d4fb0db7f7a184c6fbfc885604051610b8791815260200190565b60405180910390a2505050610b9b60015f55565b50565b335f81815260208052604090205460ff16610bd75760405163e195aa1360e01b81526001600160a01b03821660048201526024016107a1565b81610c245760405162461bcd60e51b815260206004820152601c60248201527f4174206c65617374206f6e6520616d6f756e742072657175697265640000000060448201526064016107a1565b6001600160a01b0386165f90815260026020526040812054151590805b84811015610c7a57858582818110610c5b57610c5b6149b0565b9050606002016040013582610c709190614973565b9150600101610c41565b505f610c84612581565b905082610cac5780821015610cac57604051633cffbc7b60e01b815260040160405180910390fd5b5f610cbc8a8a8a600d54866125ba565b90505f610cc842612a15565b90505f5b87811015610d78575f610d058a8a84818110610cea57610cea6149b0565b610d0092602060609092020190810191506144fc565b612a2b565b9050610d4984828c8c86818110610d1e57610d1e6149b0565b905060600201602001358d8d87818110610d3a57610d3a6149b0565b90506060020160400135612b01565b610d6f81848c8c86818110610d6057610d606149b0565b90506060020160400135612bcf565b50600101610ccc565b50610d84828286612c57565b610d8e8185612cd7565b610dad6064610d9e866014614986565b610da89190614960565b612cfd565b5f610db7836123e2565b601681015490915060ff16158015610dd25750601281015415155b15610e9e575f610de142612d29565b9050808260120154600c610df59190614973565b1115610e9c5760015b600c8160ff161015610e9a575f610e1682600a614aa7565b610e2183600c614aa7565b610e33670de0b6b3a76400008a614960565b610e3d9190614986565b610e479190614960565b610e5990670de0b6b3a7640000614986565b90508084600e01541015610e6d5750610e9a565b610e91868360ff168660120154610e849190614973565b601387015460ff16612d35565b50600101610dfe565b505b505b505050505050505050505050565b335f8181526021602052604090205460ff16610ee6576040516311fd7c5560e31b81526001600160a01b03821660048201526024016107a1565b506001600160a01b03165f908152602160205260409020805460ff19166001179055565b335f8181526021602052604090205460ff16610f44576040516311fd7c5560e31b81526001600160a01b03821660048201526024016107a1565b506001600160a01b03165f908152602160205260409020805460ff19169055565b610f9a6040518060c001604052805f81526020015f81526020015f81526020015f81526020015f151581526020015f81525090565b610fa382612de0565b6040805160c081018252825481526001830154602082015260028301549181019190915260038201546060820152600482015460ff161515608082015260059091015460a082015292915050565b335f8181526021602052604090205460ff1661102b576040516311fd7c5560e31b81526001600160a01b03821660048201526024016107a1565b61103482612e28565b5050565b61104061231b565b335f908152600260205260408120545f818152600360205260408120919250600161106a42612a15565b611074919061499d565b9050600f5481111561108857611088612296565b808260190154106110f25760405162461bcd60e51b815260206004820152602e60248201527f557365722068617320616c72656164792063616c63756c6174656420444e4d2060448201526d3337b9103a3434b9903bb2b2b59760911b60648201526084016107a1565b5f818152601560205260408120541161114d5760405162461bcd60e51b815260206004820152601b60248201527f4e6f204256207265636f7264656420666f7220746865207765656b000000000060448201526064016107a1565b5f81815260156020908152604080832054868452600783528184208585529092528220546064600e5460236111829190614986565b61118c9190614960565b6111969190614986565b6111a09190614960565b6019840183905590506111b33382612364565b5081847f4ef3af61f65f5e4b0425b306bd9109ac4eeeb453e5d8709c31c75f347fbb18428360405161084191815260200190565b6111ef6142ab565b6111f8826123e2565b604080516102c0810182528254815260018301546001600160a01b038116602080840191909152600160a01b90910460ff16828401526002840180548451818402810184019095528085529294936060860193909283018282801561127a57602002820191905f5260205f20905b815481526020019060010190808311611266575b505050918352505060038201546020820152604080516080810180835291909201919060048085019182845b8154815260200190600101908083116112a657505050918352505060408051608081019182905260209092019190600884019060049082845b8154815260200190600101908083116112df575050509183525050604080518082019182905260209092019190600c84019060029082845b815481526020019060010190808311611317575050509183525050600e8201546020820152600f82015460408201526010820154606082015260118201546080820152601282015460a0820152601382015460ff90811660c0830152601483015460e08301526015830154610100830152601683015481161515610120830152601783015461014083015260188301546101608301526019830154610180830152601a8301546101a0830152601b9092015490911615156101c09091015292915050565b335f8181526021602052604090205460ff16611415576040516311fd7c5560e31b81526001600160a01b03821660048201526024016107a1565b506001600160a01b03165f9081526020805260409020805460ff19166001179055565b42601f5462093a8061144a9190614973565b116114a75760405162461bcd60e51b815260206004820152602760248201527f5468652074696d6520666f72206d6967726174696f6e20686173206265656e206044820152663830b9b9b2b21760c91b60648201526084016107a1565b335f9081526021602052604090205460ff166115185760405162461bcd60e51b815260206004820152602a60248201527f53656e6465722061646472657373206973206e6f7420656c696769626c652074604482015269379036b4b3b930ba329760b11b60648201526084016107a1565b61152a87878787878787600d54612ec1565b50505050505050565b61153b61231b565b335f9081526009602052604081205490611554826131a2565b90505f600161156242612a15565b61156c919061499d565b9050600f5481111561158057611580612296565b808260010154106115ec5760405162461bcd60e51b815260206004820152603060248201527f53656c6c65722068617320616c72656164792063616c63756c6174656420444e60448201526f26903337b9103a3434b9903bb2b2b59760811b60648201526084016107a1565b5f81815260156020526040812054116116475760405162461bcd60e51b815260206004820152601b60248201527f4e6f204256207265636f7264656420666f7220746865207765656b000000000060448201526064016107a1565b5f81815260156020908152604080832054868452600a8352818420858552909252822054600e5460649061167c906005614986565b6116869190614960565b6116909190614986565b61169a9190614960565b90506116a63382612364565b5060018301829055604051818152829085907f2d8fb20bcea01f9df74ba82040a947a0bf82e4d11ca4e1971afd8634f11ba9ec90602001610841565b335f8181526021602052604090205460ff1661171c576040516311fd7c5560e31b81526001600160a01b03821660048201526024016107a1565b506001600160a01b03165f9081526020805260409020805460ff19169055565b335f8181526021602052604090205460ff16611776576040516311fd7c5560e31b81526001600160a01b03821660048201526024016107a1565b5f611780846123e2565b90505f6117908260030154612de0565b60050154845190915060ff61ffff8216106118235760405162461bcd60e51b815260206004820152604760248201527f4d6178696d756d206e756d626572206f6620323535206f72646572732063616e60448201527f2062652070726f6363657373656420696e20612073696e676c65207472616e7360648201526630b1ba34b7b71760c91b608482015260a4016107a1565b5f5b8161ffff168160ff161015611b38578360030154868260ff168151811061184e5761184e6149b0565b6020026020010151116118c95760405162461bcd60e51b815260206004820152603960248201527f4f726465722077697468206772656174657220494420697320616c726561647960448201527f2070726f63657373656420666f72207468697320757365722e0000000000000060648201526084016107a1565b5f6118ef878360ff16815181106118e2576118e26149b0565b6020026020010151612de0565b6040805160c081018252825481526001830154602082015260028301549181019190915260038201546060820152600482015460ff161515608082015260059091015460a0820152601a549091501580159061194c575042601a54105b156119f05761195a42612a15565b6119678260a00151612a15565b106119c55760405162461bcd60e51b815260206004820152602860248201527f43616e6e6f742070726f63657373206f72646572732066726f6d206375727265604482015267373a103bb2b2b59760c11b60648201526084016107a1565b6119d28160a00151612a15565b6119db85612a15565b10156119eb576119eb88856131e7565b611a89565b6119f94261320b565b611a068260a0015161320b565b10611a635760405162461bcd60e51b815260206004820152602760248201527f43616e6e6f742070726f63657373206f72646572732066726f6d206375727265604482015266373a103230bc9760c91b60648201526084016107a1565b611a708160a0015161320b565b611a798561320b565b1015611a8957611a89888561322f565b5f5f611a988a845f0151613247565b91509150818015611aac575060ff81811614155b15611b1e578260600151876004018260ff1660048110611ace57611ace6149b0565b015f828254611add9190614973565b90915550506060830151600c8801611af6600284614ab5565b60ff1660028110611b0957611b096149b0565b015f828254611b189190614973565b90915550505b505060a00151925080611b3081614ad6565b915050611825565b5084611b45600183614af4565b61ffff1681518110611b5957611b596149b0565b60200260200101518360030181905550611b7242613433565b15611b92576001611b8242612a15565b611b8c919061499d565b600f8401555b857f20de985759a5892d68187c90c5560bace832652a79e34e3f48d7e1cfec3d2bbf8287611bc1600183614af4565b61ffff1681518110611bd557611bd56149b0565b6020026020010151604051611bfa92919061ffff929092168252602082015260400190565b60405180910390a2505050505050565b611c3360405180608001604052805f81526020015f81526020015f81526020015f151581525090565b611c3c826131a2565b60408051608081018252825481526001830154602082015260028301549181019190915260039091015460ff161515606082015292915050565b611c7e61231b565b335f908152600260205260408120545f8181526003602052604081209192506001611ca842612a15565b611cb2919061499d565b9050611cbd42613433565b15611d305760405162461bcd60e51b815260206004820152603960248201527f444e4d2063616c63756c6174696f6e206973206e6f7420706f737369626c652060448201527f61742074686520666972737420646179206f66207765656b2e0000000000000060648201526084016107a1565b8082600f015414611da95760405162461bcd60e51b815260206004820152603b60248201527f55736572206861736e27742063616c63756c61746564206f726465727320617460448201527f2074686520666972737420646179206f6620746865207765656b2e000000000060648201526084016107a1565b600f54811115611dbb57611dbb612296565b80826018015410611e2a5760405162461bcd60e51b815260206004820152603360248201527f4e6574776f726b65722068617320616c72656164792063616c63756c6174656460448201527210222726903337b9103a3434b9903bb2b2b59760691b60648201526084016107a1565b5f805b60078160ff161015611e8f575f60ff8216611e49856007614986565b611e539190614973565b90505f5b60038160ff161015611e8557611e6e878383613458565b611e7b9060ff1685614973565b9350600101611e57565b5050600101611e2d565b505f60245411611ee15760405162461bcd60e51b815260206004820152601e60248201527f4e6f207374657073207265636f7264656420666f7220746865207765656b000060448201526064016107a1565b5f602454826064600e54603c611ef79190614986565b611f019190614960565b611f0b9190614986565b611f159190614960565b90506064611f2482601e614986565b611f2e9190614960565b60115f828254611f3e9190614973565b9091555060649050611f5182601e614986565b611f5b9190614960565b846014015f828254611f6d9190614973565b90915550611f939050336064611f84846046614986565b611f8e9190614960565b612364565b5082857fb0e1da113f6d8e4a1a12713b39d81227405fa2298406a537d29fc023090c7fea83604051611fc791815260200190565b60405180910390a3505050505061085660015f55565b335f908152600260205260408120549081900361200d57604051632163950f60e01b815260040160405180910390fd5b336001600160a01b038316036120755760405162461bcd60e51b815260206004820152602760248201527f4f6c6420616e64206e657720616464726573732063616e6e6f74206265207468604482015266329039b0b6b29760c91b60648201526084016107a1565b5f8181526005602090815260409182902080546001600160a01b0386166001600160a01b03199091168117909155825184815233928101929092528183015290517fcc96b91dafce2ebed2f0a0c3c1d0dbd6f4dd9275e071fa00b2345102e4d0449b9181900360600190a15050565b6120ec61231b565b335f9081526002602052604081205490600161210742612d29565b612111919061499d565b5f8181526016602090815260408083208684528252808320548484526017835281842087855290925282205492935060ff908116921690829003612168576040516355df8c7760e01b815260040160405180910390fd5b8015612187576040516362d13e0f60e11b815260040160405180910390fd5b5f61219285856134a3565b90505f61219f3383612427565b9050806121e45760405162461bcd60e51b81526020600482015260136024820152722a37b5b2b7103830bcb6b2b73a1032b93937b960691b60448201526064016107a1565b5f858152601760209081526040808320898452825291829020805460ff1916600117905581518881529081018790529081018390527fa7ca8c60ab647d3ec4c97b6b782032e0651dee207d96aa504959ee1da283a7269060600160405180910390a150505050505061085660015f55565b6006602052825f5260405f20602052815f5260405f208160038110612278575f80fd5b602081049091015460ff601f9092166101000a900416925083915050565b61229e61231b565b6122a6613528565b5f60016122b242612a15565b6122bc919061499d565b90505f805b60078160ff16101561230d575f60ff82166122dd856007614986565b6122e79190614973565b5f818152602260205260409020549091506123029084614973565b9250506001016122c1565b506024555061085660015f55565b60025f540361233d57604051633ee5aeb560e01b815260040160405180910390fd5b60025f55565b5f610e10612351848461499d565b61235b9190614960565b90505b92915050565b60125460405163a9059cbb60e01b81526001600160a01b038481166004830152602482018490525f921690819063a9059cbb906044016020604051808303815f875af11580156123b6573d5f5f3e3d5ffd5b505050506040513d601f19601f820116820180604052508101906123da9190614b0e565b949350505050565b5f818152600360205260408120601b0154829060ff1661241557604051632163950f60e01b815260040160405180910390fd5b50505f90815260036020526040902090565b6013546040516370a0823160e01b81523060048201525f916001600160a01b031690829082906370a0823190602401602060405180830381865afa158015612471573d5f5f3e3d5ffd5b505050506040513d601f19601f820116820180604052508101906124959190614b34565b905080841115612508576014546001600160a01b03168063d5c4d1e46124bb848861499d565b6040518263ffffffff1660e01b81526004016124d991815260200190565b5f604051808303815f87803b1580156124f0575f5ffd5b505af1158015612502573d5f5f3e3d5ffd5b50505050505b60405163a9059cbb60e01b81526001600160a01b0386811660048301526024820186905283169063a9059cbb906044016020604051808303815f875af1158015612554573d5f5f3e3d5ffd5b505050506040513d601f19601f820116820180604052508101906125789190614b0e565b95945050505050565b5f61258a613a42565b80156125a05750601e5468056bc75e2d63100000145b156125b357680ad78ebc5ac6200000601e555b50601e5490565b6001600160a01b0385165f90815260026020526040812054808203612a0b5760038560ff1611156125fe5760405163673f032f60e11b815260040160405180910390fd5b6001600160a01b0386165f9081526002602052604090205460018054118015612625575080155b1561264357604051633073085f60e01b815260040160405180910390fd5b600154600103612680578015158061265d575060ff861615155b1561267b57604051637d2338d360e11b815260040160405180910390fd5b6128a0565b5f81815260046020908152604080832060ff808b16855292529091205416156126bc5760405163e168e4db60e01b815260040160405180910390fd5b5f8181526003602052604090206016015460ff16156127d4575f8181526003602052604081206011810154600e909101546126f7919061499d565b9050848110156127595760ff87161580159061271757508660ff16600314155b15612754575f8281526003602052604090819020600e01549051633330313b60e11b815260ff8916600482015260248101919091526044016107a1565b6127ce565b612764856002614986565b8110156127ce5760ff87161580159061278157508660ff16600114155b801561279157508660ff16600314155b156127ce575f8281526003602052604090819020600e01549051633330313b60e11b815260ff8916600482015260248101919091526044016107a1565b506128a0565b5f818152600360205260409020600e01546127f0856002614986565b81101561283c5760ff87161580159061280d57508660ff16600314155b1561283757604051633330313b60e11b815260ff88166004820152602481018290526044016107a1565b61289e565b612847856003614986565b81101561289e5760ff87161580159061286457508660ff16600114155b801561287457508660ff16600314155b1561289e57604051633330313b60e11b815260ff88166004820152602481018290526044016107a1565b505b60018054905f6128af83614b4b565b909155506001600160a01b0389165f8181526002602090815260408083208590558483526003918290528220858155600180820180546001600160a81b031916909517600160a01b60ff8e160217909455908101899055600e8101829055601781019190915542601a820155601b8101805460ff191690921790915590925081156129c3575f828152600360205260408120905b600282015481101561298d5782600201826002018281548110612968576129686149b0565b5f91825260208083209091015483546001818101865594845291909220015501612943565b5061299b8260020189613a5a565b505f82815260046020908152604080832060ff8b1684529091529020805460ff191660011790555b60405160ff881681526001600160a01b038a1690839085907f2da668ada3916796008375133eb8fed516e8732a589fc7f0233811ba0876acf29060200160405180910390a450505b9695505050505050565b5f6007612a218361320b565b61235e9190614960565b6001600160a01b0381165f9081526009602052604081205480820361235e5760088054905f612a5983614b4b565b909155506001600160a01b0384165f818152600960209081526040808320859055805160808101825283815280830184815242828401908152600160608401818152898852600b9096528487209351845591519183019190915551600282015591516003909201805460ff19169215159290921790915551929350909183917fcfb1dc1baf831904b1c50d104c9808009dc827e169c66991ff3cddc8344d74f391a392915050565b600d80545f9182612b1183614b4b565b909155506040805160c0810182528781526020808201888152828401878152606084018981526001608086018181524260a088019081525f8a8152600c9097529588902096518755935190860155905160028501555160038401555160048301805491151560ff199092169190911790555160059091015551909150859082907f7e3297793a932665ad789941fefa66afb013f1e1dad602d7738f5ebf607b173b90612bc09087815260200190565b60405180910390a35050505050565b5f838152600b6020526040902060030154839060ff16612c0257604051636605cccd60e01b815260040160405180910390fd5b5f848152600b602052604081208054849290612c1f908490614973565b90915550505f848152600a6020908152604080832086845290915281208054849290612c4c908490614973565b909155505050505050565b5f838152600360205260409020601b0154839060ff16612c8a57604051632163950f60e01b815260040160405180910390fd5b5f848152600360205260408120600e018054849290612caa908490614973565b90915550505f84815260076020908152604080832086845290915281208054849290612c4c908490614973565b5f8281526015602052604081208054839290612cf4908490614973565b90915550505050565b5f612d0742612d29565b90508160195f8381526020019081526020015f205f828254612cf49190614973565b5f601e612a218361320b565b5f82815260166020908152604080832086845290915281205460ff169003612ddb575f8281526016602090815260408083208684528252808320805460ff191660ff861690811790915585845260189092528220805491929091612d9a908490614973565b90915550506040805184815260ff831660208201527fbe7346dbdc6ad0126594dd027f9445414fb2e4f4ec679cf49e6b47d8e412aad4910160405180910390a15b505050565b5f818152600c6020526040812060040154829060ff16612e16576040516320e470e760e01b8152600481018290526024016107a1565b50505f908152600c6020526040902090565b60058110158015612e3a575060288111155b612e865760405162461bcd60e51b815260206004820181905260248201527f4d6178207374657073206d757374206265206265747765656e2035202d20343060448201526064016107a1565b601b8190556040518181527f0c5d389c7359bece26e614b94acd6ca0fff87fc0c4ccaaa3e8ac84ec8f71355e9060200160405180910390a150565b6001600160a01b0388165f9081526002602052604090205415612ef757604051634f2532fb60e11b815260040160405180910390fd5b60038660ff161115612f1c5760405163673f032f60e11b815260040160405180910390fd5b600154600103612f595786151580612f36575060ff861615155b15612f5457604051637d2338d360e11b815260040160405180910390fd5b612fc6565b5f878152600360205260409020601b015460ff16612f8a57604051637eae98fd60e11b815260040160405180910390fd5b5f87815260046020908152604080832060ff808b1685529252909120541615612fc65760405163e168e4db60e01b815260040160405180910390fd5b600180545f9182612fd683614b4b565b909155506001600160a01b038a165f8181526002602090815260408083208590558483526003918290529091208b8155600180820180546001600160a81b031916909417600160a01b60ff8e160217909355908101859055600e8101899055601181018990556017810188905542601a820155601b8101805460ff19908116841790915560168201805490911690921790915590915061307c6004808301908790614365565b5061308c60088201856004614365565b506020850151855161309e9190614973565b600c820155606085015160408601516130b79190614973565b600d8201558815613151575f898152600360205260408120905b600282015481101561311b57826002018260020182815481106130f6576130f66149b0565b5f918252602080832090910154835460018181018655948452919092200155016130d1565b50613129826002018a613a5a565b505f89815260046020908152604080832060ff8c1684529091529020805460ff191660011790555b60405160ff891681526001600160a01b038b16908a9084907fc993d6ba6f15ee4422360708315d3906dbf043e615acbb5b427590b9736ae1299060200160405180910390a450505050505050505050565b5f818152600b6020526040812060030154829060ff166131d557604051636605cccd60e01b815260040160405180910390fd5b50505f908152600b6020526040902090565b5f6131f182612a15565b6131fc906007614986565b9050612ddb8382600185613b90565b5f6368e30680821161321e57505f919050565b610e10612a216368e306808461499d565b5f6132398261320b565b9050612ddb83825f85613b90565b5f828152600360205260408120601b0154819060ff16158061327a57505f838152600360205260409020601b015460ff16155b1561328957505f90508061342c565b82840361329c57506001905060ff61342c565b5f8481526003602052604080822085835290822090916132be60028401613e62565b90505f6132cd83600201613e62565b90508181116132e5575f5f955095505050505061342c565b5f6132f1602084614960565b90505f6132ff602085614b63565b90505f5b8281101561336657856002018181548110613320576133206149b0565b905f5260205f20015487600201828154811061333e5761333e6149b0565b905f5260205f2001541461335e575f5f985098505050505050505061342c565b600101613303565b508015613404575f866002018381548110613383576133836149b0565b905f5260205f20015490505f8660020184815481106133a4576133a46149b0565b5f91825260208220015491505b83811015613400578181602081106133cb576133cb6149b0565b1a8382602081106133de576133de6149b0565b1a146133f8575f5f9a509a5050505050505050505061342c565b6001016133b1565b5050505b5f6134128660020186613f09565b905060016134208183614b76565b98509850505050505050505b9250929050565b5f61343d8261320b565b61344683612a15565b613451906007614986565b1492915050565b5f838152600660209081526040808320858452909152812060ff831660038110613484576134846149b0565b602081049091015460ff601f9092166101000a90041690509392505050565b5f81815260166020908152604080832085845290915281205460ff1615806134e357505f82815260176020908152604080832086845290915290205460ff165b156134ef57505f61235e565b5f828152601860209081526040808320546016835281842087855283528184205486855260199093529220546123519160ff1690614986565b5f600161353442612a15565b61353e919061499d565b905080600f541061359d5760405162461bcd60e51b815260206004820152602360248201527f444e4d206f662074686973207765656b20697320616c7265616479206d696e7460448201526232b21760e91b60648201526084016107a1565b5f818152601560205260408120549060646135b9836050614986565b6135c39190614960565b905068056bc75e2d6310000081101561361e5760405162461bcd60e51b815260206004820181905260248201527f54686973207765656b2773204256206973206c657373207468616e203130302e60448201526064016107a1565b60145460408051634c6afee560e11b815290516001600160a01b03909216915f9183916398d5fdca916004808201926020929091908290030181865afa15801561366a573d5f5f3e3d5ffd5b505050506040513d601f19601f8201168201806040525081019061368e9190614b34565b6012546011546040516370a0823160e01b81523060048201529293506001600160a01b03909116915f919083906370a0823190602401602060405180830381865afa1580156136df573d5f5f3e3d5ffd5b505050506040513d601f19601f820116820180604052508101906137039190614b34565b61370d919061499d565b90505f81836001600160a01b03166318160ddd6040518163ffffffff1660e01b8152600401602060405180830381865afa15801561374d573d5f5f3e3d5ffd5b505050506040513d601f19601f820116820180604052508101906137719190614b34565b61377b919061499d565b90505f81116137cc5760405162461bcd60e51b815260206004820152601e60248201527f41646a757374656420737570706c792063616e6e6f74206265207a65726f000060448201526064016107a1565b5f818560646137dc8b6028614986565b6137e69190614960565b6137f09190614973565b6137fa9190614960565b90505f81116138425760405162461bcd60e51b815260206004820152601460248201527350726963652063616e6e6f74206265207a65726f60601b60448201526064016107a1565b5f816103e86138528b604e614986565b61385c9190614960565b6138669190614960565b9050680d63d04756817c00008111156138855750680d63d04756817c00005b83811115613901576001600160a01b0385166340c10f19306138a7878561499d565b6040516001600160e01b031960e085901b1681526001600160a01b03909216600483015260248201526044015f604051808303815f87803b1580156138ea575f5ffd5b505af11580156138fc573d5f5f3e3d5ffd5b505050505b6013546001600160a01b03165f606461391b8c6028614986565b6139259190614960565b60145460405163095ea7b360e01b81526001600160a01b0391821660048201526024810183905291925083169063095ea7b3906044016020604051808303815f875af1158015613977573d5f5f3e3d5ffd5b505050506040513d601f19601f8201168201806040525081019061399b9190614b0e565b5060405163b6b55f2560e01b8152600481018290526001600160a01b038a169063b6b55f25906024015f604051808303815f87803b1580156139db575f5ffd5b505af11580156139ed573d5f5f3e3d5ffd5b505050600e84905550600f8c9055604080518d8152602081018590527fdbcbbaf9f83695d491278dce91a76d0375c4cc28e14552a686352c2bf1563cb5910160405180910390a1505050505050505050505050565b5f5f601a54118015613a55575042601a54105b905090565b60038160ff161115613aa15760405162461bcd60e51b815260206004820152601060248201526f24b73b30b634b2103837b9b4ba34b7b760811b60448201526064016107a1565b81541580613ac157506020613ab583613e62565b613abf9190614b63565b155b15613af5578160f8613ad4836001614b8f565b82546001810184555f938452602090932060ff9190911690911b9101555050565b81545f90613b059060019061499d565b90505f6020613b1385613e62565b613b1d9190614b63565b90505f848381548110613b3257613b326149b0565b5f9182526020822001549150613b4983601f61499d565b613b54906008614986565b613b5f866001614b8f565b60ff165f1b901b9050808217868581548110613b7d57613b7d6149b0565b5f91825260209091200155505050505050565b5f613b9a856123e2565b90505f805b60038160ff161015613e29575f5f613bb78984613f6f565b915091505f613bc78a8a86613458565b90505f613bd2614003565b90505f613bdd61403c565b90505f613be8614065565b90505b828610158015613bfb5750828510155b8015613c0a5750818460ff1611155b15613c7c57613c19838761499d565b9550613c25838661499d565b9450613c318189614973565b975083613c3d81614ad6565b9450506001896010015f828254613c549190614973565b90915550505f8c8152602260205260408120805491613c7283614b4b565b9190505550613beb565b600189601001541115613c9257613c928d61409e565b613c9e8d87878a61410f565b613caa8d8d89876141a2565b818460ff1603613d6957613cc08d5f5f8a61410f565b5f8c8152602360205260408120805491613cd983614b4b565b91905055508a15613d1e57613cef60078d614960565b6040518e907f5150b2f14ff43d11d201209c10a343706907a0120bfb193cb2bb0357daf14e38905f90a3613d69565b5f8c815260236020526040902054605f11613d3c57613d3c8a6141f6565b6040518c908e907fe38f803d4f5944b75b383b0ae2da100b012d92262993f7e27db59c839abfeefb905f90a35b8a15613dc557613d7a60078d614960565b604080518a815260ff8a8116602083015287168183015290518f917f261b321470bcac4821d5dd7d4549b5436eed77799b4265f02c1e25f585e9023b919081900360600190a3613e17565b8b8d7fbdbcc512734f71ca070088310103fd90ef0165920e62b78f2f7d3f27a83a2dbd8a8a88604051613e0e9392919092835260ff918216602084015216604082015260600190565b60405180910390a35b505060019094019350613b9f92505050565b508060105f828254613e3b9190614973565b9250508190555080826017015f828254613e559190614973565b9091555050505050505050565b80545f908103613e7357505f919050565b81545f90613e839060019061499d565b613e8e906020614986565b90505f8360018580549050613ea3919061499d565b81548110613eb357613eb36149b0565b5f91825260208220015491505b6020811015613f0057818160208110613edb57613edb6149b0565b1a15613ef35782613eeb81614b4b565b935050613ef8565b613f00565b600101613ec0565b50909392505050565b5f80613f16602084614960565b90505f613f24602085614b63565b85549091508210613f39575f9250505061235e565b848281548110613f4b57613f4b6149b0565b905f5260205f2001548160208110613f6557613f656149b0565b1a95945050505050565b5f828152600360205260408120601b01548190849060ff16613fa457604051632163950f60e01b815260040160405180910390fd5b5f8581526003602052604081209060ff86169003613fd2576004810180549060015b01549350935050613ffb565b8460ff16600103613fed576006810154600482016003613fc6565b600c81018054906001613fc6565b509250929050565b5f61400c613a42565b80156140225750601c54681b1ae4d6e2ef500000145b1561403557682086ac351052600000601c555b50601c5490565b5f614045613a42565b80156140535750601b546005145b1561405e576028601b555b50601b5490565b5f61406e613a42565b80156140845750601d54680340aad21b3b700000145b15614097576803cb71f51fc5580000601d555b50601d5490565b5f6140a8826123e2565b601681015490915060ff16611034575f6140c142612d29565b90504282601a015462278d006140d79190614973565b11156140e957612ddb83826002612d35565b4282601a0154624f1a006140fd9190614973565b1115612ddb57612ddb83826001612d35565b5f848152600360205260409020601b0154849060ff1661414257604051632163950f60e01b815260040160405180910390fd5b5f8581526003602052604081209060ff8416900361416d5760048101858155849060015b015561419a565b8260ff1660010361418b576006810185905583600482016003614166565b600c8101859055600d81018490555b505050505050565b5f8481526006602090815260408083208684529091529020819060ff8416600381106141d0576141d06149b0565b602091828204019190066101000a81548160ff021916908360ff16021790555050505050565b601a541561425e5760405162461bcd60e51b815260206004820152602f60248201527f43616c63756c6174696f6e206c6f67696320697320616c72656164792073776960448201526e746368656420746f207765656b6c7960881b60648201526084016107a1565b5f61426882612a15565b905061427d614278826001614973565b614284565b601a555050565b5f6368e30680614295836007614986565b6142a190610e10614986565b61235e9190614973565b604051806102c001604052805f81526020015f6001600160a01b031681526020015f60ff168152602001606081526020015f81526020016142ea6143a3565b81526020016142f76143a3565b81526020016143046143c1565b81526020015f81526020015f81526020015f81526020015f81526020015f81526020015f60ff1681526020015f81526020015f81526020015f151581526020015f81526020015f81526020015f81526020015f81526020015f151581525090565b8260048101928215614393579160200282015b82811115614393578251825591602001919060010190614378565b5061439f9291506143df565b5090565b60405180608001604052806004906020820280368337509192915050565b60405180604001604052806002906020820280368337509192915050565b5b8082111561439f575f81556001016143e0565b80356001600160a01b0381168114614409575f5ffd5b919050565b5f5f6040838503121561441f575f5ffd5b614428836143f3565b946020939093013593505050565b5f60208284031215614446575f5ffd5b5035919050565b803560ff81168114614409575f5ffd5b5f5f5f5f5f60808688031215614471575f5ffd5b61447a866143f3565b9450614488602087016143f3565b93506144966040870161444d565b9250606086013567ffffffffffffffff8111156144b1575f5ffd5b8601601f810188136144c1575f5ffd5b803567ffffffffffffffff8111156144d7575f5ffd5b8860206060830284010111156144eb575f5ffd5b959894975092955050506020019190565b5f6020828403121561450c575f5ffd5b61235b826143f3565b5f5f60408385031215614526575f5ffd5b823591506145366020840161444d565b90509250929050565b5f5f60408385031215614550575f5ffd5b50508035926020909101359150565b5f8151808452602084019350602083015f5b8281101561458f578151865260209586019590910190600101614571565b5093949350505050565b805f5b60048110156145bb57815184526020938401939091019060010161459c565b50505050565b805f5b60028110156145bb5781518452602093840193909101906001016145c4565b60208152815160208201525f602083015161460960408401826001600160a01b03169052565b50604083015160ff811660608401525060608301516103a060808401526146346103c084018261455f565b9050608084015160a084015260a084015161465260c0850182614599565b5060c0840151614666610140850182614599565b5060e084015161467a6101c08501826145c1565b506101008401516102008401526101208401516102208401526101408401516102408401526101608401516102608401526101808401516102808401526101a084015160ff81166102a0850152506101c08401516102c08401526101e08401516102e0840152610200840151801515610300850152506102208401516103208401526102408401516103408401526102608401516103608401526102808401516103808401526102a08401518015156103a0850152509392505050565b634e487b7160e01b5f52604160045260245ffd5b604051601f8201601f1916810167ffffffffffffffff8111828210171561477457614774614737565b604052919050565b5f82601f83011261478b575f5ffd5b6040516080810167ffffffffffffffff811182821017156147ae576147ae614737565b6040528060808401858111156147c2575f5ffd5b845b818110156147dc5780358352602092830192016147c4565b509195945050505050565b5f5f5f5f5f5f5f6101a0888a0312156147fe575f5ffd5b614807886143f3565b96506020880135955061481c6040890161444d565b945060608801359350608088013592506148398960a08a0161477c565b9150614849896101208a0161477c565b905092959891949750929550565b5f5f60408385031215614868575f5ffd5b82359150602083013567ffffffffffffffff811115614885575f5ffd5b8301601f81018513614895575f5ffd5b803567ffffffffffffffff8111156148af576148af614737565b8060051b6148bf6020820161474b565b918252602081840181019290810190888411156148da575f5ffd5b6020850194505b83851015614900578435808352602095860195909350909101906148e1565b80955050505050509250929050565b5f5f5f60608486031215614921575f5ffd5b505081359360208301359350604090920135919050565b634e487b7160e01b5f52601260045260245ffd5b634e487b7160e01b5f52601160045260245ffd5b5f8261496e5761496e614938565b500490565b8082018082111561235e5761235e61494c565b808202811582820484141761235e5761235e61494c565b8181038181111561235e5761235e61494c565b634e487b7160e01b5f52603260045260245ffd5b6001815b60018411156149ff578085048111156149e3576149e361494c565b60018416156149f157908102905b60019390931c9280026149c8565b935093915050565b5f82614a155750600161235e565b81614a2157505f61235e565b8160018114614a375760028114614a4157614a5d565b600191505061235e565b60ff841115614a5257614a5261494c565b50506001821b61235e565b5060208310610133831016604e8410600b8410161715614a80575081810a61235e565b614a8c5f1984846149c4565b805f1904821115614a9f57614a9f61494c565b029392505050565b5f61235b60ff841683614a07565b5f60ff831680614ac757614ac7614938565b8060ff84160491505092915050565b5f60ff821660ff8103614aeb57614aeb61494c565b60010192915050565b61ffff828116828216039081111561235e5761235e61494c565b5f60208284031215614b1e575f5ffd5b81518015158114614b2d575f5ffd5b9392505050565b5f60208284031215614b44575f5ffd5b5051919050565b5f60018201614b5c57614b5c61494c565b5060010190565b5f82614b7157614b71614938565b500690565b60ff828116828216039081111561235e5761235e61494c565b60ff818116838216019081111561235e5761235e61494c56fea2646970667358221220547217fe3846abbc9f5b5bf5226d8519d6445cb937609fd282345c76f957f60164736f6c634300081c0033",
  "linkReferences": {},
  "deployedLinkReferences": {},
  "immutableReferences": {},
  "inputSourceName": "project/contracts/core/Core.sol",
  "buildInfoId": "solc-0_8_28-0a3f0a2b5c452016bc323ccc7cfcc3e081b937b0"
}