{
  "_format": "hh3-artifact-1",
  "contractName": "AranDAONFTFundraise",
  "sourceName": "contracts/orderBook/Collection.sol",
  "abi": [
    {
      "inputs": [
        {
          "internalType": "address",
          "name": "initialOwner",
          "type": "address"
        }
      ],
      "stateMutability": "nonpayable",
      "type": "constructor"
    },
    {
      "inputs": [
        {
          "internalType": "address",
          "name": "sender",
          "type": "address"
        },
        {
          "internalType": "uint256",
          "name": "tokenId",
          "type": "uint256"
        },
        {
          "internalType": "address",
          "name": "owner",
          "type": "address"
        }
      ],
      "name": "ERC721IncorrectOwner",
      "type": "error"
    },
    {
      "inputs": [
        {
          "internalType": "address",
          "name": "operator",
          "type": "address"
        },
        {
          "internalType": "uint256",
          "name": "tokenId",
          "type": "uint256"
        }
      ],
      "name": "ERC721InsufficientApproval",
      "type": "error"
    },
    {
      "inputs": [
        {
          "internalType": "address",
          "name": "approver",
          "type": "address"
        }
      ],
      "name": "ERC721InvalidApprover",
      "type": "error"
    },
    {
      "inputs": [
        {
          "internalType": "address",
          "name": "operator",
          "type": "address"
        }
      ],
      "name": "ERC721InvalidOperator",
      "type": "error"
    },
    {
      "inputs": [
        {
          "internalType": "address",
          "name": "owner",
          "type": "address"
        }
      ],
      "name": "ERC721InvalidOwner",
      "type": "error"
    },
    {
      "inputs": [
        {
          "internalType": "address",
          "name": "receiver",
          "type": "address"
        }
      ],
      "name": "ERC721InvalidReceiver",
      "type": "error"
    },
    {
      "inputs": [
        {
          "internalType": "address",
          "name": "sender",
          "type": "address"
        }
      ],
      "name": "ERC721InvalidSender",
      "type": "error"
    },
    {
      "inputs": [
        {
          "internalType": "uint256",
          "name": "tokenId",
          "type": "uint256"
        }
      ],
      "name": "ERC721NonexistentToken",
      "type": "error"
    },
    {
      "inputs": [
        {
          "internalType": "address",
          "name": "owner",
          "type": "address"
        }
      ],
      "name": "OwnableInvalidOwner",
      "type": "error"
    },
    {
      "inputs": [
        {
          "internalType": "address",
          "name": "account",
          "type": "address"
        }
      ],
      "name": "OwnableUnauthorizedAccount",
      "type": "error"
    },
    {
      "anonymous": false,
      "inputs": [
        {
          "indexed": true,
          "internalType": "address",
          "name": "owner",
          "type": "address"
        },
        {
          "indexed": true,
          "internalType": "address",
          "name": "approved",
          "type": "address"
        },
        {
          "indexed": true,
          "internalType": "uint256",
          "name": "tokenId",
          "type": "uint256"
        }
      ],
      "name": "Approval",
      "type": "event"
    },
    {
      "anonymous": false,
      "inputs": [
        {
          "indexed": true,
          "internalType": "address",
          "name": "owner",
          "type": "address"
        },
        {
          "indexed": true,
          "internalType": "address",
          "name": "operator",
          "type": "address"
        },
        {
          "indexed": false,
          "internalType": "bool",
          "name": "approved",
          "type": "bool"
        }
      ],
      "name": "ApprovalForAll",
      "type": "event"
    },
    {
      "anonymous": false,
      "inputs": [
        {
          "indexed": false,
          "internalType": "uint256",
          "name": "_fromTokenId",
          "type": "uint256"
        },
        {
          "indexed": false,
          "internalType": "uint256",
          "name": "_toTokenId",
          "type": "uint256"
        }
      ],
      "name": "BatchMetadataUpdate",
      "type": "event"
    },
    {
      "anonymous": false,
      "inputs": [
        {
          "indexed": false,
          "internalType": "uint256",
          "name": "_tokenId",
          "type": "uint256"
        }
      ],
      "name": "MetadataUpdate",
      "type": "event"
    },
    {
      "anonymous": false,
      "inputs": [
        {
          "indexed": true,
          "internalType": "address",
          "name": "previousOwner",
          "type": "address"
        },
        {
          "indexed": true,
          "internalType": "address",
          "name": "newOwner",
          "type": "address"
        }
      ],
      "name": "OwnershipTransferred",
      "type": "event"
    },
    {
      "anonymous": false,
      "inputs": [
        {
          "indexed": true,
          "internalType": "address",
          "name": "from",
          "type": "address"
        },
        {
          "indexed": true,
          "internalType": "address",
          "name": "to",
          "type": "address"
        },
        {
          "indexed": true,
          "internalType": "uint256",
          "name": "tokenId",
          "type": "uint256"
        }
      ],
      "name": "Transfer",
      "type": "event"
    },
    {
      "inputs": [],
      "name": "MAX_SUPPLY",
      "outputs": [
        {
          "internalType": "uint256",
          "name": "",
          "type": "uint256"
        }
      ],
      "stateMutability": "view",
      "type": "function"
    },
    {
      "inputs": [
        {
          "internalType": "address",
          "name": "newAddress",
          "type": "address"
        }
      ],
      "name": "addTransferAllowedAddress",
      "outputs": [],
      "stateMutability": "nonpayable",
      "type": "function"
    },
    {
      "inputs": [
        {
          "internalType": "address",
          "name": "to",
          "type": "address"
        },
        {
          "internalType": "uint256",
          "name": "tokenId",
          "type": "uint256"
        }
      ],
      "name": "approve",
      "outputs": [],
      "stateMutability": "nonpayable",
      "type": "function"
    },
    {
      "inputs": [
        {
          "internalType": "address",
          "name": "owner",
          "type": "address"
        }
      ],
      "name": "balanceOf",
      "outputs": [
        {
          "internalType": "uint256",
          "name": "",
          "type": "uint256"
        }
      ],
      "stateMutability": "view",
      "type": "function"
    },
    {
      "inputs": [
        {
          "internalType": "uint256",
          "name": "tokenId",
          "type": "uint256"
        }
      ],
      "name": "getApproved",
      "outputs": [
        {
          "internalType": "address",
          "name": "",
          "type": "address"
        }
      ],
      "stateMutability": "view",
      "type": "function"
    },
    {
      "inputs": [
        {
          "internalType": "address",
          "name": "owner",
          "type": "address"
        },
        {
          "internalType": "address",
          "name": "operator",
          "type": "address"
        }
      ],
      "name": "isApprovedForAll",
      "outputs": [
        {
          "internalType": "bool",
          "name": "",
          "type": "bool"
        }
      ],
      "stateMutability": "view",
      "type": "function"
    },
    {
      "inputs": [],
      "name": "name",
      "outputs": [
        {
          "internalType": "string",
          "name": "",
          "type": "string"
        }
      ],
      "stateMutability": "view",
      "type": "function"
    },
    {
      "inputs": [],
      "name": "nextTokenId",
      "outputs": [
        {
          "internalType": "uint256",
          "name": "",
          "type": "uint256"
        }
      ],
      "stateMutability": "view",
      "type": "function"
    },
    {
      "inputs": [],
      "name": "owner",
      "outputs": [
        {
          "internalType": "address",
          "name": "",
          "type": "address"
        }
      ],
      "stateMutability": "view",
      "type": "function"
    },
    {
      "inputs": [
        {
          "internalType": "uint256",
          "name": "tokenId",
          "type": "uint256"
        }
      ],
      "name": "ownerOf",
      "outputs": [
        {
          "internalType": "address",
          "name": "",
          "type": "address"
        }
      ],
      "stateMutability": "view",
      "type": "function"
    },
    {
      "inputs": [],
      "name": "ownershipFlag",
      "outputs": [
        {
          "internalType": "bool",
          "name": "",
          "type": "bool"
        }
      ],
      "stateMutability": "view",
      "type": "function"
    },
    {
      "inputs": [
        {
          "internalType": "address",
          "name": "addr",
          "type": "address"
        }
      ],
      "name": "removeTransferAllowedAddress",
      "outputs": [],
      "stateMutability": "nonpayable",
      "type": "function"
    },
    {
      "inputs": [],
      "name": "renounceOwnership",
      "outputs": [],
      "stateMutability": "nonpayable",
      "type": "function"
    },
    {
      "inputs": [
        {
          "internalType": "address[]",
          "name": "to",
          "type": "address[]"
        },
        {
          "internalType": "string[]",
          "name": "uris",
          "type": "string[]"
        }
      ],
      "name": "safeBatchMint",
      "outputs": [],
      "stateMutability": "nonpayable",
      "type": "function"
    },
    {
      "inputs": [
        {
          "internalType": "address",
          "name": "to",
          "type": "address"
        },
        {
          "internalType": "string",
          "name": "uri",
          "type": "string"
        }
      ],
      "name": "safeMint",
      "outputs": [],
      "stateMutability": "nonpayable",
      "type": "function"
    },
    {
      "inputs": [
        {
          "internalType": "address",
          "name": "from",
          "type": "address"
        },
        {
          "internalType": "address",
          "name": "to",
          "type": "address"
        },
        {
          "internalType": "uint256",
          "name": "tokenId",
          "type": "uint256"
        }
      ],
      "name": "safeTransferFrom",
      "outputs": [],
      "stateMutability": "nonpayable",
      "type": "function"
    },
    {
      "inputs": [
        {
          "internalType": "address",
          "name": "from",
          "type": "address"
        },
        {
          "internalType": "address",
          "name": "to",
          "type": "address"
        },
        {
          "internalType": "uint256",
          "name": "tokenId",
          "type": "uint256"
        },
        {
          "internalType": "bytes",
          "name": "data",
          "type": "bytes"
        }
      ],
      "name": "safeTransferFrom",
      "outputs": [],
      "stateMutability": "nonpayable",
      "type": "function"
    },
    {
      "inputs": [
        {
          "internalType": "address",
          "name": "operator",
          "type": "address"
        },
        {
          "internalType": "bool",
          "name": "approved",
          "type": "bool"
        }
      ],
      "name": "setApprovalForAll",
      "outputs": [],
      "stateMutability": "nonpayable",
      "type": "function"
    },
    {
      "inputs": [
        {
          "internalType": "bytes4",
          "name": "interfaceId",
          "type": "bytes4"
        }
      ],
      "name": "supportsInterface",
      "outputs": [
        {
          "internalType": "bool",
          "name": "",
          "type": "bool"
        }
      ],
      "stateMutability": "view",
      "type": "function"
    },
    {
      "inputs": [],
      "name": "symbol",
      "outputs": [
        {
          "internalType": "string",
          "name": "",
          "type": "string"
        }
      ],
      "stateMutability": "view",
      "type": "function"
    },
    {
      "inputs": [
        {
          "internalType": "uint256",
          "name": "tokenId",
          "type": "uint256"
        }
      ],
      "name": "tokenURI",
      "outputs": [
        {
          "internalType": "string",
          "name": "",
          "type": "string"
        }
      ],
      "stateMutability": "view",
      "type": "function"
    },
    {
      "inputs": [
        {
          "internalType": "address",
          "name": "",
          "type": "address"
        }
      ],
      "name": "transferAllowed",
      "outputs": [
        {
          "internalType": "bool",
          "name": "",
          "type": "bool"
        }
      ],
      "stateMutability": "view",
      "type": "function"
    },
    {
      "inputs": [
        {
          "internalType": "address",
          "name": "from",
          "type": "address"
        },
        {
          "internalType": "address",
          "name": "to",
          "type": "address"
        },
        {
          "internalType": "uint256",
          "name": "tokenId",
          "type": "uint256"
        }
      ],
      "name": "transferFrom",
      "outputs": [],
      "stateMutability": "nonpayable",
      "type": "function"
    },
    {
      "inputs": [
        {
          "internalType": "address",
          "name": "newOwner",
          "type": "address"
        }
      ],
      "name": "transferOwnership",
      "outputs": [],
      "stateMutability": "nonpayable",
      "type": "function"
    }
  ],
  "bytecode": "0x608060405234801561000f575f5ffd5b50604051611c51380380611c5183398101604081905261002e91610130565b806040518060400160405280600c81526020016b4e465446756e64726169736560a01b8152506040518060400160405280600381526020016227232960e91b815250815f908161007e91906101f5565b50600161008b82826101f5565b5050506001600160a01b0381166100bb57604051631e4fbdf760e01b81525f600482015260240160405180910390fd5b6100c4816100df565b5060088054905f6100d4836102af565b9190505550506102d3565b600780546001600160a01b038381166001600160a01b0319831681179093556040519116919082907f8be0079c531659141344cd1fd0a4f28419497f9722a3daafe3b4186f6b6457e0905f90a35050565b5f60208284031215610140575f5ffd5b81516001600160a01b0381168114610156575f5ffd5b9392505050565b634e487b7160e01b5f52604160045260245ffd5b600181811c9082168061018557607f821691505b6020821081036101a357634e487b7160e01b5f52602260045260245ffd5b50919050565b601f8211156101f057805f5260205f20601f840160051c810160208510156101ce5750805b601f840160051c820191505b818110156101ed575f81556001016101da565b50505b505050565b81516001600160401b0381111561020e5761020e61015d565b6102228161021c8454610171565b846101a9565b6020601f821160018114610254575f831561023d5750848201515b5f19600385901b1c1916600184901b1784556101ed565b5f84815260208120601f198516915b828110156102835787850151825560209485019460019092019101610263565b50848210156102a057868401515f19600387901b60f8161c191681555b50505050600190811b01905550565b5f600182016102cc57634e487b7160e01b5f52601160045260245ffd5b5060010190565b611971806102e05f395ff3fe608060405234801561000f575f5ffd5b5060043610610153575f3560e01c806375794a3c116100bf578063c87b56dd11610079578063c87b56dd146102cf578063d204c45e146102e2578063e259ea2e146102f5578063e985e9c514610308578063f2fde38b1461031b578063ff0062451461032e575f5ffd5b806375794a3c146102745780638da5cb5b1461027d57806395d89b411461028e578063a22cb46514610296578063a6863383146102a9578063b88d4fde146102bc575f5ffd5b806332cb6b0c1161011057806332cb6b0c1461020957806342842e0e1461022057806357e8e354146102335780636352211e1461024657806370a0823114610259578063715018a61461026c575f5ffd5b806301ffc9a71461015757806306fdde031461017f578063081812fc14610194578063095ea7b3146101bf578063151eeb55146101d457806323b872dd146101f6575b5f5ffd5b61016a610165366004611381565b610342565b60405190151581526020015b60405180910390f35b610187610352565b60405161017691906113ca565b6101a76101a23660046113dc565b6103e1565b6040516001600160a01b039091168152602001610176565b6101d26101cd36600461140e565b610408565b005b61016a6101e2366004611436565b60096020525f908152604090205460ff1681565b6101d261020436600461144f565b610417565b6102126103e881565b604051908152602001610176565b6101d261022e36600461144f565b6104a5565b6101d2610241366004611436565b6104c4565b6101a76102543660046113dc565b610594565b610212610267366004611436565b61059e565b6101d26105e3565b61021260085481565b6007546001600160a01b03166101a7565b6101876105f6565b6101d26102a4366004611489565b610605565b6101d26102b7366004611436565b610610565b6101d26102ca36600461154d565b610690565b6101876102dd3660046113dc565b6106a8565b6101d26102f03660046115c4565b6106b3565b6101d261030336600461166a565b6106c5565b61016a6103163660046116d6565b6107b0565b6101d2610329366004611436565b6107dd565b60075461016a90600160a01b900460ff1681565b5f61034c82610873565b92915050565b60605f805461036090611707565b80601f016020809104026020016040519081016040528092919081815260200182805461038c90611707565b80156103d75780601f106103ae576101008083540402835291602001916103d7565b820191905f5260205f20905b8154815290600101906020018083116103ba57829003601f168201915b5050505050905090565b5f6103eb82610897565b505f828152600460205260409020546001600160a01b031661034c565b6104138282336108cf565b5050565b6001600160a01b03821661044557604051633250574960e11b81525f60048201526024015b60405180910390fd5b5f6104518383336108dc565b9050836001600160a01b0316816001600160a01b03161461049f576040516364283d7b60e01b81526001600160a01b038086166004830152602482018490528216604482015260640161043c565b50505050565b6104bf83838360405180602001604052805f815250610690565b505050565b6104cc6109b1565b6001600160a01b0381166105145760405162461bcd60e51b815260206004820152600f60248201526e496e76616c6964206164647265737360881b604482015260640161043c565b6001600160a01b0381165f9081526009602052604090205460ff16156105715760405162461bcd60e51b8152602060048201526012602482015271105b1c9958591e48185d5d1a1bdc9a5e995960721b604482015260640161043c565b6001600160a01b03165f908152600960205260409020805460ff19166001179055565b5f61034c82610897565b5f6001600160a01b0382166105c8576040516322718ad960e21b81525f600482015260240161043c565b506001600160a01b03165f9081526003602052604090205490565b6105eb6109b1565b6105f45f6109de565b565b60606001805461036090611707565b610413338383610a2f565b6106186109b1565b6001600160a01b0381165f9081526009602052604090205460ff166106705760405162461bcd60e51b815260206004820152600e60248201526d139bdd08185d5d1a1bdc9a5e995960921b604482015260640161043c565b6001600160a01b03165f908152600960205260409020805460ff19169055565b61069b848484610417565b61049f3385858585610acd565b606061034c82610bf4565b6106bb6109b1565b6104138282610cff565b6106cd6109b1565b8281146107105760405162461bcd60e51b81526020600482015260116024820152704d69736d6174636865642061727261797360781b604482015260640161043c565b5f5b838110156107a9576107a185858381811061072f5761072f61173f565b90506020020160208101906107449190611436565b8484848181106107565761075661173f565b90506020028101906107689190611753565b8080601f0160208091040260200160405190810160405280939291908181526020018383808284375f92019190915250610cff92505050565b600101610712565b5050505050565b6001600160a01b039182165f90815260056020908152604080832093909416825291909152205460ff1690565b6107e56109b1565b600754600160a01b900460ff1615155f036108195761080381610d70565b6007805460ff60a01b1916600160a01b17905550565b60405162461bcd60e51b815260206004820152602660248201527f4f776e6572736869702068617320616c7265616479206265656e207472616e7360448201526519995c9c995960d21b606482015260840161043c565b50565b5f6001600160e01b03198216632483248360e11b148061034c575061034c82610daa565b5f818152600260205260408120546001600160a01b03168061034c57604051637e27328960e01b81526004810184905260240161043c565b6104bf8383836001610df9565b5f828152600260209081526040808320546001600160a01b0316808452600990925282205460ff168061092657506001600160a01b0385165f9081526009602052604090205460ff165b8061093f5750335f9081526009602052604090205460ff165b8061095157506001600160a01b038116155b61099d5760405162461bcd60e51b815260206004820152601760248201527f4e6f7420616c6c6f77656420746f207472616e73666572000000000000000000604482015260640161043c565b6109a8858585610efd565b95945050505050565b6007546001600160a01b031633146105f45760405163118cdaa760e01b815233600482015260240161043c565b600780546001600160a01b038381166001600160a01b0319831681179093556040519116919082907f8be0079c531659141344cd1fd0a4f28419497f9722a3daafe3b4186f6b6457e0905f90a35050565b6001600160a01b038216610a6157604051630b61174360e31b81526001600160a01b038316600482015260240161043c565b6001600160a01b038381165f81815260056020908152604080832094871680845294825291829020805460ff191686151590811790915591519182527f17307eab39ab6107e8899845ad3d59bd9653f200f220920489ca2b5937696c31910160405180910390a3505050565b6001600160a01b0383163b156107a957604051630a85bd0160e11b81526001600160a01b0384169063150b7a0290610b0f908890889087908790600401611796565b6020604051808303815f875af1925050508015610b49575060408051601f3d908101601f19168201909252610b46918101906117d2565b60015b610bb0573d808015610b76576040519150601f19603f3d011682016040523d82523d5f602084013e610b7b565b606091505b5080515f03610ba857604051633250574960e11b81526001600160a01b038516600482015260240161043c565b805160208201fd5b6001600160e01b03198116630a85bd0160e11b14610bec57604051633250574960e11b81526001600160a01b038516600482015260240161043c565b505050505050565b6060610bff82610897565b505f8281526006602052604081208054610c1890611707565b80601f0160208091040260200160405190810160405280929190818152602001828054610c4490611707565b8015610c8f5780601f10610c6657610100808354040283529160200191610c8f565b820191905f5260205f20905b815481529060010190602001808311610c7257829003601f168201915b505050505090505f610cab60408051602081019091525f815290565b905080515f03610cbc575092915050565b815115610cee578082604051602001610cd6929190611804565b60405160208183030381529060405292505050919050565b610cf784610fef565b949350505050565b600880545f9182610d0f83611818565b9190505590506103e8811115610d5c5760405162461bcd60e51b815260206004820152601260248201527113585e081cdd5c1c1b1e481c995858da195960721b604482015260640161043c565b610d668382611060565b6104bf8183611079565b610d786109b1565b6001600160a01b038116610da157604051631e4fbdf760e01b81525f600482015260240161043c565b610870816109de565b5f6001600160e01b031982166380ac58cd60e01b1480610dda57506001600160e01b03198216635b5e139f60e01b145b8061034c57506301ffc9a760e01b6001600160e01b031983161461034c565b8080610e0d57506001600160a01b03821615155b15610ece575f610e1c84610897565b90506001600160a01b03831615801590610e485750826001600160a01b0316816001600160a01b031614155b8015610e5b5750610e5981846107b0565b155b15610e845760405163a9fbf51f60e01b81526001600160a01b038416600482015260240161043c565b8115610ecc5783856001600160a01b0316826001600160a01b03167f8c5be1e5ebec7d5bd14f71427d1e84f3dd0314c0f7b2291e5b200ac8c7c3b92560405160405180910390a45b505b50505f90815260046020526040902080546001600160a01b0319166001600160a01b0392909216919091179055565b5f828152600260205260408120546001600160a01b0390811690831615610f2957610f298184866110c8565b6001600160a01b03811615610f6357610f445f855f5f610df9565b6001600160a01b0381165f90815260036020526040902080545f190190555b6001600160a01b03851615610f91576001600160a01b0385165f908152600360205260409020805460010190555b5f8481526002602052604080822080546001600160a01b0319166001600160a01b0389811691821790925591518793918516917fddf252ad1be2c89b69c2b068fc378daa952ba7f163c4a11628f55a4df523b3ef91a4949350505050565b6060610ffa82610897565b505f61101060408051602081019091525f815290565b90505f81511161102e5760405180602001604052805f815250611059565b806110388461112c565b604051602001611049929190611804565b6040516020818303038152906040525b9392505050565b610413828260405180602001604052805f8152506111bc565b5f8281526006602052604090206110908282611880565b506040518281527ff8e1a15aba9398e019f0b49df1a4fde98ee17ae345cb5f6b5e2c27f5033e8ce79060200160405180910390a15050565b6110d38383836111d3565b6104bf576001600160a01b03831661110157604051637e27328960e01b81526004810182905260240161043c565b60405163177e802f60e01b81526001600160a01b03831660048201526024810182905260440161043c565b60605f61113883611234565b60010190505f8167ffffffffffffffff811115611157576111576114c2565b6040519080825280601f01601f191660200182016040528015611181576020820181803683370190505b5090508181016020015b5f19016f181899199a1a9b1b9c1cb0b131b232b360811b600a86061a8153600a850494508461118b57509392505050565b6111c6838361130b565b6104bf335f858585610acd565b5f6001600160a01b03831615801590610cf75750826001600160a01b0316846001600160a01b0316148061120c575061120c84846107b0565b80610cf75750505f908152600460205260409020546001600160a01b03908116911614919050565b5f8072184f03e93ff9f4daa797ed6e38ed64bf6a1f0160401b83106112725772184f03e93ff9f4daa797ed6e38ed64bf6a1f0160401b830492506040015b6d04ee2d6d415b85acef8100000000831061129e576d04ee2d6d415b85acef8100000000830492506020015b662386f26fc1000083106112bc57662386f26fc10000830492506010015b6305f5e10083106112d4576305f5e100830492506008015b61271083106112e857612710830492506004015b606483106112fa576064830492506002015b600a831061034c5760010192915050565b6001600160a01b03821661133457604051633250574960e11b81525f600482015260240161043c565b5f61134083835f6108dc565b90506001600160a01b038116156104bf576040516339e3563760e11b81525f600482015260240161043c565b6001600160e01b031981168114610870575f5ffd5b5f60208284031215611391575f5ffd5b81356110598161136c565b5f81518084528060208401602086015e5f602082860101526020601f19601f83011685010191505092915050565b602081525f611059602083018461139c565b5f602082840312156113ec575f5ffd5b5035919050565b80356001600160a01b0381168114611409575f5ffd5b919050565b5f5f6040838503121561141f575f5ffd5b611428836113f3565b946020939093013593505050565b5f60208284031215611446575f5ffd5b611059826113f3565b5f5f5f60608486031215611461575f5ffd5b61146a846113f3565b9250611478602085016113f3565b929592945050506040919091013590565b5f5f6040838503121561149a575f5ffd5b6114a3836113f3565b9150602083013580151581146114b7575f5ffd5b809150509250929050565b634e487b7160e01b5f52604160045260245ffd5b5f5f67ffffffffffffffff8411156114f0576114f06114c2565b50604051601f19601f85018116603f0116810181811067ffffffffffffffff8211171561151f5761151f6114c2565b604052838152905080828401851015611536575f5ffd5b838360208301375f60208583010152509392505050565b5f5f5f5f60808587031215611560575f5ffd5b611569856113f3565b9350611577602086016113f3565b925060408501359150606085013567ffffffffffffffff811115611599575f5ffd5b8501601f810187136115a9575f5ffd5b6115b8878235602084016114d6565b91505092959194509250565b5f5f604083850312156115d5575f5ffd5b6115de836113f3565b9150602083013567ffffffffffffffff8111156115f9575f5ffd5b8301601f81018513611609575f5ffd5b611618858235602084016114d6565b9150509250929050565b5f5f83601f840112611632575f5ffd5b50813567ffffffffffffffff811115611649575f5ffd5b6020830191508360208260051b8501011115611663575f5ffd5b9250929050565b5f5f5f5f6040858703121561167d575f5ffd5b843567ffffffffffffffff811115611693575f5ffd5b61169f87828801611622565b909550935050602085013567ffffffffffffffff8111156116be575f5ffd5b6116ca87828801611622565b95989497509550505050565b5f5f604083850312156116e7575f5ffd5b6116f0836113f3565b91506116fe602084016113f3565b90509250929050565b600181811c9082168061171b57607f821691505b60208210810361173957634e487b7160e01b5f52602260045260245ffd5b50919050565b634e487b7160e01b5f52603260045260245ffd5b5f5f8335601e19843603018112611768575f5ffd5b83018035915067ffffffffffffffff821115611782575f5ffd5b602001915036819003821315611663575f5ffd5b6001600160a01b03858116825284166020820152604081018390526080606082018190525f906117c89083018461139c565b9695505050505050565b5f602082840312156117e2575f5ffd5b81516110598161136c565b5f81518060208401855e5f93019283525090919050565b5f610cf761181283866117ed565b846117ed565b5f6001820161183557634e487b7160e01b5f52601160045260245ffd5b5060010190565b601f8211156104bf57805f5260205f20601f840160051c810160208510156118615750805b601f840160051c820191505b818110156107a9575f815560010161186d565b815167ffffffffffffffff81111561189a5761189a6114c2565b6118ae816118a88454611707565b8461183c565b6020601f8211600181146118e0575f83156118c95750848201515b5f19600385901b1c1916600184901b1784556107a9565b5f84815260208120601f198516915b8281101561190f57878501518255602094850194600190920191016118ef565b508482101561192c57868401515f19600387901b60f8161c191681555b50505050600190811b0190555056fea26469706673582212205cf7c1144cd2ca72a957435526a48cff6c880baa9eedc177156827da19daf68664736f6c634300081c0033",
  "linkReferences": {},
  "deployedLinkReferences": {},
  "immutableReferences": {},
  "inputSourceName": "project/contracts/orderBook/Collection.sol",
  "buildInfoId": "solc-0_8_28-c5b4de2a85aabd8dba424bf25cab5bd33a7070c2"
}