{
  "_format": "hh3-artifact-1",
  "contractName": "AranDaoProCore",
  "sourceName": "contracts/core/Core.sol",
  "abi": [
    {
      "inputs": [
        {
          "internalType": "address",
          "name": "_initAdmin",
          "type": "address"
        },
        {
          "internalType": "address",
          "name": "_dnmAddress",
          "type": "address"
        },
        {
          "internalType": "address",
          "name": "_paymentTokenAddress",
          "type": "address"
        },
        {
          "internalType": "address",
          "name": "_vaultAddress",
          "type": "address"
        }
      ],
      "stateMutability": "nonpayable",
      "type": "constructor"
    },
    {
      "inputs": [],
      "name": "AddressAlreadyRegistered",
      "type": "error"
    },
    {
      "inputs": [],
      "name": "FirstUserMustBeRoot",
      "type": "error"
    },
    {
      "inputs": [],
      "name": "InsufficientBVForNewUser",
      "type": "error"
    },
    {
      "inputs": [],
      "name": "InvalidParentAddress",
      "type": "error"
    },
    {
      "inputs": [],
      "name": "InvalidParentId",
      "type": "error"
    },
    {
      "inputs": [],
      "name": "InvalidPosition",
      "type": "error"
    },
    {
      "inputs": [
        {
          "internalType": "uint256",
          "name": "orderId",
          "type": "uint256"
        }
      ],
      "name": "OrderNotExisted",
      "type": "error"
    },
    {
      "inputs": [
        {
          "internalType": "uint8",
          "name": "position",
          "type": "uint8"
        },
        {
          "internalType": "uint256",
          "name": "parentBv",
          "type": "uint256"
        }
      ],
      "name": "ParentInsufficientBVForPosition",
      "type": "error"
    },
    {
      "inputs": [],
      "name": "PositionAlreadyTaken",
      "type": "error"
    },
    {
      "inputs": [],
      "name": "ReentrancyGuardReentrantCall",
      "type": "error"
    },
    {
      "inputs": [],
      "name": "SellerNotRegistered",
      "type": "error"
    },
    {
      "inputs": [
        {
          "internalType": "address",
          "name": "_address",
          "type": "address"
        }
      ],
      "name": "UnauthorizedAddress",
      "type": "error"
    },
    {
      "inputs": [
        {
          "internalType": "address",
          "name": "contractAddress",
          "type": "address"
        }
      ],
      "name": "UnauthorizedContract",
      "type": "error"
    },
    {
      "inputs": [],
      "name": "UserAlreadyRegistered",
      "type": "error"
    },
    {
      "inputs": [],
      "name": "UserHasAlreadyWithdrawnFastValueShare",
      "type": "error"
    },
    {
      "inputs": [],
      "name": "UserHasNoFastValueShares",
      "type": "error"
    },
    {
      "inputs": [],
      "name": "UserNotRegistered",
      "type": "error"
    },
    {
      "anonymous": false,
      "inputs": [
        {
          "indexed": false,
          "internalType": "uint256",
          "name": "userId",
          "type": "uint256"
        },
        {
          "indexed": false,
          "internalType": "address",
          "name": "oldAddress",
          "type": "address"
        },
        {
          "indexed": false,
          "internalType": "address",
          "name": "newAddress",
          "type": "address"
        }
      ],
      "name": "AddressChangeRequested",
      "type": "event"
    },
    {
      "anonymous": false,
      "inputs": [
        {
          "indexed": true,
          "internalType": "uint256",
          "name": "userId",
          "type": "uint256"
        },
        {
          "indexed": true,
          "internalType": "address",
          "name": "oldAddress",
          "type": "address"
        },
        {
          "indexed": true,
          "internalType": "address",
          "name": "newAddress",
          "type": "address"
        }
      ],
      "name": "AddressChanged",
      "type": "event"
    },
    {
      "anonymous": false,
      "inputs": [
        {
          "indexed": true,
          "internalType": "uint256",
          "name": "userId",
          "type": "uint256"
        },
        {
          "indexed": false,
          "internalType": "uint256",
          "name": "amount",
          "type": "uint256"
        }
      ],
      "name": "CommissionWithdrawn",
      "type": "event"
    },
    {
      "anonymous": false,
      "inputs": [
        {
          "indexed": true,
          "internalType": "uint256",
          "name": "userId",
          "type": "uint256"
        },
        {
          "indexed": true,
          "internalType": "uint256",
          "name": "day",
          "type": "uint256"
        },
        {
          "indexed": false,
          "internalType": "uint256",
          "name": "totalCommission",
          "type": "uint256"
        },
        {
          "indexed": false,
          "internalType": "uint8",
          "name": "pairProcessed",
          "type": "uint8"
        },
        {
          "indexed": false,
          "internalType": "uint256",
          "name": "steps",
          "type": "uint256"
        }
      ],
      "name": "DailyCommissionCalculated",
      "type": "event"
    },
    {
      "anonymous": false,
      "inputs": [
        {
          "indexed": false,
          "internalType": "uint256",
          "name": "steps",
          "type": "uint256"
        }
      ],
      "name": "MaxStepSet",
      "type": "event"
    },
    {
      "anonymous": false,
      "inputs": [
        {
          "indexed": false,
          "internalType": "uint256",
          "name": "userId",
          "type": "uint256"
        },
        {
          "indexed": false,
          "internalType": "uint256",
          "name": "month",
          "type": "uint256"
        },
        {
          "indexed": false,
          "internalType": "uint256",
          "name": "share",
          "type": "uint256"
        }
      ],
      "name": "MontlyFastValueWithdrawn",
      "type": "event"
    },
    {
      "anonymous": false,
      "inputs": [
        {
          "indexed": true,
          "internalType": "uint256",
          "name": "userId",
          "type": "uint256"
        },
        {
          "indexed": true,
          "internalType": "uint256",
          "name": "week",
          "type": "uint256"
        },
        {
          "indexed": false,
          "internalType": "uint256",
          "name": "share",
          "type": "uint256"
        }
      ],
      "name": "NetworkerDnmShareCalculated",
      "type": "event"
    },
    {
      "anonymous": false,
      "inputs": [
        {
          "indexed": true,
          "internalType": "uint256",
          "name": "userId",
          "type": "uint256"
        },
        {
          "indexed": true,
          "internalType": "uint256",
          "name": "daysPeriod",
          "type": "uint256"
        },
        {
          "indexed": false,
          "internalType": "uint256",
          "name": "share",
          "type": "uint256"
        }
      ],
      "name": "NetworkerMonthlyDnmShareWithdrawn",
      "type": "event"
    },
    {
      "anonymous": false,
      "inputs": [
        {
          "indexed": true,
          "internalType": "uint256",
          "name": "orderId",
          "type": "uint256"
        },
        {
          "indexed": true,
          "internalType": "uint256",
          "name": "buyerId",
          "type": "uint256"
        },
        {
          "indexed": false,
          "internalType": "uint256",
          "name": "amount",
          "type": "uint256"
        }
      ],
      "name": "OrderCreated",
      "type": "event"
    },
    {
      "anonymous": false,
      "inputs": [
        {
          "indexed": true,
          "internalType": "uint256",
          "name": "userId",
          "type": "uint256"
        },
        {
          "indexed": false,
          "internalType": "uint256",
          "name": "processed",
          "type": "uint256"
        },
        {
          "indexed": false,
          "internalType": "uint256",
          "name": "lastCalculatedOrder",
          "type": "uint256"
        }
      ],
      "name": "OrdersCalculated",
      "type": "event"
    },
    {
      "anonymous": false,
      "inputs": [
        {
          "indexed": true,
          "internalType": "uint256",
          "name": "sellerId",
          "type": "uint256"
        },
        {
          "indexed": true,
          "internalType": "uint256",
          "name": "week",
          "type": "uint256"
        },
        {
          "indexed": false,
          "internalType": "uint256",
          "name": "share",
          "type": "uint256"
        }
      ],
      "name": "SellerDnmShareCalculated",
      "type": "event"
    },
    {
      "anonymous": false,
      "inputs": [
        {
          "indexed": true,
          "internalType": "uint256",
          "name": "sellerId",
          "type": "uint256"
        },
        {
          "indexed": true,
          "internalType": "address",
          "name": "sellerAddr",
          "type": "address"
        }
      ],
      "name": "SellerRegistered",
      "type": "event"
    },
    {
      "anonymous": false,
      "inputs": [
        {
          "indexed": false,
          "internalType": "uint256",
          "name": "userId",
          "type": "uint256"
        },
        {
          "indexed": false,
          "internalType": "uint8",
          "name": "share",
          "type": "uint8"
        }
      ],
      "name": "UserAddedToFastValue",
      "type": "event"
    },
    {
      "anonymous": false,
      "inputs": [
        {
          "indexed": true,
          "internalType": "uint256",
          "name": "userId",
          "type": "uint256"
        },
        {
          "indexed": true,
          "internalType": "uint256",
          "name": "day",
          "type": "uint256"
        }
      ],
      "name": "UserDailyFlushedOut",
      "type": "event"
    },
    {
      "anonymous": false,
      "inputs": [
        {
          "indexed": true,
          "internalType": "uint256",
          "name": "userId",
          "type": "uint256"
        },
        {
          "indexed": true,
          "internalType": "uint256",
          "name": "week",
          "type": "uint256"
        },
        {
          "indexed": false,
          "internalType": "uint256",
          "name": "share",
          "type": "uint256"
        }
      ],
      "name": "UserDnmShareCalculated",
      "type": "event"
    },
    {
      "anonymous": false,
      "inputs": [
        {
          "indexed": true,
          "internalType": "uint256",
          "name": "userId",
          "type": "uint256"
        },
        {
          "indexed": true,
          "internalType": "uint256",
          "name": "parentId",
          "type": "uint256"
        },
        {
          "indexed": false,
          "internalType": "uint8",
          "name": "position",
          "type": "uint8"
        },
        {
          "indexed": true,
          "internalType": "address",
          "name": "userAddr",
          "type": "address"
        }
      ],
      "name": "UserMigrated",
      "type": "event"
    },
    {
      "anonymous": false,
      "inputs": [
        {
          "indexed": true,
          "internalType": "uint256",
          "name": "userId",
          "type": "uint256"
        },
        {
          "indexed": true,
          "internalType": "uint256",
          "name": "parentId",
          "type": "uint256"
        },
        {
          "indexed": false,
          "internalType": "uint8",
          "name": "position",
          "type": "uint8"
        },
        {
          "indexed": true,
          "internalType": "address",
          "name": "userAddr",
          "type": "address"
        }
      ],
      "name": "UserRegistered",
      "type": "event"
    },
    {
      "anonymous": false,
      "inputs": [
        {
          "indexed": true,
          "internalType": "uint256",
          "name": "userId",
          "type": "uint256"
        },
        {
          "indexed": true,
          "internalType": "uint256",
          "name": "week",
          "type": "uint256"
        }
      ],
      "name": "UserWeeklyFlushedOut",
      "type": "event"
    },
    {
      "anonymous": false,
      "inputs": [
        {
          "indexed": true,
          "internalType": "uint256",
          "name": "userId",
          "type": "uint256"
        },
        {
          "indexed": true,
          "internalType": "uint256",
          "name": "week",
          "type": "uint256"
        },
        {
          "indexed": false,
          "internalType": "uint256",
          "name": "totalCommission",
          "type": "uint256"
        },
        {
          "indexed": false,
          "internalType": "uint8",
          "name": "pairProcessed",
          "type": "uint8"
        },
        {
          "indexed": false,
          "internalType": "uint256",
          "name": "steps",
          "type": "uint256"
        }
      ],
      "name": "WeeklyCommissionCalculated",
      "type": "event"
    },
    {
      "anonymous": false,
      "inputs": [
        {
          "indexed": false,
          "internalType": "uint256",
          "name": "weekNumber",
          "type": "uint256"
        },
        {
          "indexed": false,
          "internalType": "uint256",
          "name": "amount",
          "type": "uint256"
        }
      ],
      "name": "weeklyDnmMinted",
      "type": "event"
    },
    {
      "inputs": [
        {
          "internalType": "address",
          "name": "_addr",
          "type": "address"
        }
      ],
      "name": "addManager",
      "outputs": [],
      "stateMutability": "nonpayable",
      "type": "function"
    },
    {
      "inputs": [
        {
          "internalType": "address",
          "name": "_addr",
          "type": "address"
        }
      ],
      "name": "addWhiteListedContract",
      "outputs": [],
      "stateMutability": "nonpayable",
      "type": "function"
    },
    {
      "inputs": [
        {
          "internalType": "address",
          "name": "sender",
          "type": "address"
        },
        {
          "internalType": "uint256",
          "name": "userId",
          "type": "uint256"
        }
      ],
      "name": "approveChangeAddress",
      "outputs": [],
      "stateMutability": "nonpayable",
      "type": "function"
    },
    {
      "inputs": [],
      "name": "calculateNetworkerWeeklyDnm",
      "outputs": [],
      "stateMutability": "nonpayable",
      "type": "function"
    },
    {
      "inputs": [
        {
          "internalType": "uint256",
          "name": "callerId",
          "type": "uint256"
        },
        {
          "internalType": "uint256[]",
          "name": "orderIds",
          "type": "uint256[]"
        }
      ],
      "name": "calculateOrders",
      "outputs": [],
      "stateMutability": "nonpayable",
      "type": "function"
    },
    {
      "inputs": [],
      "name": "calculateSellerWeeklyDnm",
      "outputs": [],
      "stateMutability": "nonpayable",
      "type": "function"
    },
    {
      "inputs": [],
      "name": "calculateUserWeeklyDnm",
      "outputs": [],
      "stateMutability": "nonpayable",
      "type": "function"
    },
    {
      "inputs": [
        {
          "internalType": "uint256",
          "name": "",
          "type": "uint256"
        }
      ],
      "name": "changeAddressRequests",
      "outputs": [
        {
          "internalType": "address",
          "name": "",
          "type": "address"
        }
      ],
      "stateMutability": "view",
      "type": "function"
    },
    {
      "inputs": [
        {
          "internalType": "address",
          "name": "buyerAddress",
          "type": "address"
        },
        {
          "internalType": "address",
          "name": "parentAddress",
          "type": "address"
        },
        {
          "internalType": "uint8",
          "name": "position",
          "type": "uint8"
        },
        {
          "components": [
            {
              "internalType": "address",
              "name": "sellerAddress",
              "type": "address"
            },
            {
              "internalType": "uint256",
              "name": "sv",
              "type": "uint256"
            },
            {
              "internalType": "uint256",
              "name": "bv",
              "type": "uint256"
            }
          ],
          "internalType": "struct AranDaoProCore.Amount[]",
          "name": "amounts",
          "type": "tuple[]"
        }
      ],
      "name": "createOrder",
      "outputs": [],
      "stateMutability": "nonpayable",
      "type": "function"
    },
    {
      "inputs": [],
      "name": "dnmAddress",
      "outputs": [
        {
          "internalType": "address",
          "name": "",
          "type": "address"
        }
      ],
      "stateMutability": "view",
      "type": "function"
    },
    {
      "inputs": [],
      "name": "dnmMintWeekNumber",
      "outputs": [
        {
          "internalType": "uint256",
          "name": "",
          "type": "uint256"
        }
      ],
      "stateMutability": "view",
      "type": "function"
    },
    {
      "inputs": [
        {
          "internalType": "uint256",
          "name": "orderId",
          "type": "uint256"
        }
      ],
      "name": "getOrderById",
      "outputs": [
        {
          "components": [
            {
              "internalType": "uint256",
              "name": "buyerId",
              "type": "uint256"
            },
            {
              "internalType": "uint256",
              "name": "sellerId",
              "type": "uint256"
            },
            {
              "internalType": "uint256",
              "name": "sv",
              "type": "uint256"
            },
            {
              "internalType": "uint256",
              "name": "bv",
              "type": "uint256"
            },
            {
              "internalType": "bool",
              "name": "existed",
              "type": "bool"
            },
            {
              "internalType": "uint256",
              "name": "createdAt",
              "type": "uint256"
            }
          ],
          "internalType": "struct OrderLib.Order",
          "name": "",
          "type": "tuple"
        }
      ],
      "stateMutability": "view",
      "type": "function"
    },
    {
      "inputs": [
        {
          "internalType": "uint256",
          "name": "sellerId",
          "type": "uint256"
        }
      ],
      "name": "getSellerById",
      "outputs": [
        {
          "components": [
            {
              "internalType": "uint256",
              "name": "bv",
              "type": "uint256"
            },
            {
              "internalType": "uint256",
              "name": "lastDnmWithdrawWeekNumber",
              "type": "uint256"
            },
            {
              "internalType": "uint256",
              "name": "createdAt",
              "type": "uint256"
            },
            {
              "internalType": "bool",
              "name": "active",
              "type": "bool"
            }
          ],
          "internalType": "struct SellerLib.Seller",
          "name": "",
          "type": "tuple"
        }
      ],
      "stateMutability": "view",
      "type": "function"
    },
    {
      "inputs": [
        {
          "internalType": "address",
          "name": "sellerAddress",
          "type": "address"
        }
      ],
      "name": "getSellerIdByAddress",
      "outputs": [
        {
          "internalType": "uint256",
          "name": "",
          "type": "uint256"
        }
      ],
      "stateMutability": "view",
      "type": "function"
    },
    {
      "inputs": [
        {
          "internalType": "uint256",
          "name": "userId",
          "type": "uint256"
        }
      ],
      "name": "getUserById",
      "outputs": [
        {
          "components": [
            {
              "internalType": "uint256",
              "name": "parentId",
              "type": "uint256"
            },
            {
              "internalType": "address",
              "name": "userAddress",
              "type": "address"
            },
            {
              "internalType": "uint8",
              "name": "position",
              "type": "uint8"
            },
            {
              "internalType": "bytes32[]",
              "name": "path",
              "type": "bytes32[]"
            },
            {
              "internalType": "uint256",
              "name": "lastCalculatedOrder",
              "type": "uint256"
            },
            {
              "internalType": "uint256[4]",
              "name": "childrenBv",
              "type": "uint256[4]"
            },
            {
              "internalType": "uint256[4]",
              "name": "childrenAggregateBv",
              "type": "uint256[4]"
            },
            {
              "internalType": "uint256[2]",
              "name": "normalNodesBv",
              "type": "uint256[2]"
            },
            {
              "internalType": "uint256",
              "name": "bv",
              "type": "uint256"
            },
            {
              "internalType": "uint256",
              "name": "eligibleDnmWithdrawWeekNo",
              "type": "uint256"
            },
            {
              "internalType": "uint256",
              "name": "totalSteps",
              "type": "uint256"
            },
            {
              "internalType": "uint256",
              "name": "bvOnBridgeTime",
              "type": "uint256"
            },
            {
              "internalType": "uint256",
              "name": "fvEntranceMonth",
              "type": "uint256"
            },
            {
              "internalType": "uint8",
              "name": "fvEntranceShare",
              "type": "uint8"
            },
            {
              "internalType": "uint256",
              "name": "networkerDnmShare",
              "type": "uint256"
            },
            {
              "internalType": "uint256",
              "name": "withdrawNetworkerDnmShareMonth",
              "type": "uint256"
            },
            {
              "internalType": "bool",
              "name": "migrated",
              "type": "bool"
            },
            {
              "internalType": "uint256",
              "name": "withdrawableCommission",
              "type": "uint256"
            },
            {
              "internalType": "uint256",
              "name": "lastDnmWithdrawNetworkerWeekNumber",
              "type": "uint256"
            },
            {
              "internalType": "uint256",
              "name": "lastDnmWithdrawUserWeekNumber",
              "type": "uint256"
            },
            {
              "internalType": "uint256",
              "name": "createdAt",
              "type": "uint256"
            },
            {
              "internalType": "bool",
              "name": "active",
              "type": "bool"
            }
          ],
          "internalType": "struct UserLib.User",
          "name": "",
          "type": "tuple"
        }
      ],
      "stateMutability": "view",
      "type": "function"
    },
    {
      "inputs": [
        {
          "internalType": "address",
          "name": "userAddress",
          "type": "address"
        }
      ],
      "name": "getUserIdByAddress",
      "outputs": [
        {
          "internalType": "uint256",
          "name": "",
          "type": "uint256"
        }
      ],
      "stateMutability": "view",
      "type": "function"
    },
    {
      "inputs": [
        {
          "internalType": "address",
          "name": "_addr",
          "type": "address"
        }
      ],
      "name": "isManager",
      "outputs": [
        {
          "internalType": "bool",
          "name": "",
          "type": "bool"
        }
      ],
      "stateMutability": "view",
      "type": "function"
    },
    {
      "inputs": [
        {
          "internalType": "address",
          "name": "_addr",
          "type": "address"
        }
      ],
      "name": "isOrderCreatorContract",
      "outputs": [
        {
          "internalType": "bool",
          "name": "",
          "type": "bool"
        }
      ],
      "stateMutability": "view",
      "type": "function"
    },
    {
      "inputs": [],
      "name": "lastWeekDnmMintAmount",
      "outputs": [
        {
          "internalType": "uint256",
          "name": "",
          "type": "uint256"
        }
      ],
      "stateMutability": "view",
      "type": "function"
    },
    {
      "inputs": [
        {
          "internalType": "address",
          "name": "userAddr",
          "type": "address"
        },
        {
          "internalType": "uint256",
          "name": "parentId",
          "type": "uint256"
        },
        {
          "internalType": "uint8",
          "name": "position",
          "type": "uint8"
        },
        {
          "internalType": "uint256",
          "name": "bv",
          "type": "uint256"
        },
        {
          "internalType": "uint256",
          "name": "withdrawableCommission",
          "type": "uint256"
        },
        {
          "internalType": "uint256[4]",
          "name": "childrenSafeBv",
          "type": "uint256[4]"
        },
        {
          "internalType": "uint256[4]",
          "name": "childrenAggregateBv",
          "type": "uint256[4]"
        }
      ],
      "name": "migrateUser",
      "outputs": [],
      "stateMutability": "nonpayable",
      "type": "function"
    },
    {
      "inputs": [],
      "name": "mintWeeklyDnm",
      "outputs": [],
      "stateMutability": "nonpayable",
      "type": "function"
    },
    {
      "inputs": [
        {
          "internalType": "uint256",
          "name": "",
          "type": "uint256"
        }
      ],
      "name": "monthlyFv",
      "outputs": [
        {
          "internalType": "uint256",
          "name": "",
          "type": "uint256"
        }
      ],
      "stateMutability": "view",
      "type": "function"
    },
    {
      "inputs": [
        {
          "internalType": "uint256",
          "name": "",
          "type": "uint256"
        }
      ],
      "name": "monthlyTotalShares",
      "outputs": [
        {
          "internalType": "uint256",
          "name": "",
          "type": "uint256"
        }
      ],
      "stateMutability": "view",
      "type": "function"
    },
    {
      "inputs": [
        {
          "internalType": "uint256",
          "name": "",
          "type": "uint256"
        },
        {
          "internalType": "uint256",
          "name": "",
          "type": "uint256"
        }
      ],
      "name": "monthlyUserShareWithdraws",
      "outputs": [
        {
          "internalType": "bool",
          "name": "",
          "type": "bool"
        }
      ],
      "stateMutability": "view",
      "type": "function"
    },
    {
      "inputs": [
        {
          "internalType": "uint256",
          "name": "",
          "type": "uint256"
        },
        {
          "internalType": "uint256",
          "name": "",
          "type": "uint256"
        }
      ],
      "name": "monthlyUserShares",
      "outputs": [
        {
          "internalType": "uint8",
          "name": "",
          "type": "uint8"
        }
      ],
      "stateMutability": "view",
      "type": "function"
    },
    {
      "inputs": [],
      "name": "monthlyWithdrawNetworkerDnm",
      "outputs": [],
      "stateMutability": "nonpayable",
      "type": "function"
    },
    {
      "inputs": [],
      "name": "paymentTokenAddress",
      "outputs": [
        {
          "internalType": "address",
          "name": "",
          "type": "address"
        }
      ],
      "stateMutability": "view",
      "type": "function"
    },
    {
      "inputs": [
        {
          "internalType": "uint256",
          "name": "",
          "type": "uint256"
        },
        {
          "internalType": "uint8",
          "name": "",
          "type": "uint8"
        }
      ],
      "name": "positionTaken",
      "outputs": [
        {
          "internalType": "bool",
          "name": "",
          "type": "bool"
        }
      ],
      "stateMutability": "view",
      "type": "function"
    },
    {
      "inputs": [
        {
          "internalType": "address",
          "name": "oldAddress",
          "type": "address"
        },
        {
          "internalType": "address",
          "name": "newAddress",
          "type": "address"
        }
      ],
      "name": "requestChangeAddress",
      "outputs": [],
      "stateMutability": "nonpayable",
      "type": "function"
    },
    {
      "inputs": [
        {
          "internalType": "address",
          "name": "_addr",
          "type": "address"
        }
      ],
      "name": "revokeManager",
      "outputs": [],
      "stateMutability": "nonpayable",
      "type": "function"
    },
    {
      "inputs": [
        {
          "internalType": "address",
          "name": "_addr",
          "type": "address"
        }
      ],
      "name": "revokeWhiteListedContract",
      "outputs": [],
      "stateMutability": "nonpayable",
      "type": "function"
    },
    {
      "inputs": [
        {
          "internalType": "uint256",
          "name": "",
          "type": "uint256"
        },
        {
          "internalType": "uint256",
          "name": "",
          "type": "uint256"
        }
      ],
      "name": "sellerWeeklyBv",
      "outputs": [
        {
          "internalType": "uint256",
          "name": "",
          "type": "uint256"
        }
      ],
      "stateMutability": "view",
      "type": "function"
    },
    {
      "inputs": [
        {
          "internalType": "uint256",
          "name": "steps",
          "type": "uint256"
        }
      ],
      "name": "setMaxSteps",
      "outputs": [],
      "stateMutability": "nonpayable",
      "type": "function"
    },
    {
      "inputs": [],
      "name": "totalCommissionEarned",
      "outputs": [
        {
          "internalType": "uint256",
          "name": "",
          "type": "uint256"
        }
      ],
      "stateMutability": "view",
      "type": "function"
    },
    {
      "inputs": [],
      "name": "totalDnmEarned",
      "outputs": [
        {
          "internalType": "uint256",
          "name": "",
          "type": "uint256"
        }
      ],
      "stateMutability": "view",
      "type": "function"
    },
    {
      "inputs": [
        {
          "internalType": "uint256",
          "name": "",
          "type": "uint256"
        }
      ],
      "name": "totalWeeklyBv",
      "outputs": [
        {
          "internalType": "uint256",
          "name": "",
          "type": "uint256"
        }
      ],
      "stateMutability": "view",
      "type": "function"
    },
    {
      "inputs": [
        {
          "internalType": "uint256",
          "name": "",
          "type": "uint256"
        },
        {
          "internalType": "uint256",
          "name": "",
          "type": "uint256"
        },
        {
          "internalType": "uint256",
          "name": "",
          "type": "uint256"
        }
      ],
      "name": "userDailySteps",
      "outputs": [
        {
          "internalType": "uint8",
          "name": "",
          "type": "uint8"
        }
      ],
      "stateMutability": "view",
      "type": "function"
    },
    {
      "inputs": [
        {
          "internalType": "uint256",
          "name": "",
          "type": "uint256"
        },
        {
          "internalType": "uint256",
          "name": "",
          "type": "uint256"
        }
      ],
      "name": "userWeeklyBv",
      "outputs": [
        {
          "internalType": "uint256",
          "name": "",
          "type": "uint256"
        }
      ],
      "stateMutability": "view",
      "type": "function"
    },
    {
      "inputs": [],
      "name": "vaultAddress",
      "outputs": [
        {
          "internalType": "address",
          "name": "",
          "type": "address"
        }
      ],
      "stateMutability": "view",
      "type": "function"
    },
    {
      "inputs": [
        {
          "internalType": "uint256",
          "name": "amount",
          "type": "uint256"
        }
      ],
      "name": "withdrawCommission",
      "outputs": [],
      "stateMutability": "nonpayable",
      "type": "function"
    },
    {
      "inputs": [],
      "name": "withdrawFastValueShare",
      "outputs": [],
      "stateMutability": "nonpayable",
      "type": "function"
    }
  ],
  "bytecode": "0x60806040526001805560016008556001600d555f600e555f600f555f6010555f6011556005601b55681b1ae4d6e2ef500000601c55680340aad21b3b700000601d5568056bc75e2d63100000601e55348015610059575f5ffd5b50604051614b28380380614b28833981016040819052610078916100fb565b60015f818155601380546001600160a01b03199081166001600160a01b03968716179091556012805482169686169690961790955560148054909516928416929092179093559216825260216020526040909120805460ff1916909117905542601f5561014c565b80516001600160a01b03811681146100f6575f5ffd5b919050565b5f5f5f5f6080858703121561010e575f5ffd5b610117856100e0565b9350610125602086016100e0565b9250610133604086016100e0565b9150610141606086016100e0565b905092959194509250565b6149cf806101595f395ff3fe608060405234801561000f575f5ffd5b506004361061024a575f3560e01c80637f1835b611610140578063ac6331f7116100bf578063cb703d3e11610084578063cb703d3e14610623578063dd598b141461064d578063e1c5b0101461067a578063e9d477f514610682578063f3ae241514610695578063fff5d21f146106c0575f5ffd5b8063ac6331f7146105ab578063afb18fe7146105ca578063c065513c146105dd578063c40094d614610607578063c73cdd231461061a575f5ffd5b8063990cc5c711610105578063990cc5c71461052c5780639d0ec3801461053f578063a5441bc014610587578063a909ac731461059a578063ab24cc05146105a3575f5ffd5b80637f1835b6146104ff57806381bbcb2814610508578063828dd4f41461051b5780638915d35c146105245780638f4b798414610485575f5ffd5b8063430bf08a116101cc5780636c0e3ed9116101915780636c0e3ed9146104465780636ed6da9e14610465578063732daf19146104855780637430594b146104985780637913b88f146104c0575f5ffd5b8063430bf08a146103cf5780634e96cb6f146103e257806350f5967d146103f5578063528ac2ab146103fd5780635fe0187a14610427575f5ffd5b80632d06177a116102125780632d06177a146102d657806335d04f96146102e9578063377e32e614610326578063385399f91461033957806342b50a7a1461036f575f5ffd5b80630dcf8fd01461024e57806312e07b1d1461025857806317face841461026b5780631f684db11461027e57806329e7c127146102c3575b5f5ffd5b6102566106c8565b005b6102566102663660046141d7565b610845565b6102566102793660046141ff565b610a2a565b6102a661028c3660046141ff565b60056020525f90815260409020546001600160a01b031681565b6040516001600160a01b0390911681526020015b60405180910390f35b6102566102d1366004614226565b610b85565b6102566102e43660046142c5565b610e6f565b6103166102f73660046142de565b600460209081525f928352604080842090915290825290205460ff1681565b60405190151581526020016102ba565b6102566103343660046142c5565b610ecc565b6103616103473660046142c5565b6001600160a01b03165f9081526002602052604090205490565b6040519081526020016102ba565b61038261037d3660046141ff565b610f26565b6040516102ba91905f60c0820190508251825260208301516020830152604083015160408301526060830151606083015260808301511515608083015260a083015160a083015292915050565b6014546102a6906001600160a01b031681565b6102566103f03660046141ff565b610fb2565b610256610ff8565b61036161040b366004614308565b600760209081525f928352604080842090915290825290205481565b6103616104353660046141ff565b60156020525f908152604090205481565b6103616104543660046141ff565b60196020525f908152604090205481565b6104786104733660046141ff565b61114c565b6040516102ba91906143ac565b6102566104933660046142c5565b611340565b6103616104a63660046142c5565b6001600160a01b03165f9081526009602052604090205490565b6104ed6104ce366004614308565b601660209081525f928352604080842090915290825290205460ff1681565b60405160ff90911681526020016102ba565b61036160115481565b6102566105163660046145b0565b61139c565b610361600e5481565b610256611497565b61025661053a366004614620565b6115eb565b61055261054d3660046141ff565b611ab8565b6040516102ba919081518152602080830151908201526040808301519082015260609182015115159181019190915260800190565b6012546102a6906001600160a01b031681565b610361600f5481565b610256611b24565b6103616105b93660046141ff565b60186020525f908152604090205481565b6013546102a6906001600160a01b031681565b6103166105eb3660046142c5565b6001600160a01b03165f90815260208052604090205460ff1690565b6102566106153660046146d8565b611e3a565b61036160105481565b610361610631366004614308565b600a60209081525f928352604080842090915290825290205481565b61031661065b366004614308565b601760209081525f928352604080842090915290825290205460ff1681565b610256611f58565b6104ed610690366004614700565b6120c9565b6103166106a33660046142c5565b6001600160a01b03165f9081526021602052604090205460ff1690565b61025661210a565b6106d061218f565b335f908152600260205260408120545f818152600360205260408120601a81015492935091605a9061070290426121b7565b61070c9190614751565b610717906001614764565b9050816015015481116107975760405162461bcd60e51b815260206004820152603c60248201527f557365722068617320616c72656164792077697468647261776e20444e4d207360448201527f6861726520666f7220746869732033206d6f6e746820706572696f640000000060648201526084015b60405180910390fd5b5f6064836014015460196107ab9190614777565b6107b59190614751565b905080836014015f8282546107ca919061478e565b909155505060158301829055601180548291905f906107ea90849061478e565b909155506107fa905033826121d8565b5081847fef98e95e3efc95d2635d24041a2d25128d1422329f139116ccea62c5d4fa0a0a8360405161082e91815260200190565b60405180910390a35050505061084360015f55565b565b5f818152600360209081526040808320546001600160a01b03861684526002909252909120548082146108e05760405162461bcd60e51b815260206004820152603c60248201527f4f6e6c792064697265637420706172656e74206f66207468652075736572206360448201527f616e20617070726f7665206368616e67696e6720616464726573732e00000000606482015260840161078e565b5f838152600560205260409020546001600160a01b0316806109625760405162461bcd60e51b815260206004820152603560248201527f50726f76696465642075736572206964206861736e277420726571756573746560448201527432103337b91030b2323932b9b99031b430b733b29760591b606482015260840161078e565b6001600160a01b0381165f9081526002602052604090205415610998576040516316a163b960e11b815260040160405180910390fd5b5f84815260036020908152604080832060010180546001600160a01b038681166001600160a01b031980841682179094559116808652600285528386208690558186528386208a905589865260059094528285208054909216909155905191929091839188917fefc52903db788e17531d774f10b7ba8aa84168d1dd422986f7927b2217d9f2269190a4505050505050565b610a3261218f565b335f9081526002602052604081205490610a4b8261225c565b90508060170154831115610aa15760405162461bcd60e51b815260206004820152601f60248201527f496e73756666696369656e7420636f6d6d697373696f6e2062616c616e636500604482015260640161078e565b5f610aac33856122a1565b905080610b115760405162461bcd60e51b815260206004820152602d60248201527f4572726f72207768696c65207472616e73666572696e67207061796d656e742060448201526c3a37b5b2b7103a37903ab9b2b960991b606482015260840161078e565b83826017015f828254610b24919061478e565b925050819055508360105f828254610b3c919061478e565b909155505060405184815283907f5f322427e8a895ac6ddc1e6b9f9bf225267557c14e0d4fb0db7f7a184c6fbfc89060200160405180910390a2505050610b8260015f55565b50565b335f81815260208052604090205460ff16610bbe5760405163e195aa1360e01b81526001600160a01b038216600482015260240161078e565b81610c0b5760405162461bcd60e51b815260206004820152601c60248201527f4174206c65617374206f6e6520616d6f756e7420726571756972656400000000604482015260640161078e565b6001600160a01b0386165f90815260026020526040812054151590805b84811015610c6157858582818110610c4257610c426147a1565b9050606002016040013582610c579190614764565b9150600101610c28565b505f610c6b612401565b905082610c935780821015610c9357604051633cffbc7b60e01b815260040160405180910390fd5b5f610ca38a8a8a600d548661243a565b90505f610caf42612895565b90505f5b87811015610d5f575f610cec8a8a84818110610cd157610cd16147a1565b610ce792602060609092020190810191506142c5565b6128ab565b9050610d3084828c8c86818110610d0557610d056147a1565b905060600201602001358d8d87818110610d2157610d216147a1565b90506060020160400135612981565b610d5681848c8c86818110610d4757610d476147a1565b90506060020160400135612a4f565b50600101610cb3565b50610d6b828286612ad7565b610d758185612b57565b610d946064610d85866014614777565b610d8f9190614751565b612b7d565b5f610d9e8361225c565b601681015490915060ff16158015610db95750601281015415155b15610e61575f610dc842612ba9565b9050808260120154600c610ddc9190614764565b1115610e5f5760015b600c8160ff161015610e5d575f610dfd82600a614898565b610e0883600c614898565b610e129089614777565b610e1c9190614751565b90508084600e01541015610e305750610e5d565b610e54868360ff168660120154610e479190614764565b601387015460ff16612bb5565b50600101610de5565b505b505b505050505050505050505050565b335f81815260208052604090205460ff16610ea8576040516311fd7c5560e31b81526001600160a01b038216600482015260240161078e565b506001600160a01b03165f908152602160205260409020805460ff19166001179055565b335f81815260208052604090205460ff16610f05576040516311fd7c5560e31b81526001600160a01b038216600482015260240161078e565b506001600160a01b03165f908152602160205260409020805460ff19169055565b610f5b6040518060c001604052805f81526020015f81526020015f81526020015f81526020015f151581526020015f81525090565b610f6482612c5c565b6040805160c081018252825481526001830154602082015260028301549181019190915260038201546060820152600482015460ff161515608082015260059091015460a082015292915050565b335f81815260208052604090205460ff16610feb576040516311fd7c5560e31b81526001600160a01b038216600482015260240161078e565b610ff482612ca4565b5050565b61100061218f565b335f908152600260205260408120545f818152600360205260408120919250600161102a42612895565b611034919061478e565b9050600f548111156110485761104861210a565b808260190154106110b25760405162461bcd60e51b815260206004820152602e60248201527f557365722068617320616c72656164792063616c63756c6174656420444e4d2060448201526d3337b9103a3434b9903bb2b2b59760911b606482015260840161078e565b5f81815260156020908152604080832054868452600783528184208585529092528220546064600e5460236110e79190614777565b6110f19190614751565b6110fb9190614777565b6111059190614751565b60198401839055905061111833826121d8565b5081847f4ef3af61f65f5e4b0425b306bd9109ac4eeeb453e5d8709c31c75f347fbb18428360405161082e91815260200190565b611154614074565b61115d8261225c565b604080516102c0810182528254815260018301546001600160a01b038116602080840191909152600160a01b90910460ff1682840152600284018054845181840281018401909552808552929493606086019390928301828280156111df57602002820191905f5260205f20905b8154815260200190600101908083116111cb575b505050918352505060038201546020820152604080516080810180835291909201919060048085019182845b81548152602001906001019080831161120b57505050918352505060408051608081019182905260209092019190600884019060049082845b815481526020019060010190808311611244575050509183525050604080518082019182905260209092019190600c84019060029082845b81548152602001906001019080831161127c575050509183525050600e8201546020820152600f82015460408201526010820154606082015260118201546080820152601282015460a0820152601382015460ff90811660c0830152601483015460e08301526015830154610100830152601683015481161515610120830152601783015461014083015260188301546101608301526019830154610180830152601a8301546101a0830152601b9092015490911615156101c09091015292915050565b335f81815260208052604090205460ff16611379576040516311fd7c5560e31b81526001600160a01b038216600482015260240161078e565b506001600160a01b03165f9081526020805260409020805460ff19166001179055565b42601f5462093a806113ae9190614764565b1161140b5760405162461bcd60e51b815260206004820152602760248201527f5468652074696d6520666f72206d6967726174696f6e20686173206265656e206044820152663830b9b9b2b21760c91b606482015260840161078e565b335f9081526021602052604090205460ff1661147c5760405162461bcd60e51b815260206004820152602a60248201527f53656e6465722061646472657373206973206e6f7420656c696769626c652074604482015269379036b4b3b930ba329760b11b606482015260840161078e565b61148e87878787878787600d54612d3d565b50505050505050565b61149f61218f565b335f90815260096020526040812054906114b88261301e565b90505f60016114c642612895565b6114d0919061478e565b9050600f548111156114e4576114e461210a565b808260010154106115505760405162461bcd60e51b815260206004820152603060248201527f53656c6c65722068617320616c72656164792063616c63756c6174656420444e60448201526f26903337b9103a3434b9903bb2b2b59760811b606482015260840161078e565b5f81815260156020908152604080832054868452600a8352818420858552909252822054600e54606490611585906005614777565b61158f9190614751565b6115999190614777565b6115a39190614751565b90506115af33826121d8565b5060018301829055604051818152829085907f2d8fb20bcea01f9df74ba82040a947a0bf82e4d11ca4e1971afd8634f11ba9ec9060200161082e565b335f81815260208052604090205460ff16611624576040516311fd7c5560e31b81526001600160a01b038216600482015260240161078e565b5f61162e8461225c565b90505f61163e8260030154612c5c565b60050154845190915060ff61ffff8216106116d15760405162461bcd60e51b815260206004820152604760248201527f4d6178696d756d206e756d626572206f6620323535206f72646572732063616e60448201527f2062652070726f6363657373656420696e20612073696e676c65207472616e7360648201526630b1ba34b7b71760c91b608482015260a40161078e565b5f5b8161ffff168160ff1610156119e6578360030154868260ff16815181106116fc576116fc6147a1565b6020026020010151116117775760405162461bcd60e51b815260206004820152603960248201527f4f726465722077697468206772656174657220494420697320616c726561647960448201527f2070726f63657373656420666f72207468697320757365722e00000000000000606482015260840161078e565b5f61179d878360ff1681518110611790576117906147a1565b6020026020010151612c5c565b6040805160c081018252825481526001830154602082015260028301549181019190915260038201546060820152600482015460ff161515608082015260059091015460a0820152601a54909150158015906117fa575042601a54105b1561189e5761180842612895565b6118158260a00151612895565b106118735760405162461bcd60e51b815260206004820152602860248201527f43616e6e6f742070726f63657373206f72646572732066726f6d206375727265604482015267373a103bb2b2b59760c11b606482015260840161078e565b6118808160a00151612895565b61188985612895565b1015611899576118998885613063565b611937565b6118a742613087565b6118b48260a00151613087565b106119115760405162461bcd60e51b815260206004820152602760248201527f43616e6e6f742070726f63657373206f72646572732066726f6d206375727265604482015266373a103230bc9760c91b606482015260840161078e565b61191e8160a00151613087565b61192785613087565b1015611937576119378885613099565b5f5f6119468a845f01516130b1565b9150915081801561195a575060ff81811614155b156119cc578260600151876004018260ff166004811061197c5761197c6147a1565b015f82825461198b9190614764565b90915550506060830151600c88016119a46002846148a6565b60ff16600281106119b7576119b76147a1565b015f8282546119c69190614764565b90915550505b505060a001519250806119de816148c7565b9150506116d3565b50846119f36001836148e5565b61ffff1681518110611a0757611a076147a1565b60200260200101518360030181905550611a204261329d565b15611a40576001611a3042612895565b611a3a919061478e565b600f8401555b857f20de985759a5892d68187c90c5560bace832652a79e34e3f48d7e1cfec3d2bbf8287611a6f6001836148e5565b61ffff1681518110611a8357611a836147a1565b6020026020010151604051611aa892919061ffff929092168252602082015260400190565b60405180910390a2505050505050565b611ae160405180608001604052805f81526020015f81526020015f81526020015f151581525090565b611aea8261301e565b60408051608081018252825481526001830154602082015260028301549181019190915260039091015460ff161515606082015292915050565b611b2c61218f565b335f908152600260205260408120545f8181526003602052604081209192506001611b5642612895565b611b60919061478e565b9050611b6b4261329d565b15611bde5760405162461bcd60e51b815260206004820152603960248201527f444e4d2063616c63756c6174696f6e206973206e6f7420706f737369626c652060448201527f61742074686520666972737420646179206f66207765656b2e00000000000000606482015260840161078e565b8082600f015414611c575760405162461bcd60e51b815260206004820152603b60248201527f55736572206861736e27742063616c63756c61746564206f726465727320617460448201527f2074686520666972737420646179206f6620746865207765656b2e0000000000606482015260840161078e565b600f54811115611c6957611c6961210a565b80826018015410611cd85760405162461bcd60e51b815260206004820152603360248201527f4e6574776f726b65722068617320616c72656164792063616c63756c6174656460448201527210222726903337b9103a3434b9903bb2b2b59760691b606482015260840161078e565b5f805b60078160ff161015611d3d575f60ff8216611cf7856007614777565b611d019190614764565b90505f5b60038160ff161015611d3357611d1c8783836132c2565b611d299060ff1685614764565b9350600101611d05565b5050600101611cdb565b505f602454826064600e54603c611d549190614777565b611d5e9190614751565b611d689190614777565b611d729190614751565b90506064611d8182601e614777565b611d8b9190614751565b60115f828254611d9b9190614764565b9091555060649050611dae82601e614777565b611db89190614751565b846014015f828254611dca9190614764565b90915550611df09050336064611de1846046614777565b611deb9190614751565b6121d8565b5082857fb0e1da113f6d8e4a1a12713b39d81227405fa2298406a537d29fc023090c7fea83604051611e2491815260200190565b60405180910390a3505050505061084360015f55565b6001600160a01b0382165f9081526002602052604081205490819003611e7357604051632163950f60e01b815260040160405180910390fd5b826001600160a01b0316826001600160a01b031603611ee45760405162461bcd60e51b815260206004820152602760248201527f4f6c6420616e64206e657720616464726573732063616e6e6f74206265207468604482015266329039b0b6b29760c91b606482015260840161078e565b5f8181526005602090815260409182902080546001600160a01b0319166001600160a01b03868116918217909255835185815291871692820192909252918201527fcc96b91dafce2ebed2f0a0c3c1d0dbd6f4dd9275e071fa00b2345102e4d0449b906060015b60405180910390a1505050565b611f6061218f565b335f90815260026020526040812054906001611f7b42612ba9565b611f85919061478e565b5f8181526016602090815260408083208684528252808320548484526017835281842087855290925282205492935060ff908116921690829003611fdc576040516355df8c7760e01b815260040160405180910390fd5b8015611ffb576040516362d13e0f60e11b815260040160405180910390fd5b5f612006858561330d565b90505f61201333836122a1565b9050806120585760405162461bcd60e51b81526020600482015260136024820152722a37b5b2b7103830bcb6b2b73a1032b93937b960691b604482015260640161078e565b5f858152601760209081526040808320898452825291829020805460ff1916600117905581518881529081018790529081018390527fa7ca8c60ab647d3ec4c97b6b782032e0651dee207d96aa504959ee1da283a7269060600160405180910390a150505050505061084360015f55565b6006602052825f5260405f20602052815f5260405f2081600381106120ec575f80fd5b602081049091015460ff601f9092166101000a900416925083915050565b61211261218f565b61211a613392565b5f600161212642612895565b612130919061478e565b90505f805b60078160ff161015612181575f60ff8216612151856007614777565b61215b9190614764565b5f818152602260205260409020549091506121769084614764565b925050600101612135565b506024555061084360015f55565b60025f54036121b157604051633ee5aeb560e01b815260040160405180910390fd5b60025f55565b5f610e106121c5848461478e565b6121cf9190614751565b90505b92915050565b6012546040516323b872dd60e01b81523060048201526001600160a01b038481166024830152604482018490525f92169081906323b872dd906064016020604051808303815f875af1158015612230573d5f5f3e3d5ffd5b505050506040513d601f19601f8201168201806040525081019061225491906148ff565b949350505050565b5f818152600360205260408120601b0154829060ff1661228f57604051632163950f60e01b815260040160405180910390fd5b50505f90815260036020526040902090565b6013546040516370a0823160e01b81523060048201525f916001600160a01b031690829082906370a0823190602401602060405180830381865afa1580156122eb573d5f5f3e3d5ffd5b505050506040513d601f19601f8201168201806040525081019061230f9190614925565b905080841115612382576014546001600160a01b03168063d5c4d1e4612335848861478e565b6040518263ffffffff1660e01b815260040161235391815260200190565b5f604051808303815f87803b15801561236a575f5ffd5b505af115801561237c573d5f5f3e3d5ffd5b50505050505b6040516323b872dd60e01b81523060048201526001600160a01b038681166024830152604482018690528316906323b872dd906064016020604051808303815f875af11580156123d4573d5f5f3e3d5ffd5b505050506040513d601f19601f820116820180604052508101906123f891906148ff565b95945050505050565b5f61240a61380b565b80156124205750601e5468056bc75e2d63100000145b1561243357680ad78ebc5ac6200000601e555b50601e5490565b6001600160a01b0385165f9081526002602052604081205480820361288b5760038560ff16111561247e5760405163673f032f60e11b815260040160405180910390fd5b6001600160a01b0386165f90815260026020526040902054600180541180156124a5575080155b156124c357604051633073085f60e01b815260040160405180910390fd5b60015460010361250057801515806124dd575060ff861615155b156124fb57604051637d2338d360e11b815260040160405180910390fd5b612720565b5f81815260046020908152604080832060ff808b168552925290912054161561253c5760405163e168e4db60e01b815260040160405180910390fd5b5f8181526003602052604090206016015460ff1615612654575f8181526003602052604081206011810154600e90910154612577919061478e565b9050848110156125d95760ff87161580159061259757508660ff16600314155b156125d4575f8281526003602052604090819020600e01549051633330313b60e11b815260ff89166004820152602481019190915260440161078e565b61264e565b6125e4856002614777565b81101561264e5760ff87161580159061260157508660ff16600114155b801561261157508660ff16600314155b1561264e575f8281526003602052604090819020600e01549051633330313b60e11b815260ff89166004820152602481019190915260440161078e565b50612720565b5f818152600360205260409020600e0154612670856002614777565b8110156126bc5760ff87161580159061268d57508660ff16600314155b156126b757604051633330313b60e11b815260ff881660048201526024810182905260440161078e565b61271e565b6126c7856003614777565b81101561271e5760ff8716158015906126e457508660ff16600114155b80156126f457508660ff16600314155b1561271e57604051633330313b60e11b815260ff881660048201526024810182905260440161078e565b505b60018054905f61272f8361493c565b909155506001600160a01b0389165f8181526002602090815260408083208590558483526003918290528220858155600180820180546001600160a81b031916909517600160a01b60ff8e160217909455908101899055600e8101829055601781019190915542601a820155601b8101805460ff19169092179091559092508115612843575f828152600360205260408120905b600282015481101561280d57826002018260020182815481106127e8576127e86147a1565b5f918252602080832090910154835460018181018655948452919092200155016127c3565b5061281b8260020189613823565b505f82815260046020908152604080832060ff8b1684529091529020805460ff191660011790555b60405160ff881681526001600160a01b038a1690839085907f2da668ada3916796008375133eb8fed516e8732a589fc7f0233811ba0876acf29060200160405180910390a450505b9695505050505050565b5f60076128a183613087565b6121d29190614751565b6001600160a01b0381165f908152600960205260408120548082036121d25760088054905f6128d98361493c565b909155506001600160a01b0384165f818152600960209081526040808320859055805160808101825283815280830184815242828401908152600160608401818152898852600b9096528487209351845591519183019190915551600282015591516003909201805460ff19169215159290921790915551929350909183917fcfb1dc1baf831904b1c50d104c9808009dc827e169c66991ff3cddc8344d74f391a392915050565b600d80545f91826129918361493c565b909155506040805160c0810182528781526020808201888152828401878152606084018981526001608086018181524260a088019081525f8a8152600c9097529588902096518755935190860155905160028501555160038401555160048301805491151560ff199092169190911790555160059091015551909150859082907f7e3297793a932665ad789941fefa66afb013f1e1dad602d7738f5ebf607b173b90612a409087815260200190565b60405180910390a35050505050565b5f838152600b6020526040902060030154839060ff16612a8257604051636605cccd60e01b815260040160405180910390fd5b5f848152600b602052604081208054849290612a9f908490614764565b90915550505f848152600a6020908152604080832086845290915281208054849290612acc908490614764565b909155505050505050565b5f838152600360205260409020601b0154839060ff16612b0a57604051632163950f60e01b815260040160405180910390fd5b5f848152600360205260408120600e018054849290612b2a908490614764565b90915550505f84815260076020908152604080832086845290915281208054849290612acc908490614764565b5f8281526015602052604081208054839290612b74908490614764565b90915550505050565b5f612b8742612ba9565b90508160195f8381526020019081526020015f205f828254612b749190614764565b5f601e6128a183613087565b5f82815260166020908152604080832086845290915281205460ff169003612c57575f8281526016602090815260408083208684528252808320805460ff191660ff861690811790915585845260189092528220805491929091612c1a908490614764565b90915550506040805184815260ff831660208201527fbe7346dbdc6ad0126594dd027f9445414fb2e4f4ec679cf49e6b47d8e412aad49101611f4b565b505050565b5f818152600c6020526040812060040154829060ff16612c92576040516320e470e760e01b81526004810182905260240161078e565b50505f908152600c6020526040902090565b60058110158015612cb6575060288111155b612d025760405162461bcd60e51b815260206004820181905260248201527f4d6178207374657073206d757374206265206265747765656e2035202d203430604482015260640161078e565b601b8190556040518181527f0c5d389c7359bece26e614b94acd6ca0fff87fc0c4ccaaa3e8ac84ec8f71355e9060200160405180910390a150565b6001600160a01b0388165f9081526002602052604090205415612d7357604051634f2532fb60e11b815260040160405180910390fd5b60038660ff161115612d985760405163673f032f60e11b815260040160405180910390fd5b600154600103612dd55786151580612db2575060ff861615155b15612dd057604051637d2338d360e11b815260040160405180910390fd5b612e42565b5f878152600360205260409020601b015460ff16612e0657604051637eae98fd60e11b815260040160405180910390fd5b5f87815260046020908152604080832060ff808b1685529252909120541615612e425760405163e168e4db60e01b815260040160405180910390fd5b600180545f9182612e528361493c565b909155506001600160a01b038a165f8181526002602090815260408083208590558483526003918290529091208b8155600180820180546001600160a81b031916909417600160a01b60ff8e160217909355908101859055600e8101899055601181018990556017810188905542601a820155601b8101805460ff199081168417909155601682018054909116909217909155909150612ef8600480830190879061412e565b50612f086008820185600461412e565b5060208501518551612f1a9190614764565b600c82015560608501516040860151612f339190614764565b600d8201558815612fcd575f898152600360205260408120905b6002820154811015612f975782600201826002018281548110612f7257612f726147a1565b5f91825260208083209091015483546001818101865594845291909220015501612f4d565b50612fa5826002018a613823565b505f89815260046020908152604080832060ff8c1684529091529020805460ff191660011790555b60405160ff891681526001600160a01b038b16908a9084907fc993d6ba6f15ee4422360708315d3906dbf043e615acbb5b427590b9736ae1299060200160405180910390a450505050505050505050565b5f818152600b6020526040812060030154829060ff1661305157604051636605cccd60e01b815260040160405180910390fd5b50505f908152600b6020526040902090565b5f61306d82612895565b613078906007614777565b9050612c578382600185613959565b5f610e106128a16368e306808461478e565b5f6130a382613087565b9050612c5783825f85613959565b5f828152600360205260408120601b0154819060ff1615806130e457505f838152600360205260409020601b015460ff16155b156130f357505f905080613296565b82840361310657506001905060ff613296565b5f84815260036020526040808220858352908220909161312860028401613c2b565b90505f61313783600201613c2b565b905081811161314f575f5f9550955050505050613296565b5f61315b602084614751565b90505f613169602085614954565b90505f5b828110156131d05785600201818154811061318a5761318a6147a1565b905f5260205f2001548760020182815481106131a8576131a86147a1565b905f5260205f200154146131c8575f5f9850985050505050505050613296565b60010161316d565b50801561326e575f8660020183815481106131ed576131ed6147a1565b905f5260205f20015490505f86600201848154811061320e5761320e6147a1565b5f91825260208220015491505b8381101561326a57818160208110613235576132356147a1565b1a838260208110613248576132486147a1565b1a14613262575f5f9a509a50505050505050505050613296565b60010161321b565b5050505b5f61327c8660020186613cd2565b9050600161328a8183614967565b98509850505050505050505b9250929050565b5f6132a782613087565b6132b083612895565b6132bb906007614777565b1492915050565b5f838152600660209081526040808320858452909152812060ff8316600381106132ee576132ee6147a1565b602081049091015460ff601f9092166101000a90041690509392505050565b5f81815260166020908152604080832085845290915281205460ff16158061334d57505f82815260176020908152604080832086845290915290205460ff165b1561335957505f6121d2565b5f828152601860209081526040808320546016835281842087855283528184205486855260199093529220546121c59160ff1690614777565b5f600161339e42612895565b6133a8919061478e565b905080600f54106134075760405162461bcd60e51b815260206004820152602360248201527f444e4d206f662074686973207765656b20697320616c7265616479206d696e7460448201526232b21760e91b606482015260840161078e565b5f81815260156020526040812054906064613423836050614777565b61342d9190614751565b905068056bc75e2d631000008110156134885760405162461bcd60e51b815260206004820181905260248201527f54686973207765656b2773204256206973206c657373207468616e203130302e604482015260640161078e565b60145460408051634c6afee560e11b815290516001600160a01b03909216915f9183916398d5fdca916004808201926020929091908290030181865afa1580156134d4573d5f5f3e3d5ffd5b505050506040513d601f19601f820116820180604052508101906134f89190614925565b6012546011546040516370a0823160e01b81523060048201529293506001600160a01b03909116915f919083906370a0823190602401602060405180830381865afa158015613549573d5f5f3e3d5ffd5b505050506040513d601f19601f8201168201806040525081019061356d9190614925565b613577919061478e565b90505f81836001600160a01b03166318160ddd6040518163ffffffff1660e01b8152600401602060405180830381865afa1580156135b7573d5f5f3e3d5ffd5b505050506040513d601f19601f820116820180604052508101906135db9190614925565b6135e5919061478e565b8460646135f38a6028614777565b6135fd9190614751565b6136079190614764565b6136119190614751565b90505f816103e86136238a604e614777565b61362d9190614751565b6136379190614751565b9050680d63d04756817c00008111156136565750680d63d04756817c00005b6001600160a01b0384166340c10f1930613670868561478e565b6040516001600160e01b031960e085901b1681526001600160a01b03909216600483015260248201526044015f604051808303815f87803b1580156136b3575f5ffd5b505af11580156136c5573d5f5f3e3d5ffd5b50506013546001600160a01b031691505f905060646136e58b6028614777565b6136ef9190614751565b60145460405163095ea7b360e01b81526001600160a01b0391821660048201526024810183905291925083169063095ea7b3906044016020604051808303815f875af1158015613741573d5f5f3e3d5ffd5b505050506040513d601f19601f8201168201806040525081019061376591906148ff565b5060405163b6b55f2560e01b8152600481018290526001600160a01b0389169063b6b55f25906024015f604051808303815f87803b1580156137a5575f5ffd5b505af11580156137b7573d5f5f3e3d5ffd5b505050600e84905550600f8b9055604080518c8152602081018590527fdbcbbaf9f83695d491278dce91a76d0375c4cc28e14552a686352c2bf1563cb5910160405180910390a15050505050505050505050565b5f5f601a5411801561381e575042601a54105b905090565b60038160ff16111561386a5760405162461bcd60e51b815260206004820152601060248201526f24b73b30b634b2103837b9b4ba34b7b760811b604482015260640161078e565b8154158061388a5750602061387e83613c2b565b6138889190614954565b155b156138be578160f861389d836001614980565b82546001810184555f938452602090932060ff9190911690911b9101555050565b81545f906138ce9060019061478e565b90505f60206138dc85613c2b565b6138e69190614954565b90505f8483815481106138fb576138fb6147a1565b5f918252602082200154915061391283601f61478e565b61391d906008614777565b613928866001614980565b60ff165f1b901b9050808217868581548110613946576139466147a1565b5f91825260209091200155505050505050565b5f6139638561225c565b90505f805b60038160ff161015613bf2575f5f6139808984613d38565b915091505f6139908a8a866132c2565b90505f61399b613dcc565b90505f6139a6613e05565b90505f6139b1613e2e565b90505b8286101580156139c45750828510155b80156139d35750818460ff1611155b15613a45576139e2838761478e565b95506139ee838661478e565b94506139fa8189614764565b975083613a06816148c7565b9450506001896010015f828254613a1d9190614764565b90915550505f8c8152602260205260408120805491613a3b8361493c565b91905055506139b4565b600189601001541115613a5b57613a5b8d613e67565b613a678d87878a613ed8565b613a738d8d8987613f6b565b818460ff1603613b3257613a898d5f5f8a613ed8565b5f8c8152602360205260408120805491613aa28361493c565b91905055508a15613ae757613ab860078d614751565b6040518e907f5150b2f14ff43d11d201209c10a343706907a0120bfb193cb2bb0357daf14e38905f90a3613b32565b5f8c815260236020526040902054605f11613b0557613b058a613fbf565b6040518c908e907fe38f803d4f5944b75b383b0ae2da100b012d92262993f7e27db59c839abfeefb905f90a35b8a15613b8e57613b4360078d614751565b604080518a815260ff8a8116602083015287168183015290518f917f261b321470bcac4821d5dd7d4549b5436eed77799b4265f02c1e25f585e9023b919081900360600190a3613be0565b8b8d7fbdbcc512734f71ca070088310103fd90ef0165920e62b78f2f7d3f27a83a2dbd8a8a88604051613bd79392919092835260ff918216602084015216604082015260600190565b60405180910390a35b50506001909401935061396892505050565b508060105f828254613c049190614764565b9250508190555080826017015f828254613c1e9190614764565b9091555050505050505050565b80545f908103613c3c57505f919050565b81545f90613c4c9060019061478e565b613c57906020614777565b90505f8360018580549050613c6c919061478e565b81548110613c7c57613c7c6147a1565b5f91825260208220015491505b6020811015613cc957818160208110613ca457613ca46147a1565b1a15613cbc5782613cb48161493c565b935050613cc1565b613cc9565b600101613c89565b50909392505050565b5f80613cdf602084614751565b90505f613ced602085614954565b85549091508210613d02575f925050506121d2565b848281548110613d1457613d146147a1565b905f5260205f2001548160208110613d2e57613d2e6147a1565b1a95945050505050565b5f828152600360205260408120601b01548190849060ff16613d6d57604051632163950f60e01b815260040160405180910390fd5b5f8581526003602052604081209060ff86169003613d9b576004810180549060015b01549350935050613dc4565b8460ff16600103613db6576006810154600482016003613d8f565b600c81018054906001613d8f565b509250929050565b5f613dd561380b565b8015613deb5750601c54681b1ae4d6e2ef500000145b15613dfe57682086ac351052600000601c555b50601c5490565b5f613e0e61380b565b8015613e1c5750601b546005145b15613e27576028601b555b50601b5490565b5f613e3761380b565b8015613e4d5750601d54680340aad21b3b700000145b15613e60576803cb71f51fc5580000601d555b50601d5490565b5f613e718261225c565b601681015490915060ff16610ff4575f613e8a42612ba9565b90504282601a015462278d00613ea09190614764565b1115613eb257612c5783826002612bb5565b4282601a0154624f1a00613ec69190614764565b1115612c5757612c5783826001612bb5565b5f848152600360205260409020601b0154849060ff16613f0b57604051632163950f60e01b815260040160405180910390fd5b5f8581526003602052604081209060ff84169003613f365760048101858155849060015b0155613f63565b8260ff16600103613f54576006810185905583600482016003613f2f565b600c8101859055600d81018490555b505050505050565b5f8481526006602090815260408083208684529091529020819060ff841660038110613f9957613f996147a1565b602091828204019190066101000a81548160ff021916908360ff16021790555050505050565b601a54156140275760405162461bcd60e51b815260206004820152602f60248201527f43616c63756c6174696f6e206c6f67696320697320616c72656164792073776960448201526e746368656420746f207765656b6c7960881b606482015260840161078e565b5f61403182612895565b9050614046614041826001614764565b61404d565b601a555050565b5f6368e3068061405e836007614777565b61406a90610e10614777565b6121d29190614764565b604051806102c001604052805f81526020015f6001600160a01b031681526020015f60ff168152602001606081526020015f81526020016140b361416c565b81526020016140c061416c565b81526020016140cd61418a565b81526020015f81526020015f81526020015f81526020015f81526020015f81526020015f60ff1681526020015f81526020015f81526020015f151581526020015f81526020015f81526020015f81526020015f81526020015f151581525090565b826004810192821561415c579160200282015b8281111561415c578251825591602001919060010190614141565b506141689291506141a8565b5090565b60405180608001604052806004906020820280368337509192915050565b60405180604001604052806002906020820280368337509192915050565b5b80821115614168575f81556001016141a9565b80356001600160a01b03811681146141d2575f5ffd5b919050565b5f5f604083850312156141e8575f5ffd5b6141f1836141bc565b946020939093013593505050565b5f6020828403121561420f575f5ffd5b5035919050565b803560ff811681146141d2575f5ffd5b5f5f5f5f5f6080868803121561423a575f5ffd5b614243866141bc565b9450614251602087016141bc565b935061425f60408701614216565b9250606086013567ffffffffffffffff81111561427a575f5ffd5b8601601f8101881361428a575f5ffd5b803567ffffffffffffffff8111156142a0575f5ffd5b8860206060830284010111156142b4575f5ffd5b959894975092955050506020019190565b5f602082840312156142d5575f5ffd5b6121cf826141bc565b5f5f604083850312156142ef575f5ffd5b823591506142ff60208401614216565b90509250929050565b5f5f60408385031215614319575f5ffd5b50508035926020909101359150565b5f8151808452602084019350602083015f5b8281101561435857815186526020958601959091019060010161433a565b5093949350505050565b805f5b6004811015614384578151845260209384019390910190600101614365565b50505050565b805f5b600281101561438457815184526020938401939091019060010161438d565b60208152815160208201525f60208301516143d260408401826001600160a01b03169052565b50604083015160ff811660608401525060608301516103a060808401526143fd6103c0840182614328565b9050608084015160a084015260a084015161441b60c0850182614362565b5060c084015161442f610140850182614362565b5060e08401516144436101c085018261438a565b506101008401516102008401526101208401516102208401526101408401516102408401526101608401516102608401526101808401516102808401526101a084015160ff81166102a0850152506101c08401516102c08401526101e08401516102e0840152610200840151801515610300850152506102208401516103208401526102408401516103408401526102608401516103608401526102808401516103808401526102a08401518015156103a0850152509392505050565b634e487b7160e01b5f52604160045260245ffd5b604051601f8201601f1916810167ffffffffffffffff8111828210171561453d5761453d614500565b604052919050565b5f82601f830112614554575f5ffd5b6040516080810167ffffffffffffffff8111828210171561457757614577614500565b60405280608084018581111561458b575f5ffd5b845b818110156145a557803583526020928301920161458d565b509195945050505050565b5f5f5f5f5f5f5f6101a0888a0312156145c7575f5ffd5b6145d0886141bc565b9650602088013595506145e560408901614216565b945060608801359350608088013592506146028960a08a01614545565b9150614612896101208a01614545565b905092959891949750929550565b5f5f60408385031215614631575f5ffd5b82359150602083013567ffffffffffffffff81111561464e575f5ffd5b8301601f8101851361465e575f5ffd5b803567ffffffffffffffff81111561467857614678614500565b8060051b61468860208201614514565b918252602081840181019290810190888411156146a3575f5ffd5b6020850194505b838510156146c9578435808352602095860195909350909101906146aa565b80955050505050509250929050565b5f5f604083850312156146e9575f5ffd5b6146f2836141bc565b91506142ff602084016141bc565b5f5f5f60608486031215614712575f5ffd5b505081359360208301359350604090920135919050565b634e487b7160e01b5f52601260045260245ffd5b634e487b7160e01b5f52601160045260245ffd5b5f8261475f5761475f614729565b500490565b808201808211156121d2576121d261473d565b80820281158282048414176121d2576121d261473d565b818103818111156121d2576121d261473d565b634e487b7160e01b5f52603260045260245ffd5b6001815b60018411156147f0578085048111156147d4576147d461473d565b60018416156147e257908102905b60019390931c9280026147b9565b935093915050565b5f82614806575060016121d2565b8161481257505f6121d2565b816001811461482857600281146148325761484e565b60019150506121d2565b60ff8411156148435761484361473d565b50506001821b6121d2565b5060208310610133831016604e8410600b8410161715614871575081810a6121d2565b61487d5f1984846147b5565b805f19048211156148905761489061473d565b029392505050565b5f6121cf60ff8416836147f8565b5f60ff8316806148b8576148b8614729565b8060ff84160491505092915050565b5f60ff821660ff81036148dc576148dc61473d565b60010192915050565b61ffff82811682821603908111156121d2576121d261473d565b5f6020828403121561490f575f5ffd5b8151801515811461491e575f5ffd5b9392505050565b5f60208284031215614935575f5ffd5b5051919050565b5f6001820161494d5761494d61473d565b5060010190565b5f8261496257614962614729565b500690565b60ff82811682821603908111156121d2576121d261473d565b60ff81811683821601908111156121d2576121d261473d56fea2646970667358221220f34dc05ece73956834b4aa3efd032c393c81da55e0274ccdf5165b0ab2c97df764736f6c634300081c0033",
  "linkReferences": {},
  "deployedLinkReferences": {},
  "immutableReferences": {},
  "inputSourceName": "project/contracts/core/Core.sol",
  "buildInfoId": "solc-0_8_28-b2ac21d2edbf0eff2dbfe109df7defb642da7bd9"
}