{
  "_format": "hh3-artifact-1",
  "contractName": "AranDAOMarketToken",
  "sourceName": "contracts/market/MarketToken.sol",
  "abi": [
    {
      "inputs": [],
      "stateMutability": "nonpayable",
      "type": "constructor"
    },
    {
      "inputs": [
        {
          "internalType": "address",
          "name": "sender",
          "type": "address"
        },
        {
          "internalType": "uint256",
          "name": "balance",
          "type": "uint256"
        },
        {
          "internalType": "uint256",
          "name": "needed",
          "type": "uint256"
        },
        {
          "internalType": "uint256",
          "name": "tokenId",
          "type": "uint256"
        }
      ],
      "name": "ERC1155InsufficientBalance",
      "type": "error"
    },
    {
      "inputs": [
        {
          "internalType": "address",
          "name": "approver",
          "type": "address"
        }
      ],
      "name": "ERC1155InvalidApprover",
      "type": "error"
    },
    {
      "inputs": [
        {
          "internalType": "uint256",
          "name": "idsLength",
          "type": "uint256"
        },
        {
          "internalType": "uint256",
          "name": "valuesLength",
          "type": "uint256"
        }
      ],
      "name": "ERC1155InvalidArrayLength",
      "type": "error"
    },
    {
      "inputs": [
        {
          "internalType": "address",
          "name": "operator",
          "type": "address"
        }
      ],
      "name": "ERC1155InvalidOperator",
      "type": "error"
    },
    {
      "inputs": [
        {
          "internalType": "address",
          "name": "receiver",
          "type": "address"
        }
      ],
      "name": "ERC1155InvalidReceiver",
      "type": "error"
    },
    {
      "inputs": [
        {
          "internalType": "address",
          "name": "sender",
          "type": "address"
        }
      ],
      "name": "ERC1155InvalidSender",
      "type": "error"
    },
    {
      "inputs": [
        {
          "internalType": "address",
          "name": "operator",
          "type": "address"
        },
        {
          "internalType": "address",
          "name": "owner",
          "type": "address"
        }
      ],
      "name": "ERC1155MissingApprovalForAll",
      "type": "error"
    },
    {
      "inputs": [
        {
          "internalType": "address",
          "name": "owner",
          "type": "address"
        }
      ],
      "name": "OwnableInvalidOwner",
      "type": "error"
    },
    {
      "inputs": [
        {
          "internalType": "address",
          "name": "account",
          "type": "address"
        }
      ],
      "name": "OwnableUnauthorizedAccount",
      "type": "error"
    },
    {
      "anonymous": false,
      "inputs": [
        {
          "indexed": true,
          "internalType": "address",
          "name": "account",
          "type": "address"
        },
        {
          "indexed": true,
          "internalType": "address",
          "name": "operator",
          "type": "address"
        },
        {
          "indexed": false,
          "internalType": "bool",
          "name": "approved",
          "type": "bool"
        }
      ],
      "name": "ApprovalForAll",
      "type": "event"
    },
    {
      "anonymous": false,
      "inputs": [
        {
          "indexed": true,
          "internalType": "address",
          "name": "previousOwner",
          "type": "address"
        },
        {
          "indexed": true,
          "internalType": "address",
          "name": "newOwner",
          "type": "address"
        }
      ],
      "name": "OwnershipTransferred",
      "type": "event"
    },
    {
      "anonymous": false,
      "inputs": [
        {
          "indexed": true,
          "internalType": "address",
          "name": "operator",
          "type": "address"
        },
        {
          "indexed": true,
          "internalType": "address",
          "name": "from",
          "type": "address"
        },
        {
          "indexed": true,
          "internalType": "address",
          "name": "to",
          "type": "address"
        },
        {
          "indexed": false,
          "internalType": "uint256[]",
          "name": "ids",
          "type": "uint256[]"
        },
        {
          "indexed": false,
          "internalType": "uint256[]",
          "name": "values",
          "type": "uint256[]"
        }
      ],
      "name": "TransferBatch",
      "type": "event"
    },
    {
      "anonymous": false,
      "inputs": [
        {
          "indexed": true,
          "internalType": "address",
          "name": "operator",
          "type": "address"
        },
        {
          "indexed": true,
          "internalType": "address",
          "name": "from",
          "type": "address"
        },
        {
          "indexed": true,
          "internalType": "address",
          "name": "to",
          "type": "address"
        },
        {
          "indexed": false,
          "internalType": "uint256",
          "name": "id",
          "type": "uint256"
        },
        {
          "indexed": false,
          "internalType": "uint256",
          "name": "value",
          "type": "uint256"
        }
      ],
      "name": "TransferSingle",
      "type": "event"
    },
    {
      "anonymous": false,
      "inputs": [
        {
          "indexed": false,
          "internalType": "string",
          "name": "value",
          "type": "string"
        },
        {
          "indexed": true,
          "internalType": "uint256",
          "name": "id",
          "type": "uint256"
        }
      ],
      "name": "URI",
      "type": "event"
    },
    {
      "inputs": [
        {
          "internalType": "address",
          "name": "account",
          "type": "address"
        },
        {
          "internalType": "uint256",
          "name": "id",
          "type": "uint256"
        }
      ],
      "name": "balanceOf",
      "outputs": [
        {
          "internalType": "uint256",
          "name": "",
          "type": "uint256"
        }
      ],
      "stateMutability": "view",
      "type": "function"
    },
    {
      "inputs": [
        {
          "internalType": "address[]",
          "name": "accounts",
          "type": "address[]"
        },
        {
          "internalType": "uint256[]",
          "name": "ids",
          "type": "uint256[]"
        }
      ],
      "name": "balanceOfBatch",
      "outputs": [
        {
          "internalType": "uint256[]",
          "name": "",
          "type": "uint256[]"
        }
      ],
      "stateMutability": "view",
      "type": "function"
    },
    {
      "inputs": [
        {
          "internalType": "address",
          "name": "account",
          "type": "address"
        },
        {
          "internalType": "address",
          "name": "operator",
          "type": "address"
        }
      ],
      "name": "isApprovedForAll",
      "outputs": [
        {
          "internalType": "bool",
          "name": "",
          "type": "bool"
        }
      ],
      "stateMutability": "view",
      "type": "function"
    },
    {
      "inputs": [
        {
          "internalType": "address",
          "name": "",
          "type": "address"
        }
      ],
      "name": "isMintOperator",
      "outputs": [
        {
          "internalType": "bool",
          "name": "",
          "type": "bool"
        }
      ],
      "stateMutability": "view",
      "type": "function"
    },
    {
      "inputs": [
        {
          "internalType": "address",
          "name": "account",
          "type": "address"
        },
        {
          "internalType": "uint256",
          "name": "amount",
          "type": "uint256"
        },
        {
          "internalType": "string",
          "name": "ipfsCid",
          "type": "string"
        }
      ],
      "name": "mint",
      "outputs": [
        {
          "internalType": "uint256",
          "name": "",
          "type": "uint256"
        }
      ],
      "stateMutability": "nonpayable",
      "type": "function"
    },
    {
      "inputs": [],
      "name": "owner",
      "outputs": [
        {
          "internalType": "address",
          "name": "",
          "type": "address"
        }
      ],
      "stateMutability": "view",
      "type": "function"
    },
    {
      "inputs": [],
      "name": "renounceOwnership",
      "outputs": [],
      "stateMutability": "nonpayable",
      "type": "function"
    },
    {
      "inputs": [
        {
          "internalType": "address",
          "name": "from",
          "type": "address"
        },
        {
          "internalType": "address",
          "name": "to",
          "type": "address"
        },
        {
          "internalType": "uint256[]",
          "name": "ids",
          "type": "uint256[]"
        },
        {
          "internalType": "uint256[]",
          "name": "values",
          "type": "uint256[]"
        },
        {
          "internalType": "bytes",
          "name": "data",
          "type": "bytes"
        }
      ],
      "name": "safeBatchTransferFrom",
      "outputs": [],
      "stateMutability": "nonpayable",
      "type": "function"
    },
    {
      "inputs": [
        {
          "internalType": "address",
          "name": "from",
          "type": "address"
        },
        {
          "internalType": "address",
          "name": "to",
          "type": "address"
        },
        {
          "internalType": "uint256",
          "name": "id",
          "type": "uint256"
        },
        {
          "internalType": "uint256",
          "name": "value",
          "type": "uint256"
        },
        {
          "internalType": "bytes",
          "name": "data",
          "type": "bytes"
        }
      ],
      "name": "safeTransferFrom",
      "outputs": [],
      "stateMutability": "nonpayable",
      "type": "function"
    },
    {
      "inputs": [
        {
          "internalType": "address",
          "name": "operator",
          "type": "address"
        },
        {
          "internalType": "bool",
          "name": "approved",
          "type": "bool"
        }
      ],
      "name": "setApprovalForAll",
      "outputs": [],
      "stateMutability": "nonpayable",
      "type": "function"
    },
    {
      "inputs": [
        {
          "internalType": "address",
          "name": "_operator",
          "type": "address"
        },
        {
          "internalType": "bool",
          "name": "_isMintOperator",
          "type": "bool"
        }
      ],
      "name": "setMintOperator",
      "outputs": [],
      "stateMutability": "nonpayable",
      "type": "function"
    },
    {
      "inputs": [
        {
          "internalType": "bytes4",
          "name": "interfaceId",
          "type": "bytes4"
        }
      ],
      "name": "supportsInterface",
      "outputs": [
        {
          "internalType": "bool",
          "name": "",
          "type": "bool"
        }
      ],
      "stateMutability": "view",
      "type": "function"
    },
    {
      "inputs": [
        {
          "internalType": "address",
          "name": "newOwner",
          "type": "address"
        }
      ],
      "name": "transferOwnership",
      "outputs": [],
      "stateMutability": "nonpayable",
      "type": "function"
    },
    {
      "inputs": [
        {
          "internalType": "uint256",
          "name": "tokenId",
          "type": "uint256"
        }
      ],
      "name": "uri",
      "outputs": [
        {
          "internalType": "string",
          "name": "",
          "type": "string"
        }
      ],
      "stateMutability": "view",
      "type": "function"
    }
  ],
  "bytecode": "0x608060405234801561000f575f5ffd5b5060408051602081019091525f815233906100298161006b565b506001600160a01b03811661005757604051631e4fbdf760e01b81525f600482015260240160405180910390fd5b6100608161007b565b50600160045561021e565b60026100778282610164565b5050565b600380546001600160a01b038381166001600160a01b0319831681179093556040519116919082907f8be0079c531659141344cd1fd0a4f28419497f9722a3daafe3b4186f6b6457e0905f90a35050565b634e487b7160e01b5f52604160045260245ffd5b600181811c908216806100f457607f821691505b60208210810361011257634e487b7160e01b5f52602260045260245ffd5b50919050565b601f82111561015f57805f5260205f20601f840160051c8101602085101561013d5750805b601f840160051c820191505b8181101561015c575f8155600101610149565b50505b505050565b81516001600160401b0381111561017d5761017d6100cc565b6101918161018b84546100e0565b84610118565b6020601f8211600181146101c3575f83156101ac5750848201515b5f19600385901b1c1916600184901b17845561015c565b5f84815260208120601f198516915b828110156101f257878501518255602094850194600190920191016101d2565b508482101561020f57868401515f19600387901b60f8161c191681555b50505050600190811b01905550565b6114fe8061022b5f395ff3fe608060405234801561000f575f5ffd5b50600436106100e4575f3560e01c8063752c58f411610088578063d3fc986411610063578063d3fc9864146101f1578063e985e9c514610204578063f242432a14610217578063f2fde38b1461022a575f5ffd5b8063752c58f4146101a15780638da5cb5b146101c3578063a22cb465146101de575f5ffd5b80632eb2c2d6116100c35780632eb2c2d6146101515780634e1273f414610166578063712f384114610186578063715018a614610199575f5ffd5b8062fdd58e146100e857806301ffc9a71461010e5780630e89341c14610131575b5f5ffd5b6100fb6100f6366004610d5d565b61023d565b6040519081526020015b60405180910390f35b61012161011c366004610d9a565b610264565b6040519015158152602001610105565b61014461013f366004610db5565b6102b3565b6040516101059190610dfa565b61016461015f366004610f55565b610352565b005b610179610174366004611004565b6103be565b6040516101059190611101565b610164610194366004611113565b610489565b6101646104bb565b6101216101af36600461114c565b60066020525f908152604090205460ff1681565b6003546040516001600160a01b039091168152602001610105565b6101646101ec366004611113565b6104ce565b6100fb6101ff366004611165565b6104dd565b6101216102123660046111cb565b61058d565b6101646102253660046111fc565b6105de565b61016461023836600461114c565b61063d565b5f818152602081815260408083206001600160a01b03861684529091529020545b92915050565b5f6001600160e01b03198216636cdb3d1360e11b148061029457506001600160e01b031982166303a24d0760e21b145b8061025e57506301ffc9a760e01b6001600160e01b031983161461025e565b5f8181526005602052604090208054606091906102cf90611250565b80601f01602080910402602001604051908101604052809291908181526020018280546102fb90611250565b80156103465780601f1061031d57610100808354040283529160200191610346565b820191905f5260205f20905b81548152906001019060200180831161032957829003601f168201915b50505050509050919050565b336001600160a01b03861681148015906103735750610371868261058d565b155b156103a95760405163711bec9160e11b81526001600160a01b038083166004830152871660248201526044015b60405180910390fd5b6103b6868686868661067a565b505050505050565b606081518351146103ef5781518351604051635b05999160e01b8152600481019290925260248201526044016103a0565b5f835167ffffffffffffffff81111561040a5761040a610e0c565b604051908082528060200260200182016040528015610433578160200160208202803683370190505b5090505f5b84518110156104815760208082028601015161045c9060208084028701015161023d565b82828151811061046e5761046e611288565b6020908102919091010152600101610438565b509392505050565b6104916106df565b6001600160a01b03919091165f908152600660205260409020805460ff1916911515919091179055565b6104c36106df565b6104cc5f61070c565b565b6104d933838361075d565b5050565b335f9081526006602052604081205460ff1661053b5760405162461bcd60e51b815260206004820152601b60248201527f4f6e6c79206d696e74206f70657261746f722063616e206d696e74000000000060448201526064016103a0565b610557846004548560405180602001604052805f8152506107f1565b6004545f90815260056020526040902061057183826112e5565b5060048054905f610581836113b4565b90915550949350505050565b6001600160a01b0381165f9081526006602052604081205460ff16806105d757506001600160a01b038084165f9081526001602090815260408083209386168352929052205460ff165b9392505050565b336001600160a01b03861681148015906105ff57506105fd868261058d565b155b156106305760405163711bec9160e11b81526001600160a01b038083166004830152871660248201526044016103a0565b6103b6868686868661084c565b6106456106df565b6001600160a01b03811661066e57604051631e4fbdf760e01b81525f60048201526024016103a0565b6106778161070c565b50565b6001600160a01b0384166106a357604051632bfa23e760e11b81525f60048201526024016103a0565b6001600160a01b0385166106cb57604051626a0d4560e21b81525f60048201526024016103a0565b6106d885858585856108d8565b5050505050565b6003546001600160a01b031633146104cc5760405163118cdaa760e01b81523360048201526024016103a0565b600380546001600160a01b038381166001600160a01b0319831681179093556040519116919082907f8be0079c531659141344cd1fd0a4f28419497f9722a3daafe3b4186f6b6457e0905f90a35050565b6001600160a01b0382166107855760405162ced3e160e81b81525f60048201526024016103a0565b6001600160a01b038381165f81815260016020908152604080832094871680845294825291829020805460ff191686151590811790915591519182527f17307eab39ab6107e8899845ad3d59bd9653f200f220920489ca2b5937696c31910160405180910390a3505050565b6001600160a01b03841661081a57604051632bfa23e760e11b81525f60048201526024016103a0565b604080516001808252602082018690528183019081526060820185905260808201909252906103b65f878484876108d8565b6001600160a01b03841661087557604051632bfa23e760e11b81525f60048201526024016103a0565b6001600160a01b03851661089d57604051626a0d4560e21b81525f60048201526024016103a0565b604080516001808252602082018690528183019081526060820185905260808201909252906108cf87878484876108d8565b50505050505050565b6108e48585858561092b565b6001600160a01b038416156106d8578251339060010361091d5760208481015190840151610916838989858589610b3a565b50506103b6565b6103b6818787878787610c5b565b805182511461095a5781518151604051635b05999160e01b8152600481019290925260248201526044016103a0565b335f5b8351811015610a5c576020818102858101820151908501909101516001600160a01b03881615610a0e575f828152602081815260408083206001600160a01b038c168452909152902054818110156109e8576040516303dee4c560e01b81526001600160a01b038a1660048201526024810182905260448101839052606481018490526084016103a0565b5f838152602081815260408083206001600160a01b038d16845290915290209082900390555b6001600160a01b03871615610a52575f828152602081815260408083206001600160a01b038b16845290915281208054839290610a4c9084906113cc565b90915550505b505060010161095d565b508251600103610adc5760208301515f906020840151909150856001600160a01b0316876001600160a01b0316846001600160a01b03167fc3d58168c5ae7397731d063d5bbf3d657854427343f4c083240f7aacaa2d0f628585604051610acd929190918252602082015260400190565b60405180910390a450506106d8565b836001600160a01b0316856001600160a01b0316826001600160a01b03167f4a39dc06d4c0dbc64b70af90fd698a233a518aa5d07e595d983b8c0526c8f7fb8686604051610b2b9291906113df565b60405180910390a45050505050565b6001600160a01b0384163b156103b65760405163f23a6e6160e01b81526001600160a01b0385169063f23a6e6190610b7e908990899088908890889060040161140c565b6020604051808303815f875af1925050508015610bb8575060408051601f3d908101601f19168201909252610bb591810190611450565b60015b610c1f573d808015610be5576040519150601f19603f3d011682016040523d82523d5f602084013e610bea565b606091505b5080515f03610c1757604051632bfa23e760e11b81526001600160a01b03861660048201526024016103a0565b805160208201fd5b6001600160e01b0319811663f23a6e6160e01b146108cf57604051632bfa23e760e11b81526001600160a01b03861660048201526024016103a0565b6001600160a01b0384163b156103b65760405163bc197c8160e01b81526001600160a01b0385169063bc197c8190610c9f908990899088908890889060040161146b565b6020604051808303815f875af1925050508015610cd9575060408051601f3d908101601f19168201909252610cd691810190611450565b60015b610d06573d808015610be5576040519150601f19603f3d011682016040523d82523d5f602084013e610bea565b6001600160e01b0319811663bc197c8160e01b146108cf57604051632bfa23e760e11b81526001600160a01b03861660048201526024016103a0565b80356001600160a01b0381168114610d58575f5ffd5b919050565b5f5f60408385031215610d6e575f5ffd5b610d7783610d42565b946020939093013593505050565b6001600160e01b031981168114610677575f5ffd5b5f60208284031215610daa575f5ffd5b81356105d781610d85565b5f60208284031215610dc5575f5ffd5b5035919050565b5f81518084528060208401602086015e5f602082860101526020601f19601f83011685010191505092915050565b602081525f6105d76020830184610dcc565b634e487b7160e01b5f52604160045260245ffd5b604051601f8201601f1916810167ffffffffffffffff81118282101715610e4957610e49610e0c565b604052919050565b5f67ffffffffffffffff821115610e6a57610e6a610e0c565b5060051b60200190565b5f82601f830112610e83575f5ffd5b8135610e96610e9182610e51565b610e20565b8082825260208201915060208360051b860101925085831115610eb7575f5ffd5b602085015b83811015610ed4578035835260209283019201610ebc565b5095945050505050565b5f5f67ffffffffffffffff841115610ef857610ef8610e0c565b50601f8301601f1916602001610f0d81610e20565b915050828152838383011115610f21575f5ffd5b828260208301375f602084830101529392505050565b5f82601f830112610f46575f5ffd5b6105d783833560208501610ede565b5f5f5f5f5f60a08688031215610f69575f5ffd5b610f7286610d42565b9450610f8060208701610d42565b9350604086013567ffffffffffffffff811115610f9b575f5ffd5b610fa788828901610e74565b935050606086013567ffffffffffffffff811115610fc3575f5ffd5b610fcf88828901610e74565b925050608086013567ffffffffffffffff811115610feb575f5ffd5b610ff788828901610f37565b9150509295509295909350565b5f5f60408385031215611015575f5ffd5b823567ffffffffffffffff81111561102b575f5ffd5b8301601f8101851361103b575f5ffd5b8035611049610e9182610e51565b8082825260208201915060208360051b85010192508783111561106a575f5ffd5b6020840193505b828410156110935761108284610d42565b825260209384019390910190611071565b9450505050602083013567ffffffffffffffff8111156110b1575f5ffd5b6110bd85828601610e74565b9150509250929050565b5f8151808452602084019350602083015f5b828110156110f75781518652602095860195909101906001016110d9565b5093949350505050565b602081525f6105d760208301846110c7565b5f5f60408385031215611124575f5ffd5b61112d83610d42565b915060208301358015158114611141575f5ffd5b809150509250929050565b5f6020828403121561115c575f5ffd5b6105d782610d42565b5f5f5f60608486031215611177575f5ffd5b61118084610d42565b925060208401359150604084013567ffffffffffffffff8111156111a2575f5ffd5b8401601f810186136111b2575f5ffd5b6111c186823560208401610ede565b9150509250925092565b5f5f604083850312156111dc575f5ffd5b6111e583610d42565b91506111f360208401610d42565b90509250929050565b5f5f5f5f5f60a08688031215611210575f5ffd5b61121986610d42565b945061122760208701610d42565b93506040860135925060608601359150608086013567ffffffffffffffff811115610feb575f5ffd5b600181811c9082168061126457607f821691505b60208210810361128257634e487b7160e01b5f52602260045260245ffd5b50919050565b634e487b7160e01b5f52603260045260245ffd5b601f8211156112e057805f5260205f20601f840160051c810160208510156112c15750805b601f840160051c820191505b818110156106d8575f81556001016112cd565b505050565b815167ffffffffffffffff8111156112ff576112ff610e0c565b6113138161130d8454611250565b8461129c565b6020601f821160018114611345575f831561132e5750848201515b5f19600385901b1c1916600184901b1784556106d8565b5f84815260208120601f198516915b828110156113745787850151825560209485019460019092019101611354565b508482101561139157868401515f19600387901b60f8161c191681555b50505050600190811b01905550565b634e487b7160e01b5f52601160045260245ffd5b5f600182016113c5576113c56113a0565b5060010190565b8082018082111561025e5761025e6113a0565b604081525f6113f160408301856110c7565b828103602084015261140381856110c7565b95945050505050565b6001600160a01b03868116825285166020820152604081018490526060810183905260a0608082018190525f9061144590830184610dcc565b979650505050505050565b5f60208284031215611460575f5ffd5b81516105d781610d85565b6001600160a01b0386811682528516602082015260a0604082018190525f90611496908301866110c7565b82810360608401526114a881866110c7565b905082810360808401526114bc8185610dcc565b9897505050505050505056fea2646970667358221220ff393d982e5e5df393b65f674dd72dd82b6c8c27fabb75b6bb6534cda0eae1af64736f6c634300081c0033",
  "linkReferences": {},
  "deployedLinkReferences": {},
  "immutableReferences": {},
  "inputSourceName": "project/contracts/market/MarketToken.sol",
  "buildInfoId": "solc-0_8_28-90c92d806811f537200964c2b4113110ee133195"
}