{
  "_format": "hh3-artifact-1",
  "contractName": "DNM",
  "sourceName": "contracts/mock/old-contracts/DNM.sol",
  "abi": [
    {
      "inputs": [
        {
          "internalType": "string",
          "name": "name",
          "type": "string"
        },
        {
          "internalType": "string",
          "name": "symbol",
          "type": "string"
        }
      ],
      "stateMutability": "nonpayable",
      "type": "constructor"
    },
    {
      "inputs": [
        {
          "internalType": "address",
          "name": "spender",
          "type": "address"
        },
        {
          "internalType": "uint256",
          "name": "allowance",
          "type": "uint256"
        },
        {
          "internalType": "uint256",
          "name": "needed",
          "type": "uint256"
        }
      ],
      "name": "ERC20InsufficientAllowance",
      "type": "error"
    },
    {
      "inputs": [
        {
          "internalType": "address",
          "name": "sender",
          "type": "address"
        },
        {
          "internalType": "uint256",
          "name": "balance",
          "type": "uint256"
        },
        {
          "internalType": "uint256",
          "name": "needed",
          "type": "uint256"
        }
      ],
      "name": "ERC20InsufficientBalance",
      "type": "error"
    },
    {
      "inputs": [
        {
          "internalType": "address",
          "name": "approver",
          "type": "address"
        }
      ],
      "name": "ERC20InvalidApprover",
      "type": "error"
    },
    {
      "inputs": [
        {
          "internalType": "address",
          "name": "receiver",
          "type": "address"
        }
      ],
      "name": "ERC20InvalidReceiver",
      "type": "error"
    },
    {
      "inputs": [
        {
          "internalType": "address",
          "name": "sender",
          "type": "address"
        }
      ],
      "name": "ERC20InvalidSender",
      "type": "error"
    },
    {
      "inputs": [
        {
          "internalType": "address",
          "name": "spender",
          "type": "address"
        }
      ],
      "name": "ERC20InvalidSpender",
      "type": "error"
    },
    {
      "anonymous": false,
      "inputs": [
        {
          "indexed": true,
          "internalType": "address",
          "name": "owner",
          "type": "address"
        },
        {
          "indexed": true,
          "internalType": "address",
          "name": "spender",
          "type": "address"
        },
        {
          "indexed": false,
          "internalType": "uint256",
          "name": "value",
          "type": "uint256"
        }
      ],
      "name": "Approval",
      "type": "event"
    },
    {
      "anonymous": false,
      "inputs": [
        {
          "indexed": true,
          "internalType": "address",
          "name": "from",
          "type": "address"
        },
        {
          "indexed": true,
          "internalType": "address",
          "name": "to",
          "type": "address"
        },
        {
          "indexed": false,
          "internalType": "uint256",
          "name": "value",
          "type": "uint256"
        }
      ],
      "name": "Transfer",
      "type": "event"
    },
    {
      "inputs": [],
      "name": "MAX_SUPPLY",
      "outputs": [
        {
          "internalType": "uint256",
          "name": "",
          "type": "uint256"
        }
      ],
      "stateMutability": "view",
      "type": "function"
    },
    {
      "inputs": [],
      "name": "OWNER",
      "outputs": [
        {
          "internalType": "address",
          "name": "",
          "type": "address"
        }
      ],
      "stateMutability": "view",
      "type": "function"
    },
    {
      "inputs": [
        {
          "internalType": "address",
          "name": "owner",
          "type": "address"
        },
        {
          "internalType": "address",
          "name": "spender",
          "type": "address"
        }
      ],
      "name": "allowance",
      "outputs": [
        {
          "internalType": "uint256",
          "name": "",
          "type": "uint256"
        }
      ],
      "stateMutability": "view",
      "type": "function"
    },
    {
      "inputs": [
        {
          "internalType": "address",
          "name": "spender",
          "type": "address"
        },
        {
          "internalType": "uint256",
          "name": "value",
          "type": "uint256"
        }
      ],
      "name": "approve",
      "outputs": [
        {
          "internalType": "bool",
          "name": "",
          "type": "bool"
        }
      ],
      "stateMutability": "nonpayable",
      "type": "function"
    },
    {
      "inputs": [
        {
          "internalType": "address",
          "name": "account",
          "type": "address"
        }
      ],
      "name": "balanceOf",
      "outputs": [
        {
          "internalType": "uint256",
          "name": "",
          "type": "uint256"
        }
      ],
      "stateMutability": "view",
      "type": "function"
    },
    {
      "inputs": [
        {
          "internalType": "address",
          "name": "owner",
          "type": "address"
        }
      ],
      "name": "changeOwner",
      "outputs": [],
      "stateMutability": "nonpayable",
      "type": "function"
    },
    {
      "inputs": [],
      "name": "decimals",
      "outputs": [
        {
          "internalType": "uint8",
          "name": "",
          "type": "uint8"
        }
      ],
      "stateMutability": "view",
      "type": "function"
    },
    {
      "inputs": [
        {
          "internalType": "address",
          "name": "send_to",
          "type": "address"
        },
        {
          "internalType": "uint256",
          "name": "amount",
          "type": "uint256"
        }
      ],
      "name": "mintByOwner",
      "outputs": [],
      "stateMutability": "nonpayable",
      "type": "function"
    },
    {
      "inputs": [],
      "name": "name",
      "outputs": [
        {
          "internalType": "string",
          "name": "",
          "type": "string"
        }
      ],
      "stateMutability": "view",
      "type": "function"
    },
    {
      "inputs": [],
      "name": "symbol",
      "outputs": [
        {
          "internalType": "string",
          "name": "",
          "type": "string"
        }
      ],
      "stateMutability": "view",
      "type": "function"
    },
    {
      "inputs": [],
      "name": "totalSupply",
      "outputs": [
        {
          "internalType": "uint256",
          "name": "",
          "type": "uint256"
        }
      ],
      "stateMutability": "view",
      "type": "function"
    },
    {
      "inputs": [
        {
          "internalType": "address",
          "name": "to",
          "type": "address"
        },
        {
          "internalType": "uint256",
          "name": "value",
          "type": "uint256"
        }
      ],
      "name": "transfer",
      "outputs": [
        {
          "internalType": "bool",
          "name": "",
          "type": "bool"
        }
      ],
      "stateMutability": "nonpayable",
      "type": "function"
    },
    {
      "inputs": [
        {
          "internalType": "address",
          "name": "from",
          "type": "address"
        },
        {
          "internalType": "address",
          "name": "to",
          "type": "address"
        },
        {
          "internalType": "uint256",
          "name": "value",
          "type": "uint256"
        }
      ],
      "name": "transferFrom",
      "outputs": [
        {
          "internalType": "bool",
          "name": "",
          "type": "bool"
        }
      ],
      "stateMutability": "nonpayable",
      "type": "function"
    }
  ],
  "bytecode": "0x60806040526a084595161401484a00000060055534801561001e575f5ffd5b50604051610b9e380380610b9e83398101604081905261003d91610112565b8181600361004b83826101fb565b50600461005882826101fb565b5050600680546001600160a01b03191633179055506102b5915050565b634e487b7160e01b5f52604160045260245ffd5b5f82601f830112610098575f5ffd5b81516001600160401b038111156100b1576100b1610075565b604051601f8201601f19908116603f011681016001600160401b03811182821017156100df576100df610075565b6040528181528382016020018510156100f6575f5ffd5b8160208501602083015e5f918101602001919091529392505050565b5f5f60408385031215610123575f5ffd5b82516001600160401b03811115610138575f5ffd5b61014485828601610089565b602085015190935090506001600160401b03811115610161575f5ffd5b61016d85828601610089565b9150509250929050565b600181811c9082168061018b57607f821691505b6020821081036101a957634e487b7160e01b5f52602260045260245ffd5b50919050565b601f8211156101f657805f5260205f20601f840160051c810160208510156101d45750805b601f840160051c820191505b818110156101f3575f81556001016101e0565b50505b505050565b81516001600160401b0381111561021457610214610075565b610228816102228454610177565b846101af565b6020601f82116001811461025a575f83156102435750848201515b5f19600385901b1c1916600184901b1784556101f3565b5f84815260208120601f198516915b828110156102895787850151825560209485019460019092019101610269565b50848210156102a657868401515f19600387901b60f8161c191681555b50505050600190811b01905550565b6108dc806102c25f395ff3fe608060405234801561000f575f5ffd5b50600436106100cb575f3560e01c806332cb6b0c1161008857806395d89b411161006357806395d89b41146101b5578063a6f9dae1146101bd578063a9059cbb146101d0578063dd62ed3e146101e3575f5ffd5b806332cb6b0c1461016f5780633542aee21461017857806370a082311461018d575f5ffd5b806306fdde03146100cf578063095ea7b3146100ed578063117803e31461011057806318160ddd1461013b57806323b872dd1461014d578063313ce56714610160575b5f5ffd5b6100d761021b565b6040516100e4919061074c565b60405180910390f35b6101006100fb36600461079c565b6102ab565b60405190151581526020016100e4565b600654610123906001600160a01b031681565b6040516001600160a01b0390911681526020016100e4565b6002545b6040519081526020016100e4565b61010061015b3660046107c4565b6102c4565b604051601281526020016100e4565b61013f60055481565b61018b61018636600461079c565b6102e7565b005b61013f61019b3660046107fe565b6001600160a01b03165f9081526020819052604090205490565b6100d76103b0565b61018b6101cb3660046107fe565b6103bf565b6101006101de36600461079c565b610428565b61013f6101f136600461081e565b6001600160a01b039182165f90815260016020908152604080832093909416825291909152205490565b60606003805461022a9061084f565b80601f01602080910402602001604051908101604052809291908181526020018280546102569061084f565b80156102a15780601f10610278576101008083540402835291602001916102a1565b820191905f5260205f20905b81548152906001019060200180831161028457829003601f168201915b5050505050905090565b5f336102b8818585610435565b60019150505b92915050565b5f336102d1858285610447565b6102dc8585856104c3565b506001949350505050565b6006546001600160a01b031633146103335760405162461bcd60e51b815260206004820152600a60248201526937b7363c9037bbb732b960b11b60448201526064015b60405180910390fd5b6005548161034060025490565b61034a9190610887565b11156103a25760405162461bcd60e51b815260206004820152602160248201527f63616e206e6f74206d696e74206d6f7265207468616e204d41585f535550504c6044820152605960f81b606482015260840161032a565b6103ac8282610520565b5050565b60606004805461022a9061084f565b6006546001600160a01b031633146104065760405162461bcd60e51b815260206004820152600a60248201526937b7363c9037bbb732b960b11b604482015260640161032a565b600680546001600160a01b0319166001600160a01b0392909216919091179055565b5f336102b88185856104c3565b6104428383836001610554565b505050565b6001600160a01b038381165f908152600160209081526040808320938616835292905220545f198110156104bd57818110156104af57604051637dc7a0d960e11b81526001600160a01b0384166004820152602481018290526044810183905260640161032a565b6104bd84848484035f610554565b50505050565b6001600160a01b0383166104ec57604051634b637e8f60e11b81525f600482015260240161032a565b6001600160a01b0382166105155760405163ec442f0560e01b81525f600482015260240161032a565b610442838383610626565b6001600160a01b0382166105495760405163ec442f0560e01b81525f600482015260240161032a565b6103ac5f8383610626565b6001600160a01b03841661057d5760405163e602df0560e01b81525f600482015260240161032a565b6001600160a01b0383166105a657604051634a1406b160e11b81525f600482015260240161032a565b6001600160a01b038085165f90815260016020908152604080832093871683529290522082905580156104bd57826001600160a01b0316846001600160a01b03167f8c5be1e5ebec7d5bd14f71427d1e84f3dd0314c0f7b2291e5b200ac8c7c3b9258460405161061891815260200190565b60405180910390a350505050565b6001600160a01b038316610650578060025f8282546106459190610887565b909155506106c09050565b6001600160a01b0383165f90815260208190526040902054818110156106a25760405163391434e360e21b81526001600160a01b0385166004820152602481018290526044810183905260640161032a565b6001600160a01b0384165f9081526020819052604090209082900390555b6001600160a01b0382166106dc576002805482900390556106fa565b6001600160a01b0382165f9081526020819052604090208054820190555b816001600160a01b0316836001600160a01b03167fddf252ad1be2c89b69c2b068fc378daa952ba7f163c4a11628f55a4df523b3ef8360405161073f91815260200190565b60405180910390a3505050565b602081525f82518060208401528060208501604085015e5f604082850101526040601f19601f83011684010191505092915050565b80356001600160a01b0381168114610797575f5ffd5b919050565b5f5f604083850312156107ad575f5ffd5b6107b683610781565b946020939093013593505050565b5f5f5f606084860312156107d6575f5ffd5b6107df84610781565b92506107ed60208501610781565b929592945050506040919091013590565b5f6020828403121561080e575f5ffd5b61081782610781565b9392505050565b5f5f6040838503121561082f575f5ffd5b61083883610781565b915061084660208401610781565b90509250929050565b600181811c9082168061086357607f821691505b60208210810361088157634e487b7160e01b5f52602260045260245ffd5b50919050565b808201808211156102be57634e487b7160e01b5f52601160045260245ffdfea26469706673582212205be512bd7cad46caca3bd0d503d775a4c91367fdc98d26b697b91eb81c8371a464736f6c634300081c0033",
  "linkReferences": {},
  "deployedLinkReferences": {},
  "immutableReferences": {},
  "inputSourceName": "project/contracts/mock/old-contracts/DNM.sol",
  "buildInfoId": "solc-0_8_28-7e055ea6fd758778ebfdd00886b0af47380caeef"
}