{
  "_format": "hh3-artifact-1",
  "contractName": "Wrapper",
  "sourceName": "contracts/mock/old-contracts/Wrapper.sol",
  "abi": [
    {
      "inputs": [
        {
          "internalType": "string",
          "name": "_baseURI",
          "type": "string"
        }
      ],
      "stateMutability": "nonpayable",
      "type": "constructor"
    },
    {
      "inputs": [],
      "name": "ERC721EnumerableForbiddenBatchMint",
      "type": "error"
    },
    {
      "inputs": [
        {
          "internalType": "address",
          "name": "sender",
          "type": "address"
        },
        {
          "internalType": "uint256",
          "name": "tokenId",
          "type": "uint256"
        },
        {
          "internalType": "address",
          "name": "owner",
          "type": "address"
        }
      ],
      "name": "ERC721IncorrectOwner",
      "type": "error"
    },
    {
      "inputs": [
        {
          "internalType": "address",
          "name": "operator",
          "type": "address"
        },
        {
          "internalType": "uint256",
          "name": "tokenId",
          "type": "uint256"
        }
      ],
      "name": "ERC721InsufficientApproval",
      "type": "error"
    },
    {
      "inputs": [
        {
          "internalType": "address",
          "name": "approver",
          "type": "address"
        }
      ],
      "name": "ERC721InvalidApprover",
      "type": "error"
    },
    {
      "inputs": [
        {
          "internalType": "address",
          "name": "operator",
          "type": "address"
        }
      ],
      "name": "ERC721InvalidOperator",
      "type": "error"
    },
    {
      "inputs": [
        {
          "internalType": "address",
          "name": "owner",
          "type": "address"
        }
      ],
      "name": "ERC721InvalidOwner",
      "type": "error"
    },
    {
      "inputs": [
        {
          "internalType": "address",
          "name": "receiver",
          "type": "address"
        }
      ],
      "name": "ERC721InvalidReceiver",
      "type": "error"
    },
    {
      "inputs": [
        {
          "internalType": "address",
          "name": "sender",
          "type": "address"
        }
      ],
      "name": "ERC721InvalidSender",
      "type": "error"
    },
    {
      "inputs": [
        {
          "internalType": "uint256",
          "name": "tokenId",
          "type": "uint256"
        }
      ],
      "name": "ERC721NonexistentToken",
      "type": "error"
    },
    {
      "inputs": [
        {
          "internalType": "address",
          "name": "owner",
          "type": "address"
        },
        {
          "internalType": "uint256",
          "name": "index",
          "type": "uint256"
        }
      ],
      "name": "ERC721OutOfBoundsIndex",
      "type": "error"
    },
    {
      "inputs": [],
      "name": "NotLandOwner",
      "type": "error"
    },
    {
      "inputs": [],
      "name": "NotWrapperOwner",
      "type": "error"
    },
    {
      "inputs": [],
      "name": "OnlyDao",
      "type": "error"
    },
    {
      "inputs": [
        {
          "internalType": "address",
          "name": "owner",
          "type": "address"
        }
      ],
      "name": "OwnableInvalidOwner",
      "type": "error"
    },
    {
      "inputs": [
        {
          "internalType": "address",
          "name": "account",
          "type": "address"
        }
      ],
      "name": "OwnableUnauthorizedAccount",
      "type": "error"
    },
    {
      "anonymous": false,
      "inputs": [
        {
          "indexed": true,
          "internalType": "address",
          "name": "owner",
          "type": "address"
        },
        {
          "indexed": true,
          "internalType": "address",
          "name": "approved",
          "type": "address"
        },
        {
          "indexed": true,
          "internalType": "uint256",
          "name": "tokenId",
          "type": "uint256"
        }
      ],
      "name": "Approval",
      "type": "event"
    },
    {
      "anonymous": false,
      "inputs": [
        {
          "indexed": true,
          "internalType": "address",
          "name": "owner",
          "type": "address"
        },
        {
          "indexed": true,
          "internalType": "address",
          "name": "operator",
          "type": "address"
        },
        {
          "indexed": false,
          "internalType": "bool",
          "name": "approved",
          "type": "bool"
        }
      ],
      "name": "ApprovalForAll",
      "type": "event"
    },
    {
      "anonymous": false,
      "inputs": [
        {
          "indexed": true,
          "internalType": "address",
          "name": "previousOwner",
          "type": "address"
        },
        {
          "indexed": true,
          "internalType": "address",
          "name": "newOwner",
          "type": "address"
        }
      ],
      "name": "OwnershipTransferred",
      "type": "event"
    },
    {
      "anonymous": false,
      "inputs": [
        {
          "indexed": true,
          "internalType": "address",
          "name": "from",
          "type": "address"
        },
        {
          "indexed": true,
          "internalType": "address",
          "name": "to",
          "type": "address"
        },
        {
          "indexed": true,
          "internalType": "uint256",
          "name": "tokenId",
          "type": "uint256"
        }
      ],
      "name": "Transfer",
      "type": "event"
    },
    {
      "inputs": [
        {
          "internalType": "address",
          "name": "_collection",
          "type": "address"
        },
        {
          "components": [
            {
              "internalType": "uint256",
              "name": "type_count",
              "type": "uint256"
            },
            {
              "internalType": "bool",
              "name": "mint_status",
              "type": "bool"
            },
            {
              "internalType": "bool",
              "name": "withdraw_status",
              "type": "bool"
            },
            {
              "internalType": "bool",
              "name": "exists",
              "type": "bool"
            }
          ],
          "internalType": "struct Wrapper.Collection",
          "name": "collectData",
          "type": "tuple"
        },
        {
          "components": [
            {
              "internalType": "uint256",
              "name": "start",
              "type": "uint256"
            },
            {
              "internalType": "uint256",
              "name": "end",
              "type": "uint256"
            },
            {
              "internalType": "uint8",
              "name": "plan",
              "type": "uint8"
            }
          ],
          "internalType": "struct Wrapper.PlanType[]",
          "name": "planTypes",
          "type": "tuple[]"
        }
      ],
      "name": "addOrUpdateCollection",
      "outputs": [],
      "stateMutability": "nonpayable",
      "type": "function"
    },
    {
      "inputs": [
        {
          "internalType": "address",
          "name": "to",
          "type": "address"
        },
        {
          "internalType": "uint256",
          "name": "tokenId",
          "type": "uint256"
        }
      ],
      "name": "approve",
      "outputs": [],
      "stateMutability": "nonpayable",
      "type": "function"
    },
    {
      "inputs": [
        {
          "internalType": "address",
          "name": "owner",
          "type": "address"
        }
      ],
      "name": "balanceOf",
      "outputs": [
        {
          "internalType": "uint256",
          "name": "",
          "type": "uint256"
        }
      ],
      "stateMutability": "view",
      "type": "function"
    },
    {
      "inputs": [],
      "name": "baseURI",
      "outputs": [
        {
          "internalType": "string",
          "name": "",
          "type": "string"
        }
      ],
      "stateMutability": "view",
      "type": "function"
    },
    {
      "inputs": [
        {
          "internalType": "address",
          "name": "_collection",
          "type": "address"
        },
        {
          "internalType": "bool",
          "name": "mint_status",
          "type": "bool"
        },
        {
          "internalType": "bool",
          "name": "withdraw_status",
          "type": "bool"
        }
      ],
      "name": "changeCollectionStatus",
      "outputs": [],
      "stateMutability": "nonpayable",
      "type": "function"
    },
    {
      "inputs": [
        {
          "internalType": "address",
          "name": "_dao",
          "type": "address"
        }
      ],
      "name": "changeDao",
      "outputs": [],
      "stateMutability": "nonpayable",
      "type": "function"
    },
    {
      "inputs": [
        {
          "internalType": "address",
          "name": "",
          "type": "address"
        },
        {
          "internalType": "uint256",
          "name": "",
          "type": "uint256"
        }
      ],
      "name": "collectionPlanTypes",
      "outputs": [
        {
          "internalType": "uint256",
          "name": "start",
          "type": "uint256"
        },
        {
          "internalType": "uint256",
          "name": "end",
          "type": "uint256"
        },
        {
          "internalType": "uint8",
          "name": "plan",
          "type": "uint8"
        }
      ],
      "stateMutability": "view",
      "type": "function"
    },
    {
      "inputs": [
        {
          "internalType": "address",
          "name": "",
          "type": "address"
        }
      ],
      "name": "collections",
      "outputs": [
        {
          "internalType": "uint256",
          "name": "type_count",
          "type": "uint256"
        },
        {
          "internalType": "bool",
          "name": "mint_status",
          "type": "bool"
        },
        {
          "internalType": "bool",
          "name": "withdraw_status",
          "type": "bool"
        },
        {
          "internalType": "bool",
          "name": "exists",
          "type": "bool"
        }
      ],
      "stateMutability": "view",
      "type": "function"
    },
    {
      "inputs": [],
      "name": "dao",
      "outputs": [
        {
          "internalType": "address",
          "name": "",
          "type": "address"
        }
      ],
      "stateMutability": "view",
      "type": "function"
    },
    {
      "inputs": [
        {
          "internalType": "uint256",
          "name": "tokenId",
          "type": "uint256"
        }
      ],
      "name": "getApproved",
      "outputs": [
        {
          "internalType": "address",
          "name": "",
          "type": "address"
        }
      ],
      "stateMutability": "view",
      "type": "function"
    },
    {
      "inputs": [
        {
          "internalType": "address",
          "name": "_collection",
          "type": "address"
        },
        {
          "internalType": "uint256",
          "name": "id",
          "type": "uint256"
        }
      ],
      "name": "getTokenPlan",
      "outputs": [
        {
          "internalType": "uint8",
          "name": "",
          "type": "uint8"
        }
      ],
      "stateMutability": "view",
      "type": "function"
    },
    {
      "inputs": [
        {
          "internalType": "address",
          "name": "user",
          "type": "address"
        }
      ],
      "name": "getUserTokens",
      "outputs": [
        {
          "internalType": "uint256[]",
          "name": "",
          "type": "uint256[]"
        }
      ],
      "stateMutability": "view",
      "type": "function"
    },
    {
      "inputs": [],
      "name": "getUserTokensInfo",
      "outputs": [
        {
          "components": [
            {
              "internalType": "address",
              "name": "collection_address",
              "type": "address"
            },
            {
              "internalType": "uint256",
              "name": "token_id",
              "type": "uint256"
            },
            {
              "internalType": "uint8",
              "name": "plan_type",
              "type": "uint8"
            },
            {
              "internalType": "bool",
              "name": "burned",
              "type": "bool"
            }
          ],
          "internalType": "struct Wrapper.WrapToken[]",
          "name": "",
          "type": "tuple[]"
        }
      ],
      "stateMutability": "view",
      "type": "function"
    },
    {
      "inputs": [
        {
          "internalType": "address",
          "name": "user",
          "type": "address"
        }
      ],
      "name": "getUserTokensInfo",
      "outputs": [
        {
          "components": [
            {
              "internalType": "address",
              "name": "collection_address",
              "type": "address"
            },
            {
              "internalType": "uint256",
              "name": "token_id",
              "type": "uint256"
            },
            {
              "internalType": "uint8",
              "name": "plan_type",
              "type": "uint8"
            },
            {
              "internalType": "bool",
              "name": "burned",
              "type": "bool"
            }
          ],
          "internalType": "struct Wrapper.WrapToken[]",
          "name": "",
          "type": "tuple[]"
        }
      ],
      "stateMutability": "view",
      "type": "function"
    },
    {
      "inputs": [
        {
          "internalType": "uint256",
          "name": "id",
          "type": "uint256"
        }
      ],
      "name": "getWrapTokenPlan",
      "outputs": [
        {
          "internalType": "uint8",
          "name": "",
          "type": "uint8"
        }
      ],
      "stateMutability": "view",
      "type": "function"
    },
    {
      "inputs": [
        {
          "internalType": "address",
          "name": "owner",
          "type": "address"
        },
        {
          "internalType": "address",
          "name": "operator",
          "type": "address"
        }
      ],
      "name": "isApprovedForAll",
      "outputs": [
        {
          "internalType": "bool",
          "name": "",
          "type": "bool"
        }
      ],
      "stateMutability": "view",
      "type": "function"
    },
    {
      "inputs": [
        {
          "internalType": "uint8",
          "name": "planType",
          "type": "uint8"
        },
        {
          "internalType": "address",
          "name": "to",
          "type": "address"
        },
        {
          "internalType": "uint256",
          "name": "id",
          "type": "uint256"
        }
      ],
      "name": "mint",
      "outputs": [
        {
          "internalType": "uint256",
          "name": "",
          "type": "uint256"
        }
      ],
      "stateMutability": "nonpayable",
      "type": "function"
    },
    {
      "inputs": [],
      "name": "name",
      "outputs": [
        {
          "internalType": "string",
          "name": "",
          "type": "string"
        }
      ],
      "stateMutability": "view",
      "type": "function"
    },
    {
      "inputs": [],
      "name": "owner",
      "outputs": [
        {
          "internalType": "address",
          "name": "",
          "type": "address"
        }
      ],
      "stateMutability": "view",
      "type": "function"
    },
    {
      "inputs": [
        {
          "internalType": "uint256",
          "name": "tokenId",
          "type": "uint256"
        }
      ],
      "name": "ownerOf",
      "outputs": [
        {
          "internalType": "address",
          "name": "",
          "type": "address"
        }
      ],
      "stateMutability": "view",
      "type": "function"
    },
    {
      "inputs": [],
      "name": "renounceOwnership",
      "outputs": [],
      "stateMutability": "nonpayable",
      "type": "function"
    },
    {
      "inputs": [
        {
          "internalType": "address",
          "name": "from",
          "type": "address"
        },
        {
          "internalType": "address",
          "name": "to",
          "type": "address"
        },
        {
          "internalType": "uint256",
          "name": "tokenId",
          "type": "uint256"
        }
      ],
      "name": "safeTransferFrom",
      "outputs": [],
      "stateMutability": "nonpayable",
      "type": "function"
    },
    {
      "inputs": [
        {
          "internalType": "address",
          "name": "from",
          "type": "address"
        },
        {
          "internalType": "address",
          "name": "to",
          "type": "address"
        },
        {
          "internalType": "uint256",
          "name": "tokenId",
          "type": "uint256"
        },
        {
          "internalType": "bytes",
          "name": "data",
          "type": "bytes"
        }
      ],
      "name": "safeTransferFrom",
      "outputs": [],
      "stateMutability": "nonpayable",
      "type": "function"
    },
    {
      "inputs": [
        {
          "internalType": "address",
          "name": "operator",
          "type": "address"
        },
        {
          "internalType": "bool",
          "name": "approved",
          "type": "bool"
        }
      ],
      "name": "setApprovalForAll",
      "outputs": [],
      "stateMutability": "nonpayable",
      "type": "function"
    },
    {
      "inputs": [
        {
          "internalType": "bytes4",
          "name": "interfaceId",
          "type": "bytes4"
        }
      ],
      "name": "supportsInterface",
      "outputs": [
        {
          "internalType": "bool",
          "name": "",
          "type": "bool"
        }
      ],
      "stateMutability": "view",
      "type": "function"
    },
    {
      "inputs": [],
      "name": "symbol",
      "outputs": [
        {
          "internalType": "string",
          "name": "",
          "type": "string"
        }
      ],
      "stateMutability": "view",
      "type": "function"
    },
    {
      "inputs": [
        {
          "internalType": "uint256",
          "name": "index",
          "type": "uint256"
        }
      ],
      "name": "tokenByIndex",
      "outputs": [
        {
          "internalType": "uint256",
          "name": "",
          "type": "uint256"
        }
      ],
      "stateMutability": "view",
      "type": "function"
    },
    {
      "inputs": [
        {
          "internalType": "address",
          "name": "owner",
          "type": "address"
        },
        {
          "internalType": "uint256",
          "name": "index",
          "type": "uint256"
        }
      ],
      "name": "tokenOfOwnerByIndex",
      "outputs": [
        {
          "internalType": "uint256",
          "name": "",
          "type": "uint256"
        }
      ],
      "stateMutability": "view",
      "type": "function"
    },
    {
      "inputs": [
        {
          "internalType": "uint256",
          "name": "token_id",
          "type": "uint256"
        }
      ],
      "name": "tokenURI",
      "outputs": [
        {
          "internalType": "string",
          "name": "",
          "type": "string"
        }
      ],
      "stateMutability": "view",
      "type": "function"
    },
    {
      "inputs": [],
      "name": "totalSupply",
      "outputs": [
        {
          "internalType": "uint256",
          "name": "",
          "type": "uint256"
        }
      ],
      "stateMutability": "view",
      "type": "function"
    },
    {
      "inputs": [
        {
          "internalType": "address",
          "name": "from",
          "type": "address"
        },
        {
          "internalType": "address",
          "name": "to",
          "type": "address"
        },
        {
          "internalType": "uint256",
          "name": "tokenId",
          "type": "uint256"
        }
      ],
      "name": "transferFrom",
      "outputs": [],
      "stateMutability": "nonpayable",
      "type": "function"
    },
    {
      "inputs": [
        {
          "internalType": "address",
          "name": "newOwner",
          "type": "address"
        }
      ],
      "name": "transferOwnership",
      "outputs": [],
      "stateMutability": "nonpayable",
      "type": "function"
    },
    {
      "inputs": [
        {
          "internalType": "address",
          "name": "_collection",
          "type": "address"
        },
        {
          "internalType": "uint256",
          "name": "wrapTokenId",
          "type": "uint256"
        }
      ],
      "name": "withdraw",
      "outputs": [],
      "stateMutability": "nonpayable",
      "type": "function"
    },
    {
      "inputs": [],
      "name": "wrapTokenIndex",
      "outputs": [
        {
          "internalType": "uint256",
          "name": "",
          "type": "uint256"
        }
      ],
      "stateMutability": "view",
      "type": "function"
    },
    {
      "inputs": [
        {
          "internalType": "uint256",
          "name": "",
          "type": "uint256"
        }
      ],
      "name": "wrapTokenList",
      "outputs": [
        {
          "internalType": "address",
          "name": "collection_address",
          "type": "address"
        },
        {
          "internalType": "uint256",
          "name": "token_id",
          "type": "uint256"
        },
        {
          "internalType": "uint8",
          "name": "plan_type",
          "type": "uint8"
        },
        {
          "internalType": "bool",
          "name": "burned",
          "type": "bool"
        }
      ],
      "stateMutability": "view",
      "type": "function"
    }
  ],
  "bytecode": "0x60806040525f601055348015610013575f5ffd5b506040516124a43803806124a483398101604081905261003291610155565b336040518060400160405280601981526020017f4172616e44616f206f6c64207772617070657220746f6b656e000000000000008152506040518060400160405280600681526020016527b63220a22760d11b815250815f90816100969190610289565b5060016100a38282610289565b5050506001600160a01b0381166100d357604051631e4fbdf760e01b81525f600482015260240160405180910390fd5b6100dc816100f0565b50600b6100e98282610289565b5050610343565b600a80546001600160a01b038381166001600160a01b0319831681179093556040519116919082907f8be0079c531659141344cd1fd0a4f28419497f9722a3daafe3b4186f6b6457e0905f90a35050565b634e487b7160e01b5f52604160045260245ffd5b5f60208284031215610165575f5ffd5b81516001600160401b0381111561017a575f5ffd5b8201601f8101841361018a575f5ffd5b80516001600160401b038111156101a3576101a3610141565b604051601f8201601f19908116603f011681016001600160401b03811182821017156101d1576101d1610141565b6040528181528282016020018610156101e8575f5ffd5b8160208401602083015e5f91810160200191909152949350505050565b600181811c9082168061021957607f821691505b60208210810361023757634e487b7160e01b5f52602260045260245ffd5b50919050565b601f82111561028457805f5260205f20601f840160051c810160208510156102625750805b601f840160051c820191505b81811015610281575f815560010161026e565b50505b505050565b81516001600160401b038111156102a2576102a2610141565b6102b6816102b08454610205565b8461023d565b6020601f8211600181146102e8575f83156102d15750848201515b5f19600385901b1c1916600184901b178455610281565b5f84815260208120601f198516915b8281101561031757878501518255602094850194600190920191016102f7565b508482101561033457868401515f19600387901b60f8161c191681555b50505050600190811b01905550565b612154806103505f395ff3fe608060405234801561000f575f5ffd5b5060043610610208575f3560e01c806370a082311161011f578063d0e91a7f116100a9578063eb19840c11610079578063eb19840c14610532578063eebab8ef14610545578063f2fde38b14610558578063f3fef3a31461056b578063faacbc391461057e575f5ffd5b8063d0e91a7f146104d4578063d5d9a2c9146104f9578063d8826fec1461050c578063e985e9c51461051f575f5ffd5b8063a22cb465116100ef578063a22cb46514610461578063b38a6cc914610474578063b88d4fde14610489578063c87b56dd1461049c578063c9cecbf9146104af575f5ffd5b806370a082311461042d578063715018a6146104405780638da5cb5b1461044857806395d89b4114610459575f5ffd5b806342842e0e116101a05780634f6ccce7116101705780634f6ccce7146103cc578063519dc8d2146103df5780636352211e146103ff5780636b1d8a39146104125780636c0360eb14610425575f5ffd5b806342842e0e146102d457806343add2e6146102e75780634480ad271461034b5780634b0357b114610354575f5ffd5b806318160ddd116101db57806318160ddd1461028957806323b872dd1461029b5780632f745c59146102ae5780634162169f146102c1575f5ffd5b806301ffc9a71461020c57806306fdde0314610234578063081812fc14610249578063095ea7b314610274575b5f5ffd5b61021f61021a366004611aff565b6105d8565b60405190151581526020015b60405180910390f35b61023c610602565b60405161022b9190611b4f565b61025c610257366004611b61565b610691565b6040516001600160a01b03909116815260200161022b565b610287610282366004611b93565b6106b8565b005b6008545b60405190815260200161022b565b6102876102a9366004611bbb565b6106c7565b61028d6102bc366004611b93565b610755565b600c5461025c906001600160a01b031681565b6102876102e2366004611bbb565b6107b8565b6103236102f5366004611bf5565b600d6020525f90815260409020805460019091015460ff808216916101008104821691620100009091041684565b604080519485529215156020850152901515918301919091521515606082015260800161022b565b61028d60105481565b610398610362366004611b61565b600f6020525f90815260409020805460018201546002909201546001600160a01b03909116919060ff8082169161010090041684565b604080516001600160a01b039095168552602085019390935260ff909116918301919091521515606082015260800161022b565b61028d6103da366004611b61565b6107d7565b6103f26103ed366004611bf5565b61082c565b60405161022b9190611c0e565b61025c61040d366004611b61565b6108c1565b610287610420366004611c5f565b6108cb565b61023c610977565b61028d61043b366004611bf5565b610a03565b610287610a48565b600a546001600160a01b031661025c565b61023c610a5b565b61028761046f366004611c9f565b610a6a565b61047c610a75565b60405161022b9190611cd0565b610287610497366004611dc9565b610a85565b61023c6104aa366004611b61565b610a9d565b6104c26104bd366004611b93565b610b2f565b60405160ff909116815260200161022b565b6104c26104e2366004611b61565b5f908152600f602052604090206002015460ff1690565b61047c610507366004611bf5565b610bf6565b61028761051a366004611bf5565b610d03565b61021f61052d366004611e87565b610d72565b610287610540366004611ebf565b610d9f565b61028d61055336600461200d565b610ff8565b610287610566366004611bf5565b6110a2565b610287610579366004611b93565b6110df565b6105ba61058c366004611b93565b600e60209081525f928352604080842090915290825290208054600182015460029092015490919060ff1683565b60408051938452602084019290925260ff169082015260600161022b565b5f6001600160e01b0319821663780e9d6360e01b14806105fc57506105fc82611281565b92915050565b60605f805461061090612028565b80601f016020809104026020016040519081016040528092919081815260200182805461063c90612028565b80156106875780601f1061065e57610100808354040283529160200191610687565b820191905f5260205f20905b81548152906001019060200180831161066a57829003601f168201915b5050505050905090565b5f61069b826112d0565b505f828152600460205260409020546001600160a01b03166105fc565b6106c3828233611308565b5050565b6001600160a01b0382166106f557604051633250574960e11b81525f60048201526024015b60405180910390fd5b5f610701838333611315565b9050836001600160a01b0316816001600160a01b03161461074f576040516364283d7b60e01b81526001600160a01b03808616600483015260248201849052821660448201526064016106ec565b50505050565b5f61075f83610a03565b82106107905760405163295f44f760e21b81526001600160a01b0384166004820152602481018390526044016106ec565b506001600160a01b03919091165f908152600660209081526040808320938352929052205490565b6107d283838360405180602001604052805f815250610a85565b505050565b5f6107e160085490565b82106108095760405163295f44f760e21b81525f6004820152602481018390526044016106ec565b6008828154811061081c5761081c612060565b905f5260205f2001549050919050565b60605f61083883610a03565b90505f8167ffffffffffffffff81111561085457610854611d38565b60405190808252806020026020018201604052801561087d578160200160208202803683370190505b5090505f5b828110156108b9576108948582610755565b8282815181106108a6576108a6612060565b6020908102919091010152600101610882565b509392505050565b5f6105fc826112d0565b6001600160a01b0383165f908152600d6020526040902060010154839062010000900460ff166109375760405162461bcd60e51b815260206004820152601760248201527618dbdb1b1958dd1a5bdb881a5cc81b9bdd08195e1a5cdd604a1b60448201526064016106ec565b506001600160a01b039092165f908152600d6020526040902060010180549215156101000261ff00199215159290921661ffff1990931692909217179055565b600b805461098490612028565b80601f01602080910402602001604051908101604052809291908181526020018280546109b090612028565b80156109fb5780601f106109d2576101008083540402835291602001916109fb565b820191905f5260205f20905b8154815290600101906020018083116109de57829003601f168201915b505050505081565b5f6001600160a01b038216610a2d576040516322718ad960e21b81525f60048201526024016106ec565b506001600160a01b03165f9081526003602052604090205490565b610a506113e0565b610a595f61140d565b565b60606001805461061090612028565b6106c333838361145e565b6060610a8033610bf6565b905090565b610a908484846106c7565b61074f33858585856114fc565b6060600b8054610aac90612028565b80601f0160208091040260200160405190810160405280929190818152602001828054610ad890612028565b8015610b235780601f10610afa57610100808354040283529160200191610b23565b820191905f5260205f20905b815481529060010190602001808311610b0657829003601f168201915b50505050509050919050565b5f805b6001600160a01b0384165f908152600d60205260409020548111610bed576001600160a01b0384165f908152600e602090815260408083208484529091529020548310801590610ba757506001600160a01b0384165f908152600e602090815260408083208484529091529020600101548311155b15610bdb576001600160a01b0384165f908152600e60209081526040808320938352929052206002015460ff1690506105fc565b80610be581612088565b915050610b32565b505f9392505050565b60605f610c0283610a03565b90505f8167ffffffffffffffff811115610c1e57610c1e611d38565b604051908082528060200260200182016040528015610c6e57816020015b604080516080810182525f8082526020808301829052928201819052606082015282525f19909201910181610c3c5790505b5090505f5b828110156108b9575f610c868683610755565b5f818152600f6020908152604091829020825160808101845281546001600160a01b031681526001820154928101929092526002015460ff80821693830193909352610100900490911615156060820152845191925090849084908110610cef57610cef612060565b602090810291909101015250600101610c73565b610d0b6113e0565b600c546001600160a01b031615610d505760405162461bcd60e51b81526020600482015260096024820152686f6e6c79206f6e636560b81b60448201526064016106ec565b600c80546001600160a01b0319166001600160a01b0392909216919091179055565b6001600160a01b039182165f90815260056020908152604080832093909416825291909152205460ff1690565b5f815111610de55760405162461bcd60e51b81526020600482015260136024820152721c1b185b881d1e5c195cc81c995c5d5a5c9959606a1b60448201526064016106ec565b5f5b8151811015610f7b57818181518110610e0257610e02612060565b602002602001015160200151828281518110610e2057610e20612060565b60200260200101515f015110610e785760405162461bcd60e51b815260206004820152601e60248201527f656e64206d7573742062652067726561746572207468616e207374617274000060448201526064016106ec565b6001828281518110610e8c57610e8c612060565b60200260200101516040015160ff1610158015610eca57506005828281518110610eb857610eb8612060565b60200260200101516040015160ff1611155b610f0c5760405162461bcd60e51b81526020600482015260136024820152721c1b185b881a5cc81b9bdd0818dbdc9c9958dd606a1b60448201526064016106ec565b818181518110610f1e57610f1e612060565b6020908102919091018101516001600160a01b0386165f908152600e8352604080822085835284529081902082518155928201516001808501919091559101516002909201805460ff191660ff9093169290921790915501610de7565b5060018151610f8a91906120a0565b8252506001600160a01b039091165f908152600d6020908152604091829020835181559083015160019091018054928401516060909401511515620100000262ff0000199415156101000261ff00199315159390931661ffff19909416939093179190911792909216179055565b604080516080810182525f808252602080830185815260ff80891685870190815260608601858152601080548752600f909552968520955186546001600160a01b03919091166001600160a01b031990911617865591516001860155905160029094018054955115156101000261ffff199096169490911693909317939093179091558154909181908361108b83612088565b919050555061109a8482611624565b949350505050565b6110aa6113e0565b6001600160a01b0381166110d357604051631e4fbdf760e01b81525f60048201526024016106ec565b6110dc8161140d565b50565b6001600160a01b0382165f908152600d6020526040902060010154829062010000900460ff1661114b5760405162461bcd60e51b815260206004820152601760248201527618dbdb1b1958dd1a5bdb881a5cc81b9bdd08195e1a5cdd604a1b60448201526064016106ec565b6001600160a01b0383165f908152600d6020526040902060010154610100900460ff166111ba5760405162461bcd60e51b815260206004820152601860248201527f7769746864726177206973206e6f7420656e61626c652021000000000000000060448201526064016106ec565b336111c4836108c1565b6001600160a01b0316146111eb5760405163f78db80b60e01b815260040160405180910390fd5b6111f482611685565b5f828152600f60205260409081902060028101805461ff001916610100179055805460019091015491516323b872dd60e01b815230600482015233602482015260448101929092526001600160a01b0316906323b872dd906064015f604051808303815f87803b158015611266575f5ffd5b505af1158015611278573d5f5f3e3d5ffd5b50505050505050565b5f6001600160e01b031982166380ac58cd60e01b14806112b157506001600160e01b03198216635b5e139f60e01b145b806105fc57506301ffc9a760e01b6001600160e01b03198316146105fc565b5f818152600260205260408120546001600160a01b0316806105fc57604051637e27328960e01b8152600481018490526024016106ec565b6107d283838360016116bd565b5f5f6113228585856117c1565b90506001600160a01b03811661137e5761137984600880545f838152600960205260408120829055600182018355919091527ff3f7a9fe364faab93b216da50a3214154f22a0a2b415b23a84c8169e8b636ee30155565b6113a1565b846001600160a01b0316816001600160a01b0316146113a1576113a181856118b3565b6001600160a01b0385166113bd576113b884611930565b61109a565b846001600160a01b0316816001600160a01b03161461109a5761109a85856119d7565b600a546001600160a01b03163314610a595760405163118cdaa760e01b81523360048201526024016106ec565b600a80546001600160a01b038381166001600160a01b0319831681179093556040519116919082907f8be0079c531659141344cd1fd0a4f28419497f9722a3daafe3b4186f6b6457e0905f90a35050565b6001600160a01b03821661149057604051630b61174360e31b81526001600160a01b03831660048201526024016106ec565b6001600160a01b038381165f81815260056020908152604080832094871680845294825291829020805460ff191686151590811790915591519182527f17307eab39ab6107e8899845ad3d59bd9653f200f220920489ca2b5937696c31910160405180910390a3505050565b6001600160a01b0383163b1561161d57604051630a85bd0160e11b81526001600160a01b0384169063150b7a029061153e9088908890879087906004016120b3565b6020604051808303815f875af1925050508015611578575060408051601f3d908101601f19168201909252611575918101906120ef565b60015b6115df573d8080156115a5576040519150601f19603f3d011682016040523d82523d5f602084013e6115aa565b606091505b5080515f036115d757604051633250574960e11b81526001600160a01b03851660048201526024016106ec565b805160208201fd5b6001600160e01b03198116630a85bd0160e11b1461161b57604051633250574960e11b81526001600160a01b03851660048201526024016106ec565b505b5050505050565b6001600160a01b03821661164d57604051633250574960e11b81525f60048201526024016106ec565b5f61165983835f611315565b90506001600160a01b038116156107d2576040516339e3563760e11b81525f60048201526024016106ec565b5f6116915f835f611315565b90506001600160a01b0381166106c357604051637e27328960e01b8152600481018390526024016106ec565b80806116d157506001600160a01b03821615155b15611792575f6116e0846112d0565b90506001600160a01b0383161580159061170c5750826001600160a01b0316816001600160a01b031614155b801561171f575061171d8184610d72565b155b156117485760405163a9fbf51f60e01b81526001600160a01b03841660048201526024016106ec565b81156117905783856001600160a01b0316826001600160a01b03167f8c5be1e5ebec7d5bd14f71427d1e84f3dd0314c0f7b2291e5b200ac8c7c3b92560405160405180910390a45b505b50505f90815260046020526040902080546001600160a01b0319166001600160a01b0392909216919091179055565b5f828152600260205260408120546001600160a01b03908116908316156117ed576117ed818486611a25565b6001600160a01b03811615611827576118085f855f5f6116bd565b6001600160a01b0381165f90815260036020526040902080545f190190555b6001600160a01b03851615611855576001600160a01b0385165f908152600360205260409020805460010190555b5f8481526002602052604080822080546001600160a01b0319166001600160a01b0389811691821790925591518793918516917fddf252ad1be2c89b69c2b068fc378daa952ba7f163c4a11628f55a4df523b3ef91a4949350505050565b5f6118bd83610a03565b5f838152600760209081526040808320546001600160a01b0388168452600690925290912091925090818314611912575f83815260208281526040808320548584528184208190558352600790915290208290555b5f938452600760209081526040808620869055938552525081205550565b6008545f90611941906001906120a0565b5f838152600960205260408120546008805493945090928490811061196857611968612060565b905f5260205f2001549050806008838154811061198757611987612060565b5f9182526020808320909101929092558281526009909152604080822084905585825281205560088054806119be576119be61210a565b600190038181905f5260205f20015f9055905550505050565b5f60016119e384610a03565b6119ed91906120a0565b6001600160a01b039093165f908152600660209081526040808320868452825280832085905593825260079052919091209190915550565b611a30838383611a89565b6107d2576001600160a01b038316611a5e57604051637e27328960e01b8152600481018290526024016106ec565b60405163177e802f60e01b81526001600160a01b0383166004820152602481018290526044016106ec565b5f6001600160a01b0383161580159061109a5750826001600160a01b0316846001600160a01b03161480611ac25750611ac28484610d72565b8061109a5750505f908152600460205260409020546001600160a01b03908116911614919050565b6001600160e01b0319811681146110dc575f5ffd5b5f60208284031215611b0f575f5ffd5b8135611b1a81611aea565b9392505050565b5f81518084528060208401602086015e5f602082860101526020601f19601f83011685010191505092915050565b602081525f611b1a6020830184611b21565b5f60208284031215611b71575f5ffd5b5035919050565b80356001600160a01b0381168114611b8e575f5ffd5b919050565b5f5f60408385031215611ba4575f5ffd5b611bad83611b78565b946020939093013593505050565b5f5f5f60608486031215611bcd575f5ffd5b611bd684611b78565b9250611be460208501611b78565b929592945050506040919091013590565b5f60208284031215611c05575f5ffd5b611b1a82611b78565b602080825282518282018190525f918401906040840190835b81811015611c45578351835260209384019390920191600101611c27565b509095945050505050565b80358015158114611b8e575f5ffd5b5f5f5f60608486031215611c71575f5ffd5b611c7a84611b78565b9250611c8860208501611c50565b9150611c9660408501611c50565b90509250925092565b5f5f60408385031215611cb0575f5ffd5b611cb983611b78565b9150611cc760208401611c50565b90509250929050565b602080825282518282018190525f918401906040840190835b81811015611c4557835180516001600160a01b031684526020808201518186015260408083015160ff169086015260609182015115159185019190915290930192608090920191600101611ce9565b634e487b7160e01b5f52604160045260245ffd5b6040516080810167ffffffffffffffff81118282101715611d6f57611d6f611d38565b60405290565b6040516060810167ffffffffffffffff81118282101715611d6f57611d6f611d38565b604051601f8201601f1916810167ffffffffffffffff81118282101715611dc157611dc1611d38565b604052919050565b5f5f5f5f60808587031215611ddc575f5ffd5b611de585611b78565b9350611df360208601611b78565b925060408501359150606085013567ffffffffffffffff811115611e15575f5ffd5b8501601f81018713611e25575f5ffd5b803567ffffffffffffffff811115611e3f57611e3f611d38565b611e52601f8201601f1916602001611d98565b818152886020838501011115611e66575f5ffd5b816020840160208301375f6020838301015280935050505092959194509250565b5f5f60408385031215611e98575f5ffd5b611ea183611b78565b9150611cc760208401611b78565b803560ff81168114611b8e575f5ffd5b5f5f5f83850360c0811215611ed2575f5ffd5b611edb85611b78565b93506080601f1982011215611eee575f5ffd5b50611ef7611d4c565b60208501358152611f0a60408601611c50565b6020820152611f1b60608601611c50565b6040820152611f2c60808601611c50565b6060820152915060a084013567ffffffffffffffff811115611f4c575f5ffd5b8401601f81018613611f5c575f5ffd5b803567ffffffffffffffff811115611f7657611f76611d38565b611f8560208260051b01611d98565b80828252602082019150602060608402850101925088831115611fa6575f5ffd5b6020840193505b82841015611fff576060848a031215611fc4575f5ffd5b611fcc611d75565b8435815260208086013590820152611fe660408601611eaf565b6040820152825260609390930192602090910190611fad565b809450505050509250925092565b5f5f5f6060848603121561201f575f5ffd5b611bd684611eaf565b600181811c9082168061203c57607f821691505b60208210810361205a57634e487b7160e01b5f52602260045260245ffd5b50919050565b634e487b7160e01b5f52603260045260245ffd5b634e487b7160e01b5f52601160045260245ffd5b5f6001820161209957612099612074565b5060010190565b818103818111156105fc576105fc612074565b6001600160a01b03858116825284166020820152604081018390526080606082018190525f906120e590830184611b21565b9695505050505050565b5f602082840312156120ff575f5ffd5b8151611b1a81611aea565b634e487b7160e01b5f52603160045260245ffdfea2646970667358221220b0e07959c2e78ff7288b2652b609669e26ba1cdcdc5cb81d6a7f5e3c0cb2158a64736f6c634300081c0033",
  "linkReferences": {},
  "deployedLinkReferences": {},
  "immutableReferences": {},
  "inputSourceName": "project/contracts/mock/old-contracts/Wrapper.sol",
  "buildInfoId": "solc-0_8_28-4119e259d88d0aaccff84742a80409d37dee42fc"
}