{
  "_format": "hh3-artifact-1",
  "contractName": "MultiAssetVault",
  "sourceName": "contracts/vault/Vault.sol",
  "abi": [
    {
      "inputs": [
        {
          "components": [
            {
              "internalType": "address",
              "name": "dai",
              "type": "address"
            },
            {
              "internalType": "address",
              "name": "paxg",
              "type": "address"
            },
            {
              "internalType": "address",
              "name": "wbtc",
              "type": "address"
            },
            {
              "internalType": "address",
              "name": "usdc",
              "type": "address"
            },
            {
              "internalType": "address",
              "name": "dnm",
              "type": "address"
            },
            {
              "internalType": "address",
              "name": "priceFeed",
              "type": "address"
            },
            {
              "internalType": "address",
              "name": "uniswapRouter",
              "type": "address"
            },
            {
              "internalType": "address",
              "name": "uniswapQuoter",
              "type": "address"
            },
            {
              "internalType": "address",
              "name": "admin1",
              "type": "address"
            },
            {
              "internalType": "address",
              "name": "admin2",
              "type": "address"
            },
            {
              "internalType": "address",
              "name": "admin3",
              "type": "address"
            },
            {
              "internalType": "address",
              "name": "feeReceiver",
              "type": "address"
            }
          ],
          "internalType": "struct VaultStorage.InitParams",
          "name": "params",
          "type": "tuple"
        }
      ],
      "stateMutability": "nonpayable",
      "type": "constructor"
    },
    {
      "inputs": [],
      "name": "EnforcedPause",
      "type": "error"
    },
    {
      "inputs": [],
      "name": "ExpectedPause",
      "type": "error"
    },
    {
      "inputs": [],
      "name": "ReentrancyGuardReentrantCall",
      "type": "error"
    },
    {
      "inputs": [
        {
          "internalType": "address",
          "name": "token",
          "type": "address"
        }
      ],
      "name": "SafeERC20FailedOperation",
      "type": "error"
    },
    {
      "anonymous": false,
      "inputs": [
        {
          "indexed": false,
          "internalType": "address",
          "name": "account",
          "type": "address"
        }
      ],
      "name": "Paused",
      "type": "event"
    },
    {
      "anonymous": false,
      "inputs": [
        {
          "indexed": false,
          "internalType": "address",
          "name": "account",
          "type": "address"
        }
      ],
      "name": "Unpaused",
      "type": "event"
    },
    {
      "inputs": [],
      "name": "ALLOCATION_DAI",
      "outputs": [
        {
          "internalType": "uint256",
          "name": "",
          "type": "uint256"
        }
      ],
      "stateMutability": "view",
      "type": "function"
    },
    {
      "inputs": [],
      "name": "ALLOCATION_PAXG",
      "outputs": [
        {
          "internalType": "uint256",
          "name": "",
          "type": "uint256"
        }
      ],
      "stateMutability": "view",
      "type": "function"
    },
    {
      "inputs": [],
      "name": "ALLOCATION_WBTC",
      "outputs": [
        {
          "internalType": "uint256",
          "name": "",
          "type": "uint256"
        }
      ],
      "stateMutability": "view",
      "type": "function"
    },
    {
      "inputs": [],
      "name": "BPS_DENOMINATOR",
      "outputs": [
        {
          "internalType": "uint256",
          "name": "",
          "type": "uint256"
        }
      ],
      "stateMutability": "view",
      "type": "function"
    },
    {
      "inputs": [],
      "name": "DAI",
      "outputs": [
        {
          "internalType": "address",
          "name": "",
          "type": "address"
        }
      ],
      "stateMutability": "view",
      "type": "function"
    },
    {
      "inputs": [],
      "name": "DNM",
      "outputs": [
        {
          "internalType": "address",
          "name": "",
          "type": "address"
        }
      ],
      "stateMutability": "view",
      "type": "function"
    },
    {
      "inputs": [],
      "name": "FEE_RECEIVER",
      "outputs": [
        {
          "internalType": "address",
          "name": "",
          "type": "address"
        }
      ],
      "stateMutability": "view",
      "type": "function"
    },
    {
      "inputs": [],
      "name": "PAXG",
      "outputs": [
        {
          "internalType": "address",
          "name": "",
          "type": "address"
        }
      ],
      "stateMutability": "view",
      "type": "function"
    },
    {
      "inputs": [],
      "name": "REDEEM_FEE_BPS",
      "outputs": [
        {
          "internalType": "uint256",
          "name": "",
          "type": "uint256"
        }
      ],
      "stateMutability": "view",
      "type": "function"
    },
    {
      "inputs": [],
      "name": "USDC",
      "outputs": [
        {
          "internalType": "address",
          "name": "",
          "type": "address"
        }
      ],
      "stateMutability": "view",
      "type": "function"
    },
    {
      "inputs": [],
      "name": "WBTC",
      "outputs": [
        {
          "internalType": "address",
          "name": "",
          "type": "address"
        }
      ],
      "stateMutability": "view",
      "type": "function"
    },
    {
      "inputs": [],
      "name": "WITHDRAWAL_DELAY",
      "outputs": [
        {
          "internalType": "uint256",
          "name": "",
          "type": "uint256"
        }
      ],
      "stateMutability": "view",
      "type": "function"
    },
    {
      "inputs": [],
      "name": "coreContract",
      "outputs": [
        {
          "internalType": "address",
          "name": "",
          "type": "address"
        }
      ],
      "stateMutability": "view",
      "type": "function"
    },
    {
      "inputs": [
        {
          "internalType": "uint256",
          "name": "amountToDeposit",
          "type": "uint256"
        }
      ],
      "name": "deposit",
      "outputs": [],
      "stateMutability": "nonpayable",
      "type": "function"
    },
    {
      "inputs": [],
      "name": "emergencyWithdraw",
      "outputs": [],
      "stateMutability": "nonpayable",
      "type": "function"
    },
    {
      "inputs": [],
      "name": "getPrice",
      "outputs": [
        {
          "internalType": "uint256",
          "name": "dnmPrice",
          "type": "uint256"
        }
      ],
      "stateMutability": "view",
      "type": "function"
    },
    {
      "inputs": [
        {
          "internalType": "address",
          "name": "",
          "type": "address"
        }
      ],
      "name": "isAdmin",
      "outputs": [
        {
          "internalType": "bool",
          "name": "",
          "type": "bool"
        }
      ],
      "stateMutability": "view",
      "type": "function"
    },
    {
      "inputs": [],
      "name": "pause",
      "outputs": [],
      "stateMutability": "nonpayable",
      "type": "function"
    },
    {
      "inputs": [],
      "name": "paused",
      "outputs": [
        {
          "internalType": "bool",
          "name": "",
          "type": "bool"
        }
      ],
      "stateMutability": "view",
      "type": "function"
    },
    {
      "inputs": [
        {
          "internalType": "uint256",
          "name": "amount",
          "type": "uint256"
        }
      ],
      "name": "redeem",
      "outputs": [],
      "stateMutability": "nonpayable",
      "type": "function"
    },
    {
      "inputs": [
        {
          "internalType": "address",
          "name": "coreAddr",
          "type": "address"
        }
      ],
      "name": "setCoreAddress",
      "outputs": [],
      "stateMutability": "nonpayable",
      "type": "function"
    },
    {
      "inputs": [],
      "name": "unpause",
      "outputs": [],
      "stateMutability": "nonpayable",
      "type": "function"
    },
    {
      "inputs": [],
      "name": "withdrawalEnabledTimestamp",
      "outputs": [
        {
          "internalType": "uint256",
          "name": "",
          "type": "uint256"
        }
      ],
      "stateMutability": "view",
      "type": "function"
    },
    {
      "inputs": [
        {
          "internalType": "uint256",
          "name": "amount",
          "type": "uint256"
        }
      ],
      "name": "withdrawDai",
      "outputs": [],
      "stateMutability": "nonpayable",
      "type": "function"
    }
  ],
  "bytecode": "0x610200604052601e610120819052610140526028610160526276a7006101805261012c6101a0526127106101c08190526064600255600355610258600455600780546001600160a01b03167e0bb80001f4000064000bb80000000000000000000000000000000000000000179055348015610078575f5ffd5b506040516131e33803806131e38339810160408190526100979161023e565b6001805580516001600160a01b0390811660809081526020830151821660a09081526040840151831660c09081526060850151841660e090815292850151841661010090815291850151600780549186166001600160a01b031992831617905590850151600580549186169183169190911790559184015160068054918516919093161790915561016083015182166101e0528201518291161561015d576101008101516001600160a01b03165f908152600960205260409020805460ff191660011790555b6101208101516001600160a01b031615610199576101208101516001600160a01b03165f908152600960205260409020805460ff191660011790555b6101408101516001600160a01b0316156101d5576101408101516001600160a01b03165f908152600960205260409020805460ff191660011790555b610180516101e3904261032e565b600a55506103539050565b60405161018081016001600160401b038111828210171561021d57634e487b7160e01b5f52604160045260245ffd5b60405290565b80516001600160a01b0381168114610239575f5ffd5b919050565b5f610180828403128015610250575f5ffd5b506102596101ee565b61026283610223565b815261027060208401610223565b602082015261028160408401610223565b604082015261029260608401610223565b60608201526102a360808401610223565b60808201526102b460a08401610223565b60a08201526102c560c08401610223565b60c08201526102d660e08401610223565b60e08201526102e86101008401610223565b6101008201526102fb6101208401610223565b61012082015261030e6101408401610223565b6101408201526103216101608401610223565b6101608201529392505050565b8082018082111561034d57634e487b7160e01b5f52601160045260245ffd5b92915050565b60805160a05160c05160e05161010051610120516101405161016051610180516101a0516101c0516101e051612ca861053b5f395f818161036b015261108901525f81816103e70152610feb01525f8181610207015261100f01525f61015c01525f6102e601525f818161029801526108a501525f818161022e015261086c01525f81816101c8015281816116240152611fe001525f81816102bf015281816117e10152818161188d015281816119c101528181611dad015281816121190152818161217201526122d901525f818161025f0152818161090701528181610b2001528181610b9001528181610dc201528181610f1e0152818161126c015281816112ec0152818161146901526127e301525f8181610328015281816108dc01528181610a5401528181610acc01528181610d3701528181610eed015281816111b101528181611231015281816113de015261283001525f81816103c00152818161054a015281816105f3015281816109a101528181610ca401528181610f5b0152818161105a015281816110ab015281816110f60152818161117601528181611353015281816117b30152818161183a0152818161196e01528181611c3001528181611c5b01528181611d5a0152818161203d015281816121c5015261232d0152612ca85ff3fe608060405234801561000f575f5ffd5b5060043610610153575f3560e01c806391aad239116100bf578063d5c4d1e411610079578063d5c4d1e41461038d578063db006a75146103a0578063db2e21bc146103b3578063e0bab4c4146103bb578063e1a45218146103e2578063e80db5db14610409575f5ffd5b806391aad2391461030857806398d5fdca1461031b5780639ca6da2e14610323578063b6b55f251461034a578063b9386d331461035d578063d3e78e4d14610366575f5ffd5b80634dede3de116101105780634dede3de1461025a5780635c975abb146102815780638456cb591461028b5780638876cd9b1461029357806389a30271146102ba57806389fc9ce1146102e1575f5ffd5b80630ebb172a1461015757806324d7806c146101915780632f3d2fa2146101c357806338fd6bdb146102025780633c3a02b7146102295780633f4ba83a14610250575b5f5ffd5b61017e7f000000000000000000000000000000000000000000000000000000000000000081565b6040519081526020015b60405180910390f35b6101b361019f3660046128ee565b60096020525f908152604090205460ff1681565b6040519015158152602001610188565b6101ea7f000000000000000000000000000000000000000000000000000000000000000081565b6040516001600160a01b039091168152602001610188565b61017e7f000000000000000000000000000000000000000000000000000000000000000081565b61017e7f000000000000000000000000000000000000000000000000000000000000000081565b61025861041c565b005b6101ea7f000000000000000000000000000000000000000000000000000000000000000081565b5f5460ff166101b3565b61025861042f565b61017e7f000000000000000000000000000000000000000000000000000000000000000081565b6101ea7f000000000000000000000000000000000000000000000000000000000000000081565b61017e7f000000000000000000000000000000000000000000000000000000000000000081565b6102586103163660046128ee565b610440565b61017e6104d5565b6101ea7f000000000000000000000000000000000000000000000000000000000000000081565b610258610358366004612910565b6104e3565b61017e600a5481565b6101ea7f000000000000000000000000000000000000000000000000000000000000000081565b61025861039b366004612910565b610583565b6102586103ae366004612910565b610617565b610258610631565b6101ea7f000000000000000000000000000000000000000000000000000000000000000081565b61017e7f000000000000000000000000000000000000000000000000000000000000000081565b6008546101ea906001600160a01b031681565b610425336106b1565b61042d61071d565b565b610438336106b1565b61042d61076e565b610449336106b1565b6008546001600160a01b0316156104b35760405162461bcd60e51b8152602060048201526024808201527f436f726520636f6e7472616374206164647265737320697320616c7265616479604482015263081cd95d60e21b60648201526084015b60405180910390fd5b600880546001600160a01b0319166001600160a01b0392909216919091179055565b5f6104de6107aa565b905090565b6104eb6107fc565b6104f3610826565b5f81116105425760405162461bcd60e51b815260206004820152601a60248201527f4465706f73697420616d6f756e74206d757374206265203e203000000000000060448201526064016104aa565b61056e3330837f0000000000000000000000000000000000000000000000000000000000000000610849565b61057781610864565b61058060018055565b50565b61058c3361092d565b610594610826565b5f81116105e35760405162461bcd60e51b815260206004820152601d60248201527f5769746864726177616c20616d6f756e74206d757374206265203e203000000060448201526064016104aa565b6105ec8161098a565b61058033827f0000000000000000000000000000000000000000000000000000000000000000610bc1565b61061f6107fc565b610627610826565b6105773382610bda565b61063a336106b1565b600a544210156106a85760405162461bcd60e51b815260206004820152603360248201527f456d657267656e6379207769746864726177616c207265737472696374656420604482015272191d5c9a5b99c819dc9858d9481c195c9a5bd9606a1b60648201526084016104aa565b61042d336110df565b6001600160a01b0381165f9081526009602052604090205460ff1615156001146105805760405162461bcd60e51b815260206004820152601960248201527f4e6f7420617574686f72697a65643a206e6f742061646d696e0000000000000060448201526064016104aa565b610725611310565b5f805460ff191690557f5db9ee0a495bf2e6ff9c91a7834c1ba4fdd244a5e8aa4e537bd38aeae4b073aa335b6040516001600160a01b03909116815260200160405180910390a1565b610776610826565b5f805460ff191660011790557f62e78cea01bee320cd4e420270b5ea74000d11b0c9f74754ebdbfc544b05a2586107513390565b5f5f6107b4611332565b90505f6107bf611621565b9050805f036107d857670de0b6b3a76400009250505090565b806107eb83670de0b6b3a764000061293b565b6107f59190612952565b9250505090565b60026001540361081f57604051633ee5aeb560e01b815260040160405180910390fd5b6002600155565b5f5460ff161561042d5760405163d93c066560e01b815260040160405180910390fd5b61085e6001600160a01b0382168585856116a2565b50505050565b5f60646108917f00000000000000000000000000000000000000000000000000000000000000008461293b565b61089b9190612952565b90505f60646108ca7f00000000000000000000000000000000000000000000000000000000000000008561293b565b6108d49190612952565b9050306109027f00000000000000000000000000000000000000000000000000000000000000008483611709565b61085e7f00000000000000000000000000000000000000000000000000000000000000008383611709565b6008546001600160a01b038281169116146105805760405162461bcd60e51b815260206004820152601860248201527f4e6f7420617574686f72697a65643a206e6f7420636f7265000000000000000060448201526064016104aa565b6040516370a0823160e01b81523060048201525f907f00000000000000000000000000000000000000000000000000000000000000006001600160a01b0316906370a0823190602401602060405180830381865afa1580156109ee573d5f5f3e3d5ffd5b505050506040513d601f19601f82011682018060405250810190610a129190612971565b9050818110610a1f575050565b5f610a2a8284612988565b90505f610a38600283612952565b6040516370a0823160e01b815230600482018190529192505f907f00000000000000000000000000000000000000000000000000000000000000006001600160a01b0316906370a0823190602401602060405180830381865afa158015610aa1573d5f5f3e3d5ffd5b505050506040513d601f19601f82011682018060405250810190610ac59190612971565b9050610af37f0000000000000000000000000000000000000000000000000000000000000000848385611c59565b5f610afe8486612988565b6040516370a0823160e01b81523060048201529091505f906001600160a01b037f000000000000000000000000000000000000000000000000000000000000000016906370a0823190602401602060405180830381865afa158015610b65573d5f5f3e3d5ffd5b505050506040513d601f19601f82011682018060405250810190610b899190612971565b9050610bb77f0000000000000000000000000000000000000000000000000000000000000000838387611c59565b5050505050505050565b610bd56001600160a01b0382168484611f89565b505050565b5f8111610c295760405162461bcd60e51b815260206004820152601960248201527f52656465656d20616d6f756e74206d757374206265203e20300000000000000060448201526064016104aa565b5f610c32611621565b90505f8111610c8d5760405162461bcd60e51b815260206004820152602160248201527f43616e6e6f742072656465656d2066726f6d20616e20656d707479207661756c6044820152601d60fa1b60648201526084016104aa565b6040516370a0823160e01b81523060048201525f907f00000000000000000000000000000000000000000000000000000000000000006001600160a01b0316906370a0823190602401602060405180830381865afa158015610cf1573d5f5f3e3d5ffd5b505050506040513d601f19601f82011682018060405250810190610d159190612971565b6040516370a0823160e01b81523060048201529091505f906001600160a01b037f000000000000000000000000000000000000000000000000000000000000000016906370a0823190602401602060405180830381865afa158015610d7c573d5f5f3e3d5ffd5b505050506040513d601f19601f82011682018060405250810190610da09190612971565b6040516370a0823160e01b81523060048201529091505f906001600160a01b037f000000000000000000000000000000000000000000000000000000000000000016906370a0823190602401602060405180830381865afa158015610e07573d5f5f3e3d5ffd5b505050506040513d601f19601f82011682018060405250810190610e2b9190612971565b90505f84610e39878661293b565b610e439190612952565b90505f85610e51888661293b565b610e5b9190612952565b90505f86610e69898661293b565b610e739190612952565b90505f831180610e8257505f82115b80610e8c57505f81115b610ed85760405162461bcd60e51b815260206004820152601c60248201527f526564656d7074696f6e207969656c6473207a65726f2076616c75650000000060448201526064016104aa565b610ee28989611fba565b8115610f1357610f137f0000000000000000000000000000000000000000000000000000000000000000833061203b565b8015610f4457610f447f0000000000000000000000000000000000000000000000000000000000000000823061203b565b6040516370a0823160e01b81523060048201525f907f00000000000000000000000000000000000000000000000000000000000000006001600160a01b0316906370a0823190602401602060405180830381865afa158015610fa8573d5f5f3e3d5ffd5b505050506040513d601f19601f82011682018060405250810190610fcc9190612971565b90505f610fd98883612988565b90505f610fe6828761299b565b90505f7f00000000000000000000000000000000000000000000000000000000000000006110347f00000000000000000000000000000000000000000000000000000000000000008461293b565b61103e9190612952565b90505f61104b8284612988565b9050801561107e5761107e8e827f0000000000000000000000000000000000000000000000000000000000000000610bc1565b81156110cf576110cf7f0000000000000000000000000000000000000000000000000000000000000000837f0000000000000000000000000000000000000000000000000000000000000000610bc1565b5050505050505050505050505050565b6040516370a0823160e01b81523060048201525f907f00000000000000000000000000000000000000000000000000000000000000006001600160a01b0316906370a0823190602401602060405180830381865afa158015611143573d5f5f3e3d5ffd5b505050506040513d601f19601f820116820180604052508101906111679190612971565b9050801561119a5761119a82827f0000000000000000000000000000000000000000000000000000000000000000610bc1565b6040516370a0823160e01b81523060048201525f907f00000000000000000000000000000000000000000000000000000000000000006001600160a01b0316906370a0823190602401602060405180830381865afa1580156111fe573d5f5f3e3d5ffd5b505050506040513d601f19601f820116820180604052508101906112229190612971565b905080156112555761125583827f0000000000000000000000000000000000000000000000000000000000000000610bc1565b6040516370a0823160e01b81523060048201525f907f00000000000000000000000000000000000000000000000000000000000000006001600160a01b0316906370a0823190602401602060405180830381865afa1580156112b9573d5f5f3e3d5ffd5b505050506040513d601f19601f820116820180604052508101906112dd9190612971565b9050801561085e5761085e84827f0000000000000000000000000000000000000000000000000000000000000000610bc1565b5f5460ff1661042d57604051638dfc202b60e01b815260040160405180910390fd5b6040516370a0823160e01b81523060048201525f9081906001600160a01b037f000000000000000000000000000000000000000000000000000000000000000016906370a0823190602401602060405180830381865afa158015611398573d5f5f3e3d5ffd5b505050506040513d601f19601f820116820180604052508101906113bc9190612971565b6040516370a0823160e01b81523060048201529091505f906001600160a01b037f000000000000000000000000000000000000000000000000000000000000000016906370a0823190602401602060405180830381865afa158015611423573d5f5f3e3d5ffd5b505050506040513d601f19601f820116820180604052508101906114479190612971565b6040516370a0823160e01b81523060048201529091505f906001600160a01b037f000000000000000000000000000000000000000000000000000000000000000016906370a0823190602401602060405180830381865afa1580156114ae573d5f5f3e3d5ffd5b505050506040513d601f19601f820116820180604052508101906114d29190612971565b90505f60075f9054906101000a90046001600160a01b03166001600160a01b031663eab87a196040518163ffffffff1660e01b8152600401602060405180830381865afa158015611525573d5f5f3e3d5ffd5b505050506040513d601f19601f820116820180604052508101906115499190612971565b90505f60075f9054906101000a90046001600160a01b03166001600160a01b031663583f2fe36040518163ffffffff1660e01b8152600401602060405180830381865afa15801561159c573d5f5f3e3d5ffd5b505050506040513d601f19601f820116820180604052508101906115c09190612971565b9050849550670de0b6b3a764000082856115da919061293b565b6115e49190612952565b6115ee908761299b565b9550670de0b6b3a7640000611603828561293b565b61160d9190612952565b611617908761299b565b9550505050505090565b5f7f00000000000000000000000000000000000000000000000000000000000000006001600160a01b03166318160ddd6040518163ffffffff1660e01b8152600401602060405180830381865afa15801561167e573d5f5f3e3d5ffd5b505050506040513d601f19601f820116820180604052508101906104de9190612971565b6040516001600160a01b03848116602483015283811660448301526064820183905261085e9186918216906323b872dd906084015b604051602081830303815290604052915060e01b6020820180516001600160e01b03838183161783525050505061256a565b5f82116117475760405162461bcd60e51b815260206004820152600c60248201526b0416d6f756e74496e203e20360a41b60448201526064016104aa565b6001600160a01b0383166117905760405162461bcd60e51b815260206004820152601060248201526f125b9d985b1a59081d1bdad95b93dd5d60821b60448201526064016104aa565b5f6004544261179f919061299b565b6005549091506117dc906001600160a01b037f000000000000000000000000000000000000000000000000000000000000000081169116856125d6565b60605f7f00000000000000000000000000000000000000000000000000000000000000006001600160a01b0316866001600160a01b03160361194a576040805160028082526060820183525f926020830190803683370190505090507f0000000000000000000000000000000000000000000000000000000000000000815f8151811061186b5761186b6129c2565b60200260200101906001600160a01b031690816001600160a01b0316815250507f0000000000000000000000000000000000000000000000000000000000000000816001815181106118bf576118bf6129c2565b6001600160a01b0392909216602092830291909101909101526040805160018082528183019092525f91816020016020820280368337019050509050600760179054906101000a900462ffffff16815f8151811061191f5761191f6129c2565b602002602001019062ffffff16908162ffffff16815250506119418282612665565b93505050611ae0565b604080516003808252608082019092525f91602082016060803683370190505090507f0000000000000000000000000000000000000000000000000000000000000000815f8151811061199f5761199f6129c2565b60200260200101906001600160a01b031690816001600160a01b0316815250507f0000000000000000000000000000000000000000000000000000000000000000816001815181106119f3576119f36129c2565b60200260200101906001600160a01b031690816001600160a01b0316815250508681600281518110611a2757611a276129c2565b6001600160a01b03929092166020928302919091018201526040805160028082526060820183525f939192909183019080368337019050509050600760179054906101000a900462ffffff16815f81518110611a8557611a856129c2565b602002602001019062ffffff16908162ffffff1681525050611aa6886127e0565b81600181518110611ab957611ab96129c2565b602002602001019062ffffff16908162ffffff1681525050611adb8282612665565b935050505b60065460405163cdca175360e01b81526001600160a01b039091169063cdca175390611b129085908990600401612a04565b5f604051808303815f875af1158015611b2d573d5f5f3e3d5ffd5b505050506040513d5f823e601f3d908101601f19168201604052611b549190810190612af4565b50506003546002549293505f92909150611b6e9082612988565b611b78908461293b565b611b829190612952565b6040805160a0810182528581526001600160a01b038089166020830152818301889052606082018a905260808201849052600554925163c04b8d5960e01b8152939450909291169063c04b8d5990611bde908490600401612c1c565b6020604051808303815f875af1158015611bfa573d5f5f3e3d5ffd5b505050506040513d601f19601f82011682018060405250810190611c1e9190612971565b50600554610bb7906001600160a01b037f0000000000000000000000000000000000000000000000000000000000000000811691165f6125d6565b7f00000000000000000000000000000000000000000000000000000000000000006001600160a01b0316846001600160a01b031603611cc85760405162461bcd60e51b815260206004820152600b60248201526a416c72656164792044414960a81b60448201526064016104aa565b5f8311611d075760405162461bcd60e51b815260206004820152600d60248201526c0416d6f756e744f7574203e203609c1b60448201526064016104aa565b5f60045442611d16919061299b565b600554909150611d33906001600160a01b038781169116856125d6565b604080516003808252608082019092526060915f91906020820184803683370190505090507f0000000000000000000000000000000000000000000000000000000000000000815f81518110611d8b57611d8b6129c2565b60200260200101906001600160a01b031690816001600160a01b0316815250507f000000000000000000000000000000000000000000000000000000000000000081600181518110611ddf57611ddf6129c2565b60200260200101906001600160a01b031690816001600160a01b0316815250508681600281518110611e1357611e136129c2565b6001600160a01b03929092166020928302919091018201526040805160028082526060820183525f939192909183019080368337019050509050600760179054906101000a900462ffffff16815f81518110611e7157611e716129c2565b602002602001019062ffffff16908162ffffff1681525050611e92886127e0565b81600181518110611ea557611ea56129c2565b602002602001019062ffffff16908162ffffff1681525050611ec78282612665565b6040805160a0810182528281526001600160a01b038089166020830152818301889052606082018b9052608082018a90526005549251631e51809360e31b8152939650909291169063f28c049890611f23908490600401612c1c565b6020604051808303815f875af1158015611f3f573d5f5f3e3d5ffd5b505050506040513d601f19601f82011682018060405250810190611f639190612971565b50600554611f7e906001600160a01b038b811691165f6125d6565b505050505050505050565b6040516001600160a01b03838116602483015260448201839052610bd591859182169063a9059cbb906064016116d7565b60405163079cc67960e41b81526001600160a01b038381166004830152602482018390527f000000000000000000000000000000000000000000000000000000000000000016906379cc6790906044015f604051808303815f87803b158015612021575f5ffd5b505af1158015612033573d5f5f3e3d5ffd5b505050505050565b7f00000000000000000000000000000000000000000000000000000000000000006001600160a01b0316836001600160a01b0316036120aa5760405162461bcd60e51b815260206004820152600b60248201526a416c72656164792044414960a81b60448201526064016104aa565b5f82116120e85760405162461bcd60e51b815260206004820152600c60248201526b0416d6f756e74496e203e20360a41b60448201526064016104aa565b5f600454426120f7919061299b565b600554909150612114906001600160a01b038681169116856125d6565b60605f7f00000000000000000000000000000000000000000000000000000000000000006001600160a01b0316866001600160a01b031603612282576040805160028082526060820183525f926020830190803683370190505090507f0000000000000000000000000000000000000000000000000000000000000000815f815181106121a3576121a36129c2565b60200260200101906001600160a01b031690816001600160a01b0316815250507f0000000000000000000000000000000000000000000000000000000000000000816001815181106121f7576121f76129c2565b6001600160a01b0392909216602092830291909101909101526040805160018082528183019092525f91816020016020820280368337019050509050600760179054906101000a900462ffffff16815f81518110612257576122576129c2565b602002602001019062ffffff16908162ffffff16815250506122798282612665565b93505050612411565b604080516003808252608082019092525f916020820160608036833701905050905086815f815181106122b7576122b76129c2565b60200260200101906001600160a01b031690816001600160a01b0316815250507f00000000000000000000000000000000000000000000000000000000000000008160018151811061230b5761230b6129c2565b60200260200101906001600160a01b031690816001600160a01b0316815250507f00000000000000000000000000000000000000000000000000000000000000008160028151811061235f5761235f6129c2565b6001600160a01b03929092166020928302919091018201526040805160028082526060820183525f9391929091830190803683370190505090506123a2886127e0565b815f815181106123b4576123b46129c2565b62ffffff92831660209182029290920101526007548251600160b81b90910490911690829060019081106123ea576123ea6129c2565b602002602001019062ffffff16908162ffffff168152505061240c8282612665565b935050505b60065460405163cdca175360e01b81526001600160a01b039091169063cdca1753906124439085908990600401612a04565b5f604051808303815f875af115801561245e573d5f5f3e3d5ffd5b505050506040513d5f823e601f3d908101601f191682016040526124859190810190612af4565b50506003546002549293505f9290915061249f9082612988565b6124a9908461293b565b6124b39190612952565b6040805160a0810182528581526001600160a01b038089166020830152818301889052606082018a905260808201849052600554925163c04b8d5960e01b8152939450909291169063c04b8d599061250f908490600401612c1c565b6020604051808303815f875af115801561252b573d5f5f3e3d5ffd5b505050506040513d601f19601f8201168201806040525081019061254f9190612971565b50600554610bb7906001600160a01b038a811691165f6125d6565b5f5f60205f8451602086015f885af180612589576040513d5f823e3d81fd5b50505f513d915081156125a05780600114156125ad565b6001600160a01b0384163b155b1561085e57604051635274afe760e01b81526001600160a01b03851660048201526024016104aa565b604080516001600160a01b038416602482015260448082018490528251808303909101815260649091019091526020810180516001600160e01b031663095ea7b360e01b179052612627848261288f565b61085e576040516001600160a01b0384811660248301525f604483015261265b91869182169063095ea7b3906064016116d7565b61085e848261256a565b60606002835110156126b05760405162461bcd60e51b8152602060048201526014602482015273506174683a20746f6f2066657720746f6b656e7360601b60448201526064016104aa565b600183516126be9190612988565b82511461270d5760405162461bcd60e51b815260206004820152601a60248201527f506174683a2066656573206c656e677468206d69736d6174636800000000000060448201526064016104aa565b825f8151811061271f5761271f6129c2565b602002602001015160405160200161274f919060609190911b6bffffffffffffffffffffffff1916815260140190565b60408051601f1981840301815291905290505f5b82518110156127d9578183828151811061277f5761277f6129c2565b602002602001015185836001612795919061299b565b815181106127a5576127a56129c2565b60200260200101516040516020016127bf93929190612c2e565b60408051601f198184030181529190529150600101612763565b5092915050565b5f7f00000000000000000000000000000000000000000000000000000000000000006001600160a01b0316826001600160a01b03160361282e575050600754600160d01b900462ffffff1690565b7f00000000000000000000000000000000000000000000000000000000000000006001600160a01b0316826001600160a01b03160361287b575050600754600160e81b900462ffffff1690565b5050600754600160a01b900462ffffff1690565b5f5f5f5f60205f8651602088015f8a5af192503d91505f5190508280156128ce575081156128c057806001146128ce565b5f866001600160a01b03163b115b93505050505b92915050565b6001600160a01b0381168114610580575f5ffd5b5f602082840312156128fe575f5ffd5b8135612909816128da565b9392505050565b5f60208284031215612920575f5ffd5b5035919050565b634e487b7160e01b5f52601160045260245ffd5b80820281158282048414176128d4576128d4612927565b5f8261296c57634e487b7160e01b5f52601260045260245ffd5b500490565b5f60208284031215612981575f5ffd5b5051919050565b818103818111156128d4576128d4612927565b808201808211156128d4576128d4612927565b634e487b7160e01b5f52604160045260245ffd5b634e487b7160e01b5f52603260045260245ffd5b5f81518084528060208401602086015e5f602082860101526020601f19601f83011685010191505092915050565b604081525f612a1660408301856129d6565b90508260208301529392505050565b604051601f8201601f1916810167ffffffffffffffff81118282101715612a4e57612a4e6129ae565b604052919050565b5f67ffffffffffffffff821115612a6f57612a6f6129ae565b5060051b60200190565b5f82601f830112612a88575f5ffd5b8151612a9b612a9682612a56565b612a25565b8082825260208201915060208360051b860101925085831115612abc575f5ffd5b602085015b83811015612aea57805163ffffffff81168114612adc575f5ffd5b835260209283019201612ac1565b5095945050505050565b5f5f5f5f60808587031215612b07575f5ffd5b8451602086015190945067ffffffffffffffff811115612b25575f5ffd5b8501601f81018713612b35575f5ffd5b8051612b43612a9682612a56565b8082825260208201915060208360051b850101925089831115612b64575f5ffd5b6020840193505b82841015612b8f578351612b7e816128da565b825260209384019390910190612b6b565b80965050505050604085015167ffffffffffffffff811115612baf575f5ffd5b612bbb87828801612a79565b606096909601519497939650505050565b5f815160a08452612be060a08501826129d6565b6020848101516001600160a01b031690860152604080850151908601526060808501519086015260809384015193909401929092525090919050565b602081525f6129096020830184612bcc565b5f84518060208701845e60e89490941b6001600160e81b0319169190930190815260609190911b6bffffffffffffffffffffffff191660038201526017019291505056fea26469706673582212209b36cd22eff5b653225f0be5746e8e07fc4c73744d2e948995b17a3dc9e3bcc864736f6c634300081c0033",
  "linkReferences": {},
  "deployedLinkReferences": {},
  "immutableReferences": {
    "3485": [
      {
        "length": 32,
        "start": 960
      },
      {
        "length": 32,
        "start": 1354
      },
      {
        "length": 32,
        "start": 1523
      },
      {
        "length": 32,
        "start": 2465
      },
      {
        "length": 32,
        "start": 3236
      },
      {
        "length": 32,
        "start": 3931
      },
      {
        "length": 32,
        "start": 4186
      },
      {
        "length": 32,
        "start": 4267
      },
      {
        "length": 32,
        "start": 4342
      },
      {
        "length": 32,
        "start": 4470
      },
      {
        "length": 32,
        "start": 4947
      },
      {
        "length": 32,
        "start": 6067
      },
      {
        "length": 32,
        "start": 6202
      },
      {
        "length": 32,
        "start": 6510
      },
      {
        "length": 32,
        "start": 7216
      },
      {
        "length": 32,
        "start": 7259
      },
      {
        "length": 32,
        "start": 7514
      },
      {
        "length": 32,
        "start": 8253
      },
      {
        "length": 32,
        "start": 8645
      },
      {
        "length": 32,
        "start": 9005
      }
    ],
    "3487": [
      {
        "length": 32,
        "start": 808
      },
      {
        "length": 32,
        "start": 2268
      },
      {
        "length": 32,
        "start": 2644
      },
      {
        "length": 32,
        "start": 2764
      },
      {
        "length": 32,
        "start": 3383
      },
      {
        "length": 32,
        "start": 3821
      },
      {
        "length": 32,
        "start": 4529
      },
      {
        "length": 32,
        "start": 4657
      },
      {
        "length": 32,
        "start": 5086
      },
      {
        "length": 32,
        "start": 10288
      }
    ],
    "3489": [
      {
        "length": 32,
        "start": 607
      },
      {
        "length": 32,
        "start": 2311
      },
      {
        "length": 32,
        "start": 2848
      },
      {
        "length": 32,
        "start": 2960
      },
      {
        "length": 32,
        "start": 3522
      },
      {
        "length": 32,
        "start": 3870
      },
      {
        "length": 32,
        "start": 4716
      },
      {
        "length": 32,
        "start": 4844
      },
      {
        "length": 32,
        "start": 5225
      },
      {
        "length": 32,
        "start": 10211
      }
    ],
    "3491": [
      {
        "length": 32,
        "start": 703
      },
      {
        "length": 32,
        "start": 6113
      },
      {
        "length": 32,
        "start": 6285
      },
      {
        "length": 32,
        "start": 6593
      },
      {
        "length": 32,
        "start": 7597
      },
      {
        "length": 32,
        "start": 8473
      },
      {
        "length": 32,
        "start": 8562
      },
      {
        "length": 32,
        "start": 8921
      }
    ],
    "3493": [
      {
        "length": 32,
        "start": 456
      },
      {
        "length": 32,
        "start": 5668
      },
      {
        "length": 32,
        "start": 8160
      }
    ],
    "3496": [
      {
        "length": 32,
        "start": 558
      },
      {
        "length": 32,
        "start": 2156
      }
    ],
    "3499": [
      {
        "length": 32,
        "start": 664
      },
      {
        "length": 32,
        "start": 2213
      }
    ],
    "3502": [
      {
        "length": 32,
        "start": 742
      }
    ],
    "3506": [
      {
        "length": 32,
        "start": 348
      }
    ],
    "3509": [
      {
        "length": 32,
        "start": 519
      },
      {
        "length": 32,
        "start": 4111
      }
    ],
    "3512": [
      {
        "length": 32,
        "start": 999
      },
      {
        "length": 32,
        "start": 4075
      }
    ],
    "3514": [
      {
        "length": 32,
        "start": 875
      },
      {
        "length": 32,
        "start": 4233
      }
    ]
  },
  "inputSourceName": "project/contracts/vault/Vault.sol",
  "buildInfoId": "solc-0_8_28-cc75067b082cf9d3e5a75503de78c55100c40ab3"
}