{
  "_format": "hh3-artifact-1",
  "contractName": "AranDAOBridge",
  "sourceName": "contracts/bridge/Bridge.sol",
  "abi": [
    {
      "inputs": [
        {
          "internalType": "address",
          "name": "_oldUvmAddress",
          "type": "address"
        },
        {
          "internalType": "address",
          "name": "_oldDnmAddress",
          "type": "address"
        },
        {
          "internalType": "address",
          "name": "_oldWrapperTokenAddress",
          "type": "address"
        },
        {
          "internalType": "address",
          "name": "_oldStakeAddress",
          "type": "address"
        },
        {
          "internalType": "address",
          "name": "_newDnmAddress",
          "type": "address"
        }
      ],
      "stateMutability": "nonpayable",
      "type": "constructor"
    },
    {
      "inputs": [
        {
          "internalType": "address",
          "name": "owner",
          "type": "address"
        }
      ],
      "name": "OwnableInvalidOwner",
      "type": "error"
    },
    {
      "inputs": [
        {
          "internalType": "address",
          "name": "account",
          "type": "address"
        }
      ],
      "name": "OwnableUnauthorizedAccount",
      "type": "error"
    },
    {
      "anonymous": false,
      "inputs": [
        {
          "indexed": false,
          "internalType": "address",
          "name": "userAddress",
          "type": "address"
        },
        {
          "indexed": false,
          "internalType": "uint256",
          "name": "amount",
          "type": "uint256"
        },
        {
          "indexed": false,
          "internalType": "uint256",
          "name": "totalBridgedDnm",
          "type": "uint256"
        }
      ],
      "name": "DnmBridgedByUser",
      "type": "event"
    },
    {
      "anonymous": false,
      "inputs": [
        {
          "indexed": false,
          "internalType": "uint256",
          "name": "amount",
          "type": "uint256"
        }
      ],
      "name": "DnmWithdrawnByOwner",
      "type": "event"
    },
    {
      "anonymous": false,
      "inputs": [],
      "name": "GotDnmSnapshot",
      "type": "event"
    },
    {
      "anonymous": false,
      "inputs": [],
      "name": "GotStakeSnapshot",
      "type": "event"
    },
    {
      "anonymous": false,
      "inputs": [],
      "name": "GotUvmSnapshot",
      "type": "event"
    },
    {
      "anonymous": false,
      "inputs": [],
      "name": "GotWrapperSnapshot",
      "type": "event"
    },
    {
      "anonymous": false,
      "inputs": [
        {
          "indexed": true,
          "internalType": "address",
          "name": "previousOwner",
          "type": "address"
        },
        {
          "indexed": true,
          "internalType": "address",
          "name": "newOwner",
          "type": "address"
        }
      ],
      "name": "OwnershipTransferred",
      "type": "event"
    },
    {
      "anonymous": false,
      "inputs": [
        {
          "indexed": false,
          "internalType": "uint256",
          "name": "amount",
          "type": "uint256"
        }
      ],
      "name": "RemainingNewDnmWithdrawnByOwner",
      "type": "event"
    },
    {
      "anonymous": false,
      "inputs": [
        {
          "indexed": false,
          "internalType": "address",
          "name": "userAddress",
          "type": "address"
        },
        {
          "indexed": false,
          "internalType": "uint256",
          "name": "stakeId",
          "type": "uint256"
        },
        {
          "indexed": false,
          "internalType": "uint256",
          "name": "uvmAmount",
          "type": "uint256"
        },
        {
          "indexed": false,
          "internalType": "uint256",
          "name": "dnmAmount",
          "type": "uint256"
        },
        {
          "indexed": false,
          "internalType": "uint256",
          "name": "wrapperTokenId",
          "type": "uint256"
        },
        {
          "indexed": false,
          "internalType": "uint256",
          "name": "totalBridgedDnm",
          "type": "uint256"
        }
      ],
      "name": "StakePrincipleBridgedByUser",
      "type": "event"
    },
    {
      "anonymous": false,
      "inputs": [
        {
          "indexed": false,
          "internalType": "address",
          "name": "userAddress",
          "type": "address"
        },
        {
          "indexed": false,
          "internalType": "uint256",
          "name": "stakeId",
          "type": "uint256"
        },
        {
          "indexed": false,
          "internalType": "uint256",
          "name": "uvmAmount",
          "type": "uint256"
        },
        {
          "indexed": false,
          "internalType": "uint256",
          "name": "totalBridgedDnm",
          "type": "uint256"
        }
      ],
      "name": "StakeYieldBridgedByUser",
      "type": "event"
    },
    {
      "anonymous": false,
      "inputs": [
        {
          "indexed": false,
          "internalType": "address",
          "name": "userAddress",
          "type": "address"
        },
        {
          "indexed": false,
          "internalType": "uint256",
          "name": "amount",
          "type": "uint256"
        },
        {
          "indexed": false,
          "internalType": "uint256",
          "name": "totalBridgedDnm",
          "type": "uint256"
        }
      ],
      "name": "UvmBridgedByUser",
      "type": "event"
    },
    {
      "anonymous": false,
      "inputs": [
        {
          "indexed": false,
          "internalType": "uint256",
          "name": "amount",
          "type": "uint256"
        }
      ],
      "name": "UvmWithdrawnByOwner",
      "type": "event"
    },
    {
      "anonymous": false,
      "inputs": [
        {
          "indexed": false,
          "internalType": "address",
          "name": "userAddress",
          "type": "address"
        },
        {
          "indexed": false,
          "internalType": "uint256",
          "name": "tokenId",
          "type": "uint256"
        },
        {
          "indexed": false,
          "internalType": "uint256",
          "name": "totalBridgedDnm",
          "type": "uint256"
        }
      ],
      "name": "WrapperTokenBridgedByUser",
      "type": "event"
    },
    {
      "anonymous": false,
      "inputs": [
        {
          "indexed": false,
          "internalType": "uint256",
          "name": "tokenId",
          "type": "uint256"
        }
      ],
      "name": "WrapperTokenWithdrawnByOwner",
      "type": "event"
    },
    {
      "inputs": [
        {
          "internalType": "uint256",
          "name": "",
          "type": "uint256"
        }
      ],
      "name": "arusenseTokenIds",
      "outputs": [
        {
          "internalType": "uint256",
          "name": "",
          "type": "uint256"
        }
      ],
      "stateMutability": "view",
      "type": "function"
    },
    {
      "inputs": [],
      "name": "bridgeDnm",
      "outputs": [],
      "stateMutability": "nonpayable",
      "type": "function"
    },
    {
      "inputs": [
        {
          "internalType": "uint256",
          "name": "stakeId",
          "type": "uint256"
        }
      ],
      "name": "bridgeStakePrinciple",
      "outputs": [],
      "stateMutability": "nonpayable",
      "type": "function"
    },
    {
      "inputs": [
        {
          "internalType": "uint256",
          "name": "stakeId",
          "type": "uint256"
        },
        {
          "internalType": "uint256",
          "name": "uvmAmount",
          "type": "uint256"
        }
      ],
      "name": "bridgeStakeYield",
      "outputs": [],
      "stateMutability": "nonpayable",
      "type": "function"
    },
    {
      "inputs": [],
      "name": "bridgeUvm",
      "outputs": [],
      "stateMutability": "nonpayable",
      "type": "function"
    },
    {
      "inputs": [
        {
          "internalType": "uint256",
          "name": "tokenId",
          "type": "uint256"
        }
      ],
      "name": "bridgeWrapperToken",
      "outputs": [],
      "stateMutability": "nonpayable",
      "type": "function"
    },
    {
      "inputs": [],
      "name": "constructionTime",
      "outputs": [
        {
          "internalType": "uint256",
          "name": "",
          "type": "uint256"
        }
      ],
      "stateMutability": "view",
      "type": "function"
    },
    {
      "inputs": [
        {
          "internalType": "address",
          "name": "",
          "type": "address"
        }
      ],
      "name": "dnmBalanceByAddressSnapshot",
      "outputs": [
        {
          "internalType": "uint256",
          "name": "",
          "type": "uint256"
        }
      ],
      "stateMutability": "view",
      "type": "function"
    },
    {
      "inputs": [],
      "name": "newDnmAddress",
      "outputs": [
        {
          "internalType": "address",
          "name": "",
          "type": "address"
        }
      ],
      "stateMutability": "view",
      "type": "function"
    },
    {
      "inputs": [],
      "name": "oldDnmAddress",
      "outputs": [
        {
          "internalType": "address",
          "name": "",
          "type": "address"
        }
      ],
      "stateMutability": "view",
      "type": "function"
    },
    {
      "inputs": [],
      "name": "oldStakeAddress",
      "outputs": [
        {
          "internalType": "address",
          "name": "",
          "type": "address"
        }
      ],
      "stateMutability": "view",
      "type": "function"
    },
    {
      "inputs": [],
      "name": "oldUvmAddress",
      "outputs": [
        {
          "internalType": "address",
          "name": "",
          "type": "address"
        }
      ],
      "stateMutability": "view",
      "type": "function"
    },
    {
      "inputs": [],
      "name": "oldWrapperTokenAddress",
      "outputs": [
        {
          "internalType": "address",
          "name": "",
          "type": "address"
        }
      ],
      "stateMutability": "view",
      "type": "function"
    },
    {
      "inputs": [
        {
          "internalType": "address",
          "name": "",
          "type": "address"
        },
        {
          "internalType": "address",
          "name": "",
          "type": "address"
        },
        {
          "internalType": "uint256",
          "name": "",
          "type": "uint256"
        },
        {
          "internalType": "bytes",
          "name": "",
          "type": "bytes"
        }
      ],
      "name": "onERC721Received",
      "outputs": [
        {
          "internalType": "bytes4",
          "name": "",
          "type": "bytes4"
        }
      ],
      "stateMutability": "nonpayable",
      "type": "function"
    },
    {
      "inputs": [],
      "name": "owner",
      "outputs": [
        {
          "internalType": "address",
          "name": "",
          "type": "address"
        }
      ],
      "stateMutability": "view",
      "type": "function"
    },
    {
      "inputs": [],
      "name": "renounceOwnership",
      "outputs": [],
      "stateMutability": "nonpayable",
      "type": "function"
    },
    {
      "inputs": [
        {
          "internalType": "address[]",
          "name": "addresses",
          "type": "address[]"
        },
        {
          "internalType": "uint256[]",
          "name": "amounts",
          "type": "uint256[]"
        }
      ],
      "name": "snapshotDnm",
      "outputs": [],
      "stateMutability": "nonpayable",
      "type": "function"
    },
    {
      "inputs": [
        {
          "internalType": "uint256[]",
          "name": "stakeIds",
          "type": "uint256[]"
        },
        {
          "components": [
            {
              "internalType": "address",
              "name": "userAddress",
              "type": "address"
            },
            {
              "internalType": "bool",
              "name": "exists",
              "type": "bool"
            },
            {
              "internalType": "uint256",
              "name": "totalPaidOut",
              "type": "uint256"
            },
            {
              "internalType": "bool",
              "name": "principleWithdrawn",
              "type": "bool"
            }
          ],
          "internalType": "struct BridgeLib.Stake[]",
          "name": "stakes",
          "type": "tuple[]"
        }
      ],
      "name": "snapshotStake",
      "outputs": [],
      "stateMutability": "nonpayable",
      "type": "function"
    },
    {
      "inputs": [
        {
          "internalType": "address[]",
          "name": "addresses",
          "type": "address[]"
        },
        {
          "internalType": "uint256[]",
          "name": "amounts",
          "type": "uint256[]"
        }
      ],
      "name": "snapshotUvm",
      "outputs": [],
      "stateMutability": "nonpayable",
      "type": "function"
    },
    {
      "inputs": [
        {
          "internalType": "address[]",
          "name": "addresses",
          "type": "address[]"
        },
        {
          "internalType": "uint256[][]",
          "name": "tokenIds",
          "type": "uint256[][]"
        }
      ],
      "name": "snapshotWrapperToken",
      "outputs": [],
      "stateMutability": "nonpayable",
      "type": "function"
    },
    {
      "inputs": [
        {
          "internalType": "uint256",
          "name": "",
          "type": "uint256"
        }
      ],
      "name": "stakeSnapshot",
      "outputs": [
        {
          "internalType": "address",
          "name": "userAddress",
          "type": "address"
        },
        {
          "internalType": "bool",
          "name": "exists",
          "type": "bool"
        },
        {
          "internalType": "uint256",
          "name": "totalPaidOut",
          "type": "uint256"
        },
        {
          "internalType": "bool",
          "name": "principleWithdrawn",
          "type": "bool"
        }
      ],
      "stateMutability": "view",
      "type": "function"
    },
    {
      "inputs": [
        {
          "internalType": "address",
          "name": "newOwner",
          "type": "address"
        }
      ],
      "name": "transferOwnership",
      "outputs": [],
      "stateMutability": "nonpayable",
      "type": "function"
    },
    {
      "inputs": [
        {
          "internalType": "address",
          "name": "",
          "type": "address"
        }
      ],
      "name": "uvmBalanceByAddressSnapshot",
      "outputs": [
        {
          "internalType": "uint256",
          "name": "",
          "type": "uint256"
        }
      ],
      "stateMutability": "view",
      "type": "function"
    },
    {
      "inputs": [
        {
          "internalType": "uint256",
          "name": "amount",
          "type": "uint256"
        }
      ],
      "name": "withdrawDnm",
      "outputs": [],
      "stateMutability": "nonpayable",
      "type": "function"
    },
    {
      "inputs": [],
      "name": "withdrawRemainingNewDnm",
      "outputs": [],
      "stateMutability": "nonpayable",
      "type": "function"
    },
    {
      "inputs": [
        {
          "internalType": "uint256",
          "name": "amount",
          "type": "uint256"
        }
      ],
      "name": "withdrawUvm",
      "outputs": [],
      "stateMutability": "nonpayable",
      "type": "function"
    },
    {
      "inputs": [
        {
          "internalType": "uint256",
          "name": "tokenId",
          "type": "uint256"
        }
      ],
      "name": "withdrawWrapperToken",
      "outputs": [],
      "stateMutability": "nonpayable",
      "type": "function"
    },
    {
      "inputs": [
        {
          "internalType": "uint256",
          "name": "",
          "type": "uint256"
        }
      ],
      "name": "wrapperTokenIds",
      "outputs": [
        {
          "internalType": "uint256",
          "name": "",
          "type": "uint256"
        }
      ],
      "stateMutability": "view",
      "type": "function"
    },
    {
      "inputs": [
        {
          "internalType": "address",
          "name": "",
          "type": "address"
        },
        {
          "internalType": "uint256",
          "name": "",
          "type": "uint256"
        }
      ],
      "name": "wrapperTokenIdsByAddressSnapshot",
      "outputs": [
        {
          "internalType": "uint256",
          "name": "",
          "type": "uint256"
        }
      ],
      "stateMutability": "view",
      "type": "function"
    }
  ],
  "bytecode": "0x608060405234801561000f575f5ffd5b5060405161290038038061290083398101604081905261002e9161012d565b338061005357604051631e4fbdf760e01b81525f600482015260240160405180910390fd5b61005c816100c3565b50600180546001600160a01b03199081166001600160a01b039788161790915560028054821695871695909517909455600380548516938616939093179092556004805484169185169190911790556005805490921692169190911790554260065561018e565b5f80546001600160a01b038381166001600160a01b0319831681178455604051919092169283917f8be0079c531659141344cd1fd0a4f28419497f9722a3daafe3b4186f6b6457e09190a35050565b80516001600160a01b0381168114610128575f5ffd5b919050565b5f5f5f5f5f60a08688031215610141575f5ffd5b61014a86610112565b945061015860208701610112565b935061016660408701610112565b925061017460608701610112565b915061018260808701610112565b90509295509295909350565b6127658061019b5f395ff3fe608060405234801561000f575f5ffd5b50600436106101c6575f3560e01c80636b73fa72116100fe578063a83c5fc71161009e578063dc2ecf6c1161006e578063dc2ecf6c146103df578063e4c66c71146103f2578063f06c561014610464578063f2fde38b1461046d575f5ffd5b8063a83c5fc714610392578063b6476ec5146103a5578063b854d8a1146103ad578063cbd572d1146103c0575f5ffd5b80638da5cb5b116100d95780638da5cb5b146103545780638deb0204146103645780638e0828dc14610377578063a245e5c11461037f575f5ffd5b80636b73fa7214610331578063715018a6146103395780638580e70e14610341575f5ffd5b80633a229cc1116101695780634b61ed9d116101445780634b61ed9d146102e55780635674a67a146102f8578063599e16fc1461030b5780635b9842ec1461031e575f5ffd5b80633a229cc1146102ac57806348177bac146102bf5780634920915d146102d2575f5ffd5b8063168e17c6116101a4578063168e17c6146102465780631b3eb8cc146102735780632221fb56146102865780632ebc855114610299575f5ffd5b80630c5b47db146101ca57806314917fc5146101df578063150b7a021461020f575b5f5ffd5b6101dd6101d8366004612015565b610480565b005b6001546101f2906001600160a01b031681565b6040516001600160a01b0390911681526020015b60405180910390f35b61022d61021d3660046120f0565b630a85bd0160e11b949350505050565b6040516001600160e01b03199091168152602001610206565b6102656102543660046121b0565b60096020525f908152604090205481565b604051908152602001610206565b6002546101f2906001600160a01b031681565b6102656102943660046121cb565b610557565b6101dd6102a73660046121cb565b610576565b6101dd6102ba3660046121cb565b6107fd565b6102656102cd3660046121cb565b610907565b6004546101f2906001600160a01b031681565b6101dd6102f33660046121cb565b610916565b6101dd6103063660046121cb565b610a14565b6003546101f2906001600160a01b031681565b6101dd61032c3660046121e2565b610def565b6101dd610eae565b6101dd610f3f565b6101dd61034f366004612252565b610f52565b5f546001600160a01b03166101f2565b6005546101f2906001600160a01b031681565b6101dd61105e565b6101dd61038d3660046121e2565b611189565b6102656103a0366004612363565b611248565b6101dd611273565b6101dd6103bb3660046121cb565b611395565b6102656103ce3660046121b0565b600a6020525f908152604090205481565b6101dd6103ed36600461238d565b611431565b6104386104003660046121cb565b600c6020525f90815260409020805460018201546002909201546001600160a01b0382169260ff600160a01b90930483169290911684565b604080516001600160a01b03909516855292151560208501529183015215156060820152608001610206565b61026560065481565b6101dd61047b3660046121b0565b611738565b610488611775565b6104ad825182516040518060600160405280602481526020016126ce602491396117a1565b5f5b825181101561052a578181815181106104ca576104ca6123ad565b6020026020010151600b5f8584815181106104e7576104e76123ad565b60200260200101516001600160a01b03166001600160a01b031681526020019081526020015f209080519060200190610521929190611e25565b506001016104af565b506040517f436ca623308ac8ae3f8f95dd79f5e39d0156d8785679abdf5744b853eeee29ba905f90a15050565b60088181548110610566575f80fd5b5f91825260209091200154905081565b6105816006546117c8565b600354335f908152600b6020908152604080832080548251818502810185019093528083526001600160a01b039095169491929091908301828280156105e457602002820191905f5260205f20905b8154815260200190600101908083116105d0575b505050505090506105f5838261182d565b6106525760405162461bcd60e51b8152602060048201526024808201527f546f6b656e20646f65736e277420657869737420696e2074686520736e6170736044820152633437ba1760e11b60648201526084015b60405180910390fd5b600354610669906001600160a01b0316843361187a565b60405163d0e91a7f60e01b8152600481018490525f906106dc906001600160a01b0385169063d0e91a7f906024015b602060405180830381865afa1580156106b3573d5f5f3e3d5ffd5b505050506040513d601f19601f820116820180604052508101906106d791906123d1565b61195b565b90505f6106e882611a30565b604051632142170760e11b81529091506001600160a01b038516906342842e0e9061071b90339030908a906004016123ea565b5f604051808303815f87803b158015610732575f5ffd5b505af1158015610744573d5f5f3e3d5ffd5b5050505061078160055f9054906101000a90046001600160a01b031630338460405180606001604052806035815260200161266460359139611a3d565b600880546001810182555f919091527ff3f7a9fe364faab93b216da50a3214154f22a0a2b415b23a84c8169e8b636ee30185905560408051338152602081018790529081018290527fd0f6cfad572a5bc62e0685be2e9ae79aa8738cc926985c44403d60fb857841bc9060600160405180910390a15050505050565b610805611775565b6002545f9061081d906001600160a01b031630611ad9565b90508082111561088a5760405162461bcd60e51b815260206004820152603260248201527f416d6f756e742069732067726561746572207468616e2074686520636f6e747260448201527130b1ba13b990222726903130b630b731b29760711b6064820152608401610649565b600254604080516060810190915260358082526108be926001600160a01b0316913091339187916126646020830139611a3d565b6108c88282612422565b90507f0cd9a0b784642c3f9e63363e7d6dccabbf14512e6282a3d1fbf8798bf893f00e826040516108fb91815260200190565b60405180910390a15050565b60078181548110610566575f80fd5b61091e611775565b6001545f90610936906001600160a01b031630611ad9565b9050808211156109a35760405162461bcd60e51b815260206004820152603260248201527f416d6f756e742069732067726561746572207468616e2074686520636f6e747260448201527130b1ba13b9902aab26903130b630b731b29760711b6064820152608401610649565b600154604080516060810190915260358082526109d7926001600160a01b0316913091339187916126996020830139611a3d565b6109e18282612422565b90507f69c78e0b1e3afe57fa345e2b6cd3f8cfbd571564edb17db53fd27efc048148c9826040516108fb91815260200190565b5f818152600c6020908152604091829020825160808101845281546001600160a01b038116825260ff600160a01b9091048116151593820193909352600182015493810193909352600201541615156060820152610a7181611b4b565b610a7a81611baa565b600480546040516319c64b7f60e31b81529182018490526001600160a01b0316905f90829063ce325bf89060240161014060405180830381865afa158015610ac4573d5f5f3e3d5ffd5b505050506040513d601f19601f82011682018060405250810190610ae89190612440565b9050610af78160e00151611c17565b5f610b108260c00151836101000151600654601e611c66565b905080421015610b8a576040805162461bcd60e51b81526020600482015260248101919091527f5468652074696d6520666f72207072696e6369706c652077697468647261776160448201527f6c206f662074686973207374616b6520686173206265656e207061737365642e6064820152608401610649565b60015484516060808501516040805192830190526035808352610bc2946001600160a01b031693923092916125f66020830139611a3d565b5f610bd08360600151611a30565b9050610c1260025f9054906101000a90046001600160a01b0316865f01513086608001516040518060600160405280603e81526020016126f2603e9139611a3d565b610c1f8360800151611c9a565b610c2990826124d2565b60035460a085015160405163d0e91a7f60e01b815260048101919091529192506001600160a01b0316905f90610c6990839063d0e91a7f90602401610698565b9050610c7481611a30565b610c7e90846124d2565b60a0860151604051632142170760e11b81529194506001600160a01b038416916342842e0e91610cb491339130916004016123ea565b5f604051808303815f87803b158015610ccb575f5ffd5b505af1158015610cdd573d5f5f3e3d5ffd5b50505060a0860151600880546001810182555f919091527ff3f7a9fe364faab93b216da50a3214154f22a0a2b415b23a84c8169e8b636ee301555060055460408051606081019091526039808252610d4c926001600160a01b03169130913391889161262b6020830139611a3d565b5f888152600c602052604090819020600201805460ff191660011790556060860151608087015160a088015192517f306e96ff8fe4de7cb1372f6fbc2e57b26112f3223ae3b1ec099904945aed5e9a93610ddd9333938e93919290918a906001600160a01b03969096168652602086019490945260408501929092526060840152608083015260a082015260c00190565b60405180910390a15050505050505050565b610df7611775565b610e1c825182516040518060600160405280602381526020016125d3602391396117a1565b5f5b8251811015610e8157818181518110610e3957610e396123ad565b6020026020010151600a5f858481518110610e5657610e566123ad565b6020908102919091018101516001600160a01b031682528101919091526040015f2055600101610e1e565b506040517f3a438f27288e321c91b32cddfc2779a482e88c9919597ee234528b508a98750e905f90a15050565b610eb6611775565b6005545f90610ece906001600160a01b031630611ad9565b9050610f0960055f9054906101000a90046001600160a01b031630338460405180606001604052806035815260200161266460359139611a3d565b6040518181527f5dae24879797ecf116dca300d8158282188ad9859c03ed9d3b0e1ee28771c12e9060200160405180910390a150565b610f47611775565b610f505f611ca6565b565b610f5a611775565b610f7f825182516040518060600160405280602481526020016126ce602491396117a1565b5f5b825181101561103157818181518110610f9c57610f9c6123ad565b6020026020010151600c5f858481518110610fb957610fb96123ad565b60209081029190910181015182528181019290925260409081015f2083518154938501511515600160a01b026001600160a81b03199094166001600160a01b03909116179290921782558201516001808301919091556060909201516002909101805491151560ff1990921691909117905501610f81565b506040517f1a3be9c8c3e0fbc09cf16661932f0426a80f2a5d3f46952d3b71d1f795de633d905f90a15050565b6110696006546117c8565b6002545f90611081906001600160a01b031633611ad9565b335f908152600a60205260408120549192509061109e9083611cf5565b90506110d960025f9054906101000a90046001600160a01b031633308460405180606001604052806035815260200161259e60359139611a3d565b335f908152600a6020526040812080548392906110f7908490612422565b909155505f905061110782611c9a565b905061114260055f9054906101000a90046001600160a01b031630338460405180606001604052806035815260200161266460359139611a3d565b60408051338152602081018490529081018390527f504db505b76ab2fe4c32f96de1d9d9d62f7925d0a76e4b57bfd89e223be46b30906060015b60405180910390a1505050565b611191611775565b6111b6825182516040518060600160405280602381526020016125d3602391396117a1565b5f5b825181101561121b578181815181106111d3576111d36123ad565b602002602001015160095f8584815181106111f0576111f06123ad565b6020908102919091018101516001600160a01b031682528101919091526040015f20556001016111b8565b506040517fde311b1a60e325b4b8c743f9ae80a6528d809286086bd1d29e2cb8d77a8a57c3905f90a15050565b600b602052815f5260405f208181548110611261575f80fd5b905f5260205f20015f91509150505481565b61127e6006546117c8565b6001545f90611296906001600160a01b031633611ad9565b335f90815260096020526040812054919250906112b39083611cf5565b90506112ee60015f9054906101000a90046001600160a01b03163330846040518060600160405280603581526020016125f660359139611a3d565b335f908152600960205260408120805483929061130c908490612422565b909155505f905061131c82611a30565b905061135760055f9054906101000a90046001600160a01b031630338460405180606001604052806035815260200161266460359139611a3d565b60408051338152602081018490529081018290527fa6897c6b20a1601b0a4e1899022f07c6be1564247d5e6ef661253dc9b99b20c39060600161117c565b61139d611775565b6003546040516323b872dd60e01b81526001600160a01b039091169081906323b872dd906113d3903090339087906004016123ea565b5f604051808303815f87803b1580156113ea575f5ffd5b505af11580156113fc573d5f5f3e3d5ffd5b505050507f5c9e16a00823dc48b26aea0e4d2964f6a0dcb072165d2b60cc700974e4bf7ec2826040516108fb91815260200190565b5f828152600c6020908152604091829020825160808101845281546001600160a01b038116825260ff600160a01b909104811615159382019390935260018201549381019390935260020154161515606082015261148e81611b4b565b61149781611baa565b600480546040516319c64b7f60e31b81529182018590526001600160a01b0316905f90829063ce325bf89060240161014060405180830381865afa1580156114e1573d5f5f3e3d5ffd5b505050506040513d601f19601f820116820180604052508101906115059190612440565b90506115148160e00151611c17565b5f61153a8260e0015163018b820060065462278d0061153391906124d2565b601e611c66565b9050804210156115b25760405162461bcd60e51b815260206004820152603c60248201527f5468652074696d6520666f72207969656c64207769746864726177616c206f6660448201527f2074686973207374616b6520686173206265656e207061737365642e000000006064820152608401610649565b604080830151608084015160c085015160e08601516101008701519451632fc9a0f160e21b815260ff909416600485015260248401929092526044830152606482015260848101919091525f906001600160a01b0385169063bf2683c49060a401602060405180830381865afa15801561162e573d5f5f3e3d5ffd5b505050506040513d601f19601f8201168201806040525081019061165291906124e5565b905061166386828760400151611d62565b600154855160408051606081019091526035808252611699936001600160a01b0316929130918b91906125f66020830139611a3d565b85856040018181516116ab91906124d2565b9052505f6116b887611a30565b90506116f360055f9054906101000a90046001600160a01b031630338460405180606001604052806039815260200161262b60399139611a3d565b60408051338152602081018a9052908101889052606081018290527fae48bc48fd016432d04260c32edee202f908613d1c380a35f44c72badab7440190608001610ddd565b611740611775565b6001600160a01b03811661176957604051631e4fbdf760e01b81525f6004820152602401610649565b61177281611ca6565b50565b5f546001600160a01b03163314610f505760405163118cdaa760e01b8152336004820152602401610649565b808383146117c25760405162461bcd60e51b815260040161064991906124fc565b50505050565b6117d58162278d006124d2565b42106117725760405162461bcd60e51b815260206004820152602160248201527f5468652074696d6520746f2062726964676520686173206265656e20706173746044820152601760f91b6064820152608401610649565b80515f90815b8181101561186e578484828151811061184e5761184e6123ad565b60200260200101510361186657600192505050611874565b600101611833565b505f9150505b92915050565b6040516331a9108f60e11b8152600481018390525f906001600160a01b03851690636352211e90602401602060405180830381865afa1580156118bf573d5f5f3e3d5ffd5b505050506040513d601f19601f820116820180604052508101906118e39190612531565b9050816001600160a01b0316816001600160a01b0316146117c25760405162461bcd60e51b815260206004820152602c60248201527f55736572206973206e6f7420746865206f776e6572206f66207468652070726f60448201526b3b34b232b2103a37b5b2b71760a11b6064820152608401610649565b5f8160ff1660010361197757506824dce54d34a1a00000919050565b8160ff16600203611992575068126e72a69a50d00000919050565b8160ff166003036119ad575068093739534d28680000919050565b8160ff166004036119c857506803afb087b876900000919050565b8160ff166005036119e357506801d7d843dc3b480000919050565b60405162461bcd60e51b815260206004820152601d60248201527f547970652073686f756c6420626520696e2072616e67652031202d20350000006044820152606401610649565b919050565b5f6118746127108361254c565b6040516323b872dd60e01b81525f906001600160a01b038716906323b872dd90611a6f908890889088906004016123ea565b6020604051808303815f875af1158015611a8b573d5f5f3e3d5ffd5b505050506040513d601f19601f82011682018060405250810190611aaf919061256b565b90508181611ad05760405162461bcd60e51b815260040161064991906124fc565b50505050505050565b6040516370a0823160e01b81526001600160a01b0382811660048301525f91908416906370a0823190602401602060405180830381865afa158015611b20573d5f5f3e3d5ffd5b505050506040513d601f19601f82011682018060405250810190611b4491906124e5565b9392505050565b80602001516117725760405162461bcd60e51b815260206004820152602560248201527f54686973207374616b6520646f65736e277420657869737420696e20736e617060448201526439b437ba1760d91b6064820152608401610649565b8060600151156117725760405162461bcd60e51b815260206004820152603260248201527f54686973207374616b652773207072696e6369706c652068617320616c726561604482015271323c903132b2b7103bb4ba34323930bbb71760711b6064820152608401610649565b805f036117725760405162461bcd60e51b815260206004820152601d60248201527f54686973207374616b65206973206e6f7420636c6f736564207965742e0000006044820152606401610649565b5f611c748262015180612586565b611c87611c8186886124d2565b85611dfa565b611c9191906124d2565b95945050505050565b5f611874600a8361254c565b5f80546001600160a01b038381166001600160a01b0319831681178455604051919092169283917f8be0079c531659141344cd1fd0a4f28419497f9722a3daafe3b4186f6b6457e09190a35050565b5f5f611d018484611e10565b90505f8111611b445760405162461bcd60e51b815260206004820152602760248201527f5573657220646f65736e2774206861766520616e7920627269646761626c65206044820152663a37b5b2b7399760c91b6064820152608401610649565b611d6c8183612422565b831115611df55760405162461bcd60e51b815260206004820152604b60248201527f456e74657265642055564d20616d6f756e74206973206772656174657220746860448201527f616e2074686520746f74616c2072656d61696e696e6720726577617264206f6660648201526a103a34329039ba30b5b29760a91b608482015260a401610649565b505050565b5f81831015611e095781611b44565b5090919050565b5f81831015611e1f5782611b44565b50919050565b828054828255905f5260205f20908101928215611e5e579160200282015b82811115611e5e578251825591602001919060010190611e43565b50611e6a929150611e6e565b5090565b5b80821115611e6a575f8155600101611e6f565b634e487b7160e01b5f52604160045260245ffd5b604051608081016001600160401b0381118282101715611eb857611eb8611e82565b60405290565b60405161014081016001600160401b0381118282101715611eb857611eb8611e82565b604051601f8201601f191681016001600160401b0381118282101715611f0957611f09611e82565b604052919050565b5f6001600160401b03821115611f2957611f29611e82565b5060051b60200190565b6001600160a01b0381168114611772575f5ffd5b5f82601f830112611f56575f5ffd5b8135611f69611f6482611f11565b611ee1565b8082825260208201915060208360051b860101925085831115611f8a575f5ffd5b602085015b83811015611fb0578035611fa281611f33565b835260209283019201611f8f565b5095945050505050565b5f82601f830112611fc9575f5ffd5b8135611fd7611f6482611f11565b8082825260208201915060208360051b860101925085831115611ff8575f5ffd5b602085015b83811015611fb0578035835260209283019201611ffd565b5f5f60408385031215612026575f5ffd5b82356001600160401b0381111561203b575f5ffd5b61204785828601611f47565b92505060208301356001600160401b03811115612062575f5ffd5b8301601f81018513612072575f5ffd5b8035612080611f6482611f11565b8082825260208201915060208360051b8501019250878311156120a1575f5ffd5b602084015b838110156120e15780356001600160401b038111156120c3575f5ffd5b6120d28a602083890101611fba565b845250602092830192016120a6565b50809450505050509250929050565b5f5f5f5f60808587031215612103575f5ffd5b843561210e81611f33565b9350602085013561211e81611f33565b92506040850135915060608501356001600160401b0381111561213f575f5ffd5b8501601f8101871361214f575f5ffd5b80356001600160401b0381111561216857612168611e82565b61217b601f8201601f1916602001611ee1565b81815288602083850101111561218f575f5ffd5b816020840160208301375f6020838301015280935050505092959194509250565b5f602082840312156121c0575f5ffd5b8135611b4481611f33565b5f602082840312156121db575f5ffd5b5035919050565b5f5f604083850312156121f3575f5ffd5b82356001600160401b03811115612208575f5ffd5b61221485828601611f47565b92505060208301356001600160401b0381111561222f575f5ffd5b61223b85828601611fba565b9150509250929050565b8015158114611772575f5ffd5b5f5f60408385031215612263575f5ffd5b82356001600160401b03811115612278575f5ffd5b61228485828601611fba565b92505060208301356001600160401b0381111561229f575f5ffd5b8301601f810185136122af575f5ffd5b80356122bd611f6482611f11565b8082825260208201915060208360071b8501019250878311156122de575f5ffd5b6020840193505b8284101561235557608084890312156122fc575f5ffd5b612304611e96565b843561230f81611f33565b8152602085013561231f81612245565b602082015260408581013590820152606085013561233c81612245565b60608201528252608093909301926020909101906122e5565b809450505050509250929050565b5f5f60408385031215612374575f5ffd5b823561237f81611f33565b946020939093013593505050565b5f5f6040838503121561239e575f5ffd5b50508035926020909101359150565b634e487b7160e01b5f52603260045260245ffd5b805160ff81168114611a2b575f5ffd5b5f602082840312156123e1575f5ffd5b611b44826123c1565b6001600160a01b039384168152919092166020820152604081019190915260600190565b634e487b7160e01b5f52601160045260245ffd5b818103818111156118745761187461240e565b8051611a2b81612245565b5f610140828403128015612452575f5ffd5b5061245b611ebe565b8251815261246b60208401612435565b602082015261247c604084016123c1565b6040820152606083810151908201526080808401519082015260a0808401519082015260c0808401519082015260e080840151908201526101008084015190820152610120928301519281019290925250919050565b808201808211156118745761187461240e565b5f602082840312156124f5575f5ffd5b5051919050565b602081525f82518060208401528060208501604085015e5f604082850101526040601f19601f83011684010191505092915050565b5f60208284031215612541575f5ffd5b8151611b4481611f33565b5f8261256657634e487b7160e01b5f52601260045260245ffd5b500490565b5f6020828403121561257b575f5ffd5b8151611b4481612245565b80820281158282048414176118745761187461240e56fe444e4d207472616e736665722066726f6d207573657220746f20636f6e7472616374207761736e2774207375636365737366756c2e4164647265737320616e6420616d6f756e74206c656e677468206d69736d617463682e55564d207472616e736665722066726f6d207573657220746f20636f6e7472616374207761736e2774207375636365737366756c2e4e657720444e4d207472616e736665722066726f6d20636f6e747261637420746f2075736572207761736e2774207375636365737366756c2e444e4d207472616e736665722066726f6d20636f6e747261637420746f2075736572207761736e2774207375636365737366756c2e55564d207472616e736665722066726f6d20636f6e747261637420746f2075736572207761736e2774207375636365737366756c2e4164647265737320616e6420746f6b656e4964206c656e677468206d69736d617463682e50726576696f757320444e4d207472616e736665722066726f6d207573657220746f20636f6e7472616374207761736e2774207375636365737366756c2ea2646970667358221220270fca6beaf29e082ade2dbff81ff382339e7f2f683b04500c05f37f27c02b1364736f6c634300081c0033",
  "linkReferences": {},
  "deployedLinkReferences": {},
  "immutableReferences": {},
  "inputSourceName": "project/contracts/bridge/Bridge.sol",
  "buildInfoId": "solc-0_8_28-ad0ad61d735d7cc67a158368dfcb17dd402c5a57"
}