{
  "_format": "hh3-artifact-1",
  "contractName": "Dex",
  "sourceName": "contracts/dex/Dex.sol",
  "abi": [
    {
      "inputs": [
        {
          "internalType": "address",
          "name": "initialOwner",
          "type": "address"
        },
        {
          "internalType": "address",
          "name": "_dnmToken",
          "type": "address"
        },
        {
          "internalType": "address",
          "name": "_daiToken",
          "type": "address"
        },
        {
          "internalType": "address",
          "name": "_feeReceiver",
          "type": "address"
        },
        {
          "internalType": "address",
          "name": "_vault",
          "type": "address"
        },
        {
          "components": [
            {
              "internalType": "uint256",
              "name": "volumeFloor",
              "type": "uint256"
            },
            {
              "internalType": "uint16",
              "name": "feeBps",
              "type": "uint16"
            }
          ],
          "internalType": "struct DexStorage.FeeTier[]",
          "name": "_feeTiers",
          "type": "tuple[]"
        }
      ],
      "stateMutability": "nonpayable",
      "type": "constructor"
    },
    {
      "inputs": [],
      "name": "CannotFillOwnOrder",
      "type": "error"
    },
    {
      "inputs": [],
      "name": "FeeTooHigh",
      "type": "error"
    },
    {
      "inputs": [],
      "name": "InvalidAmounts",
      "type": "error"
    },
    {
      "inputs": [],
      "name": "InvalidTierConfiguration",
      "type": "error"
    },
    {
      "inputs": [],
      "name": "OrderNotActive",
      "type": "error"
    },
    {
      "inputs": [],
      "name": "OrderNotFound",
      "type": "error"
    },
    {
      "inputs": [
        {
          "internalType": "address",
          "name": "owner",
          "type": "address"
        }
      ],
      "name": "OwnableInvalidOwner",
      "type": "error"
    },
    {
      "inputs": [
        {
          "internalType": "address",
          "name": "account",
          "type": "address"
        }
      ],
      "name": "OwnableUnauthorizedAccount",
      "type": "error"
    },
    {
      "inputs": [],
      "name": "PriceOutOfRange",
      "type": "error"
    },
    {
      "inputs": [],
      "name": "ReentrancyGuardReentrantCall",
      "type": "error"
    },
    {
      "inputs": [
        {
          "internalType": "address",
          "name": "token",
          "type": "address"
        }
      ],
      "name": "SafeERC20FailedOperation",
      "type": "error"
    },
    {
      "inputs": [],
      "name": "SameTokens",
      "type": "error"
    },
    {
      "inputs": [],
      "name": "Unauthorized",
      "type": "error"
    },
    {
      "inputs": [],
      "name": "ZeroAddress",
      "type": "error"
    },
    {
      "anonymous": false,
      "inputs": [
        {
          "indexed": false,
          "internalType": "address",
          "name": "feeReceiver",
          "type": "address"
        },
        {
          "indexed": false,
          "internalType": "address",
          "name": "token",
          "type": "address"
        },
        {
          "indexed": false,
          "internalType": "uint256",
          "name": "amount",
          "type": "uint256"
        }
      ],
      "name": "FeesWithdrawn",
      "type": "event"
    },
    {
      "anonymous": false,
      "inputs": [
        {
          "indexed": false,
          "internalType": "uint256",
          "name": "orderId",
          "type": "uint256"
        },
        {
          "indexed": false,
          "internalType": "address",
          "name": "maker",
          "type": "address"
        }
      ],
      "name": "OrderCanceled",
      "type": "event"
    },
    {
      "anonymous": false,
      "inputs": [
        {
          "indexed": false,
          "internalType": "uint256",
          "name": "orderId",
          "type": "uint256"
        },
        {
          "indexed": false,
          "internalType": "address",
          "name": "maker",
          "type": "address"
        },
        {
          "indexed": false,
          "internalType": "address",
          "name": "taker",
          "type": "address"
        },
        {
          "indexed": false,
          "internalType": "uint256",
          "name": "dnmTraded",
          "type": "uint256"
        },
        {
          "indexed": false,
          "internalType": "uint256",
          "name": "daiTraded",
          "type": "uint256"
        },
        {
          "indexed": false,
          "internalType": "uint256",
          "name": "dnmFee",
          "type": "uint256"
        },
        {
          "indexed": false,
          "internalType": "uint256",
          "name": "daiFee",
          "type": "uint256"
        }
      ],
      "name": "OrderFilled",
      "type": "event"
    },
    {
      "anonymous": false,
      "inputs": [
        {
          "indexed": false,
          "internalType": "uint256",
          "name": "orderId",
          "type": "uint256"
        },
        {
          "indexed": false,
          "internalType": "address",
          "name": "maker",
          "type": "address"
        },
        {
          "indexed": false,
          "internalType": "bool",
          "name": "isSell",
          "type": "bool"
        },
        {
          "indexed": false,
          "internalType": "uint256",
          "name": "amountDNM",
          "type": "uint256"
        },
        {
          "indexed": false,
          "internalType": "uint256",
          "name": "price",
          "type": "uint256"
        }
      ],
      "name": "OrderPlaced",
      "type": "event"
    },
    {
      "anonymous": false,
      "inputs": [
        {
          "indexed": true,
          "internalType": "address",
          "name": "previousOwner",
          "type": "address"
        },
        {
          "indexed": true,
          "internalType": "address",
          "name": "newOwner",
          "type": "address"
        }
      ],
      "name": "OwnershipTransferred",
      "type": "event"
    },
    {
      "inputs": [
        {
          "internalType": "uint256",
          "name": "orderId",
          "type": "uint256"
        }
      ],
      "name": "cancelOrder",
      "outputs": [],
      "stateMutability": "nonpayable",
      "type": "function"
    },
    {
      "inputs": [],
      "name": "daiToken",
      "outputs": [
        {
          "internalType": "address",
          "name": "",
          "type": "address"
        }
      ],
      "stateMutability": "view",
      "type": "function"
    },
    {
      "inputs": [],
      "name": "dnmToken",
      "outputs": [
        {
          "internalType": "address",
          "name": "",
          "type": "address"
        }
      ],
      "stateMutability": "view",
      "type": "function"
    },
    {
      "inputs": [
        {
          "internalType": "uint256",
          "name": "orderId",
          "type": "uint256"
        }
      ],
      "name": "executeOrder",
      "outputs": [],
      "stateMutability": "nonpayable",
      "type": "function"
    },
    {
      "inputs": [],
      "name": "feeReceiver",
      "outputs": [
        {
          "internalType": "address",
          "name": "",
          "type": "address"
        }
      ],
      "stateMutability": "view",
      "type": "function"
    },
    {
      "inputs": [
        {
          "internalType": "uint256",
          "name": "",
          "type": "uint256"
        }
      ],
      "name": "feeTiers",
      "outputs": [
        {
          "internalType": "uint256",
          "name": "volumeFloor",
          "type": "uint256"
        },
        {
          "internalType": "uint16",
          "name": "feeBps",
          "type": "uint16"
        }
      ],
      "stateMutability": "view",
      "type": "function"
    },
    {
      "inputs": [
        {
          "internalType": "uint256",
          "name": "orderId",
          "type": "uint256"
        }
      ],
      "name": "getOrder",
      "outputs": [
        {
          "components": [
            {
              "internalType": "uint256",
              "name": "id",
              "type": "uint256"
            },
            {
              "internalType": "address",
              "name": "maker",
              "type": "address"
            },
            {
              "internalType": "address",
              "name": "taker",
              "type": "address"
            },
            {
              "internalType": "bool",
              "name": "isSell",
              "type": "bool"
            },
            {
              "internalType": "uint256",
              "name": "amount",
              "type": "uint256"
            },
            {
              "internalType": "uint256",
              "name": "price",
              "type": "uint256"
            },
            {
              "internalType": "enum DexStorage.Status",
              "name": "status",
              "type": "uint8"
            }
          ],
          "internalType": "struct DexStorage.Order",
          "name": "",
          "type": "tuple"
        }
      ],
      "stateMutability": "view",
      "type": "function"
    },
    {
      "inputs": [
        {
          "internalType": "address",
          "name": "user",
          "type": "address"
        }
      ],
      "name": "getUserOrders",
      "outputs": [
        {
          "components": [
            {
              "internalType": "uint256",
              "name": "id",
              "type": "uint256"
            },
            {
              "internalType": "address",
              "name": "maker",
              "type": "address"
            },
            {
              "internalType": "address",
              "name": "taker",
              "type": "address"
            },
            {
              "internalType": "bool",
              "name": "isSell",
              "type": "bool"
            },
            {
              "internalType": "uint256",
              "name": "amount",
              "type": "uint256"
            },
            {
              "internalType": "uint256",
              "name": "price",
              "type": "uint256"
            },
            {
              "internalType": "enum DexStorage.Status",
              "name": "status",
              "type": "uint8"
            }
          ],
          "internalType": "struct DexStorage.Order[]",
          "name": "",
          "type": "tuple[]"
        }
      ],
      "stateMutability": "view",
      "type": "function"
    },
    {
      "inputs": [
        {
          "internalType": "address",
          "name": "",
          "type": "address"
        },
        {
          "internalType": "uint256",
          "name": "",
          "type": "uint256"
        }
      ],
      "name": "makerOrders",
      "outputs": [
        {
          "internalType": "uint256",
          "name": "",
          "type": "uint256"
        }
      ],
      "stateMutability": "view",
      "type": "function"
    },
    {
      "inputs": [],
      "name": "nextOrderId",
      "outputs": [
        {
          "internalType": "uint256",
          "name": "",
          "type": "uint256"
        }
      ],
      "stateMutability": "view",
      "type": "function"
    },
    {
      "inputs": [
        {
          "internalType": "uint256",
          "name": "",
          "type": "uint256"
        }
      ],
      "name": "orders",
      "outputs": [
        {
          "internalType": "uint256",
          "name": "id",
          "type": "uint256"
        },
        {
          "internalType": "address",
          "name": "maker",
          "type": "address"
        },
        {
          "internalType": "address",
          "name": "taker",
          "type": "address"
        },
        {
          "internalType": "bool",
          "name": "isSell",
          "type": "bool"
        },
        {
          "internalType": "uint256",
          "name": "amount",
          "type": "uint256"
        },
        {
          "internalType": "uint256",
          "name": "price",
          "type": "uint256"
        },
        {
          "internalType": "enum DexStorage.Status",
          "name": "status",
          "type": "uint8"
        }
      ],
      "stateMutability": "view",
      "type": "function"
    },
    {
      "inputs": [],
      "name": "owner",
      "outputs": [
        {
          "internalType": "address",
          "name": "",
          "type": "address"
        }
      ],
      "stateMutability": "view",
      "type": "function"
    },
    {
      "inputs": [
        {
          "internalType": "uint256",
          "name": "amount",
          "type": "uint256"
        },
        {
          "internalType": "uint256",
          "name": "price",
          "type": "uint256"
        }
      ],
      "name": "placeBuyOrder",
      "outputs": [],
      "stateMutability": "nonpayable",
      "type": "function"
    },
    {
      "inputs": [
        {
          "internalType": "uint256",
          "name": "amount",
          "type": "uint256"
        },
        {
          "internalType": "uint256",
          "name": "price",
          "type": "uint256"
        }
      ],
      "name": "placeSellOrder",
      "outputs": [],
      "stateMutability": "nonpayable",
      "type": "function"
    },
    {
      "inputs": [],
      "name": "renounceOwnership",
      "outputs": [],
      "stateMutability": "nonpayable",
      "type": "function"
    },
    {
      "inputs": [
        {
          "internalType": "address",
          "name": "newOwner",
          "type": "address"
        }
      ],
      "name": "transferOwnership",
      "outputs": [],
      "stateMutability": "nonpayable",
      "type": "function"
    }
  ],
  "bytecode": "0x610100604052348015610010575f5ffd5b50604051611a12380380611a1283398101604081905261002f9161033e565b84848484848a6001600160a01b03811661006257604051631e4fbdf760e01b81525f600482015260240160405180910390fd5b61006b81610268565b50600180556001600160a01b038516158061008d57506001600160a01b038416155b8061009f57506001600160a01b038316155b156100bd5760405163d92e233d60e01b815260040160405180910390fd5b836001600160a01b0316856001600160a01b0316036100ef57604051630d11785f60e21b815260040160405180910390fd5b6001600160a01b0380861660805284811660a05283811660c052821660e05280515f0361012f5760405163adf8131b60e01b815260040160405180910390fd5b5f5b8151811015610251575f82828151811061014d5761014d610473565b60200260200101519050612710816020015161ffff16106101815760405163cd4e616760e01b815260040160405180910390fd5b81156101d05782610193600184610487565b815181106101a3576101a3610473565b60200260200101515f0151815f0151116101d05760405163adf8131b60e01b815260040160405180910390fd5b60028054600180820183555f83905283517f405787fa12a823e0f2b7631cc41b3ba8828b3321ca811111fa75cd3aa3bb5ace92909302918201929092556020909201517f405787fa12a823e0f2b7631cc41b3ba8828b3321ca811111fa75cd3aa3bb5acf909201805461ffff191661ffff9093169290921790915501610131565b50506001600355506104ac98505050505050505050565b5f80546001600160a01b038381166001600160a01b0319831681178455604051919092169283917f8be0079c531659141344cd1fd0a4f28419497f9722a3daafe3b4186f6b6457e09190a35050565b80516001600160a01b03811681146102cd575f5ffd5b919050565b634e487b7160e01b5f52604160045260245ffd5b604080519081016001600160401b0381118282101715610308576103086102d2565b60405290565b604051601f8201601f191681016001600160401b0381118282101715610336576103366102d2565b604052919050565b5f5f5f5f5f5f60c08789031215610353575f5ffd5b61035c876102b7565b955061036a602088016102b7565b9450610378604088016102b7565b9350610386606088016102b7565b9250610394608088016102b7565b60a08801519092506001600160401b038111156103af575f5ffd5b8701601f810189136103bf575f5ffd5b80516001600160401b038111156103d8576103d86102d2565b6103e760208260051b0161030e565b8082825260208201915060208360061b85010192508b831115610408575f5ffd5b6020840193505b82841015610462576040848d031215610426575f5ffd5b61042e6102e6565b84518152602085015161ffff81168114610446575f5ffd5b806020830152508083525060208201915060408401935061040f565b809450505050509295509295509295565b634e487b7160e01b5f52603260045260245ffd5b818103818111156104a657634e487b7160e01b5f52601160045260245ffd5b92915050565b60805160a05160c05160e0516114b561055d5f395f610ddf01525f818161027d01528181610ba801528181610c2201528181610ccd0152610d4701525f81816102a40152818161078c0152818161095d01528181610b2701528181610b5301528181610b8701528181610cf70152610d2601525f81816101bf015281816105dd0152818161090c01528181610bd201528181610c0101528181610c5101528181610c7d0152610cac01526114b55ff3fe608060405234801561000f575f5ffd5b50600436106100fb575f3560e01c806394f6113411610093578063be22f54611610063578063be22f5461461029f578063d09ef241146102c6578063ee36d4ab146102e6578063f2fde38b146102f9575f5ffd5b806394f61134146101e1578063a4406bcd146101f4578063a85c38ef14610207578063b3f0067414610278575f5ffd5b806363c69f08116100ce57806363c69f081461016e578063715018a61461018e5780638da5cb5b146101965780638dcba1d6146101ba575f5ffd5b8063230ed44a146100ff5780632a58b3301461012f5780633ab22f0114610146578063514fcac714610159575b5f5ffd5b61011261010d3660046111f5565b61030c565b6040805192835261ffff9091166020830152015b60405180910390f35b61013860035481565b604051908152602001610126565b610138610154366004611227565b61033c565b61016c6101673660046111f5565b610367565b005b61018161017c36600461124f565b6103d1565b60405161012691906112fd565b61016c61056e565b5f546001600160a01b03165b6040516001600160a01b039091168152602001610126565b6101a27f000000000000000000000000000000000000000000000000000000000000000081565b61016c6101ef3660046111f5565b610581565b61016c61020236600461134a565b61059d565b6102656102153660046111f5565b600460208190525f918252604090912080546001820154600283015460038401549484015460059094015492946001600160a01b03928316949282169360ff600160a01b90930483169391921687565b604051610126979695949392919061136a565b6101a27f000000000000000000000000000000000000000000000000000000000000000081565b6101a27f000000000000000000000000000000000000000000000000000000000000000081565b6102d96102d43660046111f5565b61061f565b60405161012691906113b7565b61016c6102f436600461134a565b61072c565b61016c61030736600461124f565b6107c9565b6002818154811061031b575f80fd5b5f9182526020909120600290910201805460019091015490915061ffff1682565b6005602052815f5260405f208181548110610355575f80fd5b905f5260205f20015f91509150505481565b806103718161080b565b610379610850565b5f828152600460205260409020600101546001600160a01b031633146103b1576040516282b42960e81b815260040160405180910390fd5b6103bb338361087a565b6103c4826108e1565b6103cd60018055565b5050565b6001600160a01b0381165f90815260056020526040812080546060929067ffffffffffffffff811115610406576104066113cb565b60405190808252806020026020018201604052801561047357816020015b6104606040805160e0810182525f80825260208201819052918101829052606081018290526080810182905260a081018290529060c082015290565b8152602001906001900390816104245790505b5090505f5b82548110156105665760045f848381548110610496576104966113df565b5f91825260208083209091015483528281019390935260409182019020815160e0810183528154815260018201546001600160a01b039081169482019490945260028201549384169281019290925260ff600160a01b9093048316151560608301526003808201546080840152600482015460a084015260058201549293919260c0850192169081111561052c5761052c61126f565b600381111561053d5761053d61126f565b81525050828281518110610553576105536113df565b6020908102919091010152600101610478565b509392505050565b610576610989565b61057f5f6109b5565b565b8061058b8161080b565b610593610850565b6103c48233610a04565b806105a781610ddc565b6105af610850565b8215806105ba575081155b156105d857604051636c2b7e2d60e11b815260040160405180910390fd5b6106047f0000000000000000000000000000000000000000000000000000000000000000333086610e80565b6106113384846001610e95565b61061a60018055565b505050565b61065b6040805160e0810182525f80825260208201819052918101829052606081018290526080810182905260a081018290529060c082015290565b81158061066a57506003548210155b156106885760405163d36d896560e01b815260040160405180910390fd5b5f82815260046020818152604092839020835160e0810185528154815260018201546001600160a01b039081169382019390935260028201549283169481019490945260ff600160a01b90920482161515606085015260038082015460808601529281015460a08501526005810154909260c085019291909116908111156107125761071261126f565b60038111156107235761072361126f565b90525092915050565b8061073681610ddc565b61073e610850565b821580610749575081155b1561076757604051636c2b7e2d60e11b815260040160405180910390fd5b5f670de0b6b3a764000061077b8486611407565b610785919061141e565b90506107b37f0000000000000000000000000000000000000000000000000000000000000000333084610e80565b6107bf3385855f610e95565b5061061a60018055565b6107d1610989565b6001600160a01b0381166107ff57604051631e4fbdf760e01b81525f60048201526024015b60405180910390fd5b610808816109b5565b50565b60015f8281526004602052604090206005015460ff1660038111156108325761083261126f565b1461080857604051631d4ecc5b60e01b815260040160405180910390fd5b60026001540361087357604051633ee5aeb560e01b815260040160405180910390fd5b6002600155565b5f81815260046020526040902060050180546002919060ff19166001830217905550604080518281526001600160a01b03841660208201527f9384174c8517f5537b08e79211fc039e8a098571a3a2b4cb21dfa6f3237e8de1910160405180910390a15050565b5f81815260046020526040902060038101546002820154600160a01b900460ff16156109325761061a7f00000000000000000000000000000000000000000000000000000000000000003383611038565b5f670de0b6b3a764000083600401548361094c9190611407565b610956919061141e565b90506109837f00000000000000000000000000000000000000000000000000000000000000003383611038565b50505050565b5f546001600160a01b0316331461057f5760405163118cdaa760e01b81523360048201526024016107f6565b5f80546001600160a01b038381166001600160a01b0319831681178455604051919092169283917f8be0079c531659141344cd1fd0a4f28419497f9722a3daafe3b4186f6b6457e09190a35050565b5f82815260046020819052604090912090810154610a2190610ddc565b5f83815260046020526040902060010154336001600160a01b0390911603610a5c57604051630cd45c7b60e31b815260040160405180910390fd5b600581018054600360ff1990911681179091556002820180546001600160a01b0319166001600160a01b03851617905581015460048201545f90670de0b6b3a764000090610aaa9084611407565b610ab4919061141e565b90505f610ac08361104c565b90505f612710610ad461ffff841686611407565b610ade919061141e565b90505f612710610af261ffff851686611407565b610afc919061141e565b600187015460028801549192506001600160a01b031690600160a01b900460ff1615610c4c57610b4e7f0000000000000000000000000000000000000000000000000000000000000000893088610e80565b610b827f000000000000000000000000000000000000000000000000000000000000000082610b7d858961143d565b611038565b610bcd7f00000000000000000000000000000000000000000000000000000000000000007f000000000000000000000000000000000000000000000000000000000000000084611038565b610bfc7f000000000000000000000000000000000000000000000000000000000000000089610b7d868a61143d565b610c477f00000000000000000000000000000000000000000000000000000000000000007f000000000000000000000000000000000000000000000000000000000000000085611038565b610d6c565b610c787f0000000000000000000000000000000000000000000000000000000000000000893089610e80565b610ca77f000000000000000000000000000000000000000000000000000000000000000082610b7d868a61143d565b610cf27f00000000000000000000000000000000000000000000000000000000000000007f000000000000000000000000000000000000000000000000000000000000000085611038565b610d217f000000000000000000000000000000000000000000000000000000000000000089610b7d858961143d565b610d6c7f00000000000000000000000000000000000000000000000000000000000000007f000000000000000000000000000000000000000000000000000000000000000084611038565b604080518a81526001600160a01b0383811660208301528a1681830152606081018890526080810187905260a0810185905260c0810184905290517f9e121b9f167c2054a12c8a0c6223a1a7a514529803a71aefbfe840c2dea56f7f9181900360e00190a1505050505050505050565b5f7f00000000000000000000000000000000000000000000000000000000000000006001600160a01b03166398d5fdca6040518163ffffffff1660e01b8152600401602060405180830381865afa158015610e39573d5f5f3e3d5ffd5b505050506040513d601f19601f82011682018060405250810190610e5d9190611450565b9050808210156103cd57604051630df22a0f60e21b815260040160405180910390fd5b6109836001600160a01b0385168484846110f1565b600380545f9182610ea583611467565b9190505590506040518060e00160405280828152602001866001600160a01b031681526020015f6001600160a01b03168152602001831515815260200185815260200184815260200160016003811115610f0157610f0161126f565b90525f828152600460208181526040928390208451815590840151600180830180546001600160a01b0319166001600160a01b03938416179055938501516002830180546060880151929093166001600160a81b031990931692909217600160a01b91151591909102179055608084015160038083019190915560a08501519282019290925560c084015160058201805492949193909260ff191691908490811115610faf57610faf61126f565b021790555050506001600160a01b0385165f818152600560209081526040808320805460018101825590845292829020909201849055815184815290810192909252831515828201526060820186905260808201859052517fa8d12dd5402d0aa9ccaa7a1346ef5a510e0c3ee938c13587bf17e59671b2ebee9181900360a00190a15050505050565b61061a6001600160a01b0384168383611158565b5f5f60025f81548110611061576110616113df565b5f918252602082206001600290920201015461ffff1691505b6002548110156110ea5760028181548110611097576110976113df565b905f5260205f2090600202015f015484106110dd57600281815481106110bf576110bf6113df565b5f91825260209091206001600290920201015461ffff1691506110e2565b6110ea565b60010161107a565b5092915050565b6040516001600160a01b0384811660248301528381166044830152606482018390526109839186918216906323b872dd906084015b604051602081830303815290604052915060e01b6020820180516001600160e01b038381831617835250505050611189565b6040516001600160a01b0383811660248301526044820183905261061a91859182169063a9059cbb90606401611126565b5f5f60205f8451602086015f885af1806111a8576040513d5f823e3d81fd5b50505f513d915081156111bf5780600114156111cc565b6001600160a01b0384163b155b1561098357604051635274afe760e01b81526001600160a01b03851660048201526024016107f6565b5f60208284031215611205575f5ffd5b5035919050565b80356001600160a01b0381168114611222575f5ffd5b919050565b5f5f60408385031215611238575f5ffd5b6112418361120c565b946020939093013593505050565b5f6020828403121561125f575f5ffd5b6112688261120c565b9392505050565b634e487b7160e01b5f52602160045260245ffd5b6004811061129f57634e487b7160e01b5f52602160045260245ffd5b9052565b8051825260018060a01b03602082015116602083015260018060a01b0360408201511660408301526060810151151560608301526080810151608083015260a081015160a083015260c081015161061a60c0840182611283565b602080825282518282018190525f918401906040840190835b8181101561133f576113298385516112a3565b6020939093019260e09290920191600101611316565b509095945050505050565b5f5f6040838503121561135b575f5ffd5b50508035926020909101359150565b8781526001600160a01b0387811660208301528616604082015284151560608201526080810184905260a0810183905260e081016113ab60c0830184611283565b98975050505050505050565b60e081016113c582846112a3565b92915050565b634e487b7160e01b5f52604160045260245ffd5b634e487b7160e01b5f52603260045260245ffd5b634e487b7160e01b5f52601160045260245ffd5b80820281158282048414176113c5576113c56113f3565b5f8261143857634e487b7160e01b5f52601260045260245ffd5b500490565b818103818111156113c5576113c56113f3565b5f60208284031215611460575f5ffd5b5051919050565b5f60018201611478576114786113f3565b506001019056fea264697066735822122038de2c520cfd54577c48c153fd93883063316d1676fc9b4a6ca3bec170e1522a64736f6c634300081c0033",
  "linkReferences": {},
  "deployedLinkReferences": {},
  "immutableReferences": {
    "1783": [
      {
        "length": 32,
        "start": 447
      },
      {
        "length": 32,
        "start": 1501
      },
      {
        "length": 32,
        "start": 2316
      },
      {
        "length": 32,
        "start": 3026
      },
      {
        "length": 32,
        "start": 3073
      },
      {
        "length": 32,
        "start": 3153
      },
      {
        "length": 32,
        "start": 3197
      },
      {
        "length": 32,
        "start": 3244
      }
    ],
    "1786": [
      {
        "length": 32,
        "start": 676
      },
      {
        "length": 32,
        "start": 1932
      },
      {
        "length": 32,
        "start": 2397
      },
      {
        "length": 32,
        "start": 2855
      },
      {
        "length": 32,
        "start": 2899
      },
      {
        "length": 32,
        "start": 2951
      },
      {
        "length": 32,
        "start": 3319
      },
      {
        "length": 32,
        "start": 3366
      }
    ],
    "1789": [
      {
        "length": 32,
        "start": 637
      },
      {
        "length": 32,
        "start": 2984
      },
      {
        "length": 32,
        "start": 3106
      },
      {
        "length": 32,
        "start": 3277
      },
      {
        "length": 32,
        "start": 3399
      }
    ],
    "1793": [
      {
        "length": 32,
        "start": 3551
      }
    ]
  },
  "inputSourceName": "project/contracts/dex/Dex.sol",
  "buildInfoId": "solc-0_8_28-1c6e44793f918424edb306c48e1b0eb06e9cedc1"
}