{
  "_format": "hh3-artifact-1",
  "contractName": "DecentralizedNetworkMarketingPlus",
  "sourceName": "contracts/dnm/DNM.sol",
  "abi": [
    {
      "inputs": [
        {
          "internalType": "address",
          "name": "recipient",
          "type": "address"
        },
        {
          "internalType": "uint256",
          "name": "initialSupply",
          "type": "uint256"
        }
      ],
      "stateMutability": "nonpayable",
      "type": "constructor"
    },
    {
      "inputs": [
        {
          "internalType": "address",
          "name": "spender",
          "type": "address"
        },
        {
          "internalType": "uint256",
          "name": "allowance",
          "type": "uint256"
        },
        {
          "internalType": "uint256",
          "name": "needed",
          "type": "uint256"
        }
      ],
      "name": "ERC20InsufficientAllowance",
      "type": "error"
    },
    {
      "inputs": [
        {
          "internalType": "address",
          "name": "sender",
          "type": "address"
        },
        {
          "internalType": "uint256",
          "name": "balance",
          "type": "uint256"
        },
        {
          "internalType": "uint256",
          "name": "needed",
          "type": "uint256"
        }
      ],
      "name": "ERC20InsufficientBalance",
      "type": "error"
    },
    {
      "inputs": [
        {
          "internalType": "address",
          "name": "approver",
          "type": "address"
        }
      ],
      "name": "ERC20InvalidApprover",
      "type": "error"
    },
    {
      "inputs": [
        {
          "internalType": "address",
          "name": "receiver",
          "type": "address"
        }
      ],
      "name": "ERC20InvalidReceiver",
      "type": "error"
    },
    {
      "inputs": [
        {
          "internalType": "address",
          "name": "sender",
          "type": "address"
        }
      ],
      "name": "ERC20InvalidSender",
      "type": "error"
    },
    {
      "inputs": [
        {
          "internalType": "address",
          "name": "spender",
          "type": "address"
        }
      ],
      "name": "ERC20InvalidSpender",
      "type": "error"
    },
    {
      "inputs": [
        {
          "internalType": "address",
          "name": "owner",
          "type": "address"
        }
      ],
      "name": "OwnableInvalidOwner",
      "type": "error"
    },
    {
      "inputs": [
        {
          "internalType": "address",
          "name": "account",
          "type": "address"
        }
      ],
      "name": "OwnableUnauthorizedAccount",
      "type": "error"
    },
    {
      "anonymous": false,
      "inputs": [
        {
          "indexed": true,
          "internalType": "address",
          "name": "owner",
          "type": "address"
        },
        {
          "indexed": true,
          "internalType": "address",
          "name": "spender",
          "type": "address"
        },
        {
          "indexed": false,
          "internalType": "uint256",
          "name": "value",
          "type": "uint256"
        }
      ],
      "name": "Approval",
      "type": "event"
    },
    {
      "anonymous": false,
      "inputs": [
        {
          "indexed": true,
          "internalType": "address",
          "name": "previousOwner",
          "type": "address"
        },
        {
          "indexed": true,
          "internalType": "address",
          "name": "newOwner",
          "type": "address"
        }
      ],
      "name": "OwnershipTransferred",
      "type": "event"
    },
    {
      "anonymous": false,
      "inputs": [
        {
          "indexed": true,
          "internalType": "address",
          "name": "from",
          "type": "address"
        },
        {
          "indexed": true,
          "internalType": "address",
          "name": "to",
          "type": "address"
        },
        {
          "indexed": false,
          "internalType": "uint256",
          "name": "value",
          "type": "uint256"
        }
      ],
      "name": "Transfer",
      "type": "event"
    },
    {
      "inputs": [
        {
          "internalType": "address",
          "name": "owner",
          "type": "address"
        },
        {
          "internalType": "address",
          "name": "spender",
          "type": "address"
        }
      ],
      "name": "allowance",
      "outputs": [
        {
          "internalType": "uint256",
          "name": "",
          "type": "uint256"
        }
      ],
      "stateMutability": "view",
      "type": "function"
    },
    {
      "inputs": [
        {
          "internalType": "address",
          "name": "spender",
          "type": "address"
        },
        {
          "internalType": "uint256",
          "name": "value",
          "type": "uint256"
        }
      ],
      "name": "approve",
      "outputs": [
        {
          "internalType": "bool",
          "name": "",
          "type": "bool"
        }
      ],
      "stateMutability": "nonpayable",
      "type": "function"
    },
    {
      "inputs": [
        {
          "internalType": "address",
          "name": "account",
          "type": "address"
        }
      ],
      "name": "balanceOf",
      "outputs": [
        {
          "internalType": "uint256",
          "name": "",
          "type": "uint256"
        }
      ],
      "stateMutability": "view",
      "type": "function"
    },
    {
      "inputs": [
        {
          "internalType": "uint256",
          "name": "value",
          "type": "uint256"
        }
      ],
      "name": "burn",
      "outputs": [],
      "stateMutability": "nonpayable",
      "type": "function"
    },
    {
      "inputs": [
        {
          "internalType": "address",
          "name": "account",
          "type": "address"
        },
        {
          "internalType": "uint256",
          "name": "value",
          "type": "uint256"
        }
      ],
      "name": "burnFrom",
      "outputs": [],
      "stateMutability": "nonpayable",
      "type": "function"
    },
    {
      "inputs": [],
      "name": "decimals",
      "outputs": [
        {
          "internalType": "uint8",
          "name": "",
          "type": "uint8"
        }
      ],
      "stateMutability": "view",
      "type": "function"
    },
    {
      "inputs": [
        {
          "internalType": "address",
          "name": "",
          "type": "address"
        }
      ],
      "name": "isMintOperator",
      "outputs": [
        {
          "internalType": "bool",
          "name": "",
          "type": "bool"
        }
      ],
      "stateMutability": "view",
      "type": "function"
    },
    {
      "inputs": [
        {
          "internalType": "address",
          "name": "to",
          "type": "address"
        },
        {
          "internalType": "uint256",
          "name": "amount",
          "type": "uint256"
        }
      ],
      "name": "mint",
      "outputs": [],
      "stateMutability": "nonpayable",
      "type": "function"
    },
    {
      "inputs": [],
      "name": "name",
      "outputs": [
        {
          "internalType": "string",
          "name": "",
          "type": "string"
        }
      ],
      "stateMutability": "view",
      "type": "function"
    },
    {
      "inputs": [],
      "name": "owner",
      "outputs": [
        {
          "internalType": "address",
          "name": "",
          "type": "address"
        }
      ],
      "stateMutability": "view",
      "type": "function"
    },
    {
      "inputs": [],
      "name": "renounceOwnership",
      "outputs": [],
      "stateMutability": "nonpayable",
      "type": "function"
    },
    {
      "inputs": [
        {
          "internalType": "address",
          "name": "_operator",
          "type": "address"
        },
        {
          "internalType": "bool",
          "name": "_isMintOperator",
          "type": "bool"
        }
      ],
      "name": "setMintOperator",
      "outputs": [],
      "stateMutability": "nonpayable",
      "type": "function"
    },
    {
      "inputs": [],
      "name": "symbol",
      "outputs": [
        {
          "internalType": "string",
          "name": "",
          "type": "string"
        }
      ],
      "stateMutability": "view",
      "type": "function"
    },
    {
      "inputs": [],
      "name": "totalSupply",
      "outputs": [
        {
          "internalType": "uint256",
          "name": "",
          "type": "uint256"
        }
      ],
      "stateMutability": "view",
      "type": "function"
    },
    {
      "inputs": [
        {
          "internalType": "address",
          "name": "to",
          "type": "address"
        },
        {
          "internalType": "uint256",
          "name": "value",
          "type": "uint256"
        }
      ],
      "name": "transfer",
      "outputs": [
        {
          "internalType": "bool",
          "name": "",
          "type": "bool"
        }
      ],
      "stateMutability": "nonpayable",
      "type": "function"
    },
    {
      "inputs": [
        {
          "internalType": "address",
          "name": "from",
          "type": "address"
        },
        {
          "internalType": "address",
          "name": "to",
          "type": "address"
        },
        {
          "internalType": "uint256",
          "name": "value",
          "type": "uint256"
        }
      ],
      "name": "transferFrom",
      "outputs": [
        {
          "internalType": "bool",
          "name": "",
          "type": "bool"
        }
      ],
      "stateMutability": "nonpayable",
      "type": "function"
    },
    {
      "inputs": [
        {
          "internalType": "address",
          "name": "newOwner",
          "type": "address"
        }
      ],
      "name": "transferOwnership",
      "outputs": [],
      "stateMutability": "nonpayable",
      "type": "function"
    }
  ],
  "bytecode": "0x608060405234801561000f575f5ffd5b50604051610fc1380380610fc183398101604081905261002e9161028c565b33604051806060016040528060248152602001610f9d60249139604080518082019091526004815263444e4d2b60e01b6020820152600361006f838261035b565b50600461007c828261035b565b5050506001600160a01b0381166100ad57604051631e4fbdf760e01b81525f60048201526024015b60405180910390fd5b6100b6816100dd565b506100d6826100c76012600a61050e565b6100d19084610523565b61012e565b505061054d565b600580546001600160a01b038381166001600160a01b0319831681179093556040519116919082907f8be0079c531659141344cd1fd0a4f28419497f9722a3daafe3b4186f6b6457e0905f90a35050565b6001600160a01b0382166101575760405163ec442f0560e01b81525f60048201526024016100a4565b6101625f8383610166565b5050565b6001600160a01b038316610190578060025f828254610185919061053a565b909155506102009050565b6001600160a01b0383165f90815260208190526040902054818110156101e25760405163391434e360e21b81526001600160a01b038516600482015260248101829052604481018390526064016100a4565b6001600160a01b0384165f9081526020819052604090209082900390555b6001600160a01b03821661021c5760028054829003905561023a565b6001600160a01b0382165f9081526020819052604090208054820190555b816001600160a01b0316836001600160a01b03167fddf252ad1be2c89b69c2b068fc378daa952ba7f163c4a11628f55a4df523b3ef8360405161027f91815260200190565b60405180910390a3505050565b5f5f6040838503121561029d575f5ffd5b82516001600160a01b03811681146102b3575f5ffd5b6020939093015192949293505050565b634e487b7160e01b5f52604160045260245ffd5b600181811c908216806102eb57607f821691505b60208210810361030957634e487b7160e01b5f52602260045260245ffd5b50919050565b601f82111561035657805f5260205f20601f840160051c810160208510156103345750805b601f840160051c820191505b81811015610353575f8155600101610340565b50505b505050565b81516001600160401b03811115610374576103746102c3565b6103888161038284546102d7565b8461030f565b6020601f8211600181146103ba575f83156103a35750848201515b5f19600385901b1c1916600184901b178455610353565b5f84815260208120601f198516915b828110156103e957878501518255602094850194600190920191016103c9565b508482101561040657868401515f19600387901b60f8161c191681555b50505050600190811b01905550565b634e487b7160e01b5f52601160045260245ffd5b6001815b60018411156104645780850481111561044857610448610415565b600184161561045657908102905b60019390931c92800261042d565b935093915050565b5f8261047a57506001610508565b8161048657505f610508565b816001811461049c57600281146104a6576104c2565b6001915050610508565b60ff8411156104b7576104b7610415565b50506001821b610508565b5060208310610133831016604e8410600b84101617156104e5575081810a610508565b6104f15f198484610429565b805f190482111561050457610504610415565b0290505b92915050565b5f61051c60ff84168361046c565b9392505050565b808202811582820484141761050857610508610415565b8082018082111561050857610508610415565b610a438061055a5f395ff3fe608060405234801561000f575f5ffd5b5060043610610106575f3560e01c8063712f38411161009e5780638da5cb5b1161006e5780638da5cb5b1461021f57806395d89b411461023a578063a9059cbb14610242578063dd62ed3e14610255578063f2fde38b1461028d575f5ffd5b8063712f3841146101cf578063715018a6146101e2578063752c58f4146101ea57806379cc67901461020c575f5ffd5b8063313ce567116100d9578063313ce5671461017057806340c10f191461017f57806342966c681461019457806370a08231146101a7575f5ffd5b806306fdde031461010a578063095ea7b31461012857806318160ddd1461014b57806323b872dd1461015d575b5f5ffd5b6101126102a0565b60405161011f9190610863565b60405180910390f35b61013b6101363660046108b3565b610330565b604051901515815260200161011f565b6002545b60405190815260200161011f565b61013b61016b3660046108db565b610349565b6040516012815260200161011f565b61019261018d3660046108b3565b61036c565b005b6101926101a2366004610915565b6103dd565b61014f6101b536600461092c565b6001600160a01b03165f9081526020819052604090205490565b6101926101dd36600461094c565b6103ea565b61019261041c565b61013b6101f836600461092c565b60066020525f908152604090205460ff1681565b61019261021a3660046108b3565b61042f565b6005546040516001600160a01b03909116815260200161011f565b610112610444565b61013b6102503660046108b3565b610453565b61014f610263366004610985565b6001600160a01b039182165f90815260016020908152604080832093909416825291909152205490565b61019261029b36600461092c565b610460565b6060600380546102af906109b6565b80601f01602080910402602001604051908101604052809291908181526020018280546102db906109b6565b80156103265780601f106102fd57610100808354040283529160200191610326565b820191905f5260205f20905b81548152906001019060200180831161030957829003601f168201915b5050505050905090565b5f3361033d81858561049a565b60019150505b92915050565b5f336103568582856104ac565b610361858585610528565b506001949350505050565b335f9081526006602052604090205460ff166103cf5760405162461bcd60e51b815260206004820152601b60248201527f4f6e6c79206d696e74206f70657261746f722063616e206d696e74000000000060448201526064015b60405180910390fd5b6103d98282610585565b5050565b6103e733826105b9565b50565b6103f26105ed565b6001600160a01b03919091165f908152600660205260409020805460ff1916911515919091179055565b6104246105ed565b61042d5f61061a565b565b61043a8233836104ac565b6103d982826105b9565b6060600480546102af906109b6565b5f3361033d818585610528565b6104686105ed565b6001600160a01b03811661049157604051631e4fbdf760e01b81525f60048201526024016103c6565b6103e78161061a565b6104a7838383600161066b565b505050565b6001600160a01b038381165f908152600160209081526040808320938616835292905220545f19811015610522578181101561051457604051637dc7a0d960e11b81526001600160a01b038416600482015260248101829052604481018390526064016103c6565b61052284848484035f61066b565b50505050565b6001600160a01b03831661055157604051634b637e8f60e11b81525f60048201526024016103c6565b6001600160a01b03821661057a5760405163ec442f0560e01b81525f60048201526024016103c6565b6104a783838361073d565b6001600160a01b0382166105ae5760405163ec442f0560e01b81525f60048201526024016103c6565b6103d95f838361073d565b6001600160a01b0382166105e257604051634b637e8f60e11b81525f60048201526024016103c6565b6103d9825f8361073d565b6005546001600160a01b0316331461042d5760405163118cdaa760e01b81523360048201526024016103c6565b600580546001600160a01b038381166001600160a01b0319831681179093556040519116919082907f8be0079c531659141344cd1fd0a4f28419497f9722a3daafe3b4186f6b6457e0905f90a35050565b6001600160a01b0384166106945760405163e602df0560e01b81525f60048201526024016103c6565b6001600160a01b0383166106bd57604051634a1406b160e11b81525f60048201526024016103c6565b6001600160a01b038085165f908152600160209081526040808320938716835292905220829055801561052257826001600160a01b0316846001600160a01b03167f8c5be1e5ebec7d5bd14f71427d1e84f3dd0314c0f7b2291e5b200ac8c7c3b9258460405161072f91815260200190565b60405180910390a350505050565b6001600160a01b038316610767578060025f82825461075c91906109ee565b909155506107d79050565b6001600160a01b0383165f90815260208190526040902054818110156107b95760405163391434e360e21b81526001600160a01b038516600482015260248101829052604481018390526064016103c6565b6001600160a01b0384165f9081526020819052604090209082900390555b6001600160a01b0382166107f357600280548290039055610811565b6001600160a01b0382165f9081526020819052604090208054820190555b816001600160a01b0316836001600160a01b03167fddf252ad1be2c89b69c2b068fc378daa952ba7f163c4a11628f55a4df523b3ef8360405161085691815260200190565b60405180910390a3505050565b602081525f82518060208401528060208501604085015e5f604082850101526040601f19601f83011684010191505092915050565b80356001600160a01b03811681146108ae575f5ffd5b919050565b5f5f604083850312156108c4575f5ffd5b6108cd83610898565b946020939093013593505050565b5f5f5f606084860312156108ed575f5ffd5b6108f684610898565b925061090460208501610898565b929592945050506040919091013590565b5f60208284031215610925575f5ffd5b5035919050565b5f6020828403121561093c575f5ffd5b61094582610898565b9392505050565b5f5f6040838503121561095d575f5ffd5b61096683610898565b91506020830135801515811461097a575f5ffd5b809150509250929050565b5f5f60408385031215610996575f5ffd5b61099f83610898565b91506109ad60208401610898565b90509250929050565b600181811c908216806109ca57607f821691505b6020821081036109e857634e487b7160e01b5f52602260045260245ffd5b50919050565b8082018082111561034357634e487b7160e01b5f52601160045260245ffdfea26469706673582212204794603981b750c47f5987d1b0c1debf6997066d0f65b1fac172eb9e9f791f8364736f6c634300081c0033446563656e7472616c697a6564204e6574776f726b204d61726b6574696e6720506c7573",
  "linkReferences": {},
  "deployedLinkReferences": {},
  "immutableReferences": {},
  "inputSourceName": "project/contracts/dnm/DNM.sol",
  "buildInfoId": "solc-0_8_28-6cbdc5a5b1980fbb2bbffa63bf161fc08779092d"
}