{
  "_format": "hh3-artifact-1",
  "contractName": "MLMTree",
  "sourceName": "contracts/core/MLMTree.sol",
  "abi": [
    {
      "inputs": [],
      "stateMutability": "nonpayable",
      "type": "constructor"
    },
    {
      "inputs": [],
      "name": "FirstUserMustBeRoot",
      "type": "error"
    },
    {
      "inputs": [],
      "name": "InvalidParentId",
      "type": "error"
    },
    {
      "inputs": [],
      "name": "InvalidPosition",
      "type": "error"
    },
    {
      "inputs": [],
      "name": "MaxProcessLimitExceeded",
      "type": "error"
    },
    {
      "inputs": [
        {
          "internalType": "address",
          "name": "owner",
          "type": "address"
        }
      ],
      "name": "OwnableInvalidOwner",
      "type": "error"
    },
    {
      "inputs": [
        {
          "internalType": "address",
          "name": "account",
          "type": "address"
        }
      ],
      "name": "OwnableUnauthorizedAccount",
      "type": "error"
    },
    {
      "inputs": [],
      "name": "PositionAlreadyTaken",
      "type": "error"
    },
    {
      "inputs": [],
      "name": "ReentrancyGuardReentrantCall",
      "type": "error"
    },
    {
      "inputs": [],
      "name": "UnauthorizedCaller",
      "type": "error"
    },
    {
      "inputs": [],
      "name": "UserAlreadyRegistered",
      "type": "error"
    },
    {
      "inputs": [],
      "name": "UserNotRegistered",
      "type": "error"
    },
    {
      "anonymous": false,
      "inputs": [
        {
          "indexed": true,
          "internalType": "uint256",
          "name": "orderId",
          "type": "uint256"
        },
        {
          "indexed": true,
          "internalType": "uint32",
          "name": "buyerId",
          "type": "uint32"
        },
        {
          "indexed": false,
          "internalType": "uint256",
          "name": "amount",
          "type": "uint256"
        }
      ],
      "name": "OrderCreated",
      "type": "event"
    },
    {
      "anonymous": false,
      "inputs": [
        {
          "indexed": true,
          "internalType": "uint32",
          "name": "userId",
          "type": "uint32"
        },
        {
          "indexed": false,
          "internalType": "uint256",
          "name": "processed",
          "type": "uint256"
        },
        {
          "indexed": false,
          "internalType": "uint256",
          "name": "lastCalculatedOrder",
          "type": "uint256"
        }
      ],
      "name": "OrdersCalculated",
      "type": "event"
    },
    {
      "anonymous": false,
      "inputs": [
        {
          "indexed": true,
          "internalType": "address",
          "name": "previousOwner",
          "type": "address"
        },
        {
          "indexed": true,
          "internalType": "address",
          "name": "newOwner",
          "type": "address"
        }
      ],
      "name": "OwnershipTransferred",
      "type": "event"
    },
    {
      "anonymous": false,
      "inputs": [
        {
          "indexed": true,
          "internalType": "uint32",
          "name": "userId",
          "type": "uint32"
        },
        {
          "indexed": true,
          "internalType": "uint32",
          "name": "parentId",
          "type": "uint32"
        },
        {
          "indexed": false,
          "internalType": "uint8",
          "name": "position",
          "type": "uint8"
        },
        {
          "indexed": true,
          "internalType": "address",
          "name": "userAddr",
          "type": "address"
        }
      ],
      "name": "UserRegistered",
      "type": "event"
    },
    {
      "inputs": [],
      "name": "MAX_PROCESS_LIMIT",
      "outputs": [
        {
          "internalType": "uint256",
          "name": "",
          "type": "uint256"
        }
      ],
      "stateMutability": "view",
      "type": "function"
    },
    {
      "inputs": [],
      "name": "SAME_NODE_SENTINEL",
      "outputs": [
        {
          "internalType": "uint8",
          "name": "",
          "type": "uint8"
        }
      ],
      "stateMutability": "view",
      "type": "function"
    },
    {
      "inputs": [
        {
          "internalType": "address",
          "name": "",
          "type": "address"
        }
      ],
      "name": "addressToId",
      "outputs": [
        {
          "internalType": "uint32",
          "name": "",
          "type": "uint32"
        }
      ],
      "stateMutability": "view",
      "type": "function"
    },
    {
      "inputs": [
        {
          "internalType": "uint32",
          "name": "callerId",
          "type": "uint32"
        },
        {
          "internalType": "uint256",
          "name": "maxProcess",
          "type": "uint256"
        }
      ],
      "name": "calculateOrders",
      "outputs": [
        {
          "internalType": "uint256",
          "name": "processed",
          "type": "uint256"
        },
        {
          "internalType": "uint256",
          "name": "newLastCalculatedOrder",
          "type": "uint256"
        }
      ],
      "stateMutability": "nonpayable",
      "type": "function"
    },
    {
      "inputs": [
        {
          "internalType": "uint32",
          "name": "buyerId",
          "type": "uint32"
        },
        {
          "internalType": "uint256",
          "name": "amount",
          "type": "uint256"
        }
      ],
      "name": "createOrder",
      "outputs": [],
      "stateMutability": "nonpayable",
      "type": "function"
    },
    {
      "inputs": [
        {
          "internalType": "uint32",
          "name": "userId",
          "type": "uint32"
        }
      ],
      "name": "getRemainingOrders",
      "outputs": [
        {
          "internalType": "uint256",
          "name": "",
          "type": "uint256"
        }
      ],
      "stateMutability": "view",
      "type": "function"
    },
    {
      "inputs": [
        {
          "internalType": "address",
          "name": "userAddr",
          "type": "address"
        }
      ],
      "name": "getUserByAddress",
      "outputs": [
        {
          "components": [
            {
              "internalType": "uint32",
              "name": "parentId",
              "type": "uint32"
            },
            {
              "internalType": "uint8",
              "name": "position",
              "type": "uint8"
            },
            {
              "internalType": "bytes32[]",
              "name": "path",
              "type": "bytes32[]"
            },
            {
              "internalType": "uint256",
              "name": "lastCalculatedOrder",
              "type": "uint256"
            },
            {
              "internalType": "uint256[4]",
              "name": "childrenBv",
              "type": "uint256[4]"
            },
            {
              "internalType": "uint256",
              "name": "createdAt",
              "type": "uint256"
            },
            {
              "internalType": "bool",
              "name": "active",
              "type": "bool"
            }
          ],
          "internalType": "struct MLMTree.User",
          "name": "",
          "type": "tuple"
        }
      ],
      "stateMutability": "view",
      "type": "function"
    },
    {
      "inputs": [
        {
          "internalType": "uint32",
          "name": "userId",
          "type": "uint32"
        }
      ],
      "name": "getUserPathLength",
      "outputs": [
        {
          "internalType": "uint256",
          "name": "",
          "type": "uint256"
        }
      ],
      "stateMutability": "view",
      "type": "function"
    },
    {
      "inputs": [
        {
          "internalType": "uint32",
          "name": "rootId",
          "type": "uint32"
        },
        {
          "internalType": "uint32",
          "name": "candidateId",
          "type": "uint32"
        }
      ],
      "name": "isSubTree",
      "outputs": [
        {
          "internalType": "bool",
          "name": "inSubTree",
          "type": "bool"
        },
        {
          "internalType": "uint8",
          "name": "position",
          "type": "uint8"
        }
      ],
      "stateMutability": "view",
      "type": "function"
    },
    {
      "inputs": [],
      "name": "lastOrderId",
      "outputs": [
        {
          "internalType": "uint256",
          "name": "",
          "type": "uint256"
        }
      ],
      "stateMutability": "view",
      "type": "function"
    },
    {
      "inputs": [],
      "name": "nextUserId",
      "outputs": [
        {
          "internalType": "uint32",
          "name": "",
          "type": "uint32"
        }
      ],
      "stateMutability": "view",
      "type": "function"
    },
    {
      "inputs": [
        {
          "internalType": "uint256",
          "name": "",
          "type": "uint256"
        }
      ],
      "name": "orders",
      "outputs": [
        {
          "internalType": "uint32",
          "name": "buyerId",
          "type": "uint32"
        },
        {
          "internalType": "uint256",
          "name": "amount",
          "type": "uint256"
        },
        {
          "internalType": "uint256",
          "name": "timestamp",
          "type": "uint256"
        }
      ],
      "stateMutability": "view",
      "type": "function"
    },
    {
      "inputs": [],
      "name": "owner",
      "outputs": [
        {
          "internalType": "address",
          "name": "",
          "type": "address"
        }
      ],
      "stateMutability": "view",
      "type": "function"
    },
    {
      "inputs": [
        {
          "internalType": "uint32",
          "name": "",
          "type": "uint32"
        },
        {
          "internalType": "uint8",
          "name": "",
          "type": "uint8"
        }
      ],
      "name": "positionTaken",
      "outputs": [
        {
          "internalType": "bool",
          "name": "",
          "type": "bool"
        }
      ],
      "stateMutability": "view",
      "type": "function"
    },
    {
      "inputs": [
        {
          "internalType": "address",
          "name": "userAddr",
          "type": "address"
        },
        {
          "internalType": "uint32",
          "name": "parentId",
          "type": "uint32"
        },
        {
          "internalType": "uint8",
          "name": "position",
          "type": "uint8"
        }
      ],
      "name": "registerUser",
      "outputs": [],
      "stateMutability": "nonpayable",
      "type": "function"
    },
    {
      "inputs": [],
      "name": "renounceOwnership",
      "outputs": [],
      "stateMutability": "nonpayable",
      "type": "function"
    },
    {
      "inputs": [
        {
          "internalType": "address",
          "name": "newOwner",
          "type": "address"
        }
      ],
      "name": "transferOwnership",
      "outputs": [],
      "stateMutability": "nonpayable",
      "type": "function"
    },
    {
      "inputs": [
        {
          "internalType": "uint32",
          "name": "",
          "type": "uint32"
        }
      ],
      "name": "users",
      "outputs": [
        {
          "internalType": "uint32",
          "name": "parentId",
          "type": "uint32"
        },
        {
          "internalType": "uint8",
          "name": "position",
          "type": "uint8"
        },
        {
          "internalType": "uint256",
          "name": "lastCalculatedOrder",
          "type": "uint256"
        },
        {
          "internalType": "uint256",
          "name": "createdAt",
          "type": "uint256"
        },
        {
          "internalType": "bool",
          "name": "active",
          "type": "bool"
        }
      ],
      "stateMutability": "view",
      "type": "function"
    }
  ],
  "bytecode": "0x60806040526007805463ffffffff19166001179055348015601e575f5ffd5b5060015f553380604757604051631e4fbdf760e01b81525f600482015260240160405180910390fd5b604e816053565b5060a4565b600180546001600160a01b038381166001600160a01b0319831681179093556040519116919082907f8be0079c531659141344cd1fd0a4f28419497f9722a3daafe3b4186f6b6457e0905f90a35050565b6113f6806100b15f395ff3fe608060405234801561000f575f5ffd5b5060043610610111575f3560e01c8063a6026e781161009e578063cb0e0d7d1161006e578063cb0e0d7d14610289578063e2226a56146102ae578063f176c0a31461032a578063f21c12d114610367578063f2fde38b14610393575f5ffd5b8063a6026e78146101dd578063a765f25a146101f7578063a85c38ef1461021f578063ad4ac28b14610276575f5ffd5b806369c212f6116100e457806369c212f614610162578063715018a61461018257806381ed10dd1461018a5780638da5cb5b1461019d578063a1e6a255146101b8575f5ffd5b8063062ef8a21461011557806329367c341461013b5780635662ecc714610150578063594b488814610159575b5f5ffd5b6101286101233660046110b7565b6103a6565b6040519081526020015b60405180910390f35b61014e6101493660046110d0565b61040c565b005b61012860065481565b6101286107d081565b61017561017036600461110e565b6104f9565b604051610132919061114f565b61014e610629565b6101286101983660046110b7565b61063c565b6001546040516001600160a01b039091168152602001610132565b6007546101c89063ffffffff1681565b60405163ffffffff9091168152602001610132565b6101e560ff81565b60405160ff9091168152602001610132565b61020a6102053660046110d0565b6106b2565b60408051928352602083019190915201610132565b61025461022d3660046111fd565b60056020525f908152604090208054600182015460029092015463ffffffff909116919083565b6040805163ffffffff9094168452602084019290925290820152606001610132565b61014e610284366004611224565b610927565b6101c861029736600461110e565b60026020525f908152604090205463ffffffff1681565b6102f76102bc3660046110b7565b60036020525f9081526040902080546002820154600783015460089093015463ffffffff83169360ff64010000000090940484169390911685565b6040805163ffffffff909616865260ff90941660208601529284019190915260608301521515608082015260a001610132565b610357610338366004611264565b600460209081525f928352604080842090915290825290205460ff1681565b6040519015158152602001610132565b61037a610375366004611295565b610c0e565b60408051921515835260ff909116602083015201610132565b61014e6103a136600461110e565b610d35565b63ffffffff81165f9081526003602052604081206008015460ff166103e65760405162461bcd60e51b81526004016103dd906112bd565b60405180910390fd5b63ffffffff82165f90815260036020526040902061040690600101610d72565b92915050565b335f90815260026020526040902054829063ffffffff8083169116141580610438575063ffffffff8116155b1561045657604051635c427cd960e01b815260040160405180910390fd5b5f60065f8154610465906112f9565b91829055506040805160608101825263ffffffff8781168083526020808401898152428587019081525f888152600584528790209551865463ffffffff19169516949094178555516001850155915160029093019290925591518681529293509183917f9020397e308191d8e1c994ed605332ce1510b49f070b3cbcc44be209376918f2910160405180910390a350505050565b610501611039565b6001600160a01b0382165f9081526002602052604081205463ffffffff169081900361053f5760405162461bcd60e51b81526004016103dd906112bd565b63ffffffff8181165f90815260036020908152604091829020825160e0810184528154948516815264010000000090940460ff1684830152600181018054845181850281018501865281815292948601938301828280156105bd57602002820191905f5260205f20905b8154815260200190600101908083116105a9575b505050918352505060028201546020820152604080516080810182529101906003830160048282826020028201915b8154815260200190600101908083116105ec5750505091835250506007820154602082015260089091015460ff1615156040909101529392505050565b610631610e15565b61063a5f610e42565b565b63ffffffff81165f9081526003602052604081206008015460ff166106735760405162461bcd60e51b81526004016103dd906112bd565b63ffffffff82165f908152600360205260409020600201546006548110156106aa57806006546106a39190611311565b9392505050565b505f92915050565b5f5f6106bc610e93565b6107d08311156106df5760405163835db10160e01b815260040160405180910390fd5b63ffffffff84165f9081526003602052604090206008015460ff1661071757604051632163950f60e01b815260040160405180910390fd5b63ffffffff84165f9081526003602052604081206002015461073a906001611324565b6006545f945090915061074b611081565b81831115801561075a57508585105b15610815575f8381526005602090815260408083208151606081018352815463ffffffff1680825260018301549482019490945260029091015491810191909152919081906107aa908b90610c0e565b915091508180156107be575060ff81811614155b156107f2578260200151848260ff16600481106107dd576107dd611337565b602002018181516107ee9190611324565b9052505b856107fc816112f9565b965050878061080a906112f9565b98505050505061074b565b5f5b60048160ff1610156108af575f828260ff166004811061083957610839611337565b602002015111156108a757818160ff166004811061085957610859611337565b602002015160035f8a63ffffffff1663ffffffff1681526020019081526020015f206003018260ff166004811061089257610892611337565b015f8282546108a19190611324565b90915550505b600101610817565b506108bb600184611311565b63ffffffff88165f81815260036020908152604091829020600201849055815189815290810184905292965090917f2a8e268f7ba180be4d3377b79dab2e0626da54e4c2ed4bd18864abeadffc8ee7910160405180910390a250505061092060015f55565b9250929050565b6001600160a01b0383165f9081526002602052604090205463ffffffff161561096357604051634f2532fb60e11b815260040160405180910390fd5b60038160ff1611156109885760405163673f032f60e11b815260040160405180910390fd5b60075463ffffffff166001036109d15763ffffffff82161515806109ae575060ff811615155b156109cc57604051637d2338d360e11b815260040160405180910390fd5b610a5d565b63ffffffff821615806109fc575063ffffffff82165f9081526003602052604090206008015460ff16155b15610a1a57604051637eae98fd60e11b815260040160405180910390fd5b63ffffffff82165f90815260046020908152604080832060ff80861685529252909120541615610a5d5760405163e168e4db60e01b815260040160405180910390fd5b600780545f9163ffffffff9091169082610a768361134b565b82546101009290920a63ffffffff8181021990931691831602179091556001600160a01b0386165f908152600260208181526040808420805463ffffffff191687871690811790915584526003909152909120805492871664ffffffffff19909316831764010000000060ff8816021781556006549181019190915542600782015560088101805460ff1916600117905591925015610b7f5763ffffffff84165f908152600360205260408120905b6001820154811015610b6f5782600101826001018281548110610b4a57610b4a611337565b5f91825260208083209091015483546001818101865594845291909220015501610b25565b50610b7d8260010185610ebb565b505b63ffffffff841615610bb95763ffffffff84165f90815260046020908152604080832060ff871684529091529020805460ff191660011790555b60405160ff841681526001600160a01b0386169063ffffffff80871691908516907f516fcfc3d200d98182d9c53e5a7c08897adfa001276a5eae7b627e56925ae3e89060200160405180910390a45050505050565b63ffffffff82165f90815260036020526040812060080154819060ff161580610c4f575063ffffffff83165f9081526003602052604090206008015460ff16155b15610c5e57505f905080610920565b8263ffffffff168463ffffffff1603610c7d57506001905060ff610920565b63ffffffff8085165f908152600360205260408082209286168252812090610ca760018401610d72565b90505f610cb683600101610d72565b9050818111610cce575f5f9550955050505050610920565b5f5b82811015610d1557610ce58460010182610fd3565b60ff16610cf58660010183610fd3565b60ff1614610d0d575f5f965096505050505050610920565b600101610cd0565b505f610d248460010184610fd3565b60019a909950975050505050505050565b610d3d610e15565b6001600160a01b038116610d6657604051631e4fbdf760e01b81525f60048201526024016103dd565b610d6f81610e42565b50565b80545f908103610d8357505f919050565b8154610d9190600190611311565b610d9c90602061136f565b90505f8260018480549050610db19190611311565b81548110610dc157610dc1611337565b5f91825260208220015491505b6020811015610e0e57818160208110610de957610de9611337565b1a15610e015782610df9816112f9565b935050610e06565b610e0e565b600101610dce565b5050919050565b6001546001600160a01b0316331461063a5760405163118cdaa760e01b81523360048201526024016103dd565b600180546001600160a01b038381166001600160a01b0319831681179093556040519116919082907f8be0079c531659141344cd1fd0a4f28419497f9722a3daafe3b4186f6b6457e0905f90a35050565b60025f5403610eb557604051633ee5aeb560e01b815260040160405180910390fd5b60025f55565b60038160ff161115610f025760405162461bcd60e51b815260206004820152601060248201526f24b73b30b634b2103837b9b4ba34b7b760811b60448201526064016103dd565b81541580610f2257506020610f1683610d72565b610f20919061139a565b155b15610f425781546001810183555f8381526020902060ff83169101555050565b81545f90610f5290600190611311565b90505f6020610f6085610d72565b610f6a919061139a565b90505f848381548110610f7f57610f7f611337565b5f9182526020822001549150610f9683601f611311565b610fa190600861136f565b8560ff165f1b901b9050808217868581548110610fc057610fc0611337565b5f91825260209091200155505050505050565b5f80610fe06020846113ad565b90505f610fee60208561139a565b85549091508210611003575f92505050610406565b84828154811061101557611015611337565b905f5260205f200154816020811061102f5761102f611337565b1a95945050505050565b6040518060e001604052805f63ffffffff1681526020015f60ff168152602001606081526020015f815260200161106e611081565b81525f6020820181905260409091015290565b60405180608001604052806004906020820280368337509192915050565b803563ffffffff811681146110b2575f5ffd5b919050565b5f602082840312156110c7575f5ffd5b6106a38261109f565b5f5f604083850312156110e1575f5ffd5b6110ea8361109f565b946020939093013593505050565b80356001600160a01b03811681146110b2575f5ffd5b5f6020828403121561111e575f5ffd5b6106a3826110f8565b805f5b600481101561114957815184526020938401939091019060010161112a565b50505050565b602081525f610160820163ffffffff845116602084015260ff602085015116604084015260408401516101406060850152818151808452610180860191506020830193505f92505b808310156111ba5783518252602082019150602084019350600183019250611197565b5060608601516080860152608086015192506111d960a0860184611127565b60a086015161012086015260c0860151801515610140870152925095945050505050565b5f6020828403121561120d575f5ffd5b5035919050565b803560ff811681146110b2575f5ffd5b5f5f5f60608486031215611236575f5ffd5b61123f846110f8565b925061124d6020850161109f565b915061125b60408501611214565b90509250925092565b5f5f60408385031215611275575f5ffd5b61127e8361109f565b915061128c60208401611214565b90509250929050565b5f5f604083850312156112a6575f5ffd5b6112af8361109f565b915061128c6020840161109f565b6020808252600e908201526d155cd95c881b9bdd08199bdd5b9960921b604082015260600190565b634e487b7160e01b5f52601160045260245ffd5b5f6001820161130a5761130a6112e5565b5060010190565b81810381811115610406576104066112e5565b80820180821115610406576104066112e5565b634e487b7160e01b5f52603260045260245ffd5b5f63ffffffff821663ffffffff8103611366576113666112e5565b60010192915050565b8082028115828204841417610406576104066112e5565b634e487b7160e01b5f52601260045260245ffd5b5f826113a8576113a8611386565b500690565b5f826113bb576113bb611386565b50049056fea26469706673582212200e086bd57f37d12c0a28fa7b0be4767b7d8c79ddc0dedd8e4f5958e93f8457ac64736f6c634300081c0033",
  "linkReferences": {},
  "deployedLinkReferences": {},
  "immutableReferences": {},
  "inputSourceName": "project/contracts/core/MLMTree.sol",
  "buildInfoId": "solc-0_8_28-015ad56feb15b326e81c352a0a9049a62f35f6f2"
}