{
  "_format": "hh3-artifact-1",
  "contractName": "NFTOrderBook",
  "sourceName": "contracts/orderBook/OrderBook.sol",
  "abi": [
    {
      "inputs": [
        {
          "internalType": "address",
          "name": "initialOwner",
          "type": "address"
        },
        {
          "internalType": "address",
          "name": "_daiToken",
          "type": "address"
        },
        {
          "internalType": "address",
          "name": "_bvRecipient",
          "type": "address"
        },
        {
          "internalType": "address",
          "name": "_feeRecipient",
          "type": "address"
        },
        {
          "internalType": "uint256",
          "name": "_denom",
          "type": "uint256"
        },
        {
          "internalType": "uint256",
          "name": "_sellerNum",
          "type": "uint256"
        },
        {
          "internalType": "uint256",
          "name": "_bvNum",
          "type": "uint256"
        },
        {
          "internalType": "uint256",
          "name": "_minimumPrice",
          "type": "uint256"
        }
      ],
      "stateMutability": "nonpayable",
      "type": "constructor"
    },
    {
      "inputs": [
        {
          "internalType": "address",
          "name": "owner",
          "type": "address"
        }
      ],
      "name": "OwnableInvalidOwner",
      "type": "error"
    },
    {
      "inputs": [
        {
          "internalType": "address",
          "name": "account",
          "type": "address"
        }
      ],
      "name": "OwnableUnauthorizedAccount",
      "type": "error"
    },
    {
      "inputs": [],
      "name": "ReentrancyGuardReentrantCall",
      "type": "error"
    },
    {
      "anonymous": false,
      "inputs": [
        {
          "indexed": true,
          "internalType": "uint256",
          "name": "listingId",
          "type": "uint256"
        },
        {
          "indexed": true,
          "internalType": "address",
          "name": "seller",
          "type": "address"
        }
      ],
      "name": "ListingCancelled",
      "type": "event"
    },
    {
      "anonymous": false,
      "inputs": [
        {
          "indexed": true,
          "internalType": "uint256",
          "name": "listingId",
          "type": "uint256"
        },
        {
          "indexed": true,
          "internalType": "address",
          "name": "seller",
          "type": "address"
        },
        {
          "indexed": false,
          "internalType": "address",
          "name": "collection",
          "type": "address"
        },
        {
          "indexed": false,
          "internalType": "uint256",
          "name": "tokenId",
          "type": "uint256"
        },
        {
          "indexed": false,
          "internalType": "uint256",
          "name": "sellerPrice",
          "type": "uint256"
        },
        {
          "indexed": false,
          "internalType": "uint256",
          "name": "buyerPrice",
          "type": "uint256"
        },
        {
          "indexed": false,
          "internalType": "uint256",
          "name": "quantity",
          "type": "uint256"
        }
      ],
      "name": "ListingCreated",
      "type": "event"
    },
    {
      "anonymous": false,
      "inputs": [
        {
          "indexed": true,
          "internalType": "uint256",
          "name": "listingId",
          "type": "uint256"
        },
        {
          "indexed": true,
          "internalType": "address",
          "name": "buyer",
          "type": "address"
        }
      ],
      "name": "ListingExecuted",
      "type": "event"
    },
    {
      "anonymous": false,
      "inputs": [
        {
          "indexed": true,
          "internalType": "uint256",
          "name": "listingId",
          "type": "uint256"
        },
        {
          "indexed": true,
          "internalType": "address",
          "name": "seller",
          "type": "address"
        },
        {
          "indexed": true,
          "internalType": "address",
          "name": "buyer",
          "type": "address"
        }
      ],
      "name": "ListingPurchased",
      "type": "event"
    },
    {
      "anonymous": false,
      "inputs": [
        {
          "indexed": true,
          "internalType": "uint256",
          "name": "id",
          "type": "uint256"
        },
        {
          "indexed": true,
          "internalType": "address",
          "name": "buyer",
          "type": "address"
        },
        {
          "indexed": false,
          "internalType": "address",
          "name": "seller",
          "type": "address"
        },
        {
          "indexed": false,
          "internalType": "uint256",
          "name": "quantity",
          "type": "uint256"
        }
      ],
      "name": "OfferAccepted",
      "type": "event"
    },
    {
      "anonymous": false,
      "inputs": [
        {
          "indexed": true,
          "internalType": "uint256",
          "name": "id",
          "type": "uint256"
        },
        {
          "indexed": true,
          "internalType": "address",
          "name": "buyer",
          "type": "address"
        }
      ],
      "name": "OfferCancelled",
      "type": "event"
    },
    {
      "anonymous": false,
      "inputs": [
        {
          "indexed": true,
          "internalType": "uint256",
          "name": "id",
          "type": "uint256"
        },
        {
          "indexed": true,
          "internalType": "address",
          "name": "buyer",
          "type": "address"
        },
        {
          "indexed": false,
          "internalType": "address",
          "name": "collection",
          "type": "address"
        },
        {
          "indexed": false,
          "internalType": "uint256",
          "name": "tokenId",
          "type": "uint256"
        },
        {
          "indexed": false,
          "internalType": "uint256",
          "name": "quantity",
          "type": "uint256"
        },
        {
          "indexed": false,
          "internalType": "uint256",
          "name": "price",
          "type": "uint256"
        }
      ],
      "name": "OfferCreated",
      "type": "event"
    },
    {
      "anonymous": false,
      "inputs": [
        {
          "indexed": true,
          "internalType": "uint256",
          "name": "id",
          "type": "uint256"
        },
        {
          "indexed": true,
          "internalType": "address",
          "name": "buyer",
          "type": "address"
        }
      ],
      "name": "OfferExecuted",
      "type": "event"
    },
    {
      "anonymous": false,
      "inputs": [
        {
          "indexed": true,
          "internalType": "address",
          "name": "previousOwner",
          "type": "address"
        },
        {
          "indexed": true,
          "internalType": "address",
          "name": "newOwner",
          "type": "address"
        }
      ],
      "name": "OwnershipTransferred",
      "type": "event"
    },
    {
      "inputs": [
        {
          "internalType": "uint256",
          "name": "offerId",
          "type": "uint256"
        },
        {
          "internalType": "uint256",
          "name": "quantity",
          "type": "uint256"
        }
      ],
      "name": "acceptOffer",
      "outputs": [],
      "stateMutability": "nonpayable",
      "type": "function"
    },
    {
      "inputs": [
        {
          "internalType": "uint256",
          "name": "listingId",
          "type": "uint256"
        },
        {
          "internalType": "uint256",
          "name": "quantity",
          "type": "uint256"
        },
        {
          "internalType": "address",
          "name": "parent",
          "type": "address"
        }
      ],
      "name": "buyListing",
      "outputs": [],
      "stateMutability": "nonpayable",
      "type": "function"
    },
    {
      "inputs": [],
      "name": "bvRecipient",
      "outputs": [
        {
          "internalType": "address",
          "name": "",
          "type": "address"
        }
      ],
      "stateMutability": "view",
      "type": "function"
    },
    {
      "inputs": [
        {
          "internalType": "uint256",
          "name": "listingId",
          "type": "uint256"
        }
      ],
      "name": "cancelListForSale",
      "outputs": [],
      "stateMutability": "nonpayable",
      "type": "function"
    },
    {
      "inputs": [
        {
          "internalType": "uint256",
          "name": "offerId",
          "type": "uint256"
        }
      ],
      "name": "cancelOffer",
      "outputs": [],
      "stateMutability": "nonpayable",
      "type": "function"
    },
    {
      "inputs": [
        {
          "internalType": "address",
          "name": "",
          "type": "address"
        }
      ],
      "name": "collections",
      "outputs": [
        {
          "internalType": "enum OrderBookStorage.TokenType",
          "name": "tokenType",
          "type": "uint8"
        },
        {
          "internalType": "bool",
          "name": "exists",
          "type": "bool"
        }
      ],
      "stateMutability": "view",
      "type": "function"
    },
    {
      "inputs": [],
      "name": "feeRecipient",
      "outputs": [
        {
          "internalType": "address",
          "name": "",
          "type": "address"
        }
      ],
      "stateMutability": "view",
      "type": "function"
    },
    {
      "inputs": [
        {
          "internalType": "address",
          "name": "collection",
          "type": "address"
        },
        {
          "internalType": "uint256",
          "name": "tokenId",
          "type": "uint256"
        },
        {
          "internalType": "uint256",
          "name": "sellerPrice",
          "type": "uint256"
        },
        {
          "internalType": "uint256",
          "name": "quantity",
          "type": "uint256"
        }
      ],
      "name": "listTokenForSale",
      "outputs": [],
      "stateMutability": "nonpayable",
      "type": "function"
    },
    {
      "inputs": [
        {
          "internalType": "uint256",
          "name": "",
          "type": "uint256"
        }
      ],
      "name": "listings",
      "outputs": [
        {
          "internalType": "address",
          "name": "seller",
          "type": "address"
        },
        {
          "internalType": "address",
          "name": "collection",
          "type": "address"
        },
        {
          "internalType": "uint256",
          "name": "tokenId",
          "type": "uint256"
        },
        {
          "internalType": "uint256",
          "name": "quantity",
          "type": "uint256"
        },
        {
          "internalType": "uint256",
          "name": "sellerPrice",
          "type": "uint256"
        },
        {
          "internalType": "uint256",
          "name": "buyerPrice",
          "type": "uint256"
        },
        {
          "internalType": "bool",
          "name": "active",
          "type": "bool"
        }
      ],
      "stateMutability": "view",
      "type": "function"
    },
    {
      "inputs": [
        {
          "internalType": "uint256",
          "name": "",
          "type": "uint256"
        }
      ],
      "name": "offers",
      "outputs": [
        {
          "internalType": "address",
          "name": "buyer",
          "type": "address"
        },
        {
          "internalType": "address",
          "name": "collection",
          "type": "address"
        },
        {
          "internalType": "uint256",
          "name": "tokenId",
          "type": "uint256"
        },
        {
          "internalType": "uint256",
          "name": "quantity",
          "type": "uint256"
        },
        {
          "internalType": "uint256",
          "name": "sellerPrice",
          "type": "uint256"
        },
        {
          "internalType": "uint256",
          "name": "buyerPrice",
          "type": "uint256"
        },
        {
          "internalType": "bool",
          "name": "active",
          "type": "bool"
        }
      ],
      "stateMutability": "view",
      "type": "function"
    },
    {
      "inputs": [
        {
          "internalType": "address",
          "name": "",
          "type": "address"
        },
        {
          "internalType": "address",
          "name": "",
          "type": "address"
        },
        {
          "internalType": "uint256[]",
          "name": "",
          "type": "uint256[]"
        },
        {
          "internalType": "uint256[]",
          "name": "",
          "type": "uint256[]"
        },
        {
          "internalType": "bytes",
          "name": "",
          "type": "bytes"
        }
      ],
      "name": "onERC1155BatchReceived",
      "outputs": [
        {
          "internalType": "bytes4",
          "name": "",
          "type": "bytes4"
        }
      ],
      "stateMutability": "nonpayable",
      "type": "function"
    },
    {
      "inputs": [
        {
          "internalType": "address",
          "name": "",
          "type": "address"
        },
        {
          "internalType": "address",
          "name": "",
          "type": "address"
        },
        {
          "internalType": "uint256",
          "name": "",
          "type": "uint256"
        },
        {
          "internalType": "uint256",
          "name": "",
          "type": "uint256"
        },
        {
          "internalType": "bytes",
          "name": "",
          "type": "bytes"
        }
      ],
      "name": "onERC1155Received",
      "outputs": [
        {
          "internalType": "bytes4",
          "name": "",
          "type": "bytes4"
        }
      ],
      "stateMutability": "nonpayable",
      "type": "function"
    },
    {
      "inputs": [
        {
          "internalType": "address",
          "name": "",
          "type": "address"
        },
        {
          "internalType": "address",
          "name": "",
          "type": "address"
        },
        {
          "internalType": "uint256",
          "name": "",
          "type": "uint256"
        },
        {
          "internalType": "bytes",
          "name": "",
          "type": "bytes"
        }
      ],
      "name": "onERC721Received",
      "outputs": [
        {
          "internalType": "bytes4",
          "name": "",
          "type": "bytes4"
        }
      ],
      "stateMutability": "nonpayable",
      "type": "function"
    },
    {
      "inputs": [],
      "name": "owner",
      "outputs": [
        {
          "internalType": "address",
          "name": "",
          "type": "address"
        }
      ],
      "stateMutability": "view",
      "type": "function"
    },
    {
      "inputs": [],
      "name": "ownershipFlag",
      "outputs": [
        {
          "internalType": "bool",
          "name": "",
          "type": "bool"
        }
      ],
      "stateMutability": "view",
      "type": "function"
    },
    {
      "inputs": [
        {
          "internalType": "address",
          "name": "",
          "type": "address"
        }
      ],
      "name": "parents",
      "outputs": [
        {
          "internalType": "address",
          "name": "",
          "type": "address"
        }
      ],
      "stateMutability": "view",
      "type": "function"
    },
    {
      "inputs": [
        {
          "internalType": "address",
          "name": "collection",
          "type": "address"
        },
        {
          "internalType": "uint256",
          "name": "tokenId",
          "type": "uint256"
        },
        {
          "internalType": "uint256",
          "name": "quantity",
          "type": "uint256"
        },
        {
          "internalType": "uint256",
          "name": "buyerPrice",
          "type": "uint256"
        },
        {
          "internalType": "address",
          "name": "parent",
          "type": "address"
        }
      ],
      "name": "placeOffer",
      "outputs": [],
      "stateMutability": "nonpayable",
      "type": "function"
    },
    {
      "inputs": [
        {
          "internalType": "address",
          "name": "collection",
          "type": "address"
        },
        {
          "internalType": "uint8",
          "name": "typeNum",
          "type": "uint8"
        }
      ],
      "name": "registerCollection",
      "outputs": [],
      "stateMutability": "nonpayable",
      "type": "function"
    },
    {
      "inputs": [
        {
          "internalType": "address",
          "name": "collection",
          "type": "address"
        }
      ],
      "name": "removeCollection",
      "outputs": [],
      "stateMutability": "nonpayable",
      "type": "function"
    },
    {
      "inputs": [],
      "name": "renounceOwnership",
      "outputs": [],
      "stateMutability": "nonpayable",
      "type": "function"
    },
    {
      "inputs": [
        {
          "internalType": "bytes4",
          "name": "interfaceId",
          "type": "bytes4"
        }
      ],
      "name": "supportsInterface",
      "outputs": [
        {
          "internalType": "bool",
          "name": "",
          "type": "bool"
        }
      ],
      "stateMutability": "view",
      "type": "function"
    },
    {
      "inputs": [
        {
          "internalType": "address",
          "name": "newOwner",
          "type": "address"
        }
      ],
      "name": "transferOwnership",
      "outputs": [],
      "stateMutability": "nonpayable",
      "type": "function"
    }
  ],
  "bytecode": "0x60e060405234801561000f575f5ffd5b5060405161233f38038061233f83398101604081905261002e91610251565b868686868686868e6001600160a01b03811661006457604051631e4fbdf760e01b81525f60048201526024015b60405180910390fd5b61006d816101e7565b50600180556001600160a01b0387166100b35760405162461bcd60e51b8152602060048201526008602482015267646169207a65726f60c01b604482015260640161005b565b6001600160a01b0386166100fc5760405162461bcd60e51b815260206004820152601060248201526f6276526563697069656e74207a65726f60801b604482015260640161005b565b6001600160a01b0385166101465760405162461bcd60e51b8152602060048201526011602482015270666565526563697069656e74207a65726f60781b604482015260640161005b565b835f036101825760405162461bcd60e51b815260206004820152600a60248201526944454e4f4d207a65726f60b01b604482015260640161005b565b600280546001600160a01b03199081166001600160a01b03998a16179091556007805482169689169690961790955560068054909516959096169490941790925560805260a05260c052600555505060016003819055600455506102c7945050505050565b5f80546001600160a01b038381166001600160a01b0319831681178455604051919092169283917f8be0079c531659141344cd1fd0a4f28419497f9722a3daafe3b4186f6b6457e09190a35050565b80516001600160a01b038116811461024c575f5ffd5b919050565b5f5f5f5f5f5f5f5f610100898b031215610269575f5ffd5b61027289610236565b975061028060208a01610236565b965061028e60408a01610236565b955061029c60608a01610236565b60808a015160a08b015160c08c015160e0909c01519a9d999c50979a91999098919650945092505050565b60805160a05160c05161202461031b5f395f818161122c01528181611837015261188b01525f81816111d501528181611813015261186a01525f81816111b10152818161120801526118b001526120245ff3fe608060405234801561000f575f5ffd5b506004361061013d575f3560e01c8063715018a6116100b4578063bcce431f11610079578063bcce431f14610385578063de74e57b14610398578063ef706adf146103f1578063f23a6e6114610404578063f2fde38b14610423578063ff00624514610436575f5ffd5b8063715018a6146102a057806381257bd5146102a85780638a72ea6a146102bb5780638da5cb5b14610356578063bc197c8114610366575f5ffd5b80632ae29c6c116101055780632ae29c6c146102085780633d16f6091461021b5780633f01a2971461022e57806343add2e614610241578063469048401461027a5780635028d05a1461028d575f5ffd5b806301ffc9a714610141578063150b7a021461016957806318b13fb2146101a0578063223fe912146101e057806322f8818f146101f5575b5f5ffd5b61015461014f366004611ace565b61044a565b60405190151581526020015b60405180910390f35b610187610177366004611bc8565b630a85bd0160e11b949350505050565b6040516001600160e01b03199091168152602001610160565b6101c86101ae366004611c2c565b600b6020525f90815260409020546001600160a01b031681565b6040516001600160a01b039091168152602001610160565b6101f36101ee366004611c45565b610480565b005b6006546101c8906001600160a01b031681565b6101f3610216366004611c7f565b610522565b6101f3610229366004611ccb565b6105d7565b6101f361023c366004611ce2565b61071f565b61026c61024f366004611c2c565b60086020525f908152604090205460ff8082169161010090041682565b604051610160929190611d28565b6007546101c8906001600160a01b031681565b6101f361029b366004611c2c565b610a44565b6101f3610a6d565b6101f36102b6366004611d57565b610a80565b6103146102c9366004611ccb565b600a6020525f908152604090208054600182015460028301546003840154600485015460058601546006909601546001600160a01b0395861696959094169492939192909160ff1687565b604080516001600160a01b039889168152979096166020880152948601939093526060850191909152608084015260a0830152151560c082015260e001610160565b5f546001600160a01b03166101c8565b610187610374366004611df7565b63bc197c8160e01b95945050505050565b6101f3610393366004611ea6565b610c7a565b6103146103a6366004611ccb565b60096020525f908152604090208054600182015460028301546003840154600485015460058601546006909601546001600160a01b0395861696959094169492939192909160ff1687565b6101f36103ff366004611ccb565b610d1f565b610187610412366004611edc565b63f23a6e6160e01b95945050505050565b6101f3610431366004611c2c565b610e69565b60075461015490600160a01b900460ff1681565b5f6001600160e01b03198216630271189760e51b148061047a57506301ffc9a760e01b6001600160e01b03198316145b92915050565b610488610efc565b60405180604001604052808260ff1660018111156104a8576104a8611d14565b60018111156104b9576104b9611d14565b8152600160209182018190526001600160a01b0385165f908152600890925260409091208251815491929091839160ff199091169083818111156104ff576104ff611d14565b02179055506020919091015181549015156101000261ff00199091161790555050565b848361052e8282610f28565b6105366110b9565b600554841161058c5760405162461bcd60e51b815260206004820152601f60248201527f7072696365206d757374206265203e3d206d696e696d756d20616d6f756e740060448201526064015b60405180910390fd5b335f6105988787611f44565b90506105a58230836110e3565b5f6105af876111ac565b925050506105c283878c8c8c8c8761127a565b5050506105ce60018055565b50505050505050565b6105df6110b9565b5f81815260096020908152604091829020825160e08101845281546001600160a01b039081168252600183015416928101929092526002810154928201929092526003820154606082015260048201546080820152600582015460a082015260069091015460ff16151560c0820181905233906106935760405162461bcd60e51b81526020600482015260126024820152716c697374696e67206e6f742061637469766560701b6044820152606401610583565b806001600160a01b0316825f01516001600160a01b0316146106eb5760405162461bcd60e51b81526020600482015260116024820152703737ba103634b9ba34b7339037bbb732b960791b6044820152606401610583565b6106f581846113f9565b61071130835f0151846020015185604001518660600151611448565b505061071c60018055565b50565b6107276110b9565b6001600160a01b0381166107765760405162461bcd60e51b8152602060048201526016602482015275496e76616c696420706172656e74206164647265737360501b6044820152606401610583565b5f83815260096020908152604091829020825160e08101845281546001600160a01b039081168252600183015416928101929092526002810154928201929092526003820154606082015260048201546080820152600582015460a082015260069091015460ff16151560c082015282158015906107f8575080606001518311155b6108375760405162461bcd60e51b815260206004820152601060248201526f696e76616c6964207175616e7469747960801b6044820152606401610583565b60a081015133905f9061084b908690611f44565b600254604051636eb1769f60e11b81526001600160a01b03858116600483015230602483015292935083929091169063dd62ed3e90604401602060405180830381865afa15801561089e573d5f5f3e3d5ffd5b505050506040513d601f19601f820116820180604052508101906108c29190611f5b565b10156109095760405162461bcd60e51b8152602060048201526016602482015275696e73756666696369656e7420616c6c6f77616e636560501b6044820152606401610583565b8260c0015161094f5760405162461bcd60e51b81526020600482015260126024820152716c697374696e67206e6f742061637469766560701b6044820152606401610583565b82516001600160a01b038084169116036109a45760405162461bcd60e51b815260206004820152601660248201527563616e6e6f7420627579206f776e206c697374696e6760501b6044820152606401610583565b6109af86838761157f565b6109ba8230836110e3565b5f5f5f6109ca8660a001516111ac565b885192955090935091506109e7906109e28a86611f44565b611633565b600654610a01906001600160a01b03166109e28a85611f44565b600754610a1b906001600160a01b03166109e28a84611f44565b610a303086886020015189604001518c611448565b505050505050610a3f60018055565b505050565b610a4c610efc565b6001600160a01b03165f908152600860205260409020805461ff0019169055565b610a75610efc565b610a7e5f6116ee565b565b610a886110b9565b5f828152600a6020908152604091829020825160e08101845281546001600160a01b039081168252600183015416928101929092526002810154928201929092526003820154606082015260048201546080820152600582015460a082015260069091015460ff16151560c08201528115801590610b0a575080606001518211155b610b495760405162461bcd60e51b815260206004820152601060248201526f696e76616c6964207175616e7469747960801b6044820152606401610583565b60c08101513390610b8f5760405162461bcd60e51b815260206004820152601060248201526f6f66666572206e6f742061637469766560801b6044820152606401610583565b81516001600160a01b03808316911603610beb5760405162461bcd60e51b815260206004820152601760248201527f63616e6e6f7420616363657074206f776e206f666665720000000000000000006044820152606401610583565b610c0381835f01518460200151856040015187611448565b610c0e84828561173d565b5f5f5f610c1e8560a001516111ac565b6006549295509093509150610c40906001600160a01b03166109e28886611f44565b600754610c5a906001600160a01b03166109e28885611f44565b610c68846109e28884611f44565b5050505050610c7660018055565b5050565b8381610c868282610f28565b610c8e6110b9565b600554841015610ce05760405162461bcd60e51b815260206004820152601f60248201527f7072696365206d757374206265203e3d206d696e696d756d20616d6f756e74006044820152606401610583565b5f610cea8561180e565b9250339150610cfe905081308a8a89611448565b610d0c81898989868a611909565b5050610d1760018055565b505050505050565b610d276110b9565b5f818152600a6020908152604091829020825160e08101845281546001600160a01b039081168252600183015416928101929092526002810154928201929092526003820154606082015260048201546080820152600582015460a082015260069091015460ff16151560c082018190523390610dd95760405162461bcd60e51b815260206004820152601060248201526f6f66666572206e6f742061637469766560801b6044820152606401610583565b806001600160a01b0316825f01516001600160a01b031614610e2f5760405162461bcd60e51b815260206004820152600f60248201526e3737ba1037b33332b91037bbb732b960891b6044820152606401610583565b610e398382611a45565b5f82606001518360a00151610e4e9190611f44565b9050610e5d835f015182611633565b50505061071c60018055565b610e71610efc565b600754600160a01b900460ff1615155f03610ea557610e8f81611a94565b6007805460ff60a01b1916600160a01b17905550565b60405162461bcd60e51b815260206004820152602660248201527f4f776e6572736869702068617320616c7265616479206265656e207472616e7360448201526519995c9c995960d21b6064820152608401610583565b5f546001600160a01b03163314610a7e5760405163118cdaa760e01b8152336004820152602401610583565b6001600160a01b0382165f9081526008602052604080822081518083019092528054829060ff166001811115610f6057610f60611d14565b6001811115610f7157610f71611d14565b81529054610100900460ff161515602091820152810151909150610fd75760405162461bcd60e51b815260206004820152601a60248201527f636f6c6c656374696f6e206e6f742077686974656c69737465640000000000006044820152606401610583565b5f81516001811115610feb57610feb611d14565b036110405781600114610a3f5760405162461bcd60e51b815260206004820152601960248201527f455243373231207175616e74697479206d7573742062652031000000000000006044820152606401610583565b60018151600181111561105557611055611d14565b03610a3f575f8211610a3f5760405162461bcd60e51b815260206004820152602760248201527f45524331313535207175616e74697479206d75737420626520677265617465726044820152660207468616e20360cc1b6064820152608401610583565b6002600154036110dc57604051633ee5aeb560e01b815260040160405180910390fd5b6002600155565b6002546040516323b872dd60e01b81526001600160a01b0385811660048301528481166024830152604482018490525f9216906323b872dd906064016020604051808303815f875af115801561113b573d5f5f3e3d5ffd5b505050506040513d601f19601f8201168201806040525081019061115f9190611f72565b9050806111a65760405162461bcd60e51b8152602060048201526015602482015274151bdad95b881d1c985b9cd9995c8819985a5b1959605a1b6044820152606401610583565b50505050565b5f80807f00000000000000000000000000000000000000000000000000000000000000006111fa7f000000000000000000000000000000000000000000000000000000000000000086611f44565b6112049190611f91565b92507f00000000000000000000000000000000000000000000000000000000000000006112517f000000000000000000000000000000000000000000000000000000000000000086611f44565b61125b9190611f91565b9150816112688486611fb0565b6112729190611fb0565b929491935050565b6001600160a01b038781165f908152600b6020526040902054166112c6576001600160a01b038781165f908152600b6020526040902080546001600160a01b0319169188169190911790555b600480545f91826112d683611fc3565b909155506040805160e0810182526001600160a01b03808c168083528a821660208085019182528486018c8152606086018c8152608087018b815260a088018d8152600160c08a018181525f8d8152600a909752958b902099518a54908a166001600160a01b0319918216178b559651908a01805491909916961695909517909655905160028701555160038601559251600485015551600584015590516006909201805492151560ff199093169290921790915590519192509082907fa5b221016d244158f755de9c5739283f750d2f7285cde6af0a9e11aafa1d6022906113e7908a908a908a908a906001600160a01b0394909416845260208401929092526040830152606082015260800190565b60405180910390a35050505050505050565b5f81815260096020526040808220600601805460ff19169055516001600160a01b0384169183917f8e25282255ab31897df2b0456bb993ac7f84d376861aefd84901d2d63a7428a29190a35050565b6001600160a01b0383165f9081526008602052604081205460ff169081600181111561147657611476611d14565b036114e557604051632142170760e11b81526001600160a01b0387811660048301528681166024830152604482018590528516906342842e0e906064015f604051808303815f87803b1580156114ca575f5ffd5b505af11580156114dc573d5f5f3e3d5ffd5b50505050610d17565b60018160018111156114f9576114f9611d14565b03610d1757604051637921219560e11b81526001600160a01b0387811660048301528681166024830152604482018590526064820184905260a060848301525f60a483015285169063f242432a9060c4015f604051808303815f87803b158015611561575f5ffd5b505af1158015611573573d5f5f3e3d5ffd5b50505050505050505050565b5f838152600960205260408120600381018054919284926115a1908490611fb0565b909155505060038101545f036115f35760068101805460ff191690556040516001600160a01b0384169085907f6ea9294b0c6ef60bf192cc3e8d6bee0e94bd720d5005b2d93b569ba5696e6476905f90a35b80546040516001600160a01b0380861692169086907fd051777a04c7f4902ea3fb65a38d25c957efd80e08e7155b0df959f5b452fb0f905f90a450505050565b60025460405163a9059cbb60e01b81526001600160a01b038481166004830152602482018490525f92169063a9059cbb906044016020604051808303815f875af1158015611683573d5f5f3e3d5ffd5b505050506040513d601f19601f820116820180604052508101906116a79190611f72565b905080610a3f5760405162461bcd60e51b8152602060048201526015602482015274151bdad95b881d1c985b9cd9995c8819985a5b1959605a1b6044820152606401610583565b5f80546001600160a01b038381166001600160a01b0319831681178455604051919092169283917f8be0079c531659141344cd1fd0a4f28419497f9722a3daafe3b4186f6b6457e09190a35050565b5f838152600a602052604081206003810180549192849261175f908490611fb0565b9091555050805460038201546001600160a01b03909116905f036117bf5760068201805460ff191690556040516001600160a01b0382169086907fe50199fb0756ae48c3f7dc15e34c08a86768e90d19a6ffbae0551d3c4851db37905f90a35b604080516001600160a01b0386811682526020820186905283169187917fc67f49229cab3f614ad390c12432e0e671552dcfd15e24ddc005cf5a01a02135910160405180910390a35050505050565b5f80807f000000000000000000000000000000000000000000000000000000000000000061185c7f000000000000000000000000000000000000000000000000000000000000000086611f44565b6118669190611f91565b92507f00000000000000000000000000000000000000000000000000000000000000007f00000000000000000000000000000000000000000000000000000000000000006118d4827f0000000000000000000000000000000000000000000000000000000000000000611fb0565b6118de9190611fb0565b6118e89086611f44565b6118f29190611f91565b9150816118ff8486611fdb565b6112729190611fdb565b600380545f918261191983611fc3565b909155506040805160e0810182526001600160a01b03808b168083528a821660208085019182528486018c8152606086018a8152608087018d815260a088018d8152600160c08a018181525f8d81526009909752958b902099518a54908a166001600160a01b0319918216178b559651908a01805491909916961695909517909655905160028701555160038601559251600485015551600584015590516006909201805492151560ff199093169290921790915590519192509082907ff0d936e51f712725cd6ba4e040622272bdccabca6df0efe3f26094c1fd25d58090611a34908a908a908a908a908a906001600160a01b03959095168552602085019390935260408401919091526060830152608082015260a00190565b60405180910390a350505050505050565b5f828152600a6020526040808220600601805460ff19169055516001600160a01b0383169184917f1f51377b3e685a0e2419f9bb4ba7c07ec54936353ba3d0fb3c6538dab67662229190a35050565b611a9c610efc565b6001600160a01b038116611ac557604051631e4fbdf760e01b81525f6004820152602401610583565b61071c816116ee565b5f60208284031215611ade575f5ffd5b81356001600160e01b031981168114611af5575f5ffd5b9392505050565b80356001600160a01b0381168114611b12575f5ffd5b919050565b634e487b7160e01b5f52604160045260245ffd5b604051601f8201601f1916810167ffffffffffffffff81118282101715611b5457611b54611b17565b604052919050565b5f82601f830112611b6b575f5ffd5b813567ffffffffffffffff811115611b8557611b85611b17565b611b98601f8201601f1916602001611b2b565b818152846020838601011115611bac575f5ffd5b816020850160208301375f918101602001919091529392505050565b5f5f5f5f60808587031215611bdb575f5ffd5b611be485611afc565b9350611bf260208601611afc565b925060408501359150606085013567ffffffffffffffff811115611c14575f5ffd5b611c2087828801611b5c565b91505092959194509250565b5f60208284031215611c3c575f5ffd5b611af582611afc565b5f5f60408385031215611c56575f5ffd5b611c5f83611afc565b9150602083013560ff81168114611c74575f5ffd5b809150509250929050565b5f5f5f5f5f60a08688031215611c93575f5ffd5b611c9c86611afc565b9450602086013593506040860135925060608601359150611cbf60808701611afc565b90509295509295909350565b5f60208284031215611cdb575f5ffd5b5035919050565b5f5f5f60608486031215611cf4575f5ffd5b8335925060208401359150611d0b60408501611afc565b90509250925092565b634e487b7160e01b5f52602160045260245ffd5b6040810160028410611d4857634e487b7160e01b5f52602160045260245ffd5b92815290151560209091015290565b5f5f60408385031215611d68575f5ffd5b50508035926020909101359150565b5f82601f830112611d86575f5ffd5b813567ffffffffffffffff811115611da057611da0611b17565b8060051b611db060208201611b2b565b91825260208185018101929081019086841115611dcb575f5ffd5b6020860192505b83831015611ded578235825260209283019290910190611dd2565b9695505050505050565b5f5f5f5f5f60a08688031215611e0b575f5ffd5b611e1486611afc565b9450611e2260208701611afc565b9350604086013567ffffffffffffffff811115611e3d575f5ffd5b611e4988828901611d77565b935050606086013567ffffffffffffffff811115611e65575f5ffd5b611e7188828901611d77565b925050608086013567ffffffffffffffff811115611e8d575f5ffd5b611e9988828901611b5c565b9150509295509295909350565b5f5f5f5f60808587031215611eb9575f5ffd5b611ec285611afc565b966020860135965060408601359560600135945092505050565b5f5f5f5f5f60a08688031215611ef0575f5ffd5b611ef986611afc565b9450611f0760208701611afc565b93506040860135925060608601359150608086013567ffffffffffffffff811115611e8d575f5ffd5b634e487b7160e01b5f52601160045260245ffd5b808202811582820484141761047a5761047a611f30565b5f60208284031215611f6b575f5ffd5b5051919050565b5f60208284031215611f82575f5ffd5b81518015158114611af5575f5ffd5b5f82611fab57634e487b7160e01b5f52601260045260245ffd5b500490565b8181038181111561047a5761047a611f30565b5f60018201611fd457611fd4611f30565b5060010190565b8082018082111561047a5761047a611f3056fea26469706673582212201070b249139f0690079e9f0625f71db528a38fd0cebc387b906202fd2735040e64736f6c634300081c0033",
  "linkReferences": {},
  "deployedLinkReferences": {},
  "immutableReferences": {
    "1959": [
      {
        "length": 32,
        "start": 4529
      },
      {
        "length": 32,
        "start": 4616
      },
      {
        "length": 32,
        "start": 6320
      }
    ],
    "1961": [
      {
        "length": 32,
        "start": 4565
      },
      {
        "length": 32,
        "start": 6163
      },
      {
        "length": 32,
        "start": 6250
      }
    ],
    "1963": [
      {
        "length": 32,
        "start": 4652
      },
      {
        "length": 32,
        "start": 6199
      },
      {
        "length": 32,
        "start": 6283
      }
    ]
  },
  "inputSourceName": "project/contracts/orderBook/OrderBook.sol",
  "buildInfoId": "solc-0_8_28-c75ab4cb054de3799f18ee498cbb8ef506bb4928"
}