{
  "_format": "hh3-artifact-1",
  "contractName": "PriceFeed",
  "sourceName": "contracts/vault/VaultCore/PriceFeed.sol",
  "abi": [
    {
      "inputs": [
        {
          "internalType": "address",
          "name": "_paxgUsdFeed",
          "type": "address"
        },
        {
          "internalType": "address",
          "name": "_wbtcUsdFeed",
          "type": "address"
        },
        {
          "internalType": "address",
          "name": "_daiUsdFeed",
          "type": "address"
        },
        {
          "internalType": "uint8",
          "name": "_decimals",
          "type": "uint8"
        }
      ],
      "stateMutability": "nonpayable",
      "type": "constructor"
    },
    {
      "inputs": [],
      "name": "getPaxgInDai",
      "outputs": [
        {
          "internalType": "uint256",
          "name": "",
          "type": "uint256"
        }
      ],
      "stateMutability": "view",
      "type": "function"
    },
    {
      "inputs": [],
      "name": "getWbtcInDai",
      "outputs": [
        {
          "internalType": "uint256",
          "name": "",
          "type": "uint256"
        }
      ],
      "stateMutability": "view",
      "type": "function"
    }
  ],
  "bytecode": "0x608060405234801561000f575f5ffd5b506040516104a73803806104a783398101604081905261002e916100a1565b5f80546001600160a01b039586166001600160a01b0319918216179091556001805494861694909116939093179092556002805460ff909316600160a01b026001600160a81b031990931691909316171790556100f9565b80516001600160a01b038116811461009c575f5ffd5b919050565b5f5f5f5f608085870312156100b4575f5ffd5b6100bd85610086565b93506100cb60208601610086565b92506100d960408601610086565b9150606085015160ff811681146100ee575f5ffd5b939692955090935050565b6103a1806101065f395ff3fe608060405234801561000f575f5ffd5b5060043610610034575f3560e01c8063583f2fe314610038578063eab87a1914610052575b5f5ffd5b61004061005a565b60405190815260200160405180910390f35b6100406100b3565b6001545f908190610073906001600160a01b03166100c6565b6002549091505f9061008d906001600160a01b03166100c6565b9050806100a283670de0b6b3a76400006101b9565b6100ac91906101d6565b9250505090565b5f80548190610073906001600160a01b03165b5f5f826001600160a01b031663feaf968c6040518163ffffffff1660e01b815260040160a060405180830381865afa158015610104573d5f5f3e3d5ffd5b505050506040513d601f19601f820116820180604052508101906101289190610213565b5050509150505f81136101715760405162461bcd60e51b815260206004820152600d60248201526c496e76616c696420707269636560981b604482015260640160405180910390fd5b60025461018990600160a01b900460ff166012610261565b61019490600a61035d565b61019e90826101b9565b9392505050565b634e487b7160e01b5f52601160045260245ffd5b80820281158282048414176101d0576101d06101a5565b92915050565b5f826101f057634e487b7160e01b5f52601260045260245ffd5b500490565b805169ffffffffffffffffffff8116811461020e575f5ffd5b919050565b5f5f5f5f5f60a08688031215610227575f5ffd5b610230866101f5565b60208701516040880151606089015192975090955093509150610255608087016101f5565b90509295509295909350565b60ff82811682821603908111156101d0576101d06101a5565b6001815b60018411156102b557808504811115610299576102996101a5565b60018416156102a757908102905b60019390931c92800261027e565b935093915050565b5f826102cb575060016101d0565b816102d757505f6101d0565b81600181146102ed57600281146102f757610313565b60019150506101d0565b60ff841115610308576103086101a5565b50506001821b6101d0565b5060208310610133831016604e8410600b8410161715610336575081810a6101d0565b6103425f19848461027a565b805f1904821115610355576103556101a5565b029392505050565b5f61019e60ff8416836102bd56fea264697066735822122062c2eaaa9276e2fefe9570ec95a4fb117b7aa12e19abc1814a159f7d7b7e86a064736f6c634300081c0033",
  "linkReferences": {},
  "deployedLinkReferences": {},
  "immutableReferences": {},
  "inputSourceName": "project/contracts/vault/VaultCore/PriceFeed.sol",
  "buildInfoId": "solc-0_8_28-4b0ce86634ae3c998b02893240ad5175d8775bb7"
}