{
  "_format": "hh3-artifact-1",
  "contractName": "MultiAssetVault",
  "sourceName": "contracts/vault/Vault.sol",
  "abi": [
    {
      "inputs": [
        {
          "internalType": "address",
          "name": "_dai",
          "type": "address"
        },
        {
          "internalType": "address",
          "name": "_paxg",
          "type": "address"
        },
        {
          "internalType": "address",
          "name": "_wbtc",
          "type": "address"
        },
        {
          "internalType": "address",
          "name": "_dnm",
          "type": "address"
        },
        {
          "internalType": "address",
          "name": "_feedAddr",
          "type": "address"
        },
        {
          "internalType": "address",
          "name": "_routerAddr",
          "type": "address"
        },
        {
          "internalType": "address",
          "name": "_admin1",
          "type": "address"
        },
        {
          "internalType": "address",
          "name": "_admin2",
          "type": "address"
        },
        {
          "internalType": "address",
          "name": "_admin3",
          "type": "address"
        },
        {
          "internalType": "address",
          "name": "_feeReceiver",
          "type": "address"
        }
      ],
      "stateMutability": "nonpayable",
      "type": "constructor"
    },
    {
      "inputs": [],
      "name": "EnforcedPause",
      "type": "error"
    },
    {
      "inputs": [],
      "name": "ExpectedPause",
      "type": "error"
    },
    {
      "inputs": [],
      "name": "ReentrancyGuardReentrantCall",
      "type": "error"
    },
    {
      "inputs": [
        {
          "internalType": "address",
          "name": "token",
          "type": "address"
        }
      ],
      "name": "SafeERC20FailedOperation",
      "type": "error"
    },
    {
      "anonymous": false,
      "inputs": [
        {
          "indexed": false,
          "internalType": "address",
          "name": "account",
          "type": "address"
        }
      ],
      "name": "Paused",
      "type": "event"
    },
    {
      "anonymous": false,
      "inputs": [
        {
          "indexed": false,
          "internalType": "address",
          "name": "account",
          "type": "address"
        }
      ],
      "name": "Unpaused",
      "type": "event"
    },
    {
      "inputs": [],
      "name": "ALLOCATION_DAI",
      "outputs": [
        {
          "internalType": "uint256",
          "name": "",
          "type": "uint256"
        }
      ],
      "stateMutability": "view",
      "type": "function"
    },
    {
      "inputs": [],
      "name": "ALLOCATION_PAXG",
      "outputs": [
        {
          "internalType": "uint256",
          "name": "",
          "type": "uint256"
        }
      ],
      "stateMutability": "view",
      "type": "function"
    },
    {
      "inputs": [],
      "name": "ALLOCATION_WBTC",
      "outputs": [
        {
          "internalType": "uint256",
          "name": "",
          "type": "uint256"
        }
      ],
      "stateMutability": "view",
      "type": "function"
    },
    {
      "inputs": [],
      "name": "BPS_DENOMINATOR",
      "outputs": [
        {
          "internalType": "uint256",
          "name": "",
          "type": "uint256"
        }
      ],
      "stateMutability": "view",
      "type": "function"
    },
    {
      "inputs": [],
      "name": "DAI",
      "outputs": [
        {
          "internalType": "address",
          "name": "",
          "type": "address"
        }
      ],
      "stateMutability": "view",
      "type": "function"
    },
    {
      "inputs": [],
      "name": "DNM",
      "outputs": [
        {
          "internalType": "address",
          "name": "",
          "type": "address"
        }
      ],
      "stateMutability": "view",
      "type": "function"
    },
    {
      "inputs": [],
      "name": "FEE_RECEIVER",
      "outputs": [
        {
          "internalType": "address",
          "name": "",
          "type": "address"
        }
      ],
      "stateMutability": "view",
      "type": "function"
    },
    {
      "inputs": [],
      "name": "PAXG",
      "outputs": [
        {
          "internalType": "address",
          "name": "",
          "type": "address"
        }
      ],
      "stateMutability": "view",
      "type": "function"
    },
    {
      "inputs": [],
      "name": "REDEEM_FEE_BPS",
      "outputs": [
        {
          "internalType": "uint256",
          "name": "",
          "type": "uint256"
        }
      ],
      "stateMutability": "view",
      "type": "function"
    },
    {
      "inputs": [],
      "name": "WBTC",
      "outputs": [
        {
          "internalType": "address",
          "name": "",
          "type": "address"
        }
      ],
      "stateMutability": "view",
      "type": "function"
    },
    {
      "inputs": [],
      "name": "WITHDRAWAL_DELAY",
      "outputs": [
        {
          "internalType": "uint256",
          "name": "",
          "type": "uint256"
        }
      ],
      "stateMutability": "view",
      "type": "function"
    },
    {
      "inputs": [],
      "name": "coreContract",
      "outputs": [
        {
          "internalType": "address",
          "name": "",
          "type": "address"
        }
      ],
      "stateMutability": "view",
      "type": "function"
    },
    {
      "inputs": [
        {
          "internalType": "uint256",
          "name": "amountToDeposit",
          "type": "uint256"
        }
      ],
      "name": "deposit",
      "outputs": [],
      "stateMutability": "nonpayable",
      "type": "function"
    },
    {
      "inputs": [],
      "name": "emergencyWithdraw",
      "outputs": [],
      "stateMutability": "nonpayable",
      "type": "function"
    },
    {
      "inputs": [],
      "name": "getPrice",
      "outputs": [
        {
          "internalType": "uint256",
          "name": "",
          "type": "uint256"
        }
      ],
      "stateMutability": "view",
      "type": "function"
    },
    {
      "inputs": [
        {
          "internalType": "address",
          "name": "",
          "type": "address"
        }
      ],
      "name": "isAdmin",
      "outputs": [
        {
          "internalType": "bool",
          "name": "",
          "type": "bool"
        }
      ],
      "stateMutability": "view",
      "type": "function"
    },
    {
      "inputs": [],
      "name": "pause",
      "outputs": [],
      "stateMutability": "nonpayable",
      "type": "function"
    },
    {
      "inputs": [],
      "name": "paused",
      "outputs": [
        {
          "internalType": "bool",
          "name": "",
          "type": "bool"
        }
      ],
      "stateMutability": "view",
      "type": "function"
    },
    {
      "inputs": [
        {
          "internalType": "uint256",
          "name": "amount",
          "type": "uint256"
        }
      ],
      "name": "redeem",
      "outputs": [],
      "stateMutability": "nonpayable",
      "type": "function"
    },
    {
      "inputs": [
        {
          "internalType": "address",
          "name": "coreAddress",
          "type": "address"
        }
      ],
      "name": "setCoreAddress",
      "outputs": [],
      "stateMutability": "nonpayable",
      "type": "function"
    },
    {
      "inputs": [],
      "name": "unpause",
      "outputs": [],
      "stateMutability": "nonpayable",
      "type": "function"
    },
    {
      "inputs": [],
      "name": "withdrawalEnabledTimestamp",
      "outputs": [
        {
          "internalType": "uint256",
          "name": "",
          "type": "uint256"
        }
      ],
      "stateMutability": "view",
      "type": "function"
    },
    {
      "inputs": [
        {
          "internalType": "uint256",
          "name": "amount",
          "type": "uint256"
        }
      ],
      "name": "withrawDai",
      "outputs": [],
      "stateMutability": "nonpayable",
      "type": "function"
    }
  ],
  "bytecode": "0x6101e0604052601e61010081905261012052602861014052629e34006101605261012c610180526127106101a08190526064600255600355610258600455348015610048575f5ffd5b5060405161262e38038061262e833981016040819052610067916101a0565b600180556001600160a01b038a811660805289811660a05288811660c05287811660e052600680546001600160a01b031990811689841617909155600580549091168783161790558181166101c0528a908a908a908a908a908a908a908a908a908a908416156100f4576001600160a01b0384165f908152600860205260409020805460ff191660011790555b6001600160a01b03831615610126576001600160a01b0383165f908152600860205260409020805460ff191660011790555b6001600160a01b03821615610158576001600160a01b0382165f908152600860205260409020805460ff191660011790555b610160516101669042610254565b6009819055505050505050505050505050505050505050505050610279565b80516001600160a01b038116811461019b575f5ffd5b919050565b5f5f5f5f5f5f5f5f5f5f6101408b8d0312156101ba575f5ffd5b6101c38b610185565b99506101d160208c01610185565b98506101df60408c01610185565b97506101ed60608c01610185565b96506101fb60808c01610185565b955061020960a08c01610185565b945061021760c08c01610185565b935061022560e08c01610185565b92506102346101008c01610185565b91506102436101208c01610185565b90509295989b9194979a5092959850565b8082018082111561027357634e487b7160e01b5f52601160045260245ffd5b92915050565b60805160a05160c05160e05161010051610120516101405161016051610180516101a0516101c05161222461040a5f395f81816103390152610fd801525f81816103b50152610f3a01525f81816101fc0152610f5e01525f61015101525f6102b401525f818161028d01526107f401525f818161022301526107bb01525f81816101bd015281816115730152611b2a01525f81816102540152818161085601528181610a6f01528181610adf01528181610d1101528181610e6d015281816111bb0152818161123b01526113b801525f81816102f60152818161082b015281816109a301528181610a1b01528181610c8601528181610e3c0152818161110001528181611180015261132d01525f818161038e015281816104b30152818161055c015281816108f001528181610bf301528181610eaa01528181610fa901528181610ffa01528181611045015281816110c5015281816112a20152818161167b015281816116c601528181611879015281816118a5015281816119f701528181611b7f0152611cc501526122245ff3fe608060405234801561000f575f5ffd5b5060043610610148575f3560e01c806391aad239116100bf578063d5c4d1e411610079578063d5c4d1e41461035b578063db006a751461036e578063db2e21bc14610381578063e0bab4c414610389578063e1a45218146103b0578063e80db5db146103d7575f5ffd5b806391aad239146102d657806398d5fdca146102e95780639ca6da2e146102f1578063b6b55f2514610318578063b9386d331461032b578063d3e78e4d14610334575f5ffd5b80633f4ba83a116101105780633f4ba83a146102455780634dede3de1461024f5780635c975abb146102765780638456cb59146102805780638876cd9b1461028857806389fc9ce1146102af575f5ffd5b80630ebb172a1461014c57806324d7806c146101865780632f3d2fa2146101b857806338fd6bdb146101f75780633c3a02b71461021e575b5f5ffd5b6101737f000000000000000000000000000000000000000000000000000000000000000081565b6040519081526020015b60405180910390f35b6101a8610194366004611f95565b60086020525f908152604090205460ff1681565b604051901515815260200161017d565b6101df7f000000000000000000000000000000000000000000000000000000000000000081565b6040516001600160a01b03909116815260200161017d565b6101737f000000000000000000000000000000000000000000000000000000000000000081565b6101737f000000000000000000000000000000000000000000000000000000000000000081565b61024d6103ea565b005b6101df7f000000000000000000000000000000000000000000000000000000000000000081565b5f5460ff166101a8565b61024d6103fd565b6101737f000000000000000000000000000000000000000000000000000000000000000081565b6101737f000000000000000000000000000000000000000000000000000000000000000081565b61024d6102e4366004611f95565b61040e565b610173610439565b6101df7f000000000000000000000000000000000000000000000000000000000000000081565b61024d610326366004611fc2565b610447565b61017360095481565b6101df7f000000000000000000000000000000000000000000000000000000000000000081565b61024d610369366004611fc2565b6104ec565b61024d61037c366004611fc2565b610580565b61024d61059a565b6101df7f000000000000000000000000000000000000000000000000000000000000000081565b6101737f000000000000000000000000000000000000000000000000000000000000000081565b6007546101df906001600160a01b031681565b6103f33361061a565b6103fb610686565b565b6104063361061a565b6103fb6106d7565b6104173361061a565b600780546001600160a01b0319166001600160a01b0392909216919091179055565b5f610442610713565b905090565b61044f61074b565b610457610775565b5f81116104ab5760405162461bcd60e51b815260206004820152601a60248201527f4465706f73697420616d6f756e74206d757374206265203e203000000000000060448201526064015b60405180910390fd5b6104d73330837f0000000000000000000000000000000000000000000000000000000000000000610798565b6104e0816107b3565b6104e960018055565b50565b6104f53361087c565b6104fd610775565b5f811161054c5760405162461bcd60e51b815260206004820152601d60248201527f5769746864726177616c20616d6f756e74206d757374206265203e203000000060448201526064016104a2565b610555816108d9565b6104e933827f0000000000000000000000000000000000000000000000000000000000000000610b10565b61058861074b565b610590610775565b6104e03382610b29565b6105a33361061a565b6009544210156106115760405162461bcd60e51b815260206004820152603360248201527f456d657267656e6379207769746864726177616c207265737472696374656420604482015272191d5c9a5b99c819dc9858d9481c195c9a5bd9606a1b60648201526084016104a2565b6103fb3361102e565b6001600160a01b0381165f9081526008602052604090205460ff1615156001146104e95760405162461bcd60e51b815260206004820152601960248201527f4e6f7420617574686f72697a65643a206e6f742061646d696e0000000000000060448201526064016104a2565b61068e61125f565b5f805460ff191690557f5db9ee0a495bf2e6ff9c91a7834c1ba4fdd244a5e8aa4e537bd38aeae4b073aa335b6040516001600160a01b03909116815260200160405180910390a1565b6106df610775565b5f805460ff191660011790557f62e78cea01bee320cd4e420270b5ea74000d11b0c9f74754ebdbfc544b05a2586106ba3390565b5f5f61071d611281565b90505f610728611570565b9050805f0361073a5760019250505090565b6107448183611fed565b9250505090565b60026001540361076e57604051633ee5aeb560e01b815260040160405180910390fd5b6002600155565b5f5460ff16156103fb5760405163d93c066560e01b815260040160405180910390fd5b6107ad6001600160a01b0382168585856115f1565b50505050565b5f60646107e07f00000000000000000000000000000000000000000000000000000000000000008461200c565b6107ea9190611fed565b90505f60646108197f00000000000000000000000000000000000000000000000000000000000000008561200c565b6108239190611fed565b9050306108517f00000000000000000000000000000000000000000000000000000000000000008483611658565b6107ad7f00000000000000000000000000000000000000000000000000000000000000008383611658565b6007546001600160a01b038281169116146104e95760405162461bcd60e51b815260206004820152601860248201527f4e6f7420617574686f72697a65643a206e6f7420636f7265000000000000000060448201526064016104a2565b6040516370a0823160e01b81523060048201525f907f00000000000000000000000000000000000000000000000000000000000000006001600160a01b0316906370a0823190602401602060405180830381865afa15801561093d573d5f5f3e3d5ffd5b505050506040513d601f19601f820116820180604052508101906109619190612023565b905081811061096e575050565b5f610979828461203a565b90505f610987600283611fed565b6040516370a0823160e01b815230600482018190529192505f907f00000000000000000000000000000000000000000000000000000000000000006001600160a01b0316906370a0823190602401602060405180830381865afa1580156109f0573d5f5f3e3d5ffd5b505050506040513d601f19601f82011682018060405250810190610a149190612023565b9050610a427f00000000000000000000000000000000000000000000000000000000000000008483856118a3565b5f610a4d848661203a565b6040516370a0823160e01b81523060048201529091505f906001600160a01b037f000000000000000000000000000000000000000000000000000000000000000016906370a0823190602401602060405180830381865afa158015610ab4573d5f5f3e3d5ffd5b505050506040513d601f19601f82011682018060405250810190610ad89190612023565b9050610b067f00000000000000000000000000000000000000000000000000000000000000008383876118a3565b5050505050505050565b610b246001600160a01b0382168484611ad3565b505050565b5f8111610b785760405162461bcd60e51b815260206004820152601960248201527f52656465656d20616d6f756e74206d757374206265203e20300000000000000060448201526064016104a2565b5f610b81611570565b90505f8111610bdc5760405162461bcd60e51b815260206004820152602160248201527f43616e6e6f742072656465656d2066726f6d20616e20656d707479207661756c6044820152601d60fa1b60648201526084016104a2565b6040516370a0823160e01b81523060048201525f907f00000000000000000000000000000000000000000000000000000000000000006001600160a01b0316906370a0823190602401602060405180830381865afa158015610c40573d5f5f3e3d5ffd5b505050506040513d601f19601f82011682018060405250810190610c649190612023565b6040516370a0823160e01b81523060048201529091505f906001600160a01b037f000000000000000000000000000000000000000000000000000000000000000016906370a0823190602401602060405180830381865afa158015610ccb573d5f5f3e3d5ffd5b505050506040513d601f19601f82011682018060405250810190610cef9190612023565b6040516370a0823160e01b81523060048201529091505f906001600160a01b037f000000000000000000000000000000000000000000000000000000000000000016906370a0823190602401602060405180830381865afa158015610d56573d5f5f3e3d5ffd5b505050506040513d601f19601f82011682018060405250810190610d7a9190612023565b90505f84610d88878661200c565b610d929190611fed565b90505f85610da0888661200c565b610daa9190611fed565b90505f86610db8898661200c565b610dc29190611fed565b90505f831180610dd157505f82115b80610ddb57505f81115b610e275760405162461bcd60e51b815260206004820152601c60248201527f526564656d7074696f6e207969656c6473207a65726f2076616c75650000000060448201526064016104a2565b610e318989611b04565b8115610e6257610e627f00000000000000000000000000000000000000000000000000000000000000008330611b7d565b8015610e9357610e937f00000000000000000000000000000000000000000000000000000000000000008230611b7d565b6040516370a0823160e01b81523060048201525f907f00000000000000000000000000000000000000000000000000000000000000006001600160a01b0316906370a0823190602401602060405180830381865afa158015610ef7573d5f5f3e3d5ffd5b505050506040513d601f19601f82011682018060405250810190610f1b9190612023565b90505f610f28888361203a565b90505f610f35828761204d565b90505f7f0000000000000000000000000000000000000000000000000000000000000000610f837f00000000000000000000000000000000000000000000000000000000000000008461200c565b610f8d9190611fed565b90505f610f9a828461203a565b90508015610fcd57610fcd8e827f0000000000000000000000000000000000000000000000000000000000000000610b10565b811561101e5761101e7f0000000000000000000000000000000000000000000000000000000000000000837f0000000000000000000000000000000000000000000000000000000000000000610b10565b5050505050505050505050505050565b6040516370a0823160e01b81523060048201525f907f00000000000000000000000000000000000000000000000000000000000000006001600160a01b0316906370a0823190602401602060405180830381865afa158015611092573d5f5f3e3d5ffd5b505050506040513d601f19601f820116820180604052508101906110b69190612023565b905080156110e9576110e982827f0000000000000000000000000000000000000000000000000000000000000000610b10565b6040516370a0823160e01b81523060048201525f907f00000000000000000000000000000000000000000000000000000000000000006001600160a01b0316906370a0823190602401602060405180830381865afa15801561114d573d5f5f3e3d5ffd5b505050506040513d601f19601f820116820180604052508101906111719190612023565b905080156111a4576111a483827f0000000000000000000000000000000000000000000000000000000000000000610b10565b6040516370a0823160e01b81523060048201525f907f00000000000000000000000000000000000000000000000000000000000000006001600160a01b0316906370a0823190602401602060405180830381865afa158015611208573d5f5f3e3d5ffd5b505050506040513d601f19601f8201168201806040525081019061122c9190612023565b905080156107ad576107ad84827f0000000000000000000000000000000000000000000000000000000000000000610b10565b5f5460ff166103fb57604051638dfc202b60e01b815260040160405180910390fd5b6040516370a0823160e01b81523060048201525f9081906001600160a01b037f000000000000000000000000000000000000000000000000000000000000000016906370a0823190602401602060405180830381865afa1580156112e7573d5f5f3e3d5ffd5b505050506040513d601f19601f8201168201806040525081019061130b9190612023565b6040516370a0823160e01b81523060048201529091505f906001600160a01b037f000000000000000000000000000000000000000000000000000000000000000016906370a0823190602401602060405180830381865afa158015611372573d5f5f3e3d5ffd5b505050506040513d601f19601f820116820180604052508101906113969190612023565b6040516370a0823160e01b81523060048201529091505f906001600160a01b037f000000000000000000000000000000000000000000000000000000000000000016906370a0823190602401602060405180830381865afa1580156113fd573d5f5f3e3d5ffd5b505050506040513d601f19601f820116820180604052508101906114219190612023565b90505f60065f9054906101000a90046001600160a01b03166001600160a01b031663eab87a196040518163ffffffff1660e01b8152600401602060405180830381865afa158015611474573d5f5f3e3d5ffd5b505050506040513d601f19601f820116820180604052508101906114989190612023565b90505f60065f9054906101000a90046001600160a01b03166001600160a01b031663583f2fe36040518163ffffffff1660e01b8152600401602060405180830381865afa1580156114eb573d5f5f3e3d5ffd5b505050506040513d601f19601f8201168201806040525081019061150f9190612023565b9050849550670de0b6b3a76400008285611529919061200c565b6115339190611fed565b61153d908761204d565b9550670de0b6b3a7640000611552828561200c565b61155c9190611fed565b611566908761204d565b9550505050505090565b5f7f00000000000000000000000000000000000000000000000000000000000000006001600160a01b03166318160ddd6040518163ffffffff1660e01b8152600401602060405180830381865afa1580156115cd573d5f5f3e3d5ffd5b505050506040513d601f19601f820116820180604052508101906104429190612023565b6040516001600160a01b0384811660248301528381166044830152606482018390526107ad9186918216906323b872dd906084015b604051602081830303815290604052915060e01b6020820180516001600160e01b038381831617835250505050611e4f565b5f60045442611667919061204d565b6005549091506116a4906001600160a01b037f00000000000000000000000000000000000000000000000000000000000000008116911685611ebb565b6040805160028082526060820183525f926020830190803683370190505090507f0000000000000000000000000000000000000000000000000000000000000000815f815181106116f7576116f7612074565b60200260200101906001600160a01b031690816001600160a01b031681525050848160018151811061172b5761172b612074565b6001600160a01b03928316602091820292909201015260055460405163d06ca61f60e01b81525f92919091169063d06ca61f9061176e90889086906004016120cb565b5f60405180830381865afa158015611788573d5f5f3e3d5ffd5b505050506040513d5f823e601f3d908101601f191682016040526117af91908101906120eb565b90505f81600183516117c1919061203a565b815181106117d1576117d1612074565b602002602001015190505f6003546002546003546117ef919061203a565b6117f9908461200c565b6118039190611fed565b600554604051635c11d79560e01b81529192506001600160a01b031690635c11d7959061183c908a90859089908c908c906004016121b3565b5f604051808303815f87803b158015611853575f5ffd5b505af1158015611865573d5f5f3e3d5ffd5b5050600554610b0692506001600160a01b037f000000000000000000000000000000000000000000000000000000000000000081169250165f611ebb565b7f00000000000000000000000000000000000000000000000000000000000000006001600160a01b0316846001600160a01b03160361191b5760405162461bcd60e51b8152602060048201526014602482015273546f6b656e20697320616c72656164792044414960601b60448201526064016104a2565b5f83116119765760405162461bcd60e51b8152602060048201526024808201527f416d6f756e74206f7574206d7573742062652067726561746572207468616e206044820152637a65726f60e01b60648201526084016104a2565b5f60045442611985919061204d565b6005549091506119a2906001600160a01b03878116911685611ebb565b6040805160028082526060820183525f9260208301908036833701905050905085815f815181106119d5576119d5612074565b60200260200101906001600160a01b031690816001600160a01b0316815250507f000000000000000000000000000000000000000000000000000000000000000081600181518110611a2957611a29612074565b6001600160a01b039283166020918202929092010152600554604051634401edf760e11b8152911690638803dbee90611a6e90889088908690899089906004016121b3565b5f604051808303815f875af1158015611a89573d5f5f3e3d5ffd5b505050506040513d5f823e601f3d908101601f19168201604052611ab091908101906120eb565b50600554611acb906001600160a01b0388811691165f611ebb565b505050505050565b6040516001600160a01b03838116602483015260448201839052610b2491859182169063a9059cbb90606401611626565b60405163079cc67960e41b81526001600160a01b038381166004830152602482018390527f000000000000000000000000000000000000000000000000000000000000000016906379cc6790906044015f604051808303815f87803b158015611b6b575f5ffd5b505af1158015611acb573d5f5f3e3d5ffd5b7f00000000000000000000000000000000000000000000000000000000000000006001600160a01b0316836001600160a01b031603611bf55760405162461bcd60e51b8152602060048201526014602482015273546f6b656e20697320616c72656164792044414960601b60448201526064016104a2565b5f8211611c445760405162461bcd60e51b815260206004820181905260248201527f416d6f756e74206d7573742062652067726561746572207468616e207a65726f60448201526064016104a2565b5f60045442611c53919061204d565b600554909150611c70906001600160a01b03868116911685611ebb565b6040805160028082526060820183525f9260208301908036833701905050905084815f81518110611ca357611ca3612074565b60200260200101906001600160a01b031690816001600160a01b0316815250507f000000000000000000000000000000000000000000000000000000000000000081600181518110611cf757611cf7612074565b6001600160a01b03928316602091820292909201015260055460405163d06ca61f60e01b81525f92919091169063d06ca61f90611d3a90889086906004016120cb565b5f60405180830381865afa158015611d54573d5f5f3e3d5ffd5b505050506040513d5f823e601f3d908101601f19168201604052611d7b91908101906120eb565b90505f8160018351611d8d919061203a565b81518110611d9d57611d9d612074565b602002602001015190505f600354600254600354611dbb919061203a565b611dc5908461200c565b611dcf9190611fed565b600554604051635c11d79560e01b81529192506001600160a01b031690635c11d79590611e08908a90859089908c908c906004016121b3565b5f604051808303815f87803b158015611e1f575f5ffd5b505af1158015611e31573d5f5f3e3d5ffd5b5050600554610b0692506001600160a01b038b81169250165f611ebb565b5f5f60205f8451602086015f885af180611e6e576040513d5f823e3d81fd5b50505f513d91508115611e85578060011415611e92565b6001600160a01b0384163b155b156107ad57604051635274afe760e01b81526001600160a01b03851660048201526024016104a2565b604080516001600160a01b038416602482015260448082018490528251808303909101815260649091019091526020810180516001600160e01b031663095ea7b360e01b179052611f0c8482611f4a565b6107ad576040516001600160a01b0384811660248301525f6044830152611f4091869182169063095ea7b390606401611626565b6107ad8482611e4f565b5f5f5f5f60205f8651602088015f8a5af192503d91505f519050828015611f8957508115611f7b5780600114611f89565b5f866001600160a01b03163b115b93505050505b92915050565b5f60208284031215611fa5575f5ffd5b81356001600160a01b0381168114611fbb575f5ffd5b9392505050565b5f60208284031215611fd2575f5ffd5b5035919050565b634e487b7160e01b5f52601160045260245ffd5b5f8261200757634e487b7160e01b5f52601260045260245ffd5b500490565b8082028115828204841417611f8f57611f8f611fd9565b5f60208284031215612033575f5ffd5b5051919050565b81810381811115611f8f57611f8f611fd9565b80820180821115611f8f57611f8f611fd9565b634e487b7160e01b5f52604160045260245ffd5b634e487b7160e01b5f52603260045260245ffd5b5f8151808452602084019350602083015f5b828110156120c15781516001600160a01b031686526020958601959091019060010161209a565b5093949350505050565b828152604060208201525f6120e36040830184612088565b949350505050565b5f602082840312156120fb575f5ffd5b815167ffffffffffffffff811115612111575f5ffd5b8201601f81018413612121575f5ffd5b805167ffffffffffffffff81111561213b5761213b612060565b8060051b604051601f19603f830116810181811067ffffffffffffffff8211171561216857612168612060565b604052918252602081840181019290810187841115612185575f5ffd5b6020850194505b838510156121a85784518082526020958601959093500161218c565b509695505050505050565b85815284602082015260a060408201525f6121d160a0830186612088565b6001600160a01b039490941660608301525060800152939250505056fea2646970667358221220f11167df9fe5618a687e7d23db3e4e938632f3867445ac3980d0957662fde1aa64736f6c634300081c0033",
  "linkReferences": {},
  "deployedLinkReferences": {},
  "immutableReferences": {
    "3168": [
      {
        "length": 32,
        "start": 910
      },
      {
        "length": 32,
        "start": 1203
      },
      {
        "length": 32,
        "start": 1372
      },
      {
        "length": 32,
        "start": 2288
      },
      {
        "length": 32,
        "start": 3059
      },
      {
        "length": 32,
        "start": 3754
      },
      {
        "length": 32,
        "start": 4009
      },
      {
        "length": 32,
        "start": 4090
      },
      {
        "length": 32,
        "start": 4165
      },
      {
        "length": 32,
        "start": 4293
      },
      {
        "length": 32,
        "start": 4770
      },
      {
        "length": 32,
        "start": 5755
      },
      {
        "length": 32,
        "start": 5830
      },
      {
        "length": 32,
        "start": 6265
      },
      {
        "length": 32,
        "start": 6309
      },
      {
        "length": 32,
        "start": 6647
      },
      {
        "length": 32,
        "start": 7039
      },
      {
        "length": 32,
        "start": 7365
      }
    ],
    "3170": [
      {
        "length": 32,
        "start": 758
      },
      {
        "length": 32,
        "start": 2091
      },
      {
        "length": 32,
        "start": 2467
      },
      {
        "length": 32,
        "start": 2587
      },
      {
        "length": 32,
        "start": 3206
      },
      {
        "length": 32,
        "start": 3644
      },
      {
        "length": 32,
        "start": 4352
      },
      {
        "length": 32,
        "start": 4480
      },
      {
        "length": 32,
        "start": 4909
      }
    ],
    "3172": [
      {
        "length": 32,
        "start": 596
      },
      {
        "length": 32,
        "start": 2134
      },
      {
        "length": 32,
        "start": 2671
      },
      {
        "length": 32,
        "start": 2783
      },
      {
        "length": 32,
        "start": 3345
      },
      {
        "length": 32,
        "start": 3693
      },
      {
        "length": 32,
        "start": 4539
      },
      {
        "length": 32,
        "start": 4667
      },
      {
        "length": 32,
        "start": 5048
      }
    ],
    "3174": [
      {
        "length": 32,
        "start": 445
      },
      {
        "length": 32,
        "start": 5491
      },
      {
        "length": 32,
        "start": 6954
      }
    ],
    "3177": [
      {
        "length": 32,
        "start": 547
      },
      {
        "length": 32,
        "start": 1979
      }
    ],
    "3180": [
      {
        "length": 32,
        "start": 653
      },
      {
        "length": 32,
        "start": 2036
      }
    ],
    "3183": [
      {
        "length": 32,
        "start": 692
      }
    ],
    "3187": [
      {
        "length": 32,
        "start": 337
      }
    ],
    "3190": [
      {
        "length": 32,
        "start": 508
      },
      {
        "length": 32,
        "start": 3934
      }
    ],
    "3193": [
      {
        "length": 32,
        "start": 949
      },
      {
        "length": 32,
        "start": 3898
      }
    ],
    "3195": [
      {
        "length": 32,
        "start": 825
      },
      {
        "length": 32,
        "start": 4056
      }
    ]
  },
  "inputSourceName": "project/contracts/vault/Vault.sol",
  "buildInfoId": "solc-0_8_28-6f8b64ed540fe4be3cc233ce71d075acd38dc071"
}